{
	"testnet.sol": {
		"LottoToken": {
			"abi": [
				{
					"inputs": [],
					"stateMutability": "nonpayable",
					"type": "constructor"
				},
				{
					"anonymous": false,
					"inputs": [
						{
							"indexed": true,
							"internalType": "address",
							"name": "_owner",
							"type": "address"
						},
						{
							"indexed": true,
							"internalType": "address",
							"name": "_spender",
							"type": "address"
						},
						{
							"indexed": false,
							"internalType": "uint256",
							"name": "_value",
							"type": "uint256"
						}
					],
					"name": "Approval",
					"type": "event"
				},
				{
					"anonymous": false,
					"inputs": [
						{
							"indexed": false,
							"internalType": "address",
							"name": "winner",
							"type": "address"
						},
						{
							"indexed": false,
							"internalType": "uint256",
							"name": "amount",
							"type": "uint256"
						}
					],
					"name": "LotteryWon",
					"type": "event"
				},
				{
					"anonymous": false,
					"inputs": [
						{
							"indexed": true,
							"internalType": "address",
							"name": "_from",
							"type": "address"
						},
						{
							"indexed": true,
							"internalType": "address",
							"name": "_to",
							"type": "address"
						},
						{
							"indexed": false,
							"internalType": "uint256",
							"name": "_value",
							"type": "uint256"
						}
					],
					"name": "Transfer",
					"type": "event"
				},
				{
					"inputs": [
						{
							"internalType": "bool",
							"name": "isEnabled",
							"type": "bool"
						}
					],
					"name": "ChainlinkEnabled",
					"outputs": [],
					"stateMutability": "nonpayable",
					"type": "function"
				},
				{
					"inputs": [],
					"name": "CurrentJackpot",
					"outputs": [
						{
							"internalType": "uint256",
							"name": "",
							"type": "uint256"
						}
					],
					"stateMutability": "view",
					"type": "function"
				},
				{
					"inputs": [
						{
							"internalType": "uint32",
							"name": "NumberofTickets",
							"type": "uint32"
						}
					],
					"name": "EnterDraw",
					"outputs": [],
					"stateMutability": "nonpayable",
					"type": "function"
				},
				{
					"inputs": [
						{
							"internalType": "address",
							"name": "Addr",
							"type": "address"
						}
					],
					"name": "ExcludefromTax",
					"outputs": [],
					"stateMutability": "nonpayable",
					"type": "function"
				},
				{
					"inputs": [
						{
							"internalType": "uint256",
							"name": "key",
							"type": "uint256"
						}
					],
					"name": "ForceEndRound",
					"outputs": [],
					"stateMutability": "nonpayable",
					"type": "function"
				},
				{
					"inputs": [],
					"name": "GasPot",
					"outputs": [
						{
							"internalType": "uint256",
							"name": "",
							"type": "uint256"
						}
					],
					"stateMutability": "view",
					"type": "function"
				},
				{
					"inputs": [],
					"name": "LINKContract",
					"outputs": [
						{
							"internalType": "address",
							"name": "",
							"type": "address"
						}
					],
					"stateMutability": "view",
					"type": "function"
				},
				{
					"inputs": [],
					"name": "LINK_fee",
					"outputs": [
						{
							"internalType": "uint256",
							"name": "",
							"type": "uint256"
						}
					],
					"stateMutability": "view",
					"type": "function"
				},
				{
					"inputs": [],
					"name": "LiquidityPot",
					"outputs": [
						{
							"internalType": "uint256",
							"name": "",
							"type": "uint256"
						}
					],
					"stateMutability": "view",
					"type": "function"
				},
				{
					"inputs": [],
					"name": "MainWallet",
					"outputs": [
						{
							"internalType": "address",
							"name": "",
							"type": "address"
						}
					],
					"stateMutability": "view",
					"type": "function"
				},
				{
					"inputs": [],
					"name": "MaxEntriessperTransaction",
					"outputs": [
						{
							"internalType": "uint64",
							"name": "",
							"type": "uint64"
						}
					],
					"stateMutability": "view",
					"type": "function"
				},
				{
					"inputs": [],
					"name": "Minimum_Entries",
					"outputs": [
						{
							"internalType": "uint64",
							"name": "",
							"type": "uint64"
						}
					],
					"stateMutability": "view",
					"type": "function"
				},
				{
					"inputs": [],
					"name": "NextRoundPot",
					"outputs": [
						{
							"internalType": "uint256",
							"name": "",
							"type": "uint256"
						}
					],
					"stateMutability": "view",
					"type": "function"
				},
				{
					"inputs": [],
					"name": "NextRoundTicketPrice",
					"outputs": [
						{
							"internalType": "uint256",
							"name": "",
							"type": "uint256"
						}
					],
					"stateMutability": "view",
					"type": "function"
				},
				{
					"inputs": [],
					"name": "PauseTrading",
					"outputs": [],
					"stateMutability": "nonpayable",
					"type": "function"
				},
				{
					"inputs": [],
					"name": "ReservesBNB",
					"outputs": [
						{
							"internalType": "uint256",
							"name": "",
							"type": "uint256"
						}
					],
					"stateMutability": "view",
					"type": "function"
				},
				{
					"inputs": [],
					"name": "ReservesToken",
					"outputs": [
						{
							"internalType": "uint256",
							"name": "",
							"type": "uint256"
						}
					],
					"stateMutability": "view",
					"type": "function"
				},
				{
					"inputs": [
						{
							"internalType": "uint256",
							"name": "",
							"type": "uint256"
						}
					],
					"name": "ResultsLog",
					"outputs": [
						{
							"internalType": "uint256",
							"name": "WinningNumber",
							"type": "uint256"
						},
						{
							"internalType": "address",
							"name": "WinningAddress",
							"type": "address"
						},
						{
							"internalType": "uint256",
							"name": "payoutVal",
							"type": "uint256"
						},
						{
							"internalType": "uint256",
							"name": "EndTime",
							"type": "uint256"
						}
					],
					"stateMutability": "view",
					"type": "function"
				},
				{
					"inputs": [],
					"name": "RoundDuration",
					"outputs": [
						{
							"internalType": "uint256",
							"name": "",
							"type": "uint256"
						}
					],
					"stateMutability": "view",
					"type": "function"
				},
				{
					"inputs": [],
					"name": "RoundEntries",
					"outputs": [
						{
							"internalType": "uint64",
							"name": "",
							"type": "uint64"
						}
					],
					"stateMutability": "view",
					"type": "function"
				},
				{
					"inputs": [],
					"name": "RoundNr",
					"outputs": [
						{
							"internalType": "uint64",
							"name": "",
							"type": "uint64"
						}
					],
					"stateMutability": "view",
					"type": "function"
				},
				{
					"inputs": [
						{
							"internalType": "uint64",
							"name": "NewMaxEntriessperTransaction",
							"type": "uint64"
						}
					],
					"name": "SetMaxEntriesperTransaction",
					"outputs": [],
					"stateMutability": "nonpayable",
					"type": "function"
				},
				{
					"inputs": [
						{
							"internalType": "uint64",
							"name": "New_Minimum_Entries",
							"type": "uint64"
						}
					],
					"name": "SetMinEntriesperRound",
					"outputs": [],
					"stateMutability": "nonpayable",
					"type": "function"
				},
				{
					"inputs": [
						{
							"internalType": "uint256",
							"name": "Hours",
							"type": "uint256"
						}
					],
					"name": "SetRoundDuration",
					"outputs": [],
					"stateMutability": "nonpayable",
					"type": "function"
				},
				{
					"inputs": [
						{
							"internalType": "uint256",
							"name": "NewPrice",
							"type": "uint256"
						}
					],
					"name": "SetTicketPrice",
					"outputs": [],
					"stateMutability": "nonpayable",
					"type": "function"
				},
				{
					"inputs": [],
					"name": "StartTime",
					"outputs": [
						{
							"internalType": "uint256",
							"name": "",
							"type": "uint256"
						}
					],
					"stateMutability": "view",
					"type": "function"
				},
				{
					"inputs": [],
					"name": "StartTrading",
					"outputs": [],
					"stateMutability": "nonpayable",
					"type": "function"
				},
				{
					"inputs": [],
					"name": "SwapThreshold",
					"outputs": [
						{
							"internalType": "uint256",
							"name": "",
							"type": "uint256"
						}
					],
					"stateMutability": "view",
					"type": "function"
				},
				{
					"inputs": [],
					"name": "Tax",
					"outputs": [
						{
							"internalType": "uint256",
							"name": "",
							"type": "uint256"
						}
					],
					"stateMutability": "view",
					"type": "function"
				},
				{
					"inputs": [],
					"name": "TaxTokenContract",
					"outputs": [
						{
							"internalType": "address",
							"name": "",
							"type": "address"
						}
					],
					"stateMutability": "view",
					"type": "function"
				},
				{
					"inputs": [],
					"name": "TaxTokenDestination",
					"outputs": [
						{
							"internalType": "address",
							"name": "",
							"type": "address"
						}
					],
					"stateMutability": "view",
					"type": "function"
				},
				{
					"inputs": [],
					"name": "TicketPrice",
					"outputs": [
						{
							"internalType": "uint256",
							"name": "",
							"type": "uint256"
						}
					],
					"stateMutability": "view",
					"type": "function"
				},
				{
					"inputs": [],
					"name": "TotalPaidOutVal",
					"outputs": [
						{
							"internalType": "uint256",
							"name": "",
							"type": "uint256"
						}
					],
					"stateMutability": "view",
					"type": "function"
				},
				{
					"inputs": [
						{
							"internalType": "address",
							"name": "Addr",
							"type": "address"
						}
					],
					"name": "UndoExcludefromTax",
					"outputs": [],
					"stateMutability": "nonpayable",
					"type": "function"
				},
				{
					"inputs": [],
					"name": "WorkHelperWallet",
					"outputs": [
						{
							"internalType": "address",
							"name": "",
							"type": "address"
						}
					],
					"stateMutability": "view",
					"type": "function"
				},
				{
					"inputs": [
						{
							"internalType": "address",
							"name": "",
							"type": "address"
						}
					],
					"name": "_ExcludedFromTax",
					"outputs": [
						{
							"internalType": "bool",
							"name": "",
							"type": "bool"
						}
					],
					"stateMutability": "view",
					"type": "function"
				},
				{
					"inputs": [
						{
							"internalType": "uint256",
							"name": "tokens",
							"type": "uint256"
						}
					],
					"name": "addTokenstoJackpot",
					"outputs": [],
					"stateMutability": "nonpayable",
					"type": "function"
				},
				{
					"inputs": [
						{
							"internalType": "address",
							"name": "_owner",
							"type": "address"
						},
						{
							"internalType": "address",
							"name": "_spender",
							"type": "address"
						}
					],
					"name": "allowance",
					"outputs": [
						{
							"internalType": "uint256",
							"name": "remaining",
							"type": "uint256"
						}
					],
					"stateMutability": "view",
					"type": "function"
				},
				{
					"inputs": [
						{
							"internalType": "address",
							"name": "_spender",
							"type": "address"
						},
						{
							"internalType": "uint256",
							"name": "_value",
							"type": "uint256"
						}
					],
					"name": "approve",
					"outputs": [
						{
							"internalType": "bool",
							"name": "success",
							"type": "bool"
						}
					],
					"stateMutability": "nonpayable",
					"type": "function"
				},
				{
					"inputs": [
						{
							"internalType": "address",
							"name": "_addr",
							"type": "address"
						}
					],
					"name": "balanceOf",
					"outputs": [
						{
							"internalType": "uint256",
							"name": "balance",
							"type": "uint256"
						}
					],
					"stateMutability": "view",
					"type": "function"
				},
				{
					"inputs": [],
					"name": "burnRate",
					"outputs": [
						{
							"internalType": "uint256",
							"name": "",
							"type": "uint256"
						}
					],
					"stateMutability": "view",
					"type": "function"
				},
				{
					"inputs": [],
					"name": "decimals",
					"outputs": [
						{
							"internalType": "uint8",
							"name": "",
							"type": "uint8"
						}
					],
					"stateMutability": "view",
					"type": "function"
				},
				{
					"inputs": [],
					"name": "doWork",
					"outputs": [],
					"stateMutability": "nonpayable",
					"type": "function"
				},
				{
					"inputs": [],
					"name": "getCountDown",
					"outputs": [
						{
							"internalType": "uint256",
							"name": "Days",
							"type": "uint256"
						},
						{
							"internalType": "uint256",
							"name": "Hours",
							"type": "uint256"
						},
						{
							"internalType": "uint256",
							"name": "Minutes",
							"type": "uint256"
						},
						{
							"internalType": "uint256",
							"name": "Seconds",
							"type": "uint256"
						}
					],
					"stateMutability": "view",
					"type": "function"
				},
				{
					"inputs": [],
					"name": "getLINKBalance",
					"outputs": [
						{
							"internalType": "uint256",
							"name": "",
							"type": "uint256"
						}
					],
					"stateMutability": "view",
					"type": "function"
				},
				{
					"inputs": [],
					"name": "getMyEntries",
					"outputs": [
						{
							"internalType": "uint256",
							"name": "",
							"type": "uint256"
						}
					],
					"stateMutability": "view",
					"type": "function"
				},
				{
					"inputs": [],
					"name": "getMyWinningOdds10000",
					"outputs": [
						{
							"internalType": "uint256",
							"name": "",
							"type": "uint256"
						}
					],
					"stateMutability": "view",
					"type": "function"
				},
				{
					"inputs": [],
					"name": "getSecondsRemaining",
					"outputs": [
						{
							"internalType": "uint256",
							"name": "Seconds",
							"type": "uint256"
						}
					],
					"stateMutability": "view",
					"type": "function"
				},
				{
					"inputs": [
						{
							"internalType": "uint256",
							"name": "amountBNB",
							"type": "uint256"
						}
					],
					"name": "getTokenprice",
					"outputs": [
						{
							"internalType": "uint256",
							"name": "",
							"type": "uint256"
						}
					],
					"stateMutability": "view",
					"type": "function"
				},
				{
					"inputs": [],
					"name": "initialSupply",
					"outputs": [
						{
							"internalType": "uint256",
							"name": "",
							"type": "uint256"
						}
					],
					"stateMutability": "view",
					"type": "function"
				},
				{
					"inputs": [
						{
							"internalType": "address",
							"name": "_addr",
							"type": "address"
						}
					],
					"name": "isContract",
					"outputs": [
						{
							"internalType": "bool",
							"name": "",
							"type": "bool"
						}
					],
					"stateMutability": "view",
					"type": "function"
				},
				{
					"inputs": [],
					"name": "isPaused",
					"outputs": [
						{
							"internalType": "bool",
							"name": "",
							"type": "bool"
						}
					],
					"stateMutability": "view",
					"type": "function"
				},
				{
					"inputs": [],
					"name": "name",
					"outputs": [
						{
							"internalType": "string",
							"name": "",
							"type": "string"
						}
					],
					"stateMutability": "view",
					"type": "function"
				},
				{
					"inputs": [],
					"name": "percGastoSwap",
					"outputs": [
						{
							"internalType": "uint256",
							"name": "",
							"type": "uint256"
						}
					],
					"stateMutability": "view",
					"type": "function"
				},
				{
					"inputs": [],
					"name": "randomOutput",
					"outputs": [
						{
							"internalType": "uint256",
							"name": "",
							"type": "uint256"
						}
					],
					"stateMutability": "view",
					"type": "function"
				},
				{
					"inputs": [
						{
							"internalType": "bytes32",
							"name": "requestId",
							"type": "bytes32"
						},
						{
							"internalType": "uint256",
							"name": "randomness",
							"type": "uint256"
						}
					],
					"name": "rawFulfillRandomness",
					"outputs": [],
					"stateMutability": "nonpayable",
					"type": "function"
				},
				{
					"inputs": [],
					"name": "requestIdOutput",
					"outputs": [
						{
							"internalType": "bytes32",
							"name": "",
							"type": "bytes32"
						}
					],
					"stateMutability": "view",
					"type": "function"
				},
				{
					"inputs": [
						{
							"internalType": "uint256",
							"name": "newBurnRate",
							"type": "uint256"
						}
					],
					"name": "setBurnRate",
					"outputs": [],
					"stateMutability": "nonpayable",
					"type": "function"
				},
				{
					"inputs": [
						{
							"internalType": "address",
							"name": "Wallet",
							"type": "address"
						}
					],
					"name": "setHelperContract",
					"outputs": [],
					"stateMutability": "nonpayable",
					"type": "function"
				},
				{
					"inputs": [
						{
							"internalType": "uint256",
							"name": "fee",
							"type": "uint256"
						}
					],
					"name": "setLINKfee",
					"outputs": [],
					"stateMutability": "nonpayable",
					"type": "function"
				},
				{
					"inputs": [
						{
							"internalType": "address",
							"name": "Wallet",
							"type": "address"
						}
					],
					"name": "setMainWallet",
					"outputs": [],
					"stateMutability": "nonpayable",
					"type": "function"
				},
				{
					"inputs": [
						{
							"internalType": "uint256",
							"name": "perctoswap",
							"type": "uint256"
						}
					],
					"name": "setPercGasToSwap",
					"outputs": [],
					"stateMutability": "nonpayable",
					"type": "function"
				},
				{
					"inputs": [
						{
							"internalType": "address",
							"name": "Contract",
							"type": "address"
						}
					],
					"name": "setTaxTokenContract",
					"outputs": [],
					"stateMutability": "nonpayable",
					"type": "function"
				},
				{
					"inputs": [
						{
							"internalType": "address",
							"name": "Contract",
							"type": "address"
						}
					],
					"name": "setTaxTokenDestination",
					"outputs": [],
					"stateMutability": "nonpayable",
					"type": "function"
				},
				{
					"inputs": [
						{
							"internalType": "uint256",
							"name": "TransferTax",
							"type": "uint256"
						}
					],
					"name": "setTokenTax",
					"outputs": [],
					"stateMutability": "nonpayable",
					"type": "function"
				},
				{
					"inputs": [],
					"name": "symbol",
					"outputs": [
						{
							"internalType": "string",
							"name": "",
							"type": "string"
						}
					],
					"stateMutability": "view",
					"type": "function"
				},
				{
					"inputs": [],
					"name": "totalSupply",
					"outputs": [
						{
							"internalType": "uint256",
							"name": "_totalSupply",
							"type": "uint256"
						}
					],
					"stateMutability": "view",
					"type": "function"
				},
				{
					"inputs": [
						{
							"internalType": "address",
							"name": "_to",
							"type": "address"
						},
						{
							"internalType": "uint256",
							"name": "_value",
							"type": "uint256"
						}
					],
					"name": "transfer",
					"outputs": [
						{
							"internalType": "bool",
							"name": "success",
							"type": "bool"
						}
					],
					"stateMutability": "nonpayable",
					"type": "function"
				},
				{
					"inputs": [
						{
							"internalType": "address",
							"name": "_from",
							"type": "address"
						},
						{
							"internalType": "address",
							"name": "_to",
							"type": "address"
						},
						{
							"internalType": "uint256",
							"name": "_value",
							"type": "uint256"
						}
					],
					"name": "transferFrom",
					"outputs": [
						{
							"internalType": "bool",
							"name": "success",
							"type": "bool"
						}
					],
					"stateMutability": "nonpayable",
					"type": "function"
				},
				{
					"inputs": [],
					"name": "usingChainLinkVRF",
					"outputs": [
						{
							"internalType": "bool",
							"name": "",
							"type": "bool"
						}
					],
					"stateMutability": "view",
					"type": "function"
				},
				{
					"stateMutability": "payable",
					"type": "receive"
				}
			],
			"devdoc": {
				"kind": "dev",
				"methods": {},
				"version": 1
			},
			"evm": {
				"assembly": "    /* \"testnet.sol\":10477:32863  contract LottoToken is VRFConsumerBase, ERC20 {... */\n  mstore(0x40, 0xc0)\n    /* \"testnet.sol\":10884:10957  IPancakeRouter02 private _pancakeRouter = IPancakeRouter02(routerAddress) */\n  0x01\n  dup1\n  sload\n  not(sub(shl(0xa0, 0x01), 0x01))\n  swap1\n  dup2\n  and\n    /* \"testnet.sol\":10732:10774  0x9Ac64Cc6e4415144C455BD8E4837Fea55603e5c3 */\n  0x9ac64cc6e4415144c455bd8e4837fea55603e5c3\n    /* \"testnet.sol\":10884:10957  IPancakeRouter02 private _pancakeRouter = IPancakeRouter02(routerAddress) */\n  or\n  swap1\n  swap2\n  sstore\n    /* \"testnet.sol\":11219:11304  address public TaxTokenContract =... */\n  0x04\n  dup1\n  sload\n  dup3\n  and\n    /* \"testnet.sol\":11262:11304  0x78867BbEeF44f2326bF8DDd1941a4439382EF2A7 */\n  0x78867bbeef44f2326bf8ddd1941a4439382ef2a7\n    /* \"testnet.sol\":11219:11304  address public TaxTokenContract =... */\n  or\n  swap1\n  sstore\n    /* \"testnet.sol\":11392:11464  address public LINKContract = 0x84b9B910527Ad5C03A9Ca831909E21e236EA7b06 */\n  0x06\n  dup1\n  sload\n  swap1\n  swap2\n  and\n    /* \"testnet.sol\":11422:11464  0x84b9B910527Ad5C03A9Ca831909E21e236EA7b06 */\n  0x84b9b910527ad5c03a9ca831909e21e236ea7b06\n    /* \"testnet.sol\":11392:11464  address public LINKContract = 0x84b9B910527Ad5C03A9Ca831909E21e236EA7b06 */\n  or\n  swap1\n  sstore\n    /* \"testnet.sol\":12002:12004  10 */\n  0x0a\n    /* \"testnet.sol\":11976:12004  uint256 public burnRate = 10 */\n  dup1\n  dup1\n  sstore\n    /* \"testnet.sol\":12201:12235  uint64 public Minimum_Entries = 50 */\n  0x0c\n  dup1\n  sload\n    /* \"testnet.sol\":12242:12286  uint64 public MaxEntriessperTransaction = 30 */\n  0x1e000000000000003200000000000000000000000000000000\n  sub(shl(0x80, 0x01), 0x01)\n  swap1\n  swap2\n  and\n  or\n  swap1\n  sstore\n    /* \"testnet.sol\":12499:12511  10**decimals */\n  tag_1\n  swap1\n    /* \"testnet.sol\":10673:10675  18 */\n  0x12\n  swap1\n    /* \"testnet.sol\":12499:12511  10**decimals */\n  tag_2\n  jump\t// in\ntag_1:\n    /* \"testnet.sol\":12493:12511  100 * 10**decimals */\n  tag_3\n  swap1\n    /* \"testnet.sol\":12493:12496  100 */\n  0x64\n    /* \"testnet.sol\":12493:12511  100 * 10**decimals */\n  tag_4\n  jump\t// in\ntag_3:\n    /* \"testnet.sol\":12464:12511  uint256 public TicketPrice = 100 * 10**decimals */\n  0x10\n  sstore\n    /* \"testnet.sol\":12556:12567  TicketPrice */\n  sload(0x10)\n    /* \"testnet.sol\":12518:12567  uint256 public NextRoundTicketPrice = TicketPrice */\n  0x11\n  sstore\n    /* \"testnet.sol\":12605:12609  3600 */\n  0x0e10\n    /* \"testnet.sol\":12574:12609  uint256 public RoundDuration = 3600 */\n  0x12\n  sstore\n    /* \"testnet.sol\":12729:12730  5 */\n  0x05\n    /* \"testnet.sol\":12715:12726  TicketPrice */\n  sload(0x10)\n    /* \"testnet.sol\":12715:12730  TicketPrice / 5 */\n  tag_5\n  swap2\n  swap1\n  tag_6\n  jump\t// in\ntag_5:\n    /* \"testnet.sol\":12684:12730  uint256 public SwapThreshold = TicketPrice / 5 */\n  0x15\n  sstore\n    /* \"testnet.sol\":12768:12770  20 */\n  0x14\n    /* \"testnet.sol\":12737:12770  uint256 public percGastoSwap = 20 */\n  0x16\n  sstore\n    /* \"testnet.sol\":13165:13190  1000000000000000000000000 */\n  0xd3c21bcecceda1000000\n    /* \"testnet.sol\":13133:13190  uint256 private __totalSupply = 1000000000000000000000000 */\n  0x1b\n  sstore\n    /* \"testnet.sol\":31439:31440  1 */\n  0x01\n    /* \"testnet.sol\":31423:31440  uint256 nonce = 1 */\n  0x21\n  sstore\n    /* \"testnet.sol\":13851:14995  constructor()... */\n  callvalue\n  dup1\n  iszero\n  tag_7\n  jumpi\n  0x00\n  dup1\n  revert\ntag_7:\n  pop\n    /* \"testnet.sol\":13904:13946  0xa555fC018435bef5A13C6c6870a9d4C11DEC329C */\n  0xa555fc018435bef5a13c6c6870a9d4c11dec329c\n    /* \"https://github.com/smartcontractkit/chainlink/blob/develop/contracts/src/v0.8/VRFConsumerBase.sol\":9306:9338  vrfCoordinator = _vrfCoordinator */\n  0xa0\n  mstore\n    /* \"testnet.sol\":13988:14030  0x84b9B910527Ad5C03A9Ca831909E21e236EA7b06 */\n  0x84b9b910527ad5c03a9ca831909e21e236ea7b06\n    /* \"https://github.com/smartcontractkit/chainlink/blob/develop/contracts/src/v0.8/VRFConsumerBase.sol\":9344:9376  LINK = LinkTokenInterface(_link) */\n  0x80\n  mstore\n    /* \"testnet.sol\":14263:14329  0xcaf3c3727e033261d383b315559476f48034c13b18f8cafed4d871abe5049186 */\n  0xcaf3c3727e033261d383b315559476f48034c13b18f8cafed4d871abe5049186\n    /* \"testnet.sol\":14253:14260  keyHash */\n  0x18\n    /* \"testnet.sol\":14253:14329  keyHash = 0xcaf3c3727e033261d383b315559476f48034c13b18f8cafed4d871abe5049186 */\n  sstore\n    /* \"testnet.sol\":14462:14474  0.2 * 10**18 */\n  0x02c68af0bb140000\n    /* \"testnet.sol\":14451:14459  LINK_fee */\n  0x19\n    /* \"testnet.sol\":14451:14474  LINK_fee = 0.2 * 10**18 */\n  sstore\n    /* \"testnet.sol\":14497:14514  usingChainLinkVRF */\n  0x17\n    /* \"testnet.sol\":14497:14521  usingChainLinkVRF = true */\n  dup1\n  sload\n    /* \"testnet.sol\":14517:14521  true */\n  0x01\n  not(0xff)\n    /* \"testnet.sol\":14497:14521  usingChainLinkVRF = true */\n  swap2\n  dup3\n  and\n  dup2\n  or\n  swap1\n  swap3\n  sstore\n    /* \"testnet.sol\":14560:14573  __totalSupply */\n  sload(0x1b)\n    /* \"testnet.sol\":14546:14556  msg.sender */\n  caller\n  0x00\n    /* \"testnet.sol\":14534:14557  __balanceOf[msg.sender] */\n  dup2\n  dup2\n  mstore\n    /* \"testnet.sol\":14534:14545  __balanceOf */\n  0x1c\n  0x20\n    /* \"testnet.sol\":14534:14557  __balanceOf[msg.sender] */\n  swap1\n  dup2\n  mstore\n  0x40\n  dup1\n  dup4\n  keccak256\n    /* \"testnet.sol\":14534:14573  __balanceOf[msg.sender] = __totalSupply */\n  dup6\n  swap1\n  sstore\n    /* \"testnet.sol\":14584:14597  initialSupply */\n  0x14\n    /* \"testnet.sol\":14584:14613  initialSupply = __totalSupply */\n  swap5\n  swap1\n  swap5\n  sstore\n    /* \"testnet.sol\":14649:14653  this */\n  address\n    /* \"testnet.sol\":14624:14655  _ExcludedFromTax[address(this)] */\n  dup3\n  mstore\n  dup1\n  mstore\n  dup3\n  dup2\n  keccak256\n    /* \"testnet.sol\":14624:14662  _ExcludedFromTax[address(this)] = true */\n  dup1\n  sload\n  dup6\n  and\n  dup7\n  or\n  swap1\n  sstore\n    /* \"testnet.sol\":14673:14701  _ExcludedFromTax[msg.sender] */\n  dup2\n  dup2\n  mstore\n  swap2\n  swap1\n  swap2\n  keccak256\n    /* \"testnet.sol\":14673:14708  _ExcludedFromTax[msg.sender] = true */\n  dup1\n  sload\n  swap1\n  swap3\n  and\n  swap1\n  swap3\n  or\n  swap1\n  sstore\n  0x02\n    /* \"testnet.sol\":14843:14866  MainWallet = msg.sender */\n  dup1\n  sload\n  not(sub(shl(0xa0, 0x01), 0x01))\n  swap1\n  dup2\n  and\n  dup4\n  or\n  swap1\n  swap2\n  sstore\n    /* \"testnet.sol\":14877:14893  WorkHelperWallet */\n  0x03\n    /* \"testnet.sol\":14877:14906  WorkHelperWallet = msg.sender */\n  dup1\n  sload\n  dup3\n  and\n  dup4\n  or\n  swap1\n  sstore\n    /* \"testnet.sol\":14917:14936  TaxTokenDestination */\n  0x05\n    /* \"testnet.sol\":14917:14949  TaxTokenDestination = MainWallet */\n  dup1\n  sload\n  swap1\n  swap2\n  and\n  swap1\n  swap2\n  or\n  swap1\n  sstore\n    /* \"testnet.sol\":14972:14987  block.timestamp */\n  timestamp\n    /* \"testnet.sol\":14960:14969  StartTime */\n  0x13\n    /* \"testnet.sol\":14960:14987  StartTime = block.timestamp */\n  sstore\n    /* \"testnet.sol\":10477:32863  contract LottoToken is VRFConsumerBase, ERC20 {... */\n  jump(tag_16)\n    /* \"#utility.yul\":14:141   */\ntag_13:\n    /* \"#utility.yul\":75:85   */\n  0x4e487b71\n    /* \"#utility.yul\":70:73   */\n  0xe0\n    /* \"#utility.yul\":66:86   */\n  shl\n    /* \"#utility.yul\":63:64   */\n  0x00\n    /* \"#utility.yul\":56:87   */\n  mstore\n    /* \"#utility.yul\":106:110   */\n  0x11\n    /* \"#utility.yul\":103:104   */\n  0x04\n    /* \"#utility.yul\":96:111   */\n  mstore\n    /* \"#utility.yul\":130:134   */\n  0x24\n    /* \"#utility.yul\":127:128   */\n  0x00\n    /* \"#utility.yul\":120:135   */\n  revert\n    /* \"#utility.yul\":146:568   */\ntag_14:\n    /* \"#utility.yul\":235:236   */\n  0x01\n    /* \"#utility.yul\":278:283   */\n  dup2\n    /* \"#utility.yul\":235:236   */\n  dup2\n    /* \"#utility.yul\":292:562   */\ntag_19:\n    /* \"#utility.yul\":313:320   */\n  dup1\n    /* \"#utility.yul\":303:311   */\n  dup6\n    /* \"#utility.yul\":300:321   */\n  gt\n    /* \"#utility.yul\":292:562   */\n  iszero\n  tag_21\n  jumpi\n    /* \"#utility.yul\":372:376   */\n  dup2\n    /* \"#utility.yul\":368:369   */\n  0x00\n    /* \"#utility.yul\":364:370   */\n  not\n    /* \"#utility.yul\":360:377   */\n  div\n    /* \"#utility.yul\":354:358   */\n  dup3\n    /* \"#utility.yul\":351:378   */\n  gt\n    /* \"#utility.yul\":348:401   */\n  iszero\n  tag_23\n  jumpi\n    /* \"#utility.yul\":381:399   */\n  tag_23\n  tag_13\n  jump\t// in\ntag_23:\n    /* \"#utility.yul\":431:438   */\n  dup1\n    /* \"#utility.yul\":421:429   */\n  dup6\n    /* \"#utility.yul\":417:439   */\n  and\n    /* \"#utility.yul\":414:469   */\n  iszero\n  tag_24\n  jumpi\n    /* \"#utility.yul\":451:467   */\n  swap2\n  dup2\n  mul\n  swap2\n    /* \"#utility.yul\":414:469   */\ntag_24:\n    /* \"#utility.yul\":530:552   */\n  swap4\n  dup5\n  shr\n  swap4\n    /* \"#utility.yul\":490:505   */\n  swap1\n  dup1\n  mul\n  swap1\n    /* \"#utility.yul\":292:562   */\n  jump(tag_19)\ntag_21:\n    /* \"#utility.yul\":296:299   */\n  pop\n    /* \"#utility.yul\":146:568   */\n  swap3\n  pop\n  swap3\n  swap1\n  pop\n  jump\t// out\n    /* \"#utility.yul\":573:1379   */\ntag_15:\n    /* \"#utility.yul\":622:627   */\n  0x00\n    /* \"#utility.yul\":652:660   */\n  dup3\n    /* \"#utility.yul\":642:722   */\n  tag_26\n  jumpi\n  pop\n    /* \"#utility.yul\":693:694   */\n  0x01\n    /* \"#utility.yul\":707:712   */\n  jump(tag_25)\n    /* \"#utility.yul\":642:722   */\ntag_26:\n    /* \"#utility.yul\":741:745   */\n  dup2\n    /* \"#utility.yul\":731:807   */\n  tag_27\n  jumpi\n  pop\n    /* \"#utility.yul\":778:779   */\n  0x00\n    /* \"#utility.yul\":792:797   */\n  jump(tag_25)\n    /* \"#utility.yul\":731:807   */\ntag_27:\n    /* \"#utility.yul\":823:827   */\n  dup2\n    /* \"#utility.yul\":841:842   */\n  0x01\n    /* \"#utility.yul\":836:895   */\n  dup2\n  eq\n  tag_29\n  jumpi\n    /* \"#utility.yul\":909:910   */\n  0x02\n    /* \"#utility.yul\":904:1034   */\n  dup2\n  eq\n  tag_30\n  jumpi\n    /* \"#utility.yul\":816:1034   */\n  jump(tag_28)\n    /* \"#utility.yul\":836:895   */\ntag_29:\n    /* \"#utility.yul\":866:867   */\n  0x01\n    /* \"#utility.yul\":857:867   */\n  swap2\n  pop\n    /* \"#utility.yul\":880:885   */\n  pop\n  jump(tag_25)\n    /* \"#utility.yul\":904:1034   */\ntag_30:\n    /* \"#utility.yul\":941:944   */\n  0xff\n    /* \"#utility.yul\":931:939   */\n  dup5\n    /* \"#utility.yul\":928:945   */\n  gt\n    /* \"#utility.yul\":925:968   */\n  iszero\n  tag_32\n  jumpi\n    /* \"#utility.yul\":948:966   */\n  tag_32\n  tag_13\n  jump\t// in\ntag_32:\n  pop\n  pop\n    /* \"#utility.yul\":1004:1005   */\n  0x01\n    /* \"#utility.yul\":990:1006   */\n  dup3\n  shl\n    /* \"#utility.yul\":1019:1024   */\n  jump(tag_25)\n    /* \"#utility.yul\":816:1034   */\ntag_28:\n  pop\n    /* \"#utility.yul\":1118:1120   */\n  0x20\n    /* \"#utility.yul\":1108:1116   */\n  dup4\n    /* \"#utility.yul\":1105:1121   */\n  lt\n    /* \"#utility.yul\":1099:1102   */\n  0x0133\n    /* \"#utility.yul\":1093:1097   */\n  dup4\n    /* \"#utility.yul\":1090:1103   */\n  lt\n    /* \"#utility.yul\":1086:1122   */\n  and\n    /* \"#utility.yul\":1080:1082   */\n  0x4e\n    /* \"#utility.yul\":1070:1078   */\n  dup5\n    /* \"#utility.yul\":1067:1083   */\n  lt\n    /* \"#utility.yul\":1062:1064   */\n  0x0b\n    /* \"#utility.yul\":1056:1060   */\n  dup5\n    /* \"#utility.yul\":1053:1065   */\n  lt\n    /* \"#utility.yul\":1049:1084   */\n  and\n    /* \"#utility.yul\":1046:1123   */\n  or\n    /* \"#utility.yul\":1043:1202   */\n  iszero\n  tag_33\n  jumpi\n  pop\n    /* \"#utility.yul\":1155:1174   */\n  dup2\n  dup2\n  exp\n    /* \"#utility.yul\":1187:1192   */\n  jump(tag_25)\n    /* \"#utility.yul\":1043:1202   */\ntag_33:\n    /* \"#utility.yul\":1234:1268   */\n  tag_34\n    /* \"#utility.yul\":1259:1267   */\n  dup4\n    /* \"#utility.yul\":1253:1257   */\n  dup4\n    /* \"#utility.yul\":1234:1268   */\n  tag_14\n  jump\t// in\ntag_34:\n    /* \"#utility.yul\":1304:1310   */\n  dup1\n    /* \"#utility.yul\":1300:1301   */\n  0x00\n    /* \"#utility.yul\":1296:1302   */\n  not\n    /* \"#utility.yul\":1292:1311   */\n  div\n    /* \"#utility.yul\":1283:1290   */\n  dup3\n    /* \"#utility.yul\":1280:1312   */\n  gt\n    /* \"#utility.yul\":1277:1335   */\n  iszero\n  tag_36\n  jumpi\n    /* \"#utility.yul\":1315:1333   */\n  tag_36\n  tag_13\n  jump\t// in\ntag_36:\n    /* \"#utility.yul\":1353:1373   */\n  mul\n  swap1\n  pop\n    /* \"#utility.yul\":573:1379   */\ntag_25:\n  swap3\n  swap2\n  pop\n  pop\n  jump\t// out\n    /* \"#utility.yul\":1384:1524   */\ntag_2:\n    /* \"#utility.yul\":1442:1447   */\n  0x00\n    /* \"#utility.yul\":1471:1518   */\n  tag_38\n    /* \"#utility.yul\":1512:1516   */\n  0xff\n    /* \"#utility.yul\":1502:1510   */\n  dup5\n    /* \"#utility.yul\":1498:1517   */\n  and\n    /* \"#utility.yul\":1492:1496   */\n  dup4\n    /* \"#utility.yul\":1471:1518   */\n  tag_15\n  jump\t// in\ntag_38:\n    /* \"#utility.yul\":1462:1518   */\n  swap4\n    /* \"#utility.yul\":1384:1524   */\n  swap3\n  pop\n  pop\n  pop\n  jump\t// out\n    /* \"#utility.yul\":1529:1697   */\ntag_4:\n    /* \"#utility.yul\":1569:1576   */\n  0x00\n    /* \"#utility.yul\":1635:1636   */\n  dup2\n    /* \"#utility.yul\":1631:1632   */\n  0x00\n    /* \"#utility.yul\":1627:1633   */\n  not\n    /* \"#utility.yul\":1623:1637   */\n  div\n    /* \"#utility.yul\":1620:1621   */\n  dup4\n    /* \"#utility.yul\":1617:1638   */\n  gt\n    /* \"#utility.yul\":1612:1613   */\n  dup3\n    /* \"#utility.yul\":1605:1614   */\n  iszero\n    /* \"#utility.yul\":1598:1615   */\n  iszero\n    /* \"#utility.yul\":1594:1639   */\n  and\n    /* \"#utility.yul\":1591:1662   */\n  iszero\n  tag_41\n  jumpi\n    /* \"#utility.yul\":1642:1660   */\n  tag_41\n  tag_13\n  jump\t// in\ntag_41:\n  pop\n    /* \"#utility.yul\":1682:1691   */\n  mul\n  swap1\n    /* \"#utility.yul\":1529:1697   */\n  jump\t// out\n    /* \"#utility.yul\":1702:1919   */\ntag_6:\n    /* \"#utility.yul\":1742:1743   */\n  0x00\n    /* \"#utility.yul\":1768:1769   */\n  dup3\n    /* \"#utility.yul\":1758:1890   */\n  tag_43\n  jumpi\n    /* \"#utility.yul\":1812:1822   */\n  0x4e487b71\n    /* \"#utility.yul\":1807:1810   */\n  0xe0\n    /* \"#utility.yul\":1803:1823   */\n  shl\n    /* \"#utility.yul\":1800:1801   */\n  0x00\n    /* \"#utility.yul\":1793:1824   */\n  mstore\n    /* \"#utility.yul\":1847:1851   */\n  0x12\n    /* \"#utility.yul\":1844:1845   */\n  0x04\n    /* \"#utility.yul\":1837:1852   */\n  mstore\n    /* \"#utility.yul\":1875:1879   */\n  0x24\n    /* \"#utility.yul\":1872:1873   */\n  0x00\n    /* \"#utility.yul\":1865:1880   */\n  revert\n    /* \"#utility.yul\":1758:1890   */\ntag_43:\n  pop\n    /* \"#utility.yul\":1904:1913   */\n  div\n  swap1\n    /* \"#utility.yul\":1702:1919   */\n  jump\t// out\ntag_16:\n    /* \"testnet.sol\":10477:32863  contract LottoToken is VRFConsumerBase, ERC20 {... */\n  mload(0x80)\n  mload(0xa0)\n  codecopy(0x00, dataOffset(sub_0), dataSize(sub_0))\n  0x00\n  assignImmutable(\"0x6dbb33232cde86c8a04f90a8bed9fc1c5ef520188a14538d96eb100d69bc2a94\")\n  0x00\n  assignImmutable(\"0xb2219b801710730437d0358146c829b62297a059eceaa0b40b27aea2daecf595\")\n  return(0x00, dataSize(sub_0))\nstop\n\nsub_0: assembly {\n        /* \"testnet.sol\":10477:32863  contract LottoToken is VRFConsumerBase, ERC20 {... */\n      mstore(0x40, 0x80)\n      jumpi(tag_1, lt(calldatasize, 0x04))\n      shr(0xe0, calldataload(0x00))\n      dup1\n      0x77150eee\n      gt\n      tag_73\n      jumpi\n      dup1\n      0xc0616601\n      gt\n      tag_74\n      jumpi\n      dup1\n      0xdd62ed3e\n      gt\n      tag_75\n      jumpi\n      dup1\n      0xf03fa824\n      gt\n      tag_76\n      jumpi\n      dup1\n      0xf03fa824\n      eq\n      tag_68\n      jumpi\n      dup1\n      0xf25790e6\n      eq\n      tag_69\n      jumpi\n      dup1\n      0xf3430c76\n      eq\n      tag_70\n      jumpi\n      dup1\n      0xf7a6340d\n      eq\n      tag_71\n      jumpi\n      dup1\n      0xfc4a4a1e\n      eq\n      tag_72\n      jumpi\n      0x00\n      dup1\n      revert\n    tag_76:\n      dup1\n      0xdd62ed3e\n      eq\n      tag_64\n      jumpi\n      dup1\n      0xdf75bc85\n      eq\n      tag_65\n      jumpi\n      dup1\n      0xe6c6e0f2\n      eq\n      tag_66\n      jumpi\n      dup1\n      0xead0ab27\n      eq\n      tag_67\n      jumpi\n      0x00\n      dup1\n      revert\n    tag_75:\n      dup1\n      0xc9f01b3c\n      gt\n      tag_77\n      jumpi\n      dup1\n      0xc9f01b3c\n      eq\n      tag_59\n      jumpi\n      dup1\n      0xcbf474a8\n      eq\n      tag_60\n      jumpi\n      dup1\n      0xd0a5eb4e\n      eq\n      tag_61\n      jumpi\n      dup1\n      0xd1547639\n      eq\n      tag_62\n      jumpi\n      dup1\n      0xd21d64f1\n      eq\n      tag_63\n      jumpi\n      0x00\n      dup1\n      revert\n    tag_77:\n      dup1\n      0xc0616601\n      eq\n      tag_55\n      jumpi\n      dup1\n      0xc2e799ff\n      eq\n      tag_56\n      jumpi\n      dup1\n      0xc5639cc6\n      eq\n      tag_57\n      jumpi\n      dup1\n      0xc5bd7653\n      eq\n      tag_58\n      jumpi\n      0x00\n      dup1\n      revert\n    tag_74:\n      dup1\n      0xa9059cbb\n      gt\n      tag_78\n      jumpi\n      dup1\n      0xb4228db0\n      gt\n      tag_79\n      jumpi\n      dup1\n      0xb4228db0\n      eq\n      tag_50\n      jumpi\n      dup1\n      0xbd16a09c\n      eq\n      tag_51\n      jumpi\n      dup1\n      0xbed99850\n      eq\n      tag_52\n      jumpi\n      dup1\n      0xbf6a1c0d\n      eq\n      tag_53\n      jumpi\n      dup1\n      0xbfac3003\n      eq\n      tag_54\n      jumpi\n      0x00\n      dup1\n      revert\n    tag_79:\n      dup1\n      0xa9059cbb\n      eq\n      tag_46\n      jumpi\n      dup1\n      0xa9e8fd78\n      eq\n      tag_47\n      jumpi\n      dup1\n      0xac428e7a\n      eq\n      tag_48\n      jumpi\n      dup1\n      0xb187bd26\n      eq\n      tag_49\n      jumpi\n      0x00\n      dup1\n      revert\n    tag_78:\n      dup1\n      0x94985ddd\n      gt\n      tag_80\n      jumpi\n      dup1\n      0x94985ddd\n      eq\n      tag_42\n      jumpi\n      dup1\n      0x95d89b41\n      eq\n      tag_43\n      jumpi\n      dup1\n      0x9ac9f2a0\n      eq\n      tag_44\n      jumpi\n      dup1\n      0xa8e7f7c8\n      eq\n      tag_45\n      jumpi\n      0x00\n      dup1\n      revert\n    tag_80:\n      dup1\n      0x77150eee\n      eq\n      tag_38\n      jumpi\n      dup1\n      0x7ef267c0\n      eq\n      tag_39\n      jumpi\n      dup1\n      0x8cd9e3a3\n      eq\n      tag_40\n      jumpi\n      dup1\n      0x94071d9a\n      eq\n      tag_41\n      jumpi\n      0x00\n      dup1\n      revert\n    tag_73:\n      dup1\n      0x362d04e7\n      gt\n      tag_81\n      jumpi\n      dup1\n      0x52c655f3\n      gt\n      tag_82\n      jumpi\n      dup1\n      0x6b7b15d5\n      gt\n      tag_83\n      jumpi\n      dup1\n      0x6b7b15d5\n      eq\n      tag_33\n      jumpi\n      dup1\n      0x6b8fa66c\n      eq\n      tag_34\n      jumpi\n      dup1\n      0x6e83cc1a\n      eq\n      tag_35\n      jumpi\n      dup1\n      0x6ea405d3\n      eq\n      tag_36\n      jumpi\n      dup1\n      0x70a08231\n      eq\n      tag_37\n      jumpi\n      0x00\n      dup1\n      revert\n    tag_83:\n      dup1\n      0x52c655f3\n      eq\n      tag_29\n      jumpi\n      dup1\n      0x53321c88\n      eq\n      tag_30\n      jumpi\n      dup1\n      0x5a273b79\n      eq\n      tag_31\n      jumpi\n      dup1\n      0x686ac48a\n      eq\n      tag_32\n      jumpi\n      0x00\n      dup1\n      revert\n    tag_82:\n      dup1\n      0x3f180bf5\n      gt\n      tag_84\n      jumpi\n      dup1\n      0x3f180bf5\n      eq\n      tag_24\n      jumpi\n      dup1\n      0x4aded88a\n      eq\n      tag_25\n      jumpi\n      dup1\n      0x4e09d120\n      eq\n      tag_26\n      jumpi\n      dup1\n      0x4f2bfcbf\n      eq\n      tag_27\n      jumpi\n      dup1\n      0x51bd4f8d\n      eq\n      tag_28\n      jumpi\n      0x00\n      dup1\n      revert\n    tag_84:\n      dup1\n      0x362d04e7\n      eq\n      tag_20\n      jumpi\n      dup1\n      0x36f56ba0\n      eq\n      tag_21\n      jumpi\n      dup1\n      0x378dc3dc\n      eq\n      tag_22\n      jumpi\n      dup1\n      0x392b9273\n      eq\n      tag_23\n      jumpi\n      0x00\n      dup1\n      revert\n    tag_81:\n      dup1\n      0x176412c1\n      gt\n      tag_85\n      jumpi\n      dup1\n      0x241f50de\n      gt\n      tag_86\n      jumpi\n      dup1\n      0x241f50de\n      eq\n      tag_15\n      jumpi\n      dup1\n      0x2630dd3a\n      eq\n      tag_16\n      jumpi\n      dup1\n      0x2854d65c\n      eq\n      tag_17\n      jumpi\n      dup1\n      0x313ce567\n      eq\n      tag_18\n      jumpi\n      dup1\n      0x331a7049\n      eq\n      tag_19\n      jumpi\n      0x00\n      dup1\n      revert\n    tag_86:\n      dup1\n      0x176412c1\n      eq\n      tag_11\n      jumpi\n      dup1\n      0x18160ddd\n      eq\n      tag_12\n      jumpi\n      dup1\n      0x189d165e\n      eq\n      tag_13\n      jumpi\n      dup1\n      0x23b872dd\n      eq\n      tag_14\n      jumpi\n      0x00\n      dup1\n      revert\n    tag_85:\n      dup1\n      0x13191a6e\n      gt\n      tag_87\n      jumpi\n      dup1\n      0x13191a6e\n      eq\n      tag_7\n      jumpi\n      dup1\n      0x1567d567\n      eq\n      tag_8\n      jumpi\n      dup1\n      0x1598926e\n      eq\n      tag_9\n      jumpi\n      dup1\n      0x16279055\n      eq\n      tag_10\n      jumpi\n      0x00\n      dup1\n      revert\n    tag_87:\n      dup1\n      0x535169\n      eq\n      tag_3\n      jumpi\n      dup1\n      0x04dc1c4a\n      eq\n      tag_4\n      jumpi\n      dup1\n      0x06fdde03\n      eq\n      tag_5\n      jumpi\n      dup1\n      0x095ea7b3\n      eq\n      tag_6\n      jumpi\n      0x00\n      dup1\n      revert\n    tag_1:\n      jumpi(tag_2, calldatasize)\n      stop\n    tag_2:\n      0x00\n      dup1\n      revert\n        /* \"testnet.sol\":23993:24095  function ExcludefromTax(address Addr) public onlyMain {... */\n    tag_3:\n      callvalue\n      dup1\n      iszero\n      tag_90\n      jumpi\n      0x00\n      dup1\n      revert\n    tag_90:\n      pop\n      tag_91\n      tag_92\n      calldatasize\n      0x04\n      tag_93\n      jump\t// in\n    tag_92:\n      tag_94\n      jump\t// in\n    tag_91:\n      stop\n        /* \"testnet.sol\":24486:24568  function setLINKfee(uint256 fee) public onlyMain {... */\n    tag_4:\n      callvalue\n      dup1\n      iszero\n      tag_95\n      jumpi\n      0x00\n      dup1\n      revert\n    tag_95:\n      pop\n      tag_91\n      tag_97\n      calldatasize\n      0x04\n      tag_98\n      jump\t// in\n    tag_97:\n      tag_99\n      jump\t// in\n        /* \"testnet.sol\":10579:10633  string public constant name = \"Ethernal Lottery Token\" */\n    tag_5:\n      callvalue\n      dup1\n      iszero\n      tag_100\n      jumpi\n      0x00\n      dup1\n      revert\n    tag_100:\n      pop\n      tag_101\n      mload(0x40)\n      dup1\n      0x40\n      add\n      0x40\n      mstore\n      dup1\n      0x16\n      dup2\n      mstore\n      0x20\n      add\n      shl(0x51, 0x22ba3432b93730b6102637ba3a32b93c902a37b5b2b7)\n      dup2\n      mstore\n      pop\n      dup2\n      jump\n    tag_101:\n      mload(0x40)\n      tag_103\n      swap2\n      swap1\n      tag_104\n      jump\t// in\n    tag_103:\n      mload(0x40)\n      dup1\n      swap2\n      sub\n      swap1\n      return\n        /* \"testnet.sol\":18608:18870  function approve(address _spender, uint256 _value)... */\n    tag_6:\n      callvalue\n      dup1\n      iszero\n      tag_105\n      jumpi\n      0x00\n      dup1\n      revert\n    tag_105:\n      pop\n      tag_106\n      tag_107\n      calldatasize\n      0x04\n      tag_108\n      jump\t// in\n    tag_107:\n      tag_109\n      jump\t// in\n    tag_106:\n      mload(0x40)\n        /* \"#utility.yul\":1823:1837   */\n      swap1\n      iszero\n        /* \"#utility.yul\":1816:1838   */\n      iszero\n        /* \"#utility.yul\":1798:1839   */\n      dup2\n      mstore\n        /* \"#utility.yul\":1786:1788   */\n      0x20\n        /* \"#utility.yul\":1771:1789   */\n      add\n        /* \"testnet.sol\":18608:18870  function approve(address _spender, uint256 _value)... */\n      tag_103\n        /* \"#utility.yul\":1658:1845   */\n      jump\n        /* \"testnet.sol\":21976:22167  function getMyEntries() public view returns (uint256) {... */\n    tag_7:\n      callvalue\n      dup1\n      iszero\n      tag_112\n      jumpi\n      0x00\n      dup1\n      revert\n    tag_112:\n      pop\n      tag_113\n      tag_114\n      jump\t// in\n    tag_113:\n      mload(0x40)\n        /* \"#utility.yul\":1996:2021   */\n      swap1\n      dup2\n      mstore\n        /* \"#utility.yul\":1984:1986   */\n      0x20\n        /* \"#utility.yul\":1969:1987   */\n      add\n        /* \"testnet.sol\":21976:22167  function getMyEntries() public view returns (uint256) {... */\n      tag_103\n        /* \"#utility.yul\":1850:2027   */\n      jump\n        /* \"testnet.sol\":12574:12609  uint256 public RoundDuration = 3600 */\n    tag_8:\n      callvalue\n      dup1\n      iszero\n      tag_117\n      jumpi\n      0x00\n      dup1\n      revert\n    tag_117:\n      pop\n      tag_113\n      sload(0x12)\n      dup2\n      jump\n        /* \"testnet.sol\":11392:11464  address public LINKContract = 0x84b9B910527Ad5C03A9Ca831909E21e236EA7b06 */\n    tag_9:\n      callvalue\n      dup1\n      iszero\n      tag_121\n      jumpi\n      0x00\n      dup1\n      revert\n    tag_121:\n      pop\n      sload(0x06)\n      tag_122\n      swap1\n      sub(shl(0xa0, 0x01), 0x01)\n      and\n      dup2\n      jump\n    tag_122:\n      mload(0x40)\n      sub(shl(0xa0, 0x01), 0x01)\n        /* \"#utility.yul\":2196:2228   */\n      swap1\n      swap2\n      and\n        /* \"#utility.yul\":2178:2229   */\n      dup2\n      mstore\n        /* \"#utility.yul\":2166:2168   */\n      0x20\n        /* \"#utility.yul\":2151:2169   */\n      add\n        /* \"testnet.sol\":11392:11464  address public LINKContract = 0x84b9B910527Ad5C03A9Ca831909E21e236EA7b06 */\n      tag_103\n        /* \"#utility.yul\":2032:2235   */\n      jump\n        /* \"testnet.sol\":18256:18532  function isContract(address _addr) public view returns (bool) {... */\n    tag_10:\n      callvalue\n      dup1\n      iszero\n      tag_126\n      jumpi\n      0x00\n      dup1\n      revert\n    tag_126:\n      pop\n      tag_106\n      tag_128\n      calldatasize\n      0x04\n      tag_93\n      jump\t// in\n    tag_128:\n        /* \"testnet.sol\":18425:18443  extcodesize(_addr) */\n      extcodesize\n        /* \"testnet.sol\":18512:18524  codeSize > 0 */\n      iszero\n      iszero\n      swap1\n        /* \"testnet.sol\":18256:18532  function isContract(address _addr) public view returns (bool) {... */\n      jump\n        /* \"testnet.sol\":30309:30440  function SetMinEntriesperRound(uint64 New_Minimum_Entries) public onlyMain {... */\n    tag_11:\n      callvalue\n      dup1\n      iszero\n      tag_131\n      jumpi\n      0x00\n      dup1\n      revert\n    tag_131:\n      pop\n      tag_91\n      tag_133\n      calldatasize\n      0x04\n      tag_134\n      jump\t// in\n    tag_133:\n      tag_135\n      jump\t// in\n        /* \"testnet.sol\":15096:15218  function totalSupply() public view override returns (uint256 _totalSupply) {... */\n    tag_12:\n      callvalue\n      dup1\n      iszero\n      tag_136\n      jumpi\n      0x00\n      dup1\n      revert\n    tag_136:\n      pop\n        /* \"testnet.sol\":15197:15210  __totalSupply */\n      sload(0x1b)\n        /* \"testnet.sol\":15096:15218  function totalSupply() public view override returns (uint256 _totalSupply) {... */\n      jump(tag_113)\n        /* \"testnet.sol\":23539:23721  function setBurnRate(uint256 newBurnRate) public onlyMain {... */\n    tag_13:\n      callvalue\n      dup1\n      iszero\n      tag_140\n      jumpi\n      0x00\n      dup1\n      revert\n    tag_140:\n      pop\n      tag_91\n      tag_142\n      calldatasize\n      0x04\n      tag_98\n      jump\t// in\n    tag_142:\n      tag_143\n      jump\t// in\n        /* \"testnet.sol\":17026:18084  function transferFrom(... */\n    tag_14:\n      callvalue\n      dup1\n      iszero\n      tag_144\n      jumpi\n      0x00\n      dup1\n      revert\n    tag_144:\n      pop\n      tag_106\n      tag_146\n      calldatasize\n      0x04\n      tag_147\n      jump\t// in\n    tag_146:\n      tag_148\n      jump\t// in\n        /* \"testnet.sol\":31841:32198  function getTokenprice(uint256 amountBNB) public view returns (uint256) {... */\n    tag_15:\n      callvalue\n      dup1\n      iszero\n      tag_150\n      jumpi\n      0x00\n      dup1\n      revert\n    tag_150:\n      pop\n      tag_113\n      tag_152\n      calldatasize\n      0x04\n      tag_98\n      jump\t// in\n    tag_152:\n      tag_153\n      jump\t// in\n        /* \"testnet.sol\":25131:26498  function doWork() public {... */\n    tag_16:\n      callvalue\n      dup1\n      iszero\n      tag_155\n      jumpi\n      0x00\n      dup1\n      revert\n    tag_155:\n      pop\n      tag_91\n      tag_157\n      jump\t// in\n        /* \"testnet.sol\":31258:31332  function PauseTrading() public onlyMain {... */\n    tag_17:\n      callvalue\n      dup1\n      iszero\n      tag_158\n      jumpi\n      0x00\n      dup1\n      revert\n    tag_158:\n      pop\n      tag_91\n      tag_160\n      jump\t// in\n        /* \"testnet.sol\":10640:10675  uint8 public constant decimals = 18 */\n    tag_18:\n      callvalue\n      dup1\n      iszero\n      tag_161\n      jumpi\n      0x00\n      dup1\n      revert\n    tag_161:\n      pop\n      tag_162\n        /* \"testnet.sol\":10673:10675  18 */\n      0x12\n        /* \"testnet.sol\":10640:10675  uint8 public constant decimals = 18 */\n      dup2\n      jump\n    tag_162:\n      mload(0x40)\n        /* \"#utility.yul\":3162:3166   */\n      0xff\n        /* \"#utility.yul\":3150:3167   */\n      swap1\n      swap2\n      and\n        /* \"#utility.yul\":3132:3168   */\n      dup2\n      mstore\n        /* \"#utility.yul\":3120:3122   */\n      0x20\n        /* \"#utility.yul\":3105:3123   */\n      add\n        /* \"testnet.sol\":10640:10675  uint8 public constant decimals = 18 */\n      tag_103\n        /* \"#utility.yul\":2990:3174   */\n      jump\n        /* \"testnet.sol\":11093:11124  address public WorkHelperWallet */\n    tag_19:\n      callvalue\n      dup1\n      iszero\n      tag_166\n      jumpi\n      0x00\n      dup1\n      revert\n    tag_166:\n      pop\n      sload(0x03)\n      tag_122\n      swap1\n      sub(shl(0xa0, 0x01), 0x01)\n      and\n      dup2\n      jump\n        /* \"testnet.sol\":12385:12415  uint256 public TotalPaidOutVal */\n    tag_20:\n      callvalue\n      dup1\n      iszero\n      tag_170\n      jumpi\n      0x00\n      dup1\n      revert\n    tag_170:\n      pop\n      tag_113\n      sload(0x0f)\n      dup2\n      jump\n        /* \"testnet.sol\":30448:30552  function SetRoundDuration(uint256 Hours) public onlyMain {... */\n    tag_21:\n      callvalue\n      dup1\n      iszero\n      tag_174\n      jumpi\n      0x00\n      dup1\n      revert\n    tag_174:\n      pop\n      tag_91\n      tag_176\n      calldatasize\n      0x04\n      tag_98\n      jump\t// in\n    tag_176:\n      tag_177\n      jump\t// in\n        /* \"testnet.sol\":12647:12675  uint256 public initialSupply */\n    tag_22:\n      callvalue\n      dup1\n      iszero\n      tag_178\n      jumpi\n      0x00\n      dup1\n      revert\n    tag_178:\n      pop\n      tag_113\n      sload(0x14)\n      dup2\n      jump\n        /* \"testnet.sol\":22493:23392  function getCountDown()... */\n    tag_23:\n      callvalue\n      dup1\n      iszero\n      tag_182\n      jumpi\n      0x00\n      dup1\n      revert\n    tag_182:\n      pop\n      tag_183\n      tag_184\n      jump\t// in\n    tag_183:\n      0x40\n      dup1\n      mload\n        /* \"#utility.yul\":3410:3435   */\n      swap5\n      dup6\n      mstore\n        /* \"#utility.yul\":3466:3468   */\n      0x20\n        /* \"#utility.yul\":3451:3469   */\n      dup6\n      add\n        /* \"#utility.yul\":3444:3478   */\n      swap4\n      swap1\n      swap4\n      mstore\n        /* \"#utility.yul\":3494:3512   */\n      swap2\n      dup4\n      add\n        /* \"#utility.yul\":3487:3521   */\n      mstore\n        /* \"#utility.yul\":3552:3554   */\n      0x60\n        /* \"#utility.yul\":3537:3555   */\n      dup3\n      add\n        /* \"#utility.yul\":3530:3564   */\n      mstore\n        /* \"#utility.yul\":3397:3400   */\n      0x80\n        /* \"#utility.yul\":3382:3401   */\n      add\n        /* \"testnet.sol\":22493:23392  function getCountDown()... */\n      tag_103\n        /* \"#utility.yul\":3179:3570   */\n      jump\n        /* \"testnet.sol\":23400:23531  function setTokenTax(uint256 TransferTax) public onlyMain {... */\n    tag_24:\n      callvalue\n      dup1\n      iszero\n      tag_187\n      jumpi\n      0x00\n      dup1\n      revert\n    tag_187:\n      pop\n      tag_91\n      tag_189\n      calldatasize\n      0x04\n      tag_98\n      jump\t// in\n    tag_189:\n      tag_190\n      jump\t// in\n        /* \"testnet.sol\":24103:24210  function UndoExcludefromTax(address Addr) public onlyMain {... */\n    tag_25:\n      callvalue\n      dup1\n      iszero\n      tag_191\n      jumpi\n      0x00\n      dup1\n      revert\n    tag_191:\n      pop\n      tag_91\n      tag_193\n      calldatasize\n      0x04\n      tag_93\n      jump\t// in\n    tag_193:\n      tag_194\n      jump\t// in\n        /* \"testnet.sol\":32243:32270  uint256 public randomOutput */\n    tag_26:\n      callvalue\n      dup1\n      iszero\n      tag_195\n      jumpi\n      0x00\n      dup1\n      revert\n    tag_195:\n      pop\n      tag_113\n      sload(0x23)\n      dup2\n      jump\n        /* \"testnet.sol\":13709:13757  mapping(address => bool) public _ExcludedFromTax */\n    tag_27:\n      callvalue\n      dup1\n      iszero\n      tag_199\n      jumpi\n      0x00\n      dup1\n      revert\n    tag_199:\n      pop\n      tag_106\n      tag_201\n      calldatasize\n      0x04\n      tag_93\n      jump\t// in\n    tag_201:\n      0x20\n      dup1\n      mstore\n      0x00\n      swap1\n      dup2\n      mstore\n      0x40\n      swap1\n      keccak256\n      sload\n      0xff\n      and\n      dup2\n      jump\n        /* \"testnet.sol\":12349:12378  uint256 public CurrentJackpot */\n    tag_28:\n      callvalue\n      dup1\n      iszero\n      tag_204\n      jumpi\n      0x00\n      dup1\n      revert\n    tag_204:\n      pop\n      tag_113\n      sload(0x0e)\n      dup2\n      jump\n        /* \"testnet.sol\":24911:25017  function ChainlinkEnabled(bool isEnabled) public onlyMain {... */\n    tag_29:\n      callvalue\n      dup1\n      iszero\n      tag_208\n      jumpi\n      0x00\n      dup1\n      revert\n    tag_208:\n      pop\n      tag_91\n      tag_210\n      calldatasize\n      0x04\n      tag_211\n      jump\t// in\n    tag_210:\n      tag_212\n      jump\t// in\n        /* \"testnet.sol\":12464:12511  uint256 public TicketPrice = 100 * 10**decimals */\n    tag_30:\n      callvalue\n      dup1\n      iszero\n      tag_213\n      jumpi\n      0x00\n      dup1\n      revert\n    tag_213:\n      pop\n      tag_113\n      sload(0x10)\n      dup2\n      jump\n        /* \"testnet.sol\":11219:11304  address public TaxTokenContract =... */\n    tag_31:\n      callvalue\n      dup1\n      iszero\n      tag_217\n      jumpi\n      0x00\n      dup1\n      revert\n    tag_217:\n      pop\n      sload(0x04)\n      tag_122\n      swap1\n      sub(shl(0xa0, 0x01), 0x01)\n      and\n      dup2\n      jump\n        /* \"testnet.sol\":22294:22485  function getMyWinningOdds10000() public view returns (uint256) {... */\n    tag_32:\n      callvalue\n      dup1\n      iszero\n      tag_221\n      jumpi\n      0x00\n      dup1\n      revert\n    tag_221:\n      pop\n      tag_113\n      tag_223\n      jump\t// in\n        /* \"testnet.sol\":30560:30748  function SetMaxEntriesperTransaction(uint64 NewMaxEntriessperTransaction)... */\n    tag_33:\n      callvalue\n      dup1\n      iszero\n      tag_225\n      jumpi\n      0x00\n      dup1\n      revert\n    tag_225:\n      pop\n      tag_91\n      tag_227\n      calldatasize\n      0x04\n      tag_134\n      jump\t// in\n    tag_227:\n      tag_228\n      jump\t// in\n        /* \"testnet.sol\":32206:32236  bytes32 public requestIdOutput */\n    tag_34:\n      callvalue\n      dup1\n      iszero\n      tag_229\n      jumpi\n      0x00\n      dup1\n      revert\n    tag_229:\n      pop\n      tag_113\n      sload(0x22)\n      dup2\n      jump\n        /* \"testnet.sol\":12201:12235  uint64 public Minimum_Entries = 50 */\n    tag_35:\n      callvalue\n      dup1\n      iszero\n      tag_234\n      jumpi\n      0x00\n      dup1\n      revert\n    tag_234:\n      pop\n      sload(0x0c)\n      tag_235\n      swap1\n      shl(0x80, 0x01)\n      swap1\n      div\n      sub(shl(0x40, 0x01), 0x01)\n      and\n      dup2\n      jump\n    tag_235:\n      mload(0x40)\n      sub(shl(0x40, 0x01), 0x01)\n        /* \"#utility.yul\":4288:4319   */\n      swap1\n      swap2\n      and\n        /* \"#utility.yul\":4270:4320   */\n      dup2\n      mstore\n        /* \"#utility.yul\":4258:4260   */\n      0x20\n        /* \"#utility.yul\":4243:4261   */\n      add\n        /* \"testnet.sol\":12201:12235  uint64 public Minimum_Entries = 50 */\n      tag_103\n        /* \"#utility.yul\":4126:4326   */\n      jump\n        /* \"testnet.sol\":12293:12311  uint256 public Tax */\n    tag_36:\n      callvalue\n      dup1\n      iszero\n      tag_239\n      jumpi\n      0x00\n      dup1\n      revert\n    tag_239:\n      pop\n      tag_113\n      sload(0x0d)\n      dup2\n      jump\n        /* \"testnet.sol\":15275:15441  function balanceOf(address _addr)... */\n    tag_37:\n      callvalue\n      dup1\n      iszero\n      tag_243\n      jumpi\n      0x00\n      dup1\n      revert\n    tag_243:\n      pop\n      tag_113\n      tag_245\n      calldatasize\n      0x04\n      tag_93\n      jump\t// in\n    tag_245:\n      sub(shl(0xa0, 0x01), 0x01)\n        /* \"testnet.sol\":15415:15433  __balanceOf[_addr] */\n      and\n        /* \"testnet.sol\":15375:15390  uint256 balance */\n      0x00\n        /* \"testnet.sol\":15415:15433  __balanceOf[_addr] */\n      swap1\n      dup2\n      mstore\n        /* \"testnet.sol\":15415:15426  __balanceOf */\n      0x1c\n        /* \"testnet.sol\":15415:15433  __balanceOf[_addr] */\n      0x20\n      mstore\n      0x40\n      swap1\n      keccak256\n      sload\n      swap1\n        /* \"testnet.sol\":15275:15441  function balanceOf(address _addr)... */\n      jump\n        /* \"testnet.sol\":24335:24478  function setPercGasToSwap(uint256 perctoswap) public onlyMain {... */\n    tag_38:\n      callvalue\n      dup1\n      iszero\n      tag_248\n      jumpi\n      0x00\n      dup1\n      revert\n    tag_248:\n      pop\n      tag_91\n      tag_250\n      calldatasize\n      0x04\n      tag_98\n      jump\t// in\n    tag_250:\n      tag_251\n      jump\t// in\n        /* \"testnet.sol\":12140:12166  uint64 public RoundEntries */\n    tag_39:\n      callvalue\n      dup1\n      iszero\n      tag_252\n      jumpi\n      0x00\n      dup1\n      revert\n    tag_252:\n      pop\n      sload(0x0c)\n      tag_235\n      swap1\n      sub(shl(0x40, 0x01), 0x01)\n      and\n      dup2\n      jump\n        /* \"testnet.sol\":11845:11872  uint256 public NextRoundPot */\n    tag_40:\n      callvalue\n      dup1\n      iszero\n      tag_256\n      jumpi\n      0x00\n      dup1\n      revert\n    tag_256:\n      pop\n      tag_113\n      sload(0x07)\n      dup2\n      jump\n        /* \"testnet.sol\":19677:19784  function ReservesToken() public view returns (uint256) {... */\n    tag_41:\n      callvalue\n      dup1\n      iszero\n      tag_260\n      jumpi\n      0x00\n      dup1\n      revert\n    tag_260:\n      pop\n        /* \"testnet.sol\":19770:19774  this */\n      address\n        /* \"testnet.sol\":19723:19730  uint256 */\n      0x00\n        /* \"testnet.sol\":19750:19776  __balanceOf[address(this)] */\n      swap1\n      dup2\n      mstore\n        /* \"testnet.sol\":19750:19761  __balanceOf */\n      0x1c\n        /* \"testnet.sol\":19750:19776  __balanceOf[address(this)] */\n      0x20\n      mstore\n      0x40\n      swap1\n      keccak256\n      sload\n        /* \"testnet.sol\":19677:19784  function ReservesToken() public view returns (uint256) {... */\n      jump(tag_113)\n        /* \"https://github.com/smartcontractkit/chainlink/blob/develop/contracts/src/v0.8/VRFConsumerBase.sol\":9576:9783  function rawFulfillRandomness(bytes32 requestId, uint256 randomness) external {... */\n    tag_42:\n      callvalue\n      dup1\n      iszero\n      tag_264\n      jumpi\n      0x00\n      dup1\n      revert\n    tag_264:\n      pop\n      tag_91\n      tag_266\n      calldatasize\n      0x04\n      tag_267\n      jump\t// in\n    tag_266:\n      tag_268\n      jump\t// in\n        /* \"testnet.sol\":10530:10572  string public constant symbol = \"ETHLOTTO\" */\n    tag_43:\n      callvalue\n      dup1\n      iszero\n      tag_269\n      jumpi\n      0x00\n      dup1\n      revert\n    tag_269:\n      pop\n      tag_101\n      mload(0x40)\n      dup1\n      0x40\n      add\n      0x40\n      mstore\n      dup1\n      0x08\n      dup2\n      mstore\n      0x20\n      add\n      shl(0xc0, 0x4554484c4f54544f)\n      dup2\n      mstore\n      pop\n      dup2\n      jump\n        /* \"testnet.sol\":21704:21968  function getSecondsRemaining() public view returns (uint256 Seconds) {... */\n    tag_44:\n      callvalue\n      dup1\n      iszero\n      tag_273\n      jumpi\n      0x00\n      dup1\n      revert\n    tag_273:\n      pop\n      tag_113\n      tag_275\n      jump\t// in\n        /* \"testnet.sol\":19569:19669  function ReservesBNB() public view returns (uint256) {... */\n    tag_45:\n      callvalue\n      dup1\n      iszero\n      tag_277\n      jumpi\n      0x00\n      dup1\n      revert\n    tag_277:\n      pop\n        /* \"testnet.sol\":19640:19661  address(this).balance */\n      selfbalance\n        /* \"testnet.sol\":19569:19669  function ReservesBNB() public view returns (uint256) {... */\n      jump(tag_113)\n        /* \"testnet.sol\":15689:16656  function transfer(address _to, uint256 _value)... */\n    tag_46:\n      callvalue\n      dup1\n      iszero\n      tag_281\n      jumpi\n      0x00\n      dup1\n      revert\n    tag_281:\n      pop\n      tag_106\n      tag_283\n      calldatasize\n      0x04\n      tag_108\n      jump\t// in\n    tag_283:\n      tag_284\n      jump\t// in\n        /* \"testnet.sol\":12242:12286  uint64 public MaxEntriessperTransaction = 30 */\n    tag_47:\n      callvalue\n      dup1\n      iszero\n      tag_286\n      jumpi\n      0x00\n      dup1\n      revert\n    tag_286:\n      pop\n      sload(0x0c)\n      tag_235\n      swap1\n      shl(0xc0, 0x01)\n      swap1\n      div\n      sub(shl(0x40, 0x01), 0x01)\n      and\n      dup2\n      jump\n        /* \"testnet.sol\":22175:22286  function getLINKBalance() public view returns (uint256) {... */\n    tag_48:\n      callvalue\n      dup1\n      iszero\n      tag_290\n      jumpi\n      0x00\n      dup1\n      revert\n    tag_290:\n      pop\n      tag_113\n      tag_292\n      jump\t// in\n        /* \"testnet.sol\":11489:11509  bool public isPaused */\n    tag_49:\n      callvalue\n      dup1\n      iszero\n      tag_294\n      jumpi\n      0x00\n      dup1\n      revert\n    tag_294:\n      pop\n      sload(0x06)\n      tag_106\n      swap1\n      shl(0xa0, 0x01)\n      swap1\n      div\n      0xff\n      and\n      dup2\n      jump\n        /* \"testnet.sol\":11325:11359  address public TaxTokenDestination */\n    tag_50:\n      callvalue\n      dup1\n      iszero\n      tag_298\n      jumpi\n      0x00\n      dup1\n      revert\n    tag_298:\n      pop\n      sload(0x05)\n      tag_122\n      swap1\n      sub(shl(0xa0, 0x01), 0x01)\n      and\n      dup2\n      jump\n        /* \"testnet.sol\":12866:12889  uint256 public LINK_fee */\n    tag_51:\n      callvalue\n      dup1\n      iszero\n      tag_302\n      jumpi\n      0x00\n      dup1\n      revert\n    tag_302:\n      pop\n      tag_113\n      sload(0x19)\n      dup2\n      jump\n        /* \"testnet.sol\":11976:12004  uint256 public burnRate = 10 */\n    tag_52:\n      callvalue\n      dup1\n      iszero\n      tag_306\n      jumpi\n      0x00\n      dup1\n      revert\n    tag_306:\n      pop\n      tag_113\n      sload(0x0a)\n      dup2\n      jump\n        /* \"testnet.sol\":31340:31415  function StartTrading() public onlyMain {... */\n    tag_53:\n      callvalue\n      dup1\n      iszero\n      tag_310\n      jumpi\n      0x00\n      dup1\n      revert\n    tag_310:\n      pop\n      tag_91\n      tag_312\n      jump\t// in\n        /* \"testnet.sol\":30993:31250  function ForceEndRound(uint256 key) public onlyMain {... */\n    tag_54:\n      callvalue\n      dup1\n      iszero\n      tag_313\n      jumpi\n      0x00\n      dup1\n      revert\n    tag_313:\n      pop\n      tag_91\n      tag_315\n      calldatasize\n      0x04\n      tag_98\n      jump\t// in\n    tag_315:\n      tag_316\n      jump\t// in\n        /* \"testnet.sol\":23729:23985  function addTokenstoJackpot(uint256 tokens) public onlyMain {... */\n    tag_55:\n      callvalue\n      dup1\n      iszero\n      tag_317\n      jumpi\n      0x00\n      dup1\n      revert\n    tag_317:\n      pop\n      tag_91\n      tag_319\n      calldatasize\n      0x04\n      tag_98\n      jump\t// in\n    tag_319:\n      tag_320\n      jump\t// in\n        /* \"testnet.sol\":30756:30985  function SetTicketPrice(uint256 NewPrice) public onlyMain {... */\n    tag_56:\n      callvalue\n      dup1\n      iszero\n      tag_321\n      jumpi\n      0x00\n      dup1\n      revert\n    tag_321:\n      pop\n      tag_91\n      tag_323\n      calldatasize\n      0x04\n      tag_98\n      jump\t// in\n    tag_323:\n      tag_324\n      jump\t// in\n        /* \"testnet.sol\":24800:24903  function setHelperContract(address Wallet) public onlyMain {... */\n    tag_57:\n      callvalue\n      dup1\n      iszero\n      tag_325\n      jumpi\n      0x00\n      dup1\n      revert\n    tag_325:\n      pop\n      tag_91\n      tag_327\n      calldatasize\n      0x04\n      tag_93\n      jump\t// in\n    tag_327:\n      tag_328\n      jump\t// in\n        /* \"testnet.sol\":12684:12730  uint256 public SwapThreshold = TicketPrice / 5 */\n    tag_58:\n      callvalue\n      dup1\n      iszero\n      tag_329\n      jumpi\n      0x00\n      dup1\n      revert\n    tag_329:\n      pop\n      tag_113\n      sload(0x15)\n      dup2\n      jump\n        /* \"testnet.sol\":12800:12829  bool public usingChainLinkVRF */\n    tag_59:\n      callvalue\n      dup1\n      iszero\n      tag_333\n      jumpi\n      0x00\n      dup1\n      revert\n    tag_333:\n      pop\n      sload(0x17)\n      tag_106\n      swap1\n      0xff\n      and\n      dup2\n      jump\n        /* \"testnet.sol\":11010:11035  address public MainWallet */\n    tag_60:\n      callvalue\n      dup1\n      iszero\n      tag_337\n      jumpi\n      0x00\n      dup1\n      revert\n    tag_337:\n      pop\n      sload(0x02)\n      tag_122\n      swap1\n      sub(shl(0xa0, 0x01), 0x01)\n      and\n      dup2\n      jump\n        /* \"testnet.sol\":24699:24792  function setMainWallet(address Wallet) public onlyMain {... */\n    tag_61:\n      callvalue\n      dup1\n      iszero\n      tag_341\n      jumpi\n      0x00\n      dup1\n      revert\n    tag_341:\n      pop\n      tag_91\n      tag_343\n      calldatasize\n      0x04\n      tag_93\n      jump\t// in\n    tag_343:\n      tag_344\n      jump\t// in\n        /* \"testnet.sol\":13071:13098  Results[] public ResultsLog */\n    tag_62:\n      callvalue\n      dup1\n      iszero\n      tag_345\n      jumpi\n      0x00\n      dup1\n      revert\n    tag_345:\n      pop\n      tag_346\n      tag_347\n      calldatasize\n      0x04\n      tag_98\n      jump\t// in\n    tag_347:\n      tag_348\n      jump\t// in\n    tag_346:\n      0x40\n      dup1\n      mload\n        /* \"#utility.yul\":4815:4840   */\n      swap5\n      dup6\n      mstore\n      sub(shl(0xa0, 0x01), 0x01)\n        /* \"#utility.yul\":4876:4908   */\n      swap1\n      swap4\n      and\n        /* \"#utility.yul\":4871:4873   */\n      0x20\n        /* \"#utility.yul\":4856:4874   */\n      dup6\n      add\n        /* \"#utility.yul\":4849:4909   */\n      mstore\n        /* \"#utility.yul\":4925:4943   */\n      swap2\n      dup4\n      add\n        /* \"#utility.yul\":4918:4952   */\n      mstore\n        /* \"#utility.yul\":4983:4985   */\n      0x60\n        /* \"#utility.yul\":4968:4986   */\n      dup3\n      add\n        /* \"#utility.yul\":4961:4995   */\n      mstore\n        /* \"#utility.yul\":4802:4805   */\n      0x80\n        /* \"#utility.yul\":4787:4806   */\n      add\n        /* \"testnet.sol\":13071:13098  Results[] public ResultsLog */\n      tag_103\n        /* \"#utility.yul\":4584:5001   */\n      jump\n        /* \"testnet.sol\":11942:11969  uint256 public LiquidityPot */\n    tag_63:\n      callvalue\n      dup1\n      iszero\n      tag_351\n      jumpi\n      0x00\n      dup1\n      revert\n    tag_351:\n      pop\n      tag_113\n      sload(0x09)\n      dup2\n      jump\n        /* \"testnet.sol\":18958:19159  function allowance(address _owner, address _spender)... */\n    tag_64:\n      callvalue\n      dup1\n      iszero\n      tag_355\n      jumpi\n      0x00\n      dup1\n      revert\n    tag_355:\n      pop\n      tag_113\n      tag_357\n      calldatasize\n      0x04\n      tag_358\n      jump\t// in\n    tag_357:\n      sub(shl(0xa0, 0x01), 0x01)\n        /* \"testnet.sol\":19121:19141  __allowances[_owner] */\n      swap2\n      dup3\n      and\n        /* \"testnet.sol\":19079:19096  uint256 remaining */\n      0x00\n        /* \"testnet.sol\":19121:19141  __allowances[_owner] */\n      swap1\n      dup2\n      mstore\n        /* \"testnet.sol\":19121:19133  __allowances */\n      0x1f\n        /* \"testnet.sol\":19121:19141  __allowances[_owner] */\n      0x20\n      swap1\n      dup2\n      mstore\n      0x40\n      dup1\n      dup4\n      keccak256\n        /* \"testnet.sol\":19121:19151  __allowances[_owner][_spender] */\n      swap4\n      swap1\n      swap5\n      and\n      dup3\n      mstore\n      swap2\n      swap1\n      swap2\n      mstore\n      keccak256\n      sload\n      swap1\n        /* \"testnet.sol\":18958:19159  function allowance(address _owner, address _spender)... */\n      jump\n        /* \"testnet.sol\":12173:12194  uint64 public RoundNr */\n    tag_65:\n      callvalue\n      dup1\n      iszero\n      tag_361\n      jumpi\n      0x00\n      dup1\n      revert\n    tag_361:\n      pop\n      sload(0x0c)\n      tag_235\n      swap1\n      shl(0x40, 0x01)\n      swap1\n      div\n      sub(shl(0x40, 0x01), 0x01)\n      and\n      dup2\n      jump\n        /* \"testnet.sol\":12518:12567  uint256 public NextRoundTicketPrice = TicketPrice */\n    tag_66:\n      callvalue\n      dup1\n      iszero\n      tag_365\n      jumpi\n      0x00\n      dup1\n      revert\n    tag_365:\n      pop\n      tag_113\n      sload(0x11)\n      dup2\n      jump\n        /* \"testnet.sol\":11914:11935  uint256 public GasPot */\n    tag_67:\n      callvalue\n      dup1\n      iszero\n      tag_369\n      jumpi\n      0x00\n      dup1\n      revert\n    tag_369:\n      pop\n      tag_113\n      sload(0x08)\n      dup2\n      jump\n        /* \"testnet.sol\":12737:12770  uint256 public percGastoSwap = 20 */\n    tag_68:\n      callvalue\n      dup1\n      iszero\n      tag_373\n      jumpi\n      0x00\n      dup1\n      revert\n    tag_373:\n      pop\n      tag_113\n      sload(0x16)\n      dup2\n      jump\n        /* \"testnet.sol\":24218:24327  function setTaxTokenContract(address Contract) public onlyMain {... */\n    tag_69:\n      callvalue\n      dup1\n      iszero\n      tag_377\n      jumpi\n      0x00\n      dup1\n      revert\n    tag_377:\n      pop\n      tag_91\n      tag_379\n      calldatasize\n      0x04\n      tag_93\n      jump\t// in\n    tag_379:\n      tag_380\n      jump\t// in\n        /* \"testnet.sol\":19817:21696  function EnterDraw(uint32 NumberofTickets) public {... */\n    tag_70:\n      callvalue\n      dup1\n      iszero\n      tag_381\n      jumpi\n      0x00\n      dup1\n      revert\n    tag_381:\n      pop\n      tag_91\n      tag_383\n      calldatasize\n      0x04\n      tag_384\n      jump\t// in\n    tag_383:\n      tag_385\n      jump\t// in\n        /* \"testnet.sol\":24576:24691  function setTaxTokenDestination(address Contract) public onlyMain {... */\n    tag_71:\n      callvalue\n      dup1\n      iszero\n      tag_386\n      jumpi\n      0x00\n      dup1\n      revert\n    tag_386:\n      pop\n      tag_91\n      tag_388\n      calldatasize\n      0x04\n      tag_93\n      jump\t// in\n    tag_388:\n      tag_389\n      jump\t// in\n        /* \"testnet.sol\":12616:12640  uint256 public StartTime */\n    tag_72:\n      callvalue\n      dup1\n      iszero\n      tag_390\n      jumpi\n      0x00\n      dup1\n      revert\n    tag_390:\n      pop\n      tag_113\n      sload(0x13)\n      dup2\n      jump\n        /* \"testnet.sol\":23993:24095  function ExcludefromTax(address Addr) public onlyMain {... */\n    tag_94:\n        /* \"testnet.sol\":11593:11603  MainWallet */\n      and(sub(shl(0xa0, 0x01), 0x01), sload(0x02))\n        /* \"testnet.sol\":11579:11589  msg.sender */\n      caller\n        /* \"testnet.sol\":11579:11603  msg.sender == MainWallet */\n      eq\n      dup1\n        /* \"testnet.sol\":11578:11640  (msg.sender == MainWallet) || (msg.sender == WorkHelperWallet) */\n      tag_395\n      jumpi\n      pop\n        /* \"testnet.sol\":11623:11639  WorkHelperWallet */\n      and(sub(shl(0xa0, 0x01), 0x01), sload(0x03))\n        /* \"testnet.sol\":11609:11619  msg.sender */\n      caller\n        /* \"testnet.sol\":11609:11639  msg.sender == WorkHelperWallet */\n      eq\n        /* \"testnet.sol\":11578:11640  (msg.sender == MainWallet) || (msg.sender == WorkHelperWallet) */\n    tag_395:\n        /* \"testnet.sol\":11570:11641  require((msg.sender == MainWallet) || (msg.sender == WorkHelperWallet)) */\n      tag_396\n      jumpi\n      0x00\n      dup1\n      revert\n    tag_396:\n      sub(shl(0xa0, 0x01), 0x01)\n        /* \"testnet.sol\":24058:24080  _ExcludedFromTax[Addr] */\n      and\n      0x00\n      swap1\n      dup2\n      mstore\n        /* \"testnet.sol\":24058:24074  _ExcludedFromTax */\n      0x20\n        /* \"testnet.sol\":24058:24080  _ExcludedFromTax[Addr] */\n      dup1\n      mstore\n      0x40\n      swap1\n      keccak256\n        /* \"testnet.sol\":24058:24087  _ExcludedFromTax[Addr] = true */\n      dup1\n      sload\n      not(0xff)\n      and\n        /* \"testnet.sol\":24083:24087  true */\n      0x01\n        /* \"testnet.sol\":24058:24087  _ExcludedFromTax[Addr] = true */\n      or\n      swap1\n      sstore\n        /* \"testnet.sol\":23993:24095  function ExcludefromTax(address Addr) public onlyMain {... */\n      jump\t// out\n        /* \"testnet.sol\":24486:24568  function setLINKfee(uint256 fee) public onlyMain {... */\n    tag_99:\n        /* \"testnet.sol\":11593:11603  MainWallet */\n      and(sub(shl(0xa0, 0x01), 0x01), sload(0x02))\n        /* \"testnet.sol\":11579:11589  msg.sender */\n      caller\n        /* \"testnet.sol\":11579:11603  msg.sender == MainWallet */\n      eq\n      dup1\n        /* \"testnet.sol\":11578:11640  (msg.sender == MainWallet) || (msg.sender == WorkHelperWallet) */\n      tag_399\n      jumpi\n      pop\n        /* \"testnet.sol\":11623:11639  WorkHelperWallet */\n      and(sub(shl(0xa0, 0x01), 0x01), sload(0x03))\n        /* \"testnet.sol\":11609:11619  msg.sender */\n      caller\n        /* \"testnet.sol\":11609:11639  msg.sender == WorkHelperWallet */\n      eq\n        /* \"testnet.sol\":11578:11640  (msg.sender == MainWallet) || (msg.sender == WorkHelperWallet) */\n    tag_399:\n        /* \"testnet.sol\":11570:11641  require((msg.sender == MainWallet) || (msg.sender == WorkHelperWallet)) */\n      tag_400\n      jumpi\n      0x00\n      dup1\n      revert\n    tag_400:\n        /* \"testnet.sol\":24546:24554  LINK_fee */\n      0x19\n        /* \"testnet.sol\":24546:24560  LINK_fee = fee */\n      sstore\n        /* \"testnet.sol\":24486:24568  function setLINKfee(uint256 fee) public onlyMain {... */\n      jump\t// out\n        /* \"testnet.sol\":18608:18870  function approve(address _spender, uint256 _value)... */\n    tag_109:\n        /* \"testnet.sol\":18756:18766  msg.sender */\n      caller\n        /* \"testnet.sol\":18713:18725  bool success */\n      0x00\n        /* \"testnet.sol\":18743:18767  __allowances[msg.sender] */\n      dup2\n      dup2\n      mstore\n        /* \"testnet.sol\":18743:18755  __allowances */\n      0x1f\n        /* \"testnet.sol\":18743:18767  __allowances[msg.sender] */\n      0x20\n      swap1\n      dup2\n      mstore\n      0x40\n      dup1\n      dup4\n      keccak256\n      sub(shl(0xa0, 0x01), 0x01)\n        /* \"testnet.sol\":18743:18777  __allowances[msg.sender][_spender] */\n      dup8\n      and\n      dup1\n      dup6\n      mstore\n      swap3\n      mstore\n      dup1\n      dup4\n      keccak256\n        /* \"testnet.sol\":18743:18786  __allowances[msg.sender][_spender] = _value */\n      dup6\n      swap1\n      sstore\n        /* \"testnet.sol\":18802:18840  Approval(msg.sender, _spender, _value) */\n      mload\n        /* \"testnet.sol\":18713:18725  bool success */\n      swap2\n      swap3\n        /* \"testnet.sol\":18743:18777  __allowances[msg.sender][_spender] */\n      swap1\n      swap2\n        /* \"testnet.sol\":18802:18840  Approval(msg.sender, _spender, _value) */\n      0x8c5be1e5ebec7d5bd14f71427d1e84f3dd0314c0f7b2291e5b200ac8c7c3b925\n      swap1\n      tag_403\n      swap1\n        /* \"testnet.sol\":18780:18786  _value */\n      dup7\n        /* \"#utility.yul\":1996:2021   */\n      dup2\n      mstore\n        /* \"#utility.yul\":1984:1986   */\n      0x20\n        /* \"#utility.yul\":1969:1987   */\n      add\n      swap1\n        /* \"#utility.yul\":1850:2027   */\n      jump\n        /* \"testnet.sol\":18802:18840  Approval(msg.sender, _spender, _value) */\n    tag_403:\n      mload(0x40)\n      dup1\n      swap2\n      sub\n      swap1\n      log3\n      pop\n        /* \"testnet.sol\":18858:18862  true */\n      0x01\n        /* \"testnet.sol\":18608:18870  function approve(address _spender, uint256 _value)... */\n    tag_402:\n      swap3\n      swap2\n      pop\n      pop\n      jump\t// out\n        /* \"testnet.sol\":21976:22167  function getMyEntries() public view returns (uint256) {... */\n    tag_114:\n        /* \"testnet.sol\":22079:22086  RoundNr */\n      sload(0x0c)\n        /* \"testnet.sol\":22064:22074  msg.sender */\n      caller\n        /* \"testnet.sol\":22021:22028  uint256 */\n      0x00\n        /* \"testnet.sol\":22045:22075  LatestRoundEntered[msg.sender] */\n      swap1\n      dup2\n      mstore\n        /* \"testnet.sol\":22045:22063  LatestRoundEntered */\n      0x1e\n        /* \"testnet.sol\":22045:22075  LatestRoundEntered[msg.sender] */\n      0x20\n      mstore\n      0x40\n      dup2\n      keccak256\n      sload\n        /* \"testnet.sol\":22021:22028  uint256 */\n      swap1\n      swap2\n      shl(0x40, 0x01)\n        /* \"testnet.sol\":22079:22086  RoundNr */\n      swap1\n      div\n      sub(shl(0x40, 0x01), 0x01)\n      and\n        /* \"testnet.sol\":22045:22086  LatestRoundEntered[msg.sender] == RoundNr */\n      eq\n        /* \"testnet.sol\":22041:22159  if (LatestRoundEntered[msg.sender] == RoundNr)... */\n      iszero\n      tag_405\n      jumpi\n      pop\n        /* \"testnet.sol\":22124:22134  msg.sender */\n      caller\n        /* \"testnet.sol\":22108:22135  NumberofEntries[msg.sender] */\n      0x00\n      swap1\n      dup2\n      mstore\n        /* \"testnet.sol\":22108:22123  NumberofEntries */\n      0x1d\n        /* \"testnet.sol\":22108:22135  NumberofEntries[msg.sender] */\n      0x20\n      mstore\n      0x40\n      swap1\n      keccak256\n      sload\n      swap1\n        /* \"testnet.sol\":21976:22167  function getMyEntries() public view returns (uint256) {... */\n      jump\t// out\n        /* \"testnet.sol\":22041:22159  if (LatestRoundEntered[msg.sender] == RoundNr)... */\n    tag_405:\n      pop\n        /* \"testnet.sol\":22158:22159  0 */\n      0x00\n      swap1\n        /* \"testnet.sol\":21976:22167  function getMyEntries() public view returns (uint256) {... */\n      jump\t// out\n        /* \"testnet.sol\":30309:30440  function SetMinEntriesperRound(uint64 New_Minimum_Entries) public onlyMain {... */\n    tag_135:\n        /* \"testnet.sol\":11593:11603  MainWallet */\n      and(sub(shl(0xa0, 0x01), 0x01), sload(0x02))\n        /* \"testnet.sol\":11579:11589  msg.sender */\n      caller\n        /* \"testnet.sol\":11579:11603  msg.sender == MainWallet */\n      eq\n      dup1\n        /* \"testnet.sol\":11578:11640  (msg.sender == MainWallet) || (msg.sender == WorkHelperWallet) */\n      tag_409\n      jumpi\n      pop\n        /* \"testnet.sol\":11623:11639  WorkHelperWallet */\n      and(sub(shl(0xa0, 0x01), 0x01), sload(0x03))\n        /* \"testnet.sol\":11609:11619  msg.sender */\n      caller\n        /* \"testnet.sol\":11609:11639  msg.sender == WorkHelperWallet */\n      eq\n        /* \"testnet.sol\":11578:11640  (msg.sender == MainWallet) || (msg.sender == WorkHelperWallet) */\n    tag_409:\n        /* \"testnet.sol\":11570:11641  require((msg.sender == MainWallet) || (msg.sender == WorkHelperWallet)) */\n      tag_410\n      jumpi\n      0x00\n      dup1\n      revert\n    tag_410:\n        /* \"testnet.sol\":30395:30410  Minimum_Entries */\n      0x0c\n        /* \"testnet.sol\":30395:30432  Minimum_Entries = New_Minimum_Entries */\n      dup1\n      sload\n      sub(shl(0x40, 0x01), 0x01)\n      swap1\n      swap3\n      and\n      shl(0x80, 0x01)\n      mul\n      not(shl(0x80, 0xffffffffffffffff))\n      swap1\n      swap3\n      and\n      swap2\n      swap1\n      swap2\n      or\n      swap1\n      sstore\n        /* \"testnet.sol\":30309:30440  function SetMinEntriesperRound(uint64 New_Minimum_Entries) public onlyMain {... */\n      jump\t// out\n        /* \"testnet.sol\":23539:23721  function setBurnRate(uint256 newBurnRate) public onlyMain {... */\n    tag_143:\n        /* \"testnet.sol\":11593:11603  MainWallet */\n      and(sub(shl(0xa0, 0x01), 0x01), sload(0x02))\n        /* \"testnet.sol\":11579:11589  msg.sender */\n      caller\n        /* \"testnet.sol\":11579:11603  msg.sender == MainWallet */\n      eq\n      dup1\n        /* \"testnet.sol\":11578:11640  (msg.sender == MainWallet) || (msg.sender == WorkHelperWallet) */\n      tag_414\n      jumpi\n      pop\n        /* \"testnet.sol\":11623:11639  WorkHelperWallet */\n      and(sub(shl(0xa0, 0x01), 0x01), sload(0x03))\n        /* \"testnet.sol\":11609:11619  msg.sender */\n      caller\n        /* \"testnet.sol\":11609:11639  msg.sender == WorkHelperWallet */\n      eq\n        /* \"testnet.sol\":11578:11640  (msg.sender == MainWallet) || (msg.sender == WorkHelperWallet) */\n    tag_414:\n        /* \"testnet.sol\":11570:11641  require((msg.sender == MainWallet) || (msg.sender == WorkHelperWallet)) */\n      tag_415\n      jumpi\n      0x00\n      dup1\n      revert\n    tag_415:\n        /* \"testnet.sol\":23630:23633  100 */\n      0x64\n        /* \"testnet.sol\":23616:23627  newBurnRate */\n      dup2\n        /* \"testnet.sol\":23616:23633  newBurnRate < 100 */\n      lt\n        /* \"testnet.sol\":23608:23634  require(newBurnRate < 100) */\n      tag_417\n      jumpi\n      0x00\n      dup1\n      revert\n    tag_417:\n        /* \"testnet.sol\":23691:23699  burnRate */\n      0x0a\n        /* \"testnet.sol\":23691:23713  burnRate = newBurnRate */\n      sstore\n        /* \"testnet.sol\":23539:23721  function setBurnRate(uint256 newBurnRate) public onlyMain {... */\n      jump\t// out\n        /* \"testnet.sol\":17026:18084  function transferFrom(... */\n    tag_148:\n      sub(shl(0xa0, 0x01), 0x01)\n        /* \"testnet.sol\":17211:17232  _ExcludedFromTax[_to] */\n      dup3\n      and\n        /* \"testnet.sol\":17151:17163  bool success */\n      0x00\n        /* \"testnet.sol\":17211:17232  _ExcludedFromTax[_to] */\n      swap1\n      dup2\n      mstore\n        /* \"testnet.sol\":17211:17227  _ExcludedFromTax */\n      0x20\n        /* \"testnet.sol\":17211:17232  _ExcludedFromTax[_to] */\n      dup1\n      mstore\n      0x40\n      dup2\n      keccak256\n      sload\n        /* \"testnet.sol\":17151:17163  bool success */\n      dup2\n      swap1\n        /* \"testnet.sol\":17211:17232  _ExcludedFromTax[_to] */\n      0xff\n      and\n      dup1\n        /* \"testnet.sol\":17210:17262  (_ExcludedFromTax[_to]) || (_ExcludedFromTax[_from]) */\n      tag_419\n      jumpi\n      pop\n      sub(shl(0xa0, 0x01), 0x01)\n        /* \"testnet.sol\":17238:17261  _ExcludedFromTax[_from] */\n      dup6\n      and\n      0x00\n      swap1\n      dup2\n      mstore\n        /* \"testnet.sol\":17238:17254  _ExcludedFromTax */\n      0x20\n        /* \"testnet.sol\":17238:17261  _ExcludedFromTax[_from] */\n      dup1\n      mstore\n      0x40\n      swap1\n      keccak256\n      sload\n      0xff\n      and\n        /* \"testnet.sol\":17210:17262  (_ExcludedFromTax[_to]) || (_ExcludedFromTax[_from]) */\n    tag_419:\n        /* \"testnet.sol\":17206:17325  if ((_ExcludedFromTax[_to]) || (_ExcludedFromTax[_from])) taxamount = 0;... */\n      iszero\n      tag_420\n      jumpi\n      pop\n        /* \"testnet.sol\":17276:17277  0 */\n      0x00\n        /* \"testnet.sol\":17206:17325  if ((_ExcludedFromTax[_to]) || (_ExcludedFromTax[_from])) taxamount = 0;... */\n      jump(tag_421)\n    tag_420:\n        /* \"testnet.sol\":17322:17325  100 */\n      0x64\n        /* \"testnet.sol\":17315:17318  Tax */\n      sload(0x0d)\n        /* \"testnet.sol\":17306:17312  _value */\n      dup5\n        /* \"testnet.sol\":17306:17318  _value * Tax */\n      tag_422\n      swap2\n      swap1\n      tag_423\n      jump\t// in\n    tag_422:\n        /* \"testnet.sol\":17305:17325  (_value * Tax) / 100 */\n      tag_424\n      swap2\n      swap1\n      tag_425\n      jump\t// in\n    tag_424:\n        /* \"testnet.sol\":17293:17325  taxamount = (_value * Tax) / 100 */\n      swap1\n      pop\n        /* \"testnet.sol\":17206:17325  if ((_ExcludedFromTax[_to]) || (_ExcludedFromTax[_from])) taxamount = 0;... */\n    tag_421:\n        /* \"testnet.sol\":17338:17355  uint256 amountout */\n      0x00\n        /* \"testnet.sol\":17358:17376  _value - taxamount */\n      tag_426\n        /* \"testnet.sol\":17367:17376  taxamount */\n      dup3\n        /* \"testnet.sol\":17358:17364  _value */\n      dup6\n        /* \"testnet.sol\":17358:17376  _value - taxamount */\n      tag_427\n      jump\t// in\n    tag_426:\n        /* \"testnet.sol\":17393:17401  isPaused */\n      sload(0x06)\n        /* \"testnet.sol\":17338:17376  uint256 amountout = _value - taxamount */\n      swap1\n      swap2\n      pop\n      shl(0xa0, 0x01)\n        /* \"testnet.sol\":17393:17401  isPaused */\n      swap1\n      div\n      0xff\n      and\n        /* \"testnet.sol\":17389:17558  if (isPaused) {... */\n      iszero\n      tag_430\n      jumpi\n      sub(shl(0xa0, 0x01), 0x01)\n        /* \"testnet.sol\":17445:17466  _ExcludedFromTax[_to] */\n      dup6\n      and\n      0x00\n      swap1\n      dup2\n      mstore\n        /* \"testnet.sol\":17445:17461  _ExcludedFromTax */\n      0x20\n        /* \"testnet.sol\":17445:17466  _ExcludedFromTax[_to] */\n      dup1\n      mstore\n      0x40\n      swap1\n      keccak256\n      sload\n      0xff\n      and\n      dup1\n        /* \"testnet.sol\":17444:17496  (_ExcludedFromTax[_to]) || (_ExcludedFromTax[_from]) */\n      tag_429\n      jumpi\n      pop\n      sub(shl(0xa0, 0x01), 0x01)\n        /* \"testnet.sol\":17472:17495  _ExcludedFromTax[_from] */\n      dup7\n      and\n      0x00\n      swap1\n      dup2\n      mstore\n        /* \"testnet.sol\":17472:17488  _ExcludedFromTax */\n      0x20\n        /* \"testnet.sol\":17472:17495  _ExcludedFromTax[_from] */\n      dup1\n      mstore\n      0x40\n      swap1\n      keccak256\n      sload\n      0xff\n      and\n        /* \"testnet.sol\":17444:17496  (_ExcludedFromTax[_to]) || (_ExcludedFromTax[_from]) */\n    tag_429:\n        /* \"testnet.sol\":17418:17546  require(... */\n      tag_430\n      jumpi\n      mload(0x40)\n      shl(0xe5, 0x461bcd)\n      dup2\n      mstore\n        /* \"#utility.yul\":6574:6576   */\n      0x20\n        /* \"testnet.sol\":17418:17546  require(... */\n      0x04\n      dup3\n      add\n        /* \"#utility.yul\":6556:6577   */\n      mstore\n        /* \"#utility.yul\":6613:6615   */\n      0x0e\n        /* \"#utility.yul\":6593:6611   */\n      0x24\n      dup3\n      add\n        /* \"#utility.yul\":6586:6616   */\n      mstore\n      shl(0x92, 0x151c98591a5b99c814185d5cd959)\n        /* \"#utility.yul\":6632:6650   */\n      0x44\n      dup3\n      add\n        /* \"#utility.yul\":6625:6669   */\n      mstore\n        /* \"#utility.yul\":6686:6704   */\n      0x64\n      add\n        /* \"testnet.sol\":17418:17546  require(... */\n    tag_431:\n      mload(0x40)\n      dup1\n      swap2\n      sub\n      swap1\n      revert\n    tag_430:\n      sub(shl(0xa0, 0x01), 0x01)\n        /* \"testnet.sol\":17588:17607  __allowances[_from] */\n      dup7\n      and\n        /* \"testnet.sol\":17622:17623  0 */\n      0x00\n        /* \"testnet.sol\":17588:17607  __allowances[_from] */\n      swap1\n      dup2\n      mstore\n        /* \"testnet.sol\":17588:17600  __allowances */\n      0x1f\n        /* \"testnet.sol\":17588:17607  __allowances[_from] */\n      0x20\n      swap1\n      dup2\n      mstore\n      0x40\n      dup1\n      dup4\n      keccak256\n        /* \"testnet.sol\":17608:17618  msg.sender */\n      caller\n        /* \"testnet.sol\":17588:17619  __allowances[_from][msg.sender] */\n      dup5\n      mstore\n      swap1\n      swap2\n      mstore\n      swap1\n      keccak256\n      sload\n        /* \"testnet.sol\":17588:17623  __allowances[_from][msg.sender] > 0 */\n      iszero\n      dup1\n      iszero\n      swap1\n        /* \"testnet.sol\":17588:17650  __allowances[_from][msg.sender] > 0 &&... */\n      tag_433\n      jumpi\n      pop\n        /* \"testnet.sol\":17649:17650  0 */\n      0x00\n        /* \"testnet.sol\":17640:17646  _value */\n      dup5\n        /* \"testnet.sol\":17640:17650  _value > 0 */\n      gt\n        /* \"testnet.sol\":17588:17650  __allowances[_from][msg.sender] > 0 &&... */\n    tag_433:\n        /* \"testnet.sol\":17588:17708  __allowances[_from][msg.sender] > 0 &&... */\n      dup1\n      iszero\n      tag_434\n      jumpi\n      pop\n      sub(shl(0xa0, 0x01), 0x01)\n        /* \"testnet.sol\":17667:17686  __allowances[_from] */\n      dup7\n      and\n      0x00\n      swap1\n      dup2\n      mstore\n        /* \"testnet.sol\":17667:17679  __allowances */\n      0x1f\n        /* \"testnet.sol\":17667:17686  __allowances[_from] */\n      0x20\n      swap1\n      dup2\n      mstore\n      0x40\n      dup1\n      dup4\n      keccak256\n        /* \"testnet.sol\":17687:17697  msg.sender */\n      caller\n        /* \"testnet.sol\":17667:17698  __allowances[_from][msg.sender] */\n      dup5\n      mstore\n      swap1\n      swap2\n      mstore\n      swap1\n      keccak256\n      sload\n        /* \"testnet.sol\":17667:17708  __allowances[_from][msg.sender] >= _value */\n      dup5\n      gt\n      iszero\n        /* \"testnet.sol\":17588:17708  __allowances[_from][msg.sender] > 0 &&... */\n    tag_434:\n        /* \"testnet.sol\":17570:18054  if (... */\n      iszero\n      tag_435\n      jumpi\n      sub(shl(0xa0, 0x01), 0x01)\n        /* \"testnet.sol\":17735:17753  __balanceOf[_from] */\n      dup7\n      and\n      0x00\n      swap1\n      dup2\n      mstore\n        /* \"testnet.sol\":17735:17746  __balanceOf */\n      0x1c\n        /* \"testnet.sol\":17735:17753  __balanceOf[_from] */\n      0x20\n      mstore\n      0x40\n      dup2\n      keccak256\n        /* \"testnet.sol\":17735:17763  __balanceOf[_from] -= _value */\n      dup1\n      sload\n        /* \"testnet.sol\":17757:17763  _value */\n      dup7\n      swap3\n        /* \"testnet.sol\":17735:17753  __balanceOf[_from] */\n      swap1\n        /* \"testnet.sol\":17735:17763  __balanceOf[_from] -= _value */\n      tag_436\n      swap1\n        /* \"testnet.sol\":17757:17763  _value */\n      dup5\n      swap1\n        /* \"testnet.sol\":17735:17763  __balanceOf[_from] -= _value */\n      tag_427\n      jump\t// in\n    tag_436:\n      swap1\n      swap2\n      sstore\n      pop\n      pop\n      sub(shl(0xa0, 0x01), 0x01)\n        /* \"testnet.sol\":17778:17794  __balanceOf[_to] */\n      dup6\n      and\n      0x00\n      swap1\n      dup2\n      mstore\n        /* \"testnet.sol\":17778:17789  __balanceOf */\n      0x1c\n        /* \"testnet.sol\":17778:17794  __balanceOf[_to] */\n      0x20\n      mstore\n      0x40\n      dup2\n      keccak256\n        /* \"testnet.sol\":17778:17807  __balanceOf[_to] += amountout */\n      dup1\n      sload\n        /* \"testnet.sol\":17798:17807  amountout */\n      dup4\n      swap3\n        /* \"testnet.sol\":17778:17794  __balanceOf[_to] */\n      swap1\n        /* \"testnet.sol\":17778:17807  __balanceOf[_to] += amountout */\n      tag_437\n      swap1\n        /* \"testnet.sol\":17798:17807  amountout */\n      dup5\n      swap1\n        /* \"testnet.sol\":17778:17807  __balanceOf[_to] += amountout */\n      tag_438\n      jump\t// in\n    tag_437:\n      swap3\n      pop\n      pop\n      dup2\n      swap1\n      sstore\n      pop\n        /* \"testnet.sol\":17843:17846  _to */\n      dup5\n      sub(shl(0xa0, 0x01), 0x01)\n        /* \"testnet.sol\":17827:17858  Transfer(_from, _to, amountout) */\n      and\n        /* \"testnet.sol\":17836:17841  _from */\n      dup7\n      sub(shl(0xa0, 0x01), 0x01)\n        /* \"testnet.sol\":17827:17858  Transfer(_from, _to, amountout) */\n      and\n      0xddf252ad1be2c89b69c2b068fc378daa952ba7f163c4a11628f55a4df523b3ef\n        /* \"testnet.sol\":17848:17857  amountout */\n      dup4\n        /* \"testnet.sol\":17827:17858  Transfer(_from, _to, amountout) */\n      mload(0x40)\n      tag_439\n      swap2\n        /* \"#utility.yul\":1996:2021   */\n      dup2\n      mstore\n        /* \"#utility.yul\":1984:1986   */\n      0x20\n        /* \"#utility.yul\":1969:1987   */\n      add\n      swap1\n        /* \"#utility.yul\":1850:2027   */\n      jump\n        /* \"testnet.sol\":17827:17858  Transfer(_from, _to, amountout) */\n    tag_439:\n      mload(0x40)\n      dup1\n      swap2\n      sub\n      swap1\n      log3\n        /* \"testnet.sol\":17875:17894  uint256 burnPortion */\n      0x00\n        /* \"testnet.sol\":17922:17925  100 */\n      0x64\n        /* \"testnet.sol\":17910:17918  burnRate */\n      sload(0x0a)\n        /* \"testnet.sol\":17898:17907  taxamount */\n      dup5\n        /* \"testnet.sol\":17898:17918  taxamount * burnRate */\n      tag_440\n      swap2\n      swap1\n      tag_423\n      jump\t// in\n    tag_440:\n        /* \"testnet.sol\":17897:17925  (taxamount * burnRate) / 100 */\n      tag_441\n      swap2\n      swap1\n      tag_425\n      jump\t// in\n    tag_441:\n        /* \"testnet.sol\":17875:17925  uint256 burnPortion = (taxamount * burnRate) / 100 */\n      swap1\n      pop\n        /* \"testnet.sol\":17950:17973  taxamount - burnPortion */\n      tag_442\n        /* \"testnet.sol\":17875:17925  uint256 burnPortion = (taxamount * burnRate) / 100 */\n      dup2\n        /* \"testnet.sol\":17950:17959  taxamount */\n      dup5\n        /* \"testnet.sol\":17950:17973  taxamount - burnPortion */\n      tag_427\n      jump\t// in\n    tag_442:\n        /* \"testnet.sol\":17940:17946  GasPot */\n      0x08\n      0x00\n        /* \"testnet.sol\":17940:17973  GasPot += taxamount - burnPortion */\n      dup3\n      dup3\n      sload\n      tag_443\n      swap2\n      swap1\n      tag_438\n      jump\t// in\n    tag_443:\n      swap3\n      pop\n      pop\n      dup2\n      swap1\n      sstore\n      pop\n        /* \"testnet.sol\":18005:18016  burnPortion */\n      dup1\n        /* \"testnet.sol\":17988:18001  __totalSupply */\n      0x1b\n      0x00\n        /* \"testnet.sol\":17988:18016  __totalSupply -= burnPortion */\n      dup3\n      dup3\n      sload\n      tag_444\n      swap2\n      swap1\n      tag_427\n      jump\t// in\n    tag_444:\n      swap1\n      swap2\n      sstore\n      pop\n        /* \"testnet.sol\":18038:18042  true */\n      0x01\n      swap5\n      pop\n        /* \"testnet.sol\":18031:18042  return true */\n      tag_418\n      swap4\n      pop\n      pop\n      pop\n      pop\n      jump\n        /* \"testnet.sol\":17570:18054  if (... */\n    tag_435:\n        /* \"testnet.sol\":18071:18076  false */\n      0x00\n        /* \"testnet.sol\":18064:18076  return false */\n      swap3\n      pop\n      pop\n      pop\n        /* \"testnet.sol\":17026:18084  function transferFrom(... */\n    tag_418:\n      swap4\n      swap3\n      pop\n      pop\n      pop\n      jump\t// out\n        /* \"testnet.sol\":31841:32198  function getTokenprice(uint256 amountBNB) public view returns (uint256) {... */\n    tag_153:\n        /* \"testnet.sol\":31948:31964  new address[](2) */\n      0x40\n      dup1\n      mload\n        /* \"testnet.sol\":31962:31963  2 */\n      0x02\n        /* \"testnet.sol\":31948:31964  new address[](2) */\n      dup1\n      dup3\n      mstore\n      0x60\n      dup3\n      add\n      dup4\n      mstore\n        /* \"testnet.sol\":31904:31911  uint256 */\n      0x00\n      swap3\n      dup4\n      swap3\n        /* \"testnet.sol\":31948:31964  new address[](2) */\n      swap2\n        /* \"testnet.sol\":31962:31963  2 */\n      swap1\n        /* \"testnet.sol\":31948:31964  new address[](2) */\n      0x20\n      dup4\n      add\n      swap1\n      dup1\n      calldatasize\n      dup4\n      calldatacopy\n      pop\n      pop\n        /* \"testnet.sol\":31985:31999  _pancakeRouter */\n      sload(0x01)\n        /* \"testnet.sol\":31985:32006  _pancakeRouter.WETH() */\n      0x40\n      dup1\n      mload\n      shl(0xe3, 0x15ab88c9)\n      dup2\n      mstore\n      swap1\n      mload\n        /* \"testnet.sol\":31924:31964  address[] memory path = new address[](2) */\n      swap4\n      swap5\n      pop\n      sub(shl(0xa0, 0x01), 0x01)\n        /* \"testnet.sol\":31985:31999  _pancakeRouter */\n      swap1\n      swap2\n      and\n      swap3\n        /* \"testnet.sol\":31985:32004  _pancakeRouter.WETH */\n      0xad5c4648\n      swap3\n      pop\n        /* \"testnet.sol\":31985:32006  _pancakeRouter.WETH() */\n      0x04\n      dup1\n      dup4\n      add\n      swap3\n      0x20\n      swap3\n      swap2\n      swap1\n      dup3\n      swap1\n      sub\n      add\n      dup2\n        /* \"testnet.sol\":31985:31999  _pancakeRouter */\n      dup7\n        /* \"testnet.sol\":31985:32006  _pancakeRouter.WETH() */\n      gas\n      staticcall\n      iszero\n      dup1\n      iszero\n      tag_451\n      jumpi\n      returndatasize\n      0x00\n      dup1\n      returndatacopy\n      revert(0x00, returndatasize)\n    tag_451:\n      pop\n      pop\n      pop\n      pop\n      mload(0x40)\n      returndatasize\n      not(0x1f)\n      0x1f\n      dup3\n      add\n      and\n      dup3\n      add\n      dup1\n      0x40\n      mstore\n      pop\n      dup2\n      add\n      swap1\n      tag_452\n      swap2\n      swap1\n      tag_453\n      jump\t// in\n    tag_452:\n        /* \"testnet.sol\":31975:31979  path */\n      dup2\n        /* \"testnet.sol\":31980:31981  0 */\n      0x00\n        /* \"testnet.sol\":31975:31982  path[0] */\n      dup2\n      mload\n      dup2\n      lt\n      tag_455\n      jumpi\n      tag_455\n      tag_456\n      jump\t// in\n    tag_455:\n      0x20\n      mul\n      0x20\n      add\n      add\n        /* \"testnet.sol\":31975:32006  path[0] = _pancakeRouter.WETH() */\n      swap1\n      sub(shl(0xa0, 0x01), 0x01)\n      and\n      swap1\n      dup2\n      sub(shl(0xa0, 0x01), 0x01)\n      and\n      dup2\n      mstore\n      pop\n      pop\n        /* \"testnet.sol\":32035:32039  this */\n      address\n        /* \"testnet.sol\":32017:32021  path */\n      dup2\n        /* \"testnet.sol\":32022:32023  1 */\n      0x01\n        /* \"testnet.sol\":32017:32024  path[1] */\n      dup2\n      mload\n      dup2\n      lt\n      tag_458\n      jumpi\n      tag_458\n      tag_456\n      jump\t// in\n    tag_458:\n      sub(shl(0xa0, 0x01), 0x01)\n        /* \"testnet.sol\":32017:32040  path[1] = address(this) */\n      swap3\n      dup4\n      and\n        /* \"testnet.sol\":32017:32024  path[1] */\n      0x20\n      swap2\n      dup3\n      mul\n      swap3\n      swap1\n      swap3\n      add\n      add\n        /* \"testnet.sol\":32017:32040  path[1] = address(this) */\n      mstore\n        /* \"testnet.sol\":32078:32092  _pancakeRouter */\n      sload(0x01)\n        /* \"testnet.sol\":32078:32160  _pancakeRouter.getAmountsOut(... */\n      mload(0x40)\n      shl(0xe0, 0xd06ca61f)\n      dup2\n      mstore\n        /* \"testnet.sol\":32051:32075  uint256[] memory amounts */\n      0x00\n      swap3\n        /* \"testnet.sol\":32078:32092  _pancakeRouter */\n      swap2\n      swap1\n      swap2\n      and\n      swap1\n        /* \"testnet.sol\":32078:32106  _pancakeRouter.getAmountsOut */\n      0xd06ca61f\n      swap1\n        /* \"testnet.sol\":32078:32160  _pancakeRouter.getAmountsOut(... */\n      tag_459\n      swap1\n        /* \"testnet.sol\":32121:32130  amountBNB */\n      dup8\n      swap1\n        /* \"testnet.sol\":32145:32149  path */\n      dup7\n      swap1\n        /* \"testnet.sol\":32078:32160  _pancakeRouter.getAmountsOut(... */\n      0x04\n      add\n      tag_460\n      jump\t// in\n    tag_459:\n      0x00\n      mload(0x40)\n      dup1\n      dup4\n      sub\n      dup2\n      dup7\n      gas\n      staticcall\n      iszero\n      dup1\n      iszero\n      tag_462\n      jumpi\n      returndatasize\n      0x00\n      dup1\n      returndatacopy\n      revert(0x00, returndatasize)\n    tag_462:\n      pop\n      pop\n      pop\n      pop\n      mload(0x40)\n      returndatasize\n      0x00\n      dup3\n      returndatacopy\n      0x1f\n      returndatasize\n      swap1\n      dup2\n      add\n      not(0x1f)\n      and\n      dup3\n      add\n      0x40\n      mstore\n      tag_463\n      swap2\n      swap1\n      dup2\n      add\n      swap1\n      tag_464\n      jump\t// in\n    tag_463:\n        /* \"testnet.sol\":32051:32160  uint256[] memory amounts = _pancakeRouter.getAmountsOut(... */\n      swap1\n      pop\n        /* \"testnet.sol\":32180:32187  amounts */\n      dup1\n        /* \"testnet.sol\":32188:32189  1 */\n      0x01\n        /* \"testnet.sol\":32180:32190  amounts[1] */\n      dup2\n      mload\n      dup2\n      lt\n      tag_466\n      jumpi\n      tag_466\n      tag_456\n      jump\t// in\n    tag_466:\n      0x20\n      mul\n      0x20\n      add\n      add\n      mload\n        /* \"testnet.sol\":32173:32190  return amounts[1] */\n      swap3\n      pop\n      pop\n      pop\n        /* \"testnet.sol\":31841:32198  function getTokenprice(uint256 amountBNB) public view returns (uint256) {... */\n      swap2\n      swap1\n      pop\n      jump\t// out\n        /* \"testnet.sol\":25131:26498  function doWork() public {... */\n    tag_157:\n        /* \"testnet.sol\":25214:25227  SwapThreshold */\n      sload(0x15)\n        /* \"testnet.sol\":25204:25210  GasPot */\n      sload(0x08)\n        /* \"testnet.sol\":25204:25227  GasPot >= SwapThreshold */\n      lt\n        /* \"testnet.sol\":25200:25543  if (GasPot >= SwapThreshold) {... */\n      tag_468\n      jumpi\n        /* \"testnet.sol\":25259:25265  GasPot */\n      0x08\n      dup1\n      sload\n        /* \"testnet.sol\":25244:25256  uint256 temp */\n      0x00\n        /* \"testnet.sol\":25280:25290  GasPot = 0 */\n      swap2\n      dup3\n      swap1\n      sstore\n        /* \"testnet.sol\":25325:25329  this */\n      address\n        /* \"testnet.sol\":25305:25331  __balanceOf[address(this)] */\n      dup3\n      mstore\n        /* \"testnet.sol\":25305:25316  __balanceOf */\n      0x1c\n        /* \"testnet.sol\":25305:25331  __balanceOf[address(this)] */\n      0x20\n      mstore\n      0x40\n      dup3\n      keccak256\n        /* \"testnet.sol\":25305:25339  __balanceOf[address(this)] += temp */\n      dup1\n      sload\n        /* \"testnet.sol\":25259:25265  GasPot */\n      swap2\n      swap3\n      dup4\n      swap3\n        /* \"testnet.sol\":25305:25339  __balanceOf[address(this)] += temp */\n      tag_469\n      swap1\n        /* \"testnet.sol\":25259:25265  GasPot */\n      dup5\n      swap1\n        /* \"testnet.sol\":25305:25339  __balanceOf[address(this)] += temp */\n      tag_438\n      jump\t// in\n    tag_469:\n      swap1\n      swap2\n      sstore\n      pop\n        /* \"testnet.sol\":25360:25382  _swapTokenForBNB(temp) */\n      tag_470\n      swap1\n      pop\n        /* \"testnet.sol\":25377:25381  temp */\n      dup2\n        /* \"testnet.sol\":25360:25376  _swapTokenForBNB */\n      tag_471\n        /* \"testnet.sol\":25360:25382  _swapTokenForBNB(temp) */\n      jump\t// in\n    tag_470:\n        /* \"testnet.sol\":25356:25532  if (_swapTokenForBNB(temp) == 0) {... */\n      tag_472\n      jumpi\n        /* \"testnet.sol\":25469:25473  this */\n      address\n        /* \"testnet.sol\":25449:25475  __balanceOf[address(this)] */\n      0x00\n      swap1\n      dup2\n      mstore\n        /* \"testnet.sol\":25449:25460  __balanceOf */\n      0x1c\n        /* \"testnet.sol\":25449:25475  __balanceOf[address(this)] */\n      0x20\n      mstore\n      0x40\n      dup2\n      keccak256\n        /* \"testnet.sol\":25449:25483  __balanceOf[address(this)] -= temp */\n      dup1\n      sload\n        /* \"testnet.sol\":25479:25483  temp */\n      dup4\n      swap3\n        /* \"testnet.sol\":25449:25475  __balanceOf[address(this)] */\n      swap1\n        /* \"testnet.sol\":25449:25483  __balanceOf[address(this)] -= temp */\n      tag_473\n      swap1\n        /* \"testnet.sol\":25479:25483  temp */\n      dup5\n      swap1\n        /* \"testnet.sol\":25449:25483  __balanceOf[address(this)] -= temp */\n      tag_427\n      jump\t// in\n    tag_473:\n      swap3\n      pop\n      pop\n      dup2\n      swap1\n      sstore\n      pop\n        /* \"testnet.sol\":25512:25516  temp */\n      dup1\n        /* \"testnet.sol\":25502:25508  GasPot */\n      0x08\n      0x00\n        /* \"testnet.sol\":25502:25516  GasPot += temp */\n      dup3\n      dup3\n      sload\n      tag_474\n      swap2\n      swap1\n      tag_438\n      jump\t// in\n    tag_474:\n      swap1\n      swap2\n      sstore\n      pop\n      pop\n        /* \"testnet.sol\":25356:25532  if (_swapTokenForBNB(temp) == 0) {... */\n    tag_472:\n        /* \"testnet.sol\":25229:25543  {... */\n      pop\n        /* \"testnet.sol\":25200:25543  if (GasPot >= SwapThreshold) {... */\n    tag_468:\n        /* \"testnet.sol\":25619:25640  address(this).balance */\n      selfbalance\n        /* \"testnet.sol\":25682:25687  10000 */\n      0x2710\n        /* \"testnet.sol\":25670:25687  amountBNB > 10000 */\n      dup2\n      gt\n        /* \"testnet.sol\":25666:26480  if (amountBNB > 10000) //0.1BNB change back... */\n      iszero\n      tag_475\n      jumpi\n        /* \"testnet.sol\":25746:25759  percGastoSwap */\n      sload(0x16)\n        /* \"testnet.sol\":25746:25763  percGastoSwap > 0 */\n      iszero\n        /* \"testnet.sol\":25742:26167  if (percGastoSwap > 0) //swap a portion to chosen token... */\n      tag_476\n      jumpi\n        /* \"testnet.sol\":25838:25858  uint256 amounttoSwap */\n      0x00\n        /* \"testnet.sol\":25891:25894  100 */\n      0x64\n        /* \"testnet.sol\":25874:25887  percGastoSwap */\n      sload(0x16)\n        /* \"testnet.sol\":25862:25871  amountBNB */\n      dup4\n        /* \"testnet.sol\":25862:25887  amountBNB * percGastoSwap */\n      tag_477\n      swap2\n      swap1\n      tag_423\n      jump\t// in\n    tag_477:\n        /* \"testnet.sol\":25861:25894  (amountBNB * percGastoSwap) / 100 */\n      tag_478\n      swap2\n      swap1\n      tag_425\n      jump\t// in\n    tag_478:\n        /* \"testnet.sol\":26014:26030  TaxTokenContract */\n      sload(0x04)\n        /* \"testnet.sol\":26057:26076  TaxTokenDestination */\n      sload(0x05)\n        /* \"testnet.sol\":25838:25894  uint256 amounttoSwap = (amountBNB * percGastoSwap) / 100 */\n      swap2\n      swap3\n      pop\n        /* \"testnet.sol\":25917:26099  _swapBNBforChosenTokenandPayout(... */\n      tag_479\n      swap2\n        /* \"testnet.sol\":25838:25894  uint256 amounttoSwap = (amountBNB * percGastoSwap) / 100 */\n      dup4\n      swap2\n      sub(shl(0xa0, 0x01), 0x01)\n        /* \"testnet.sol\":26014:26030  TaxTokenContract */\n      swap1\n      dup2\n      and\n      swap2\n        /* \"testnet.sol\":26057:26076  TaxTokenDestination */\n      and\n        /* \"testnet.sol\":25917:25948  _swapBNBforChosenTokenandPayout */\n      tag_480\n        /* \"testnet.sol\":25917:26099  _swapBNBforChosenTokenandPayout(... */\n      jump\t// in\n    tag_479:\n      pop\n        /* \"testnet.sol\":26122:26147  amountBNB -= amounttoSwap */\n      tag_481\n        /* \"testnet.sol\":26135:26147  amounttoSwap */\n      dup2\n        /* \"testnet.sol\":26122:26147  amountBNB -= amounttoSwap */\n      dup4\n      tag_427\n      jump\t// in\n    tag_481:\n      swap2\n      pop\n        /* \"testnet.sol\":25815:26167  {... */\n      pop\n        /* \"testnet.sol\":25742:26167  if (percGastoSwap > 0) //swap a portion to chosen token... */\n    tag_476:\n        /* \"testnet.sol\":26204:26220  WorkHelperWallet */\n      sload(0x03)\n        /* \"testnet.sol\":26266:26278  new bytes(0) */\n      0x40\n      dup1\n      mload\n        /* \"testnet.sol\":26186:26198  bool success */\n      0x00\n        /* \"testnet.sol\":26266:26278  new bytes(0) */\n      dup1\n      dup3\n      mstore\n      0x20\n      dup3\n      add\n      swap3\n      dup4\n      swap1\n      mstore\n        /* \"testnet.sol\":26186:26198  bool success */\n      swap3\n      sub(shl(0xa0, 0x01), 0x01)\n        /* \"testnet.sol\":26204:26220  WorkHelperWallet */\n      and\n      swap2\n        /* \"testnet.sol\":26233:26242  amountBNB */\n      dup5\n      swap2\n        /* \"testnet.sol\":26204:26297  WorkHelperWallet.call{value: amountBNB}(... */\n      tag_485\n      swap2\n      tag_486\n      jump\t// in\n    tag_485:\n      0x00\n      mload(0x40)\n      dup1\n      dup4\n      sub\n      dup2\n      dup6\n      dup8\n      gas\n      call\n      swap3\n      pop\n      pop\n      pop\n      returndatasize\n      dup1\n      0x00\n      dup2\n      eq\n      tag_489\n      jumpi\n      mload(0x40)\n      swap2\n      pop\n      and(add(returndatasize, 0x3f), not(0x1f))\n      dup3\n      add\n      0x40\n      mstore\n      returndatasize\n      dup3\n      mstore\n      returndatasize\n      0x00\n      0x20\n      dup5\n      add\n      returndatacopy\n      jump(tag_488)\n    tag_489:\n      0x60\n      swap2\n      pop\n    tag_488:\n      pop\n      pop\n        /* \"testnet.sol\":26339:26351  LiquidityPot */\n      0x09\n      dup1\n      sload\n        /* \"testnet.sol\":26316:26336  uint256 amountTokens */\n      0x00\n        /* \"testnet.sol\":26370:26386  LiquidityPot = 0 */\n      swap2\n      dup3\n      swap1\n      sstore\n        /* \"testnet.sol\":26431:26447  WorkHelperWallet */\n      and(sub(shl(0xa0, 0x01), 0x01), sload(0x03))\n        /* \"testnet.sol\":26419:26448  __balanceOf[WorkHelperWallet] */\n      dup3\n      mstore\n        /* \"testnet.sol\":26419:26430  __balanceOf */\n      0x1c\n        /* \"testnet.sol\":26419:26448  __balanceOf[WorkHelperWallet] */\n      0x20\n      mstore\n      0x40\n      dup3\n      keccak256\n        /* \"testnet.sol\":26419:26464  __balanceOf[WorkHelperWallet] += amountTokens */\n      dup1\n      sload\n        /* \"testnet.sol\":26185:26297  (bool success, ) = WorkHelperWallet.call{value: amountBNB}(... */\n      swap4\n      swap5\n      pop\n        /* \"testnet.sol\":26339:26351  LiquidityPot */\n      swap1\n      swap3\n      dup4\n      swap3\n        /* \"testnet.sol\":26316:26336  uint256 amountTokens */\n      swap1\n        /* \"testnet.sol\":26419:26464  __balanceOf[WorkHelperWallet] += amountTokens */\n      tag_490\n      swap1\n        /* \"testnet.sol\":26339:26351  LiquidityPot */\n      dup5\n      swap1\n        /* \"testnet.sol\":26419:26464  __balanceOf[WorkHelperWallet] += amountTokens */\n      tag_438\n      jump\t// in\n    tag_490:\n      swap1\n      swap2\n      sstore\n      pop\n      pop\n      pop\n      pop\n        /* \"testnet.sol\":25666:26480  if (amountBNB > 10000) //0.1BNB change back... */\n    tag_475:\n        /* \"testnet.sol\":25584:26491  {... */\n      pop\n        /* \"testnet.sol\":25131:26498  function doWork() public {... */\n      jump\t// out\n        /* \"testnet.sol\":31258:31332  function PauseTrading() public onlyMain {... */\n    tag_160:\n        /* \"testnet.sol\":11593:11603  MainWallet */\n      and(sub(shl(0xa0, 0x01), 0x01), sload(0x02))\n        /* \"testnet.sol\":11579:11589  msg.sender */\n      caller\n        /* \"testnet.sol\":11579:11603  msg.sender == MainWallet */\n      eq\n      dup1\n        /* \"testnet.sol\":11578:11640  (msg.sender == MainWallet) || (msg.sender == WorkHelperWallet) */\n      tag_492\n      jumpi\n      pop\n        /* \"testnet.sol\":11623:11639  WorkHelperWallet */\n      and(sub(shl(0xa0, 0x01), 0x01), sload(0x03))\n        /* \"testnet.sol\":11609:11619  msg.sender */\n      caller\n        /* \"testnet.sol\":11609:11639  msg.sender == WorkHelperWallet */\n      eq\n        /* \"testnet.sol\":11578:11640  (msg.sender == MainWallet) || (msg.sender == WorkHelperWallet) */\n    tag_492:\n        /* \"testnet.sol\":11570:11641  require((msg.sender == MainWallet) || (msg.sender == WorkHelperWallet)) */\n      tag_493\n      jumpi\n      0x00\n      dup1\n      revert\n    tag_493:\n        /* \"testnet.sol\":31309:31317  isPaused */\n      0x06\n        /* \"testnet.sol\":31309:31324  isPaused = true */\n      dup1\n      sload\n      not(shl(0xa0, 0xff))\n      and\n      shl(0xa0, 0x01)\n      or\n      swap1\n      sstore\n        /* \"testnet.sol\":31258:31332  function PauseTrading() public onlyMain {... */\n      jump\t// out\n        /* \"testnet.sol\":30448:30552  function SetRoundDuration(uint256 Hours) public onlyMain {... */\n    tag_177:\n        /* \"testnet.sol\":11593:11603  MainWallet */\n      and(sub(shl(0xa0, 0x01), 0x01), sload(0x02))\n        /* \"testnet.sol\":11579:11589  msg.sender */\n      caller\n        /* \"testnet.sol\":11579:11603  msg.sender == MainWallet */\n      eq\n      dup1\n        /* \"testnet.sol\":11578:11640  (msg.sender == MainWallet) || (msg.sender == WorkHelperWallet) */\n      tag_496\n      jumpi\n      pop\n        /* \"testnet.sol\":11623:11639  WorkHelperWallet */\n      and(sub(shl(0xa0, 0x01), 0x01), sload(0x03))\n        /* \"testnet.sol\":11609:11619  msg.sender */\n      caller\n        /* \"testnet.sol\":11609:11639  msg.sender == WorkHelperWallet */\n      eq\n        /* \"testnet.sol\":11578:11640  (msg.sender == MainWallet) || (msg.sender == WorkHelperWallet) */\n    tag_496:\n        /* \"testnet.sol\":11570:11641  require((msg.sender == MainWallet) || (msg.sender == WorkHelperWallet)) */\n      tag_497\n      jumpi\n      0x00\n      dup1\n      revert\n    tag_497:\n        /* \"testnet.sol\":30532:30544  Hours * 3600 */\n      tag_499\n        /* \"testnet.sol\":30532:30537  Hours */\n      dup2\n        /* \"testnet.sol\":30540:30544  3600 */\n      0x0e10\n        /* \"testnet.sol\":30532:30544  Hours * 3600 */\n      tag_423\n      jump\t// in\n    tag_499:\n        /* \"testnet.sol\":30516:30529  RoundDuration */\n      0x12\n        /* \"testnet.sol\":30516:30544  RoundDuration = Hours * 3600 */\n      sstore\n      pop\n        /* \"testnet.sol\":30448:30552  function SetRoundDuration(uint256 Hours) public onlyMain {... */\n      jump\t// out\n        /* \"testnet.sol\":22493:23392  function getCountDown()... */\n    tag_184:\n        /* \"testnet.sol\":22579:22591  uint256 Days */\n      0x00\n        /* \"testnet.sol\":22606:22619  uint256 Hours */\n      dup1\n        /* \"testnet.sol\":22634:22649  uint256 Minutes */\n      0x00\n        /* \"testnet.sol\":22664:22679  uint256 Seconds */\n      dup1\n        /* \"testnet.sol\":22707:22726  uint256 currentTime */\n      0x00\n        /* \"testnet.sol\":22729:22744  block.timestamp */\n      timestamp\n        /* \"testnet.sol\":22707:22744  uint256 currentTime = block.timestamp */\n      swap1\n      pop\n        /* \"testnet.sol\":22787:22800  RoundDuration */\n      sload(0x12)\n        /* \"testnet.sol\":22775:22784  StartTime */\n      sload(0x13)\n        /* \"testnet.sol\":22775:22800  StartTime + RoundDuration */\n      tag_501\n      swap2\n      swap1\n      tag_438\n      jump\t// in\n    tag_501:\n        /* \"testnet.sol\":22761:22772  currentTime */\n      dup2\n        /* \"testnet.sol\":22761:22800  currentTime < StartTime + RoundDuration */\n      lt\n        /* \"testnet.sol\":22757:23334  if (currentTime < StartTime + RoundDuration) {... */\n      iszero\n      tag_502\n      jumpi\n        /* \"testnet.sol\":22817:22838  uint256 RemainingTime */\n      0x00\n        /* \"testnet.sol\":22869:22880  currentTime */\n      dup2\n        /* \"testnet.sol\":22853:22866  RoundDuration */\n      sload(0x12)\n        /* \"testnet.sol\":22841:22850  StartTime */\n      sload(0x13)\n        /* \"testnet.sol\":22841:22866  StartTime + RoundDuration */\n      tag_503\n      swap2\n      swap1\n      tag_438\n      jump\t// in\n    tag_503:\n        /* \"testnet.sol\":22841:22880  StartTime + RoundDuration - currentTime */\n      tag_504\n      swap2\n      swap1\n      tag_427\n      jump\t// in\n    tag_504:\n        /* \"testnet.sol\":22817:22880  uint256 RemainingTime = StartTime + RoundDuration - currentTime */\n      swap1\n      pop\n        /* \"testnet.sol\":22902:22923  RemainingTime / 86400 */\n      tag_505\n        /* \"testnet.sol\":22918:22923  86400 */\n      0x015180\n        /* \"testnet.sol\":22817:22880  uint256 RemainingTime = StartTime + RoundDuration - currentTime */\n      dup3\n        /* \"testnet.sol\":22902:22923  RemainingTime / 86400 */\n      tag_425\n      jump\t// in\n    tag_505:\n        /* \"testnet.sol\":22895:22923  Days = RemainingTime / 86400 */\n      swap6\n      pop\n        /* \"testnet.sol\":22969:22978  Days * 24 */\n      tag_506\n        /* \"testnet.sol\":22895:22923  Days = RemainingTime / 86400 */\n      dup7\n        /* \"testnet.sol\":22976:22978  24 */\n      0x18\n        /* \"testnet.sol\":22969:22978  Days * 24 */\n      tag_423\n      jump\t// in\n    tag_506:\n        /* \"testnet.sol\":22946:22966  RemainingTime / 3600 */\n      tag_507\n        /* \"testnet.sol\":22962:22966  3600 */\n      0x0e10\n        /* \"testnet.sol\":22946:22959  RemainingTime */\n      dup4\n        /* \"testnet.sol\":22946:22966  RemainingTime / 3600 */\n      tag_425\n      jump\t// in\n    tag_507:\n        /* \"testnet.sol\":22946:22978  RemainingTime / 3600 - Days * 24 */\n      tag_508\n      swap2\n      swap1\n      tag_427\n      jump\t// in\n    tag_508:\n        /* \"testnet.sol\":22938:22978  Hours = RemainingTime / 3600 - Days * 24 */\n      swap5\n      pop\n        /* \"testnet.sol\":23033:23042  Days * 24 */\n      tag_509\n        /* \"testnet.sol\":23033:23037  Days */\n      dup7\n        /* \"testnet.sol\":23040:23042  24 */\n      0x18\n        /* \"testnet.sol\":23033:23042  Days * 24 */\n      tag_423\n      jump\t// in\n    tag_509:\n        /* \"testnet.sol\":23025:23042  Hours + Days * 24 */\n      tag_510\n      swap1\n        /* \"testnet.sol\":23025:23030  Hours */\n      dup7\n        /* \"testnet.sol\":23025:23042  Hours + Days * 24 */\n      tag_438\n      jump\t// in\n    tag_510:\n        /* \"testnet.sol\":23024:23048  (Hours + Days * 24) * 60 */\n      tag_511\n      swap1\n        /* \"testnet.sol\":23046:23048  60 */\n      0x3c\n        /* \"testnet.sol\":23024:23048  (Hours + Days * 24) * 60 */\n      tag_423\n      jump\t// in\n    tag_511:\n        /* \"testnet.sol\":23003:23021  RemainingTime / 60 */\n      tag_512\n        /* \"testnet.sol\":23019:23021  60 */\n      0x3c\n        /* \"testnet.sol\":23003:23016  RemainingTime */\n      dup4\n        /* \"testnet.sol\":23003:23021  RemainingTime / 60 */\n      tag_425\n      jump\t// in\n    tag_512:\n        /* \"testnet.sol\":23003:23048  RemainingTime / 60 - (Hours + Days * 24) * 60 */\n      tag_513\n      swap2\n      swap1\n      tag_427\n      jump\t// in\n    tag_513:\n        /* \"testnet.sol\":22993:23048  Minutes = RemainingTime / 60 - (Hours + Days * 24) * 60 */\n      swap4\n      pop\n        /* \"testnet.sol\":23192:23204  Minutes * 60 */\n      tag_514\n        /* \"testnet.sol\":22993:23048  Minutes = RemainingTime / 60 - (Hours + Days * 24) * 60 */\n      dup5\n        /* \"testnet.sol\":23202:23204  60 */\n      0x3c\n        /* \"testnet.sol\":23192:23204  Minutes * 60 */\n      tag_423\n      jump\t// in\n    tag_514:\n        /* \"testnet.sol\":23158:23170  Hours * 3600 */\n      tag_515\n        /* \"testnet.sol\":23158:23163  Hours */\n      dup7\n        /* \"testnet.sol\":23166:23170  3600 */\n      0x0e10\n        /* \"testnet.sol\":23158:23170  Hours * 3600 */\n      tag_423\n      jump\t// in\n    tag_515:\n        /* \"testnet.sol\":23124:23136  Days * 86400 */\n      tag_516\n        /* \"testnet.sol\":23124:23128  Days */\n      dup9\n        /* \"testnet.sol\":23131:23136  86400 */\n      0x015180\n        /* \"testnet.sol\":23124:23136  Days * 86400 */\n      tag_423\n      jump\t// in\n    tag_516:\n        /* \"testnet.sol\":23090:23137  RemainingTime -... */\n      tag_517\n      swap1\n        /* \"testnet.sol\":23090:23103  RemainingTime */\n      dup5\n        /* \"testnet.sol\":23090:23137  RemainingTime -... */\n      tag_427\n      jump\t// in\n    tag_517:\n        /* \"testnet.sol\":23090:23171  RemainingTime -... */\n      tag_518\n      swap2\n      swap1\n      tag_427\n      jump\t// in\n    tag_518:\n        /* \"testnet.sol\":23090:23205  RemainingTime -... */\n      tag_519\n      swap2\n      swap1\n      tag_427\n      jump\t// in\n    tag_519:\n        /* \"testnet.sol\":23063:23205  Seconds =... */\n      swap3\n      pop\n        /* \"testnet.sol\":22802:23217  {... */\n      pop\n        /* \"testnet.sol\":22757:23334  if (currentTime < StartTime + RoundDuration) {... */\n      jump(tag_520)\n    tag_502:\n        /* \"testnet.sol\":23245:23246  0 */\n      0x00\n        /* \"testnet.sol\":23238:23246  Days = 0 */\n      swap5\n      pop\n        /* \"testnet.sol\":23269:23270  0 */\n      0x00\n        /* \"testnet.sol\":23261:23270  Hours = 0 */\n      swap4\n      pop\n        /* \"testnet.sol\":23295:23296  0 */\n      0x00\n        /* \"testnet.sol\":23285:23296  Minutes = 0 */\n      swap3\n      pop\n        /* \"testnet.sol\":23321:23322  0 */\n      0x00\n        /* \"testnet.sol\":23311:23322  Seconds = 0 */\n      swap2\n      pop\n        /* \"testnet.sol\":22757:23334  if (currentTime < StartTime + RoundDuration) {... */\n    tag_520:\n        /* \"testnet.sol\":23346:23384  return (Days, Hours, Minutes, Seconds) */\n      pop\n        /* \"testnet.sol\":22493:23392  function getCountDown()... */\n      swap1\n      swap2\n      swap3\n      swap4\n      jump\t// out\n        /* \"testnet.sol\":23400:23531  function setTokenTax(uint256 TransferTax) public onlyMain {... */\n    tag_190:\n        /* \"testnet.sol\":11593:11603  MainWallet */\n      and(sub(shl(0xa0, 0x01), 0x01), sload(0x02))\n        /* \"testnet.sol\":11579:11589  msg.sender */\n      caller\n        /* \"testnet.sol\":11579:11603  msg.sender == MainWallet */\n      eq\n      dup1\n        /* \"testnet.sol\":11578:11640  (msg.sender == MainWallet) || (msg.sender == WorkHelperWallet) */\n      tag_522\n      jumpi\n      pop\n        /* \"testnet.sol\":11623:11639  WorkHelperWallet */\n      and(sub(shl(0xa0, 0x01), 0x01), sload(0x03))\n        /* \"testnet.sol\":11609:11619  msg.sender */\n      caller\n        /* \"testnet.sol\":11609:11639  msg.sender == WorkHelperWallet */\n      eq\n        /* \"testnet.sol\":11578:11640  (msg.sender == MainWallet) || (msg.sender == WorkHelperWallet) */\n    tag_522:\n        /* \"testnet.sol\":11570:11641  require((msg.sender == MainWallet) || (msg.sender == WorkHelperWallet)) */\n      tag_523\n      jumpi\n      0x00\n      dup1\n      revert\n    tag_523:\n        /* \"testnet.sol\":23492:23494  20 */\n      0x14\n        /* \"testnet.sol\":23477:23488  TransferTax */\n      dup2\n        /* \"testnet.sol\":23477:23494  TransferTax <= 20 */\n      gt\n      iszero\n        /* \"testnet.sol\":23469:23495  require(TransferTax <= 20) */\n      tag_525\n      jumpi\n      0x00\n      dup1\n      revert\n    tag_525:\n        /* \"testnet.sol\":23506:23509  Tax */\n      0x0d\n        /* \"testnet.sol\":23506:23523  Tax = TransferTax */\n      sstore\n        /* \"testnet.sol\":23400:23531  function setTokenTax(uint256 TransferTax) public onlyMain {... */\n      jump\t// out\n        /* \"testnet.sol\":24103:24210  function UndoExcludefromTax(address Addr) public onlyMain {... */\n    tag_194:\n        /* \"testnet.sol\":11593:11603  MainWallet */\n      and(sub(shl(0xa0, 0x01), 0x01), sload(0x02))\n        /* \"testnet.sol\":11579:11589  msg.sender */\n      caller\n        /* \"testnet.sol\":11579:11603  msg.sender == MainWallet */\n      eq\n      dup1\n        /* \"testnet.sol\":11578:11640  (msg.sender == MainWallet) || (msg.sender == WorkHelperWallet) */\n      tag_527\n      jumpi\n      pop\n        /* \"testnet.sol\":11623:11639  WorkHelperWallet */\n      and(sub(shl(0xa0, 0x01), 0x01), sload(0x03))\n        /* \"testnet.sol\":11609:11619  msg.sender */\n      caller\n        /* \"testnet.sol\":11609:11639  msg.sender == WorkHelperWallet */\n      eq\n        /* \"testnet.sol\":11578:11640  (msg.sender == MainWallet) || (msg.sender == WorkHelperWallet) */\n    tag_527:\n        /* \"testnet.sol\":11570:11641  require((msg.sender == MainWallet) || (msg.sender == WorkHelperWallet)) */\n      tag_528\n      jumpi\n      0x00\n      dup1\n      revert\n    tag_528:\n      sub(shl(0xa0, 0x01), 0x01)\n        /* \"testnet.sol\":24172:24194  _ExcludedFromTax[Addr] */\n      and\n        /* \"testnet.sol\":24197:24202  false */\n      0x00\n        /* \"testnet.sol\":24172:24194  _ExcludedFromTax[Addr] */\n      swap1\n      dup2\n      mstore\n        /* \"testnet.sol\":24172:24188  _ExcludedFromTax */\n      0x20\n        /* \"testnet.sol\":24172:24194  _ExcludedFromTax[Addr] */\n      dup1\n      mstore\n      0x40\n      swap1\n      keccak256\n        /* \"testnet.sol\":24172:24202  _ExcludedFromTax[Addr] = false */\n      dup1\n      sload\n      not(0xff)\n      and\n      swap1\n      sstore\n        /* \"testnet.sol\":24103:24210  function UndoExcludefromTax(address Addr) public onlyMain {... */\n      jump\t// out\n        /* \"testnet.sol\":24911:25017  function ChainlinkEnabled(bool isEnabled) public onlyMain {... */\n    tag_212:\n        /* \"testnet.sol\":11593:11603  MainWallet */\n      and(sub(shl(0xa0, 0x01), 0x01), sload(0x02))\n        /* \"testnet.sol\":11579:11589  msg.sender */\n      caller\n        /* \"testnet.sol\":11579:11603  msg.sender == MainWallet */\n      eq\n      dup1\n        /* \"testnet.sol\":11578:11640  (msg.sender == MainWallet) || (msg.sender == WorkHelperWallet) */\n      tag_531\n      jumpi\n      pop\n        /* \"testnet.sol\":11623:11639  WorkHelperWallet */\n      and(sub(shl(0xa0, 0x01), 0x01), sload(0x03))\n        /* \"testnet.sol\":11609:11619  msg.sender */\n      caller\n        /* \"testnet.sol\":11609:11639  msg.sender == WorkHelperWallet */\n      eq\n        /* \"testnet.sol\":11578:11640  (msg.sender == MainWallet) || (msg.sender == WorkHelperWallet) */\n    tag_531:\n        /* \"testnet.sol\":11570:11641  require((msg.sender == MainWallet) || (msg.sender == WorkHelperWallet)) */\n      tag_532\n      jumpi\n      0x00\n      dup1\n      revert\n    tag_532:\n        /* \"testnet.sol\":24980:24997  usingChainLinkVRF */\n      0x17\n        /* \"testnet.sol\":24980:25009  usingChainLinkVRF = isEnabled */\n      dup1\n      sload\n      not(0xff)\n      and\n      swap2\n      iszero\n      iszero\n      swap2\n      swap1\n      swap2\n      or\n      swap1\n      sstore\n        /* \"testnet.sol\":24911:25017  function ChainlinkEnabled(bool isEnabled) public onlyMain {... */\n      jump\t// out\n        /* \"testnet.sol\":22294:22485  function getMyWinningOdds10000() public view returns (uint256) {... */\n    tag_223:\n        /* \"testnet.sol\":22372:22384  RoundEntries */\n      sload(0x0c)\n        /* \"testnet.sol\":22348:22355  uint256 */\n      0x00\n      swap1\n      sub(shl(0x40, 0x01), 0x01)\n        /* \"testnet.sol\":22372:22384  RoundEntries */\n      and\n        /* \"testnet.sol\":22372:22388  RoundEntries > 0 */\n      iszero\n        /* \"testnet.sol\":22368:22477  if (RoundEntries > 0) {... */\n      tag_405\n      jumpi\n        /* \"testnet.sol\":22439:22451  RoundEntries */\n      and(sub(shl(0x40, 0x01), 0x01), sload(0x0c))\n        /* \"testnet.sol\":22413:22427  getMyEntries() */\n      tag_536\n        /* \"testnet.sol\":22413:22425  getMyEntries */\n      tag_114\n        /* \"testnet.sol\":22413:22427  getMyEntries() */\n      jump\t// in\n    tag_536:\n        /* \"testnet.sol\":22413:22435  getMyEntries() * 10000 */\n      tag_537\n      swap1\n        /* \"testnet.sol\":22430:22435  10000 */\n      0x2710\n        /* \"testnet.sol\":22413:22435  getMyEntries() * 10000 */\n      tag_423\n      jump\t// in\n    tag_537:\n        /* \"testnet.sol\":22412:22451  (getMyEntries() * 10000) / RoundEntries */\n      tag_538\n      swap2\n      swap1\n      tag_425\n      jump\t// in\n    tag_538:\n        /* \"testnet.sol\":22405:22451  return (getMyEntries() * 10000) / RoundEntries */\n      swap1\n      pop\n        /* \"testnet.sol\":22294:22485  function getMyWinningOdds10000() public view returns (uint256) {... */\n      swap1\n      jump\t// out\n        /* \"testnet.sol\":30560:30748  function SetMaxEntriesperTransaction(uint64 NewMaxEntriessperTransaction)... */\n    tag_228:\n        /* \"testnet.sol\":11593:11603  MainWallet */\n      and(sub(shl(0xa0, 0x01), 0x01), sload(0x02))\n        /* \"testnet.sol\":11579:11589  msg.sender */\n      caller\n        /* \"testnet.sol\":11579:11603  msg.sender == MainWallet */\n      eq\n      dup1\n        /* \"testnet.sol\":11578:11640  (msg.sender == MainWallet) || (msg.sender == WorkHelperWallet) */\n      tag_541\n      jumpi\n      pop\n        /* \"testnet.sol\":11623:11639  WorkHelperWallet */\n      and(sub(shl(0xa0, 0x01), 0x01), sload(0x03))\n        /* \"testnet.sol\":11609:11619  msg.sender */\n      caller\n        /* \"testnet.sol\":11609:11639  msg.sender == WorkHelperWallet */\n      eq\n        /* \"testnet.sol\":11578:11640  (msg.sender == MainWallet) || (msg.sender == WorkHelperWallet) */\n    tag_541:\n        /* \"testnet.sol\":11570:11641  require((msg.sender == MainWallet) || (msg.sender == WorkHelperWallet)) */\n      tag_542\n      jumpi\n      0x00\n      dup1\n      revert\n    tag_542:\n        /* \"testnet.sol\":30684:30709  MaxEntriessperTransaction */\n      0x0c\n        /* \"testnet.sol\":30684:30740  MaxEntriessperTransaction = NewMaxEntriessperTransaction */\n      dup1\n      sload\n      sub(shl(0x40, 0x01), 0x01)\n      swap1\n      swap3\n      and\n      shl(0xc0, 0x01)\n      mul\n      sub(shl(0xc0, 0x01), 0x01)\n      swap1\n      swap3\n      and\n      swap2\n      swap1\n      swap2\n      or\n      swap1\n      sstore\n        /* \"testnet.sol\":30560:30748  function SetMaxEntriesperTransaction(uint64 NewMaxEntriessperTransaction)... */\n      jump\t// out\n        /* \"testnet.sol\":24335:24478  function setPercGasToSwap(uint256 perctoswap) public onlyMain {... */\n    tag_251:\n        /* \"testnet.sol\":11593:11603  MainWallet */\n      and(sub(shl(0xa0, 0x01), 0x01), sload(0x02))\n        /* \"testnet.sol\":11579:11589  msg.sender */\n      caller\n        /* \"testnet.sol\":11579:11603  msg.sender == MainWallet */\n      eq\n      dup1\n        /* \"testnet.sol\":11578:11640  (msg.sender == MainWallet) || (msg.sender == WorkHelperWallet) */\n      tag_546\n      jumpi\n      pop\n        /* \"testnet.sol\":11623:11639  WorkHelperWallet */\n      and(sub(shl(0xa0, 0x01), 0x01), sload(0x03))\n        /* \"testnet.sol\":11609:11619  msg.sender */\n      caller\n        /* \"testnet.sol\":11609:11639  msg.sender == WorkHelperWallet */\n      eq\n        /* \"testnet.sol\":11578:11640  (msg.sender == MainWallet) || (msg.sender == WorkHelperWallet) */\n    tag_546:\n        /* \"testnet.sol\":11570:11641  require((msg.sender == MainWallet) || (msg.sender == WorkHelperWallet)) */\n      tag_547\n      jumpi\n      0x00\n      dup1\n      revert\n    tag_547:\n        /* \"testnet.sol\":24429:24432  100 */\n      0x64\n        /* \"testnet.sol\":24416:24426  perctoswap */\n      dup2\n        /* \"testnet.sol\":24416:24432  perctoswap < 100 */\n      lt\n        /* \"testnet.sol\":24408:24433  require(perctoswap < 100) */\n      tag_549\n      jumpi\n      0x00\n      dup1\n      revert\n    tag_549:\n        /* \"testnet.sol\":24444:24457  percGastoSwap */\n      0x16\n        /* \"testnet.sol\":24444:24470  percGastoSwap = perctoswap */\n      sstore\n        /* \"testnet.sol\":24335:24478  function setPercGasToSwap(uint256 perctoswap) public onlyMain {... */\n      jump\t// out\n        /* \"https://github.com/smartcontractkit/chainlink/blob/develop/contracts/src/v0.8/VRFConsumerBase.sol\":9576:9783  function rawFulfillRandomness(bytes32 requestId, uint256 randomness) external {... */\n    tag_268:\n        /* \"https://github.com/smartcontractkit/chainlink/blob/develop/contracts/src/v0.8/VRFConsumerBase.sol\":9668:9678  msg.sender */\n      caller\n      sub(shl(0xa0, 0x01), 0x01)\n        /* \"https://github.com/smartcontractkit/chainlink/blob/develop/contracts/src/v0.8/VRFConsumerBase.sol\":9682:9696  vrfCoordinator */\n      immutable(\"0x6dbb33232cde86c8a04f90a8bed9fc1c5ef520188a14538d96eb100d69bc2a94\")\n        /* \"https://github.com/smartcontractkit/chainlink/blob/develop/contracts/src/v0.8/VRFConsumerBase.sol\":9668:9696  msg.sender == vrfCoordinator */\n      and\n      eq\n        /* \"https://github.com/smartcontractkit/chainlink/blob/develop/contracts/src/v0.8/VRFConsumerBase.sol\":9660:9732  require(msg.sender == vrfCoordinator, \"Only VRFCoordinator can fulfill\") */\n      tag_552\n      jumpi\n      mload(0x40)\n      shl(0xe5, 0x461bcd)\n      dup2\n      mstore\n        /* \"#utility.yul\":9762:9764   */\n      0x20\n        /* \"https://github.com/smartcontractkit/chainlink/blob/develop/contracts/src/v0.8/VRFConsumerBase.sol\":9660:9732  require(msg.sender == vrfCoordinator, \"Only VRFCoordinator can fulfill\") */\n      0x04\n      dup3\n      add\n        /* \"#utility.yul\":9744:9765   */\n      mstore\n        /* \"#utility.yul\":9801:9803   */\n      0x1f\n        /* \"#utility.yul\":9781:9799   */\n      0x24\n      dup3\n      add\n        /* \"#utility.yul\":9774:9804   */\n      mstore\n        /* \"#utility.yul\":9840:9873   */\n      0x4f6e6c7920565246436f6f7264696e61746f722063616e2066756c66696c6c00\n        /* \"#utility.yul\":9820:9838   */\n      0x44\n      dup3\n      add\n        /* \"#utility.yul\":9813:9874   */\n      mstore\n        /* \"#utility.yul\":9891:9909   */\n      0x64\n      add\n        /* \"https://github.com/smartcontractkit/chainlink/blob/develop/contracts/src/v0.8/VRFConsumerBase.sol\":9660:9732  require(msg.sender == vrfCoordinator, \"Only VRFCoordinator can fulfill\") */\n      tag_431\n        /* \"#utility.yul\":9560:9915   */\n      jump\n        /* \"https://github.com/smartcontractkit/chainlink/blob/develop/contracts/src/v0.8/VRFConsumerBase.sol\":9660:9732  require(msg.sender == vrfCoordinator, \"Only VRFCoordinator can fulfill\") */\n    tag_552:\n        /* \"https://github.com/smartcontractkit/chainlink/blob/develop/contracts/src/v0.8/VRFConsumerBase.sol\":9738:9778  fulfillRandomness(requestId, randomness) */\n      tag_555\n        /* \"https://github.com/smartcontractkit/chainlink/blob/develop/contracts/src/v0.8/VRFConsumerBase.sol\":9756:9765  requestId */\n      dup3\n        /* \"https://github.com/smartcontractkit/chainlink/blob/develop/contracts/src/v0.8/VRFConsumerBase.sol\":9767:9777  randomness */\n      dup3\n        /* \"https://github.com/smartcontractkit/chainlink/blob/develop/contracts/src/v0.8/VRFConsumerBase.sol\":9738:9755  fulfillRandomness */\n      tag_556\n        /* \"https://github.com/smartcontractkit/chainlink/blob/develop/contracts/src/v0.8/VRFConsumerBase.sol\":9738:9778  fulfillRandomness(requestId, randomness) */\n      jump\t// in\n    tag_555:\n        /* \"https://github.com/smartcontractkit/chainlink/blob/develop/contracts/src/v0.8/VRFConsumerBase.sol\":9576:9783  function rawFulfillRandomness(bytes32 requestId, uint256 randomness) external {... */\n      pop\n      pop\n      jump\t// out\n        /* \"testnet.sol\":21704:21968  function getSecondsRemaining() public view returns (uint256 Seconds) {... */\n    tag_275:\n        /* \"testnet.sol\":21862:21875  RoundDuration */\n      sload(0x12)\n        /* \"testnet.sol\":21850:21859  StartTime */\n      sload(0x13)\n        /* \"testnet.sol\":21756:21771  uint256 Seconds */\n      0x00\n      swap2\n        /* \"testnet.sol\":21806:21821  block.timestamp */\n      timestamp\n      swap2\n        /* \"testnet.sol\":21850:21875  StartTime + RoundDuration */\n      tag_558\n      swap2\n        /* \"testnet.sol\":21862:21875  RoundDuration */\n      swap1\n        /* \"testnet.sol\":21850:21875  StartTime + RoundDuration */\n      tag_438\n      jump\t// in\n    tag_558:\n        /* \"testnet.sol\":21836:21847  currentTime */\n      dup2\n        /* \"testnet.sol\":21836:21875  currentTime < StartTime + RoundDuration */\n      lt\n        /* \"testnet.sol\":21832:21960  if (currentTime < StartTime + RoundDuration)... */\n      iszero\n      tag_559\n      jumpi\n        /* \"testnet.sol\":21925:21936  currentTime */\n      dup1\n        /* \"testnet.sol\":21909:21922  RoundDuration */\n      sload(0x12)\n        /* \"testnet.sol\":21897:21906  StartTime */\n      sload(0x13)\n        /* \"testnet.sol\":21897:21922  StartTime + RoundDuration */\n      tag_560\n      swap2\n      swap1\n      tag_438\n      jump\t// in\n    tag_560:\n        /* \"testnet.sol\":21897:21936  StartTime + RoundDuration - currentTime */\n      tag_561\n      swap2\n      swap1\n      tag_427\n      jump\t// in\n    tag_561:\n        /* \"testnet.sol\":21890:21936  return StartTime + RoundDuration - currentTime */\n      swap2\n      pop\n      pop\n        /* \"testnet.sol\":21704:21968  function getSecondsRemaining() public view returns (uint256 Seconds) {... */\n      swap1\n      jump\t// out\n        /* \"testnet.sol\":21832:21960  if (currentTime < StartTime + RoundDuration)... */\n    tag_559:\n        /* \"testnet.sol\":21959:21960  0 */\n      0x00\n        /* \"testnet.sol\":21952:21960  return 0 */\n      swap2\n      pop\n      pop\n        /* \"testnet.sol\":21704:21968  function getSecondsRemaining() public view returns (uint256 Seconds) {... */\n      swap1\n      jump\t// out\n        /* \"testnet.sol\":15689:16656  function transfer(address _to, uint256 _value)... */\n    tag_284:\n      sub(shl(0xa0, 0x01), 0x01)\n        /* \"testnet.sol\":15853:15874  _ExcludedFromTax[_to] */\n      dup3\n      and\n        /* \"testnet.sol\":15788:15800  bool success */\n      0x00\n        /* \"testnet.sol\":15853:15874  _ExcludedFromTax[_to] */\n      swap1\n      dup2\n      mstore\n        /* \"testnet.sol\":15853:15869  _ExcludedFromTax */\n      0x20\n        /* \"testnet.sol\":15853:15874  _ExcludedFromTax[_to] */\n      dup1\n      mstore\n      0x40\n      dup2\n      keccak256\n      sload\n        /* \"testnet.sol\":15788:15800  bool success */\n      dup2\n      swap1\n        /* \"testnet.sol\":15853:15874  _ExcludedFromTax[_to] */\n      0xff\n      and\n      dup1\n        /* \"testnet.sol\":15852:15909  (_ExcludedFromTax[_to]) || (_ExcludedFromTax[msg.sender]) */\n      tag_565\n      jumpi\n      pop\n        /* \"testnet.sol\":15897:15907  msg.sender */\n      caller\n        /* \"testnet.sol\":15880:15908  _ExcludedFromTax[msg.sender] */\n      0x00\n      swap1\n      dup2\n      mstore\n        /* \"testnet.sol\":15880:15896  _ExcludedFromTax */\n      0x20\n        /* \"testnet.sol\":15880:15908  _ExcludedFromTax[msg.sender] */\n      dup1\n      mstore\n      0x40\n      swap1\n      keccak256\n      sload\n      0xff\n      and\n        /* \"testnet.sol\":15852:15909  (_ExcludedFromTax[_to]) || (_ExcludedFromTax[msg.sender]) */\n    tag_565:\n        /* \"testnet.sol\":15848:15985  if ((_ExcludedFromTax[_to]) || (_ExcludedFromTax[msg.sender]))... */\n      iszero\n      tag_566\n      jumpi\n      pop\n        /* \"testnet.sol\":15936:15937  0 */\n      0x00\n        /* \"testnet.sol\":15848:15985  if ((_ExcludedFromTax[_to]) || (_ExcludedFromTax[msg.sender]))... */\n      jump(tag_567)\n    tag_566:\n        /* \"testnet.sol\":15982:15985  100 */\n      0x64\n        /* \"testnet.sol\":15975:15978  Tax */\n      sload(0x0d)\n        /* \"testnet.sol\":15966:15972  _value */\n      dup5\n        /* \"testnet.sol\":15966:15978  _value * Tax */\n      tag_568\n      swap2\n      swap1\n      tag_423\n      jump\t// in\n    tag_568:\n        /* \"testnet.sol\":15965:15985  (_value * Tax) / 100 */\n      tag_569\n      swap2\n      swap1\n      tag_425\n      jump\t// in\n    tag_569:\n        /* \"testnet.sol\":15953:15985  taxamount = (_value * Tax) / 100 */\n      swap1\n      pop\n        /* \"testnet.sol\":15848:15985  if ((_ExcludedFromTax[_to]) || (_ExcludedFromTax[msg.sender]))... */\n    tag_567:\n        /* \"testnet.sol\":15998:16015  uint256 amountout */\n      0x00\n        /* \"testnet.sol\":16018:16036  _value - taxamount */\n      tag_570\n        /* \"testnet.sol\":16027:16036  taxamount */\n      dup3\n        /* \"testnet.sol\":16018:16024  _value */\n      dup6\n        /* \"testnet.sol\":16018:16036  _value - taxamount */\n      tag_427\n      jump\t// in\n    tag_570:\n        /* \"testnet.sol\":16051:16059  isPaused */\n      sload(0x06)\n        /* \"testnet.sol\":15998:16036  uint256 amountout = _value - taxamount */\n      swap1\n      swap2\n      pop\n      shl(0xa0, 0x01)\n        /* \"testnet.sol\":16051:16059  isPaused */\n      swap1\n      div\n      0xff\n      and\n        /* \"testnet.sol\":16047:16221  if (isPaused) {... */\n      iszero\n      tag_573\n      jumpi\n      sub(shl(0xa0, 0x01), 0x01)\n        /* \"testnet.sol\":16103:16124  _ExcludedFromTax[_to] */\n      dup6\n      and\n      0x00\n      swap1\n      dup2\n      mstore\n        /* \"testnet.sol\":16103:16119  _ExcludedFromTax */\n      0x20\n        /* \"testnet.sol\":16103:16124  _ExcludedFromTax[_to] */\n      dup1\n      mstore\n      0x40\n      swap1\n      keccak256\n      sload\n      0xff\n      and\n      dup1\n        /* \"testnet.sol\":16102:16159  (_ExcludedFromTax[_to]) || (_ExcludedFromTax[msg.sender]) */\n      tag_572\n      jumpi\n      pop\n        /* \"testnet.sol\":16147:16157  msg.sender */\n      caller\n        /* \"testnet.sol\":16130:16158  _ExcludedFromTax[msg.sender] */\n      0x00\n      swap1\n      dup2\n      mstore\n        /* \"testnet.sol\":16130:16146  _ExcludedFromTax */\n      0x20\n        /* \"testnet.sol\":16130:16158  _ExcludedFromTax[msg.sender] */\n      dup1\n      mstore\n      0x40\n      swap1\n      keccak256\n      sload\n      0xff\n      and\n        /* \"testnet.sol\":16102:16159  (_ExcludedFromTax[_to]) || (_ExcludedFromTax[msg.sender]) */\n    tag_572:\n        /* \"testnet.sol\":16076:16209  require(... */\n      tag_573\n      jumpi\n      mload(0x40)\n      shl(0xe5, 0x461bcd)\n      dup2\n      mstore\n        /* \"#utility.yul\":6574:6576   */\n      0x20\n        /* \"testnet.sol\":16076:16209  require(... */\n      0x04\n      dup3\n      add\n        /* \"#utility.yul\":6556:6577   */\n      mstore\n        /* \"#utility.yul\":6613:6615   */\n      0x0e\n        /* \"#utility.yul\":6593:6611   */\n      0x24\n      dup3\n      add\n        /* \"#utility.yul\":6586:6616   */\n      mstore\n      shl(0x92, 0x151c98591a5b99c814185d5cd959)\n        /* \"#utility.yul\":6632:6650   */\n      0x44\n      dup3\n      add\n        /* \"#utility.yul\":6625:6669   */\n      mstore\n        /* \"#utility.yul\":6686:6704   */\n      0x64\n      add\n        /* \"testnet.sol\":16076:16209  require(... */\n      tag_431\n        /* \"#utility.yul\":6372:6710   */\n      jump\n        /* \"testnet.sol\":16076:16209  require(... */\n    tag_573:\n        /* \"testnet.sol\":16244:16245  0 */\n      0x00\n        /* \"testnet.sol\":16235:16241  _value */\n      dup5\n        /* \"testnet.sol\":16235:16245  _value > 0 */\n      gt\n        /* \"testnet.sol\":16235:16280  _value > 0 && _value <= balanceOf(msg.sender) */\n      dup1\n      iszero\n      tag_575\n      jumpi\n      pop\n        /* \"testnet.sol\":16269:16279  msg.sender */\n      caller\n        /* \"testnet.sol\":15375:15390  uint256 balance */\n      0x00\n        /* \"testnet.sol\":15415:15433  __balanceOf[_addr] */\n      swap1\n      dup2\n      mstore\n        /* \"testnet.sol\":15415:15426  __balanceOf */\n      0x1c\n        /* \"testnet.sol\":15415:15433  __balanceOf[_addr] */\n      0x20\n      mstore\n      0x40\n      swap1\n      keccak256\n      sload\n        /* \"testnet.sol\":16249:16255  _value */\n      dup5\n        /* \"testnet.sol\":16249:16280  _value <= balanceOf(msg.sender) */\n      gt\n      iszero\n        /* \"testnet.sol\":16235:16280  _value > 0 && _value <= balanceOf(msg.sender) */\n    tag_575:\n        /* \"testnet.sol\":16231:16626  if (_value > 0 && _value <= balanceOf(msg.sender)) {... */\n      iszero\n      tag_577\n      jumpi\n        /* \"testnet.sol\":16309:16319  msg.sender */\n      caller\n        /* \"testnet.sol\":16297:16320  __balanceOf[msg.sender] */\n      0x00\n      swap1\n      dup2\n      mstore\n        /* \"testnet.sol\":16297:16308  __balanceOf */\n      0x1c\n        /* \"testnet.sol\":16297:16320  __balanceOf[msg.sender] */\n      0x20\n      mstore\n      0x40\n      dup2\n      keccak256\n        /* \"testnet.sol\":16297:16330  __balanceOf[msg.sender] -= _value */\n      dup1\n      sload\n        /* \"testnet.sol\":16324:16330  _value */\n      dup7\n      swap3\n        /* \"testnet.sol\":16297:16320  __balanceOf[msg.sender] */\n      swap1\n        /* \"testnet.sol\":16297:16330  __balanceOf[msg.sender] -= _value */\n      tag_578\n      swap1\n        /* \"testnet.sol\":16324:16330  _value */\n      dup5\n      swap1\n        /* \"testnet.sol\":16297:16330  __balanceOf[msg.sender] -= _value */\n      tag_427\n      jump\t// in\n    tag_578:\n      swap1\n      swap2\n      sstore\n      pop\n      pop\n      sub(shl(0xa0, 0x01), 0x01)\n        /* \"testnet.sol\":16345:16361  __balanceOf[_to] */\n      dup6\n      and\n      0x00\n      swap1\n      dup2\n      mstore\n        /* \"testnet.sol\":16345:16356  __balanceOf */\n      0x1c\n        /* \"testnet.sol\":16345:16361  __balanceOf[_to] */\n      0x20\n      mstore\n      0x40\n      dup2\n      keccak256\n        /* \"testnet.sol\":16345:16374  __balanceOf[_to] += amountout */\n      dup1\n      sload\n        /* \"testnet.sol\":16365:16374  amountout */\n      dup4\n      swap3\n        /* \"testnet.sol\":16345:16361  __balanceOf[_to] */\n      swap1\n        /* \"testnet.sol\":16345:16374  __balanceOf[_to] += amountout */\n      tag_579\n      swap1\n        /* \"testnet.sol\":16365:16374  amountout */\n      dup5\n      swap1\n        /* \"testnet.sol\":16345:16374  __balanceOf[_to] += amountout */\n      tag_438\n      jump\t// in\n    tag_579:\n      swap1\n      swap2\n      sstore\n      pop\n      pop\n        /* \"testnet.sol\":16394:16430  Transfer(msg.sender, _to, amountout) */\n      mload(0x40)\n        /* \"#utility.yul\":1996:2021   */\n      dup2\n      dup2\n      mstore\n      sub(shl(0xa0, 0x01), 0x01)\n        /* \"testnet.sol\":16394:16430  Transfer(msg.sender, _to, amountout) */\n      dup7\n      and\n      swap1\n        /* \"testnet.sol\":16403:16413  msg.sender */\n      caller\n      swap1\n        /* \"testnet.sol\":16394:16430  Transfer(msg.sender, _to, amountout) */\n      0xddf252ad1be2c89b69c2b068fc378daa952ba7f163c4a11628f55a4df523b3ef\n      swap1\n        /* \"#utility.yul\":1984:1986   */\n      0x20\n        /* \"#utility.yul\":1969:1987   */\n      add\n        /* \"testnet.sol\":16394:16430  Transfer(msg.sender, _to, amountout) */\n      mload(0x40)\n      dup1\n      swap2\n      sub\n      swap1\n      log3\n        /* \"testnet.sol\":16447:16466  uint256 burnPortion */\n      0x00\n        /* \"testnet.sol\":16494:16497  100 */\n      0x64\n        /* \"testnet.sol\":16482:16490  burnRate */\n      sload(0x0a)\n        /* \"testnet.sol\":16470:16479  taxamount */\n      dup5\n        /* \"testnet.sol\":16470:16490  taxamount * burnRate */\n      tag_581\n      swap2\n      swap1\n      tag_423\n      jump\t// in\n    tag_581:\n        /* \"testnet.sol\":16469:16497  (taxamount * burnRate) / 100 */\n      tag_582\n      swap2\n      swap1\n      tag_425\n      jump\t// in\n    tag_582:\n        /* \"testnet.sol\":16447:16497  uint256 burnPortion = (taxamount * burnRate) / 100 */\n      swap1\n      pop\n        /* \"testnet.sol\":16522:16545  taxamount - burnPortion */\n      tag_583\n        /* \"testnet.sol\":16447:16497  uint256 burnPortion = (taxamount * burnRate) / 100 */\n      dup2\n        /* \"testnet.sol\":16522:16531  taxamount */\n      dup5\n        /* \"testnet.sol\":16522:16545  taxamount - burnPortion */\n      tag_427\n      jump\t// in\n    tag_583:\n        /* \"testnet.sol\":16512:16518  GasPot */\n      0x08\n      0x00\n        /* \"testnet.sol\":16512:16545  GasPot += taxamount - burnPortion */\n      dup3\n      dup3\n      sload\n      tag_584\n      swap2\n      swap1\n      tag_438\n      jump\t// in\n    tag_584:\n      swap3\n      pop\n      pop\n      dup2\n      swap1\n      sstore\n      pop\n        /* \"testnet.sol\":16577:16588  burnPortion */\n      dup1\n        /* \"testnet.sol\":16560:16573  __totalSupply */\n      0x1b\n      0x00\n        /* \"testnet.sol\":16560:16588  __totalSupply -= burnPortion */\n      dup3\n      dup3\n      sload\n      tag_585\n      swap2\n      swap1\n      tag_427\n      jump\t// in\n    tag_585:\n      swap1\n      swap2\n      sstore\n      pop\n        /* \"testnet.sol\":16610:16614  true */\n      0x01\n      swap5\n      pop\n        /* \"testnet.sol\":16603:16614  return true */\n      tag_402\n      swap4\n      pop\n      pop\n      pop\n      pop\n      jump\n        /* \"testnet.sol\":16231:16626  if (_value > 0 && _value <= balanceOf(msg.sender)) {... */\n    tag_577:\n      pop\n        /* \"testnet.sol\":16643:16648  false */\n      0x00\n      swap5\n        /* \"testnet.sol\":15689:16656  function transfer(address _to, uint256 _value)... */\n      swap4\n      pop\n      pop\n      pop\n      pop\n      jump\t// out\n        /* \"testnet.sol\":22175:22286  function getLINKBalance() public view returns (uint256) {... */\n    tag_292:\n        /* \"testnet.sol\":22249:22278  LINK.balanceOf(address(this)) */\n      mload(0x40)\n      shl(0xe0, 0x70a08231)\n      dup2\n      mstore\n        /* \"testnet.sol\":22272:22276  this */\n      address\n        /* \"testnet.sol\":22249:22278  LINK.balanceOf(address(this)) */\n      0x04\n      dup3\n      add\n        /* \"#utility.yul\":2178:2229   */\n      mstore\n        /* \"testnet.sol\":22222:22229  uint256 */\n      0x00\n      swap1\n        /* \"testnet.sol\":22249:22253  LINK */\n      immutable(\"0xb2219b801710730437d0358146c829b62297a059eceaa0b40b27aea2daecf595\")\n      sub(shl(0xa0, 0x01), 0x01)\n        /* \"testnet.sol\":22249:22263  LINK.balanceOf */\n      and\n      swap1\n      0x70a08231\n      swap1\n        /* \"#utility.yul\":2151:2169   */\n      0x24\n      add\n        /* \"testnet.sol\":22249:22278  LINK.balanceOf(address(this)) */\n      0x20\n      mload(0x40)\n      dup1\n      dup4\n      sub\n      dup2\n      dup7\n      gas\n      staticcall\n      iszero\n      dup1\n      iszero\n      tag_589\n      jumpi\n      returndatasize\n      0x00\n      dup1\n      returndatacopy\n      revert(0x00, returndatasize)\n    tag_589:\n      pop\n      pop\n      pop\n      pop\n      mload(0x40)\n      returndatasize\n      not(0x1f)\n      0x1f\n      dup3\n      add\n      and\n      dup3\n      add\n      dup1\n      0x40\n      mstore\n      pop\n      dup2\n      add\n      swap1\n      tag_538\n      swap2\n      swap1\n      tag_591\n      jump\t// in\n        /* \"testnet.sol\":31340:31415  function StartTrading() public onlyMain {... */\n    tag_312:\n        /* \"testnet.sol\":11593:11603  MainWallet */\n      and(sub(shl(0xa0, 0x01), 0x01), sload(0x02))\n        /* \"testnet.sol\":11579:11589  msg.sender */\n      caller\n        /* \"testnet.sol\":11579:11603  msg.sender == MainWallet */\n      eq\n      dup1\n        /* \"testnet.sol\":11578:11640  (msg.sender == MainWallet) || (msg.sender == WorkHelperWallet) */\n      tag_593\n      jumpi\n      pop\n        /* \"testnet.sol\":11623:11639  WorkHelperWallet */\n      and(sub(shl(0xa0, 0x01), 0x01), sload(0x03))\n        /* \"testnet.sol\":11609:11619  msg.sender */\n      caller\n        /* \"testnet.sol\":11609:11639  msg.sender == WorkHelperWallet */\n      eq\n        /* \"testnet.sol\":11578:11640  (msg.sender == MainWallet) || (msg.sender == WorkHelperWallet) */\n    tag_593:\n        /* \"testnet.sol\":11570:11641  require((msg.sender == MainWallet) || (msg.sender == WorkHelperWallet)) */\n      tag_594\n      jumpi\n      0x00\n      dup1\n      revert\n    tag_594:\n        /* \"testnet.sol\":31391:31399  isPaused */\n      0x06\n        /* \"testnet.sol\":31391:31407  isPaused = false */\n      dup1\n      sload\n      not(shl(0xa0, 0xff))\n      and\n      swap1\n      sstore\n        /* \"testnet.sol\":31340:31415  function StartTrading() public onlyMain {... */\n      jump\t// out\n        /* \"testnet.sol\":30993:31250  function ForceEndRound(uint256 key) public onlyMain {... */\n    tag_316:\n        /* \"testnet.sol\":11593:11603  MainWallet */\n      and(sub(shl(0xa0, 0x01), 0x01), sload(0x02))\n        /* \"testnet.sol\":11579:11589  msg.sender */\n      caller\n        /* \"testnet.sol\":11579:11603  msg.sender == MainWallet */\n      eq\n      dup1\n        /* \"testnet.sol\":11578:11640  (msg.sender == MainWallet) || (msg.sender == WorkHelperWallet) */\n      tag_597\n      jumpi\n      pop\n        /* \"testnet.sol\":11623:11639  WorkHelperWallet */\n      and(sub(shl(0xa0, 0x01), 0x01), sload(0x03))\n        /* \"testnet.sol\":11609:11619  msg.sender */\n      caller\n        /* \"testnet.sol\":11609:11639  msg.sender == WorkHelperWallet */\n      eq\n        /* \"testnet.sol\":11578:11640  (msg.sender == MainWallet) || (msg.sender == WorkHelperWallet) */\n    tag_597:\n        /* \"testnet.sol\":11570:11641  require((msg.sender == MainWallet) || (msg.sender == WorkHelperWallet)) */\n      tag_598\n      jumpi\n      0x00\n      dup1\n      revert\n    tag_598:\n        /* \"testnet.sol\":31060:31063  key */\n      dup1\n        /* \"testnet.sol\":31067:31070  123 */\n      0x7b\n        /* \"testnet.sol\":31060:31070  key == 123 */\n      eq\n        /* \"testnet.sol\":31056:31243  if (key == 123) //check to make sure you want to force the round to end... */\n      iszero\n      tag_475\n      jumpi\n        /* \"testnet.sol\":31156:31173  usingChainLinkVRF */\n      and(0xff, sload(0x17))\n        /* \"testnet.sol\":31152:31231  if (usingChainLinkVRF) getRandomNumberLINK();... */\n      iszero\n      tag_601\n      jumpi\n        /* \"testnet.sol\":31175:31196  getRandomNumberLINK() */\n      tag_475\n        /* \"testnet.sol\":31175:31194  getRandomNumberLINK */\n      tag_603\n        /* \"testnet.sol\":31175:31196  getRandomNumberLINK() */\n      jump\t// in\n        /* \"testnet.sol\":31152:31231  if (usingChainLinkVRF) getRandomNumberLINK();... */\n    tag_601:\n        /* \"testnet.sol\":31216:31231  FinalizeRound() */\n      tag_555\n        /* \"testnet.sol\":31216:31229  FinalizeRound */\n      tag_606\n        /* \"testnet.sol\":31216:31231  FinalizeRound() */\n      jump\t// in\n        /* \"testnet.sol\":23729:23985  function addTokenstoJackpot(uint256 tokens) public onlyMain {... */\n    tag_320:\n        /* \"testnet.sol\":11593:11603  MainWallet */\n      and(sub(shl(0xa0, 0x01), 0x01), sload(0x02))\n        /* \"testnet.sol\":11579:11589  msg.sender */\n      caller\n        /* \"testnet.sol\":11579:11603  msg.sender == MainWallet */\n      eq\n      dup1\n        /* \"testnet.sol\":11578:11640  (msg.sender == MainWallet) || (msg.sender == WorkHelperWallet) */\n      tag_608\n      jumpi\n      pop\n        /* \"testnet.sol\":11623:11639  WorkHelperWallet */\n      and(sub(shl(0xa0, 0x01), 0x01), sload(0x03))\n        /* \"testnet.sol\":11609:11619  msg.sender */\n      caller\n        /* \"testnet.sol\":11609:11639  msg.sender == WorkHelperWallet */\n      eq\n        /* \"testnet.sol\":11578:11640  (msg.sender == MainWallet) || (msg.sender == WorkHelperWallet) */\n    tag_608:\n        /* \"testnet.sol\":11570:11641  require((msg.sender == MainWallet) || (msg.sender == WorkHelperWallet)) */\n      tag_609\n      jumpi\n      0x00\n      dup1\n      revert\n    tag_609:\n        /* \"testnet.sol\":23838:23842  this */\n      address\n        /* \"testnet.sol\":23818:23844  __balanceOf[address(this)] */\n      0x00\n      swap1\n      dup2\n      mstore\n        /* \"testnet.sol\":23818:23829  __balanceOf */\n      0x1c\n        /* \"testnet.sol\":23818:23844  __balanceOf[address(this)] */\n      0x20\n      mstore\n      0x40\n      swap1\n      keccak256\n      sload\n        /* \"testnet.sol\":23808:23844  tokens <= __balanceOf[address(this)] */\n      dup2\n      gt\n      iszero\n        /* \"testnet.sol\":23800:23845  require(tokens <= __balanceOf[address(this)]) */\n      tag_611\n      jumpi\n      0x00\n      dup1\n      revert\n    tag_611:\n        /* \"testnet.sol\":23926:23930  this */\n      address\n        /* \"testnet.sol\":23906:23932  __balanceOf[address(this)] */\n      0x00\n      swap1\n      dup2\n      mstore\n        /* \"testnet.sol\":23906:23917  __balanceOf */\n      0x1c\n        /* \"testnet.sol\":23906:23932  __balanceOf[address(this)] */\n      0x20\n      mstore\n      0x40\n      dup2\n      keccak256\n        /* \"testnet.sol\":23906:23942  __balanceOf[address(this)] -= tokens */\n      dup1\n      sload\n        /* \"testnet.sol\":23936:23942  tokens */\n      dup4\n      swap3\n        /* \"testnet.sol\":23906:23932  __balanceOf[address(this)] */\n      swap1\n        /* \"testnet.sol\":23906:23942  __balanceOf[address(this)] -= tokens */\n      tag_612\n      swap1\n        /* \"testnet.sol\":23936:23942  tokens */\n      dup5\n      swap1\n        /* \"testnet.sol\":23906:23942  __balanceOf[address(this)] -= tokens */\n      tag_427\n      jump\t// in\n    tag_612:\n      swap3\n      pop\n      pop\n      dup2\n      swap1\n      sstore\n      pop\n        /* \"testnet.sol\":23971:23977  tokens */\n      dup1\n        /* \"testnet.sol\":23953:23967  CurrentJackpot */\n      0x0e\n      0x00\n        /* \"testnet.sol\":23953:23977  CurrentJackpot += tokens */\n      dup3\n      dup3\n      sload\n      tag_613\n      swap2\n      swap1\n      tag_438\n      jump\t// in\n    tag_613:\n      swap1\n      swap2\n      sstore\n      pop\n      pop\n      pop\n        /* \"testnet.sol\":23729:23985  function addTokenstoJackpot(uint256 tokens) public onlyMain {... */\n      jump\t// out\n        /* \"testnet.sol\":30756:30985  function SetTicketPrice(uint256 NewPrice) public onlyMain {... */\n    tag_324:\n        /* \"testnet.sol\":11593:11603  MainWallet */\n      and(sub(shl(0xa0, 0x01), 0x01), sload(0x02))\n        /* \"testnet.sol\":11579:11589  msg.sender */\n      caller\n        /* \"testnet.sol\":11579:11603  msg.sender == MainWallet */\n      eq\n      dup1\n        /* \"testnet.sol\":11578:11640  (msg.sender == MainWallet) || (msg.sender == WorkHelperWallet) */\n      tag_615\n      jumpi\n      pop\n        /* \"testnet.sol\":11623:11639  WorkHelperWallet */\n      and(sub(shl(0xa0, 0x01), 0x01), sload(0x03))\n        /* \"testnet.sol\":11609:11619  msg.sender */\n      caller\n        /* \"testnet.sol\":11609:11639  msg.sender == WorkHelperWallet */\n      eq\n        /* \"testnet.sol\":11578:11640  (msg.sender == MainWallet) || (msg.sender == WorkHelperWallet) */\n    tag_615:\n        /* \"testnet.sol\":11570:11641  require((msg.sender == MainWallet) || (msg.sender == WorkHelperWallet)) */\n      tag_616\n      jumpi\n      0x00\n      dup1\n      revert\n    tag_616:\n        /* \"testnet.sol\":30868:30880  10**decimals */\n      tag_618\n        /* \"testnet.sol\":10673:10675  18 */\n      0x12\n        /* \"testnet.sol\":30868:30870  10 */\n      0x0a\n        /* \"testnet.sol\":30868:30880  10**decimals */\n      tag_619\n      jump\t// in\n    tag_618:\n        /* \"testnet.sol\":30862:30880  100 * 10**decimals */\n      tag_620\n      swap1\n        /* \"testnet.sol\":30862:30865  100 */\n      0x64\n        /* \"testnet.sol\":30862:30880  100 * 10**decimals */\n      tag_423\n      jump\t// in\n    tag_620:\n        /* \"testnet.sol\":30845:30858  __totalSupply */\n      sload(0x1b)\n        /* \"testnet.sol\":30845:30881  __totalSupply / (100 * 10**decimals) */\n      tag_621\n      swap2\n      swap1\n      tag_425\n      jump\t// in\n    tag_621:\n        /* \"testnet.sol\":30833:30841  NewPrice */\n      dup2\n        /* \"testnet.sol\":30833:30881  NewPrice <= __totalSupply / (100 * 10**decimals) */\n      gt\n      iszero\n        /* \"testnet.sol\":30825:30882  require(NewPrice <= __totalSupply / (100 * 10**decimals)) */\n      tag_622\n      jumpi\n      0x00\n      dup1\n      revert\n    tag_622:\n        /* \"testnet.sol\":30965:30977  10**decimals */\n      tag_623\n        /* \"testnet.sol\":10673:10675  18 */\n      0x12\n        /* \"testnet.sol\":30965:30967  10 */\n      0x0a\n        /* \"testnet.sol\":30965:30977  10**decimals */\n      tag_619\n      jump\t// in\n    tag_623:\n        /* \"testnet.sol\":30954:30977  NewPrice * 10**decimals */\n      tag_624\n      swap1\n        /* \"testnet.sol\":30954:30962  NewPrice */\n      dup3\n        /* \"testnet.sol\":30954:30977  NewPrice * 10**decimals */\n      tag_423\n      jump\t// in\n    tag_624:\n        /* \"testnet.sol\":30931:30951  NextRoundTicketPrice */\n      0x11\n        /* \"testnet.sol\":30931:30977  NextRoundTicketPrice = NewPrice * 10**decimals */\n      sstore\n      pop\n        /* \"testnet.sol\":30756:30985  function SetTicketPrice(uint256 NewPrice) public onlyMain {... */\n      jump\t// out\n        /* \"testnet.sol\":24800:24903  function setHelperContract(address Wallet) public onlyMain {... */\n    tag_328:\n        /* \"testnet.sol\":11593:11603  MainWallet */\n      and(sub(shl(0xa0, 0x01), 0x01), sload(0x02))\n        /* \"testnet.sol\":11579:11589  msg.sender */\n      caller\n        /* \"testnet.sol\":11579:11603  msg.sender == MainWallet */\n      eq\n      dup1\n        /* \"testnet.sol\":11578:11640  (msg.sender == MainWallet) || (msg.sender == WorkHelperWallet) */\n      tag_626\n      jumpi\n      pop\n        /* \"testnet.sol\":11623:11639  WorkHelperWallet */\n      and(sub(shl(0xa0, 0x01), 0x01), sload(0x03))\n        /* \"testnet.sol\":11609:11619  msg.sender */\n      caller\n        /* \"testnet.sol\":11609:11639  msg.sender == WorkHelperWallet */\n      eq\n        /* \"testnet.sol\":11578:11640  (msg.sender == MainWallet) || (msg.sender == WorkHelperWallet) */\n    tag_626:\n        /* \"testnet.sol\":11570:11641  require((msg.sender == MainWallet) || (msg.sender == WorkHelperWallet)) */\n      tag_627\n      jumpi\n      0x00\n      dup1\n      revert\n    tag_627:\n        /* \"testnet.sol\":24870:24886  WorkHelperWallet */\n      0x03\n        /* \"testnet.sol\":24870:24895  WorkHelperWallet = Wallet */\n      dup1\n      sload\n      not(sub(shl(0xa0, 0x01), 0x01))\n      and\n      sub(shl(0xa0, 0x01), 0x01)\n      swap3\n      swap1\n      swap3\n      and\n      swap2\n      swap1\n      swap2\n      or\n      swap1\n      sstore\n        /* \"testnet.sol\":24800:24903  function setHelperContract(address Wallet) public onlyMain {... */\n      jump\t// out\n        /* \"testnet.sol\":24699:24792  function setMainWallet(address Wallet) public onlyMain {... */\n    tag_344:\n        /* \"testnet.sol\":11593:11603  MainWallet */\n      and(sub(shl(0xa0, 0x01), 0x01), sload(0x02))\n        /* \"testnet.sol\":11579:11589  msg.sender */\n      caller\n        /* \"testnet.sol\":11579:11603  msg.sender == MainWallet */\n      eq\n      dup1\n        /* \"testnet.sol\":11578:11640  (msg.sender == MainWallet) || (msg.sender == WorkHelperWallet) */\n      tag_630\n      jumpi\n      pop\n        /* \"testnet.sol\":11623:11639  WorkHelperWallet */\n      and(sub(shl(0xa0, 0x01), 0x01), sload(0x03))\n        /* \"testnet.sol\":11609:11619  msg.sender */\n      caller\n        /* \"testnet.sol\":11609:11639  msg.sender == WorkHelperWallet */\n      eq\n        /* \"testnet.sol\":11578:11640  (msg.sender == MainWallet) || (msg.sender == WorkHelperWallet) */\n    tag_630:\n        /* \"testnet.sol\":11570:11641  require((msg.sender == MainWallet) || (msg.sender == WorkHelperWallet)) */\n      tag_631\n      jumpi\n      0x00\n      dup1\n      revert\n    tag_631:\n        /* \"testnet.sol\":24765:24775  MainWallet */\n      0x02\n        /* \"testnet.sol\":24765:24784  MainWallet = Wallet */\n      dup1\n      sload\n      not(sub(shl(0xa0, 0x01), 0x01))\n      and\n      sub(shl(0xa0, 0x01), 0x01)\n      swap3\n      swap1\n      swap3\n      and\n      swap2\n      swap1\n      swap2\n      or\n      swap1\n      sstore\n        /* \"testnet.sol\":24699:24792  function setMainWallet(address Wallet) public onlyMain {... */\n      jump\t// out\n        /* \"testnet.sol\":13071:13098  Results[] public ResultsLog */\n    tag_348:\n      0x1a\n      dup2\n      dup2\n      sload\n      dup2\n      lt\n      tag_633\n      jumpi\n      0x00\n      dup1\n      revert\n    tag_633:\n      0x00\n      swap2\n      dup3\n      mstore\n      0x20\n      swap1\n      swap2\n      keccak256\n      0x04\n      swap1\n      swap2\n      mul\n      add\n      dup1\n      sload\n      0x01\n      dup3\n      add\n      sload\n      0x02\n      dup4\n      add\n      sload\n      0x03\n      swap1\n      swap4\n      add\n      sload\n      swap2\n      swap4\n      pop\n      sub(shl(0xa0, 0x01), 0x01)\n      and\n      swap2\n      swap1\n      dup5\n      jump\t// out\n        /* \"testnet.sol\":24218:24327  function setTaxTokenContract(address Contract) public onlyMain {... */\n    tag_380:\n        /* \"testnet.sol\":11593:11603  MainWallet */\n      and(sub(shl(0xa0, 0x01), 0x01), sload(0x02))\n        /* \"testnet.sol\":11579:11589  msg.sender */\n      caller\n        /* \"testnet.sol\":11579:11603  msg.sender == MainWallet */\n      eq\n      dup1\n        /* \"testnet.sol\":11578:11640  (msg.sender == MainWallet) || (msg.sender == WorkHelperWallet) */\n      tag_637\n      jumpi\n      pop\n        /* \"testnet.sol\":11623:11639  WorkHelperWallet */\n      and(sub(shl(0xa0, 0x01), 0x01), sload(0x03))\n        /* \"testnet.sol\":11609:11619  msg.sender */\n      caller\n        /* \"testnet.sol\":11609:11639  msg.sender == WorkHelperWallet */\n      eq\n        /* \"testnet.sol\":11578:11640  (msg.sender == MainWallet) || (msg.sender == WorkHelperWallet) */\n    tag_637:\n        /* \"testnet.sol\":11570:11641  require((msg.sender == MainWallet) || (msg.sender == WorkHelperWallet)) */\n      tag_638\n      jumpi\n      0x00\n      dup1\n      revert\n    tag_638:\n        /* \"testnet.sol\":24292:24308  TaxTokenContract */\n      0x04\n        /* \"testnet.sol\":24292:24319  TaxTokenContract = Contract */\n      dup1\n      sload\n      not(sub(shl(0xa0, 0x01), 0x01))\n      and\n      sub(shl(0xa0, 0x01), 0x01)\n      swap3\n      swap1\n      swap3\n      and\n      swap2\n      swap1\n      swap2\n      or\n      swap1\n      sstore\n        /* \"testnet.sol\":24218:24327  function setTaxTokenContract(address Contract) public onlyMain {... */\n      jump\t// out\n        /* \"testnet.sol\":19817:21696  function EnterDraw(uint32 NumberofTickets) public {... */\n    tag_385:\n        /* \"testnet.sol\":19950:19961  TicketPrice */\n      sload(0x10)\n        /* \"testnet.sol\":19896:19906  msg.sender */\n      caller\n      swap1\n        /* \"testnet.sol\":19878:19893  address entrant */\n      0x00\n      swap1\n        /* \"testnet.sol\":19932:19961  NumberofTickets * TicketPrice */\n      tag_641\n      swap1\n      0xffffffff\n      dup6\n      and\n      tag_423\n      jump\t// in\n    tag_641:\n      sub(shl(0xa0, 0x01), 0x01)\n        /* \"testnet.sol\":19982:20002  __balanceOf[entrant] */\n      dup4\n      and\n      0x00\n      swap1\n      dup2\n      mstore\n        /* \"testnet.sol\":19982:19993  __balanceOf */\n      0x1c\n        /* \"testnet.sol\":19982:20002  __balanceOf[entrant] */\n      0x20\n      mstore\n      0x40\n      swap1\n      keccak256\n      sload\n        /* \"testnet.sol\":19917:19961  uint256 cost = NumberofTickets * TicketPrice */\n      swap1\n      swap2\n      pop\n        /* \"testnet.sol\":19982:20010  __balanceOf[entrant] >= cost */\n      dup2\n      gt\n      iszero\n        /* \"testnet.sol\":19974:20035  require(__balanceOf[entrant] >= cost, \"Insufficient Balance\") */\n      tag_642\n      jumpi\n      mload(0x40)\n      shl(0xe5, 0x461bcd)\n      dup2\n      mstore\n        /* \"#utility.yul\":11694:11696   */\n      0x20\n        /* \"testnet.sol\":19974:20035  require(__balanceOf[entrant] >= cost, \"Insufficient Balance\") */\n      0x04\n      dup3\n      add\n        /* \"#utility.yul\":11676:11697   */\n      mstore\n        /* \"#utility.yul\":11733:11735   */\n      0x14\n        /* \"#utility.yul\":11713:11731   */\n      0x24\n      dup3\n      add\n        /* \"#utility.yul\":11706:11736   */\n      mstore\n      shl(0x60, 0x496e73756666696369656e742042616c616e6365)\n        /* \"#utility.yul\":11752:11770   */\n      0x44\n      dup3\n      add\n        /* \"#utility.yul\":11745:11795   */\n      mstore\n        /* \"#utility.yul\":11812:11830   */\n      0x64\n      add\n        /* \"testnet.sol\":19974:20035  require(__balanceOf[entrant] >= cost, \"Insufficient Balance\") */\n      tag_431\n        /* \"#utility.yul\":11492:11836   */\n      jump\n        /* \"testnet.sol\":19974:20035  require(__balanceOf[entrant] >= cost, \"Insufficient Balance\") */\n    tag_642:\n      sub(shl(0xa0, 0x01), 0x01)\n        /* \"testnet.sol\":20048:20068  __balanceOf[entrant] */\n      dup3\n      and\n      0x00\n      swap1\n      dup2\n      mstore\n        /* \"testnet.sol\":20048:20059  __balanceOf */\n      0x1c\n        /* \"testnet.sol\":20048:20068  __balanceOf[entrant] */\n      0x20\n      mstore\n      0x40\n      dup2\n      keccak256\n        /* \"testnet.sol\":20048:20076  __balanceOf[entrant] -= cost */\n      dup1\n      sload\n        /* \"testnet.sol\":20072:20076  cost */\n      dup4\n      swap3\n        /* \"testnet.sol\":20048:20068  __balanceOf[entrant] */\n      swap1\n        /* \"testnet.sol\":20048:20076  __balanceOf[entrant] -= cost */\n      tag_645\n      swap1\n        /* \"testnet.sol\":20072:20076  cost */\n      dup5\n      swap1\n        /* \"testnet.sol\":20048:20076  __balanceOf[entrant] -= cost */\n      tag_427\n      jump\t// in\n    tag_645:\n      swap1\n      swap2\n      sstore\n      pop\n      pop\n        /* \"testnet.sol\":20166:20173  RoundNr */\n      sload(0x0c)\n      sub(shl(0xa0, 0x01), 0x01)\n        /* \"testnet.sol\":20136:20163  LatestRoundEntered[entrant] */\n      dup4\n      and\n      0x00\n      swap1\n      dup2\n      mstore\n        /* \"testnet.sol\":20136:20154  LatestRoundEntered */\n      0x1e\n        /* \"testnet.sol\":20136:20163  LatestRoundEntered[entrant] */\n      0x20\n      mstore\n      0x40\n      swap1\n      keccak256\n      sload\n      shl(0x40, 0x01)\n        /* \"testnet.sol\":20166:20173  RoundNr */\n      swap1\n      swap2\n      div\n      sub(shl(0x40, 0x01), 0x01)\n      and\n      gt\n        /* \"testnet.sol\":20132:20379  if (LatestRoundEntered[entrant] < RoundNr) //first entry this round... */\n      iszero\n      tag_646\n      jumpi\n        /* \"testnet.sol\":20254:20261  RoundNr */\n      sload(0x0c)\n      sub(shl(0xa0, 0x01), 0x01)\n        /* \"testnet.sol\":20224:20251  LatestRoundEntered[entrant] */\n      dup4\n      and\n      0x00\n      swap1\n      dup2\n      mstore\n        /* \"testnet.sol\":20224:20242  LatestRoundEntered */\n      0x1e\n        /* \"testnet.sol\":20224:20251  LatestRoundEntered[entrant] */\n      0x20\n      swap1\n      dup2\n      mstore\n      0x40\n      dup1\n      dup4\n      keccak256\n      shl(0x40, 0x01)\n        /* \"testnet.sol\":20254:20261  RoundNr */\n      swap1\n      swap5\n      div\n      sub(shl(0x40, 0x01), 0x01)\n      and\n        /* \"testnet.sol\":20224:20261  LatestRoundEntered[entrant] = RoundNr */\n      swap1\n      swap4\n      sstore\n        /* \"testnet.sol\":20276:20291  NumberofEntries */\n      0x1d\n        /* \"testnet.sol\":20276:20300  NumberofEntries[entrant] */\n      swap1\n      mstore\n      keccak256\n        /* \"testnet.sol\":20276:20318  NumberofEntries[entrant] = NumberofTickets */\n      0xffffffff\n      dup5\n      and\n      swap1\n      sstore\n        /* \"testnet.sol\":20132:20379  if (LatestRoundEntered[entrant] < RoundNr) //first entry this round... */\n      jump(tag_647)\n    tag_646:\n      sub(shl(0xa0, 0x01), 0x01)\n        /* \"testnet.sol\":20336:20360  NumberofEntries[entrant] */\n      dup3\n      and\n      0x00\n      swap1\n      dup2\n      mstore\n        /* \"testnet.sol\":20336:20351  NumberofEntries */\n      0x1d\n        /* \"testnet.sol\":20336:20360  NumberofEntries[entrant] */\n      0x20\n      mstore\n      0x40\n      dup2\n      keccak256\n        /* \"testnet.sol\":20336:20379  NumberofEntries[entrant] += NumberofTickets */\n      dup1\n      sload\n      0xffffffff\n      dup7\n      and\n      swap3\n        /* \"testnet.sol\":20336:20360  NumberofEntries[entrant] */\n      swap1\n        /* \"testnet.sol\":20336:20379  NumberofEntries[entrant] += NumberofTickets */\n      tag_648\n      swap1\n      dup5\n      swap1\n      tag_438\n      jump\t// in\n    tag_648:\n      swap1\n      swap2\n      sstore\n      pop\n      pop\n        /* \"testnet.sol\":20132:20379  if (LatestRoundEntered[entrant] < RoundNr) //first entry this round... */\n    tag_647:\n        /* \"testnet.sol\":20848:20851  100 */\n      0x64\n        /* \"testnet.sol\":20836:20844  cost * 3 */\n      tag_649\n        /* \"testnet.sol\":20836:20840  cost */\n      dup3\n        /* \"testnet.sol\":20843:20844  3 */\n      0x03\n        /* \"testnet.sol\":20836:20844  cost * 3 */\n      tag_423\n      jump\t// in\n    tag_649:\n        /* \"testnet.sol\":20835:20851  (cost * 3) / 100 */\n      tag_650\n      swap2\n      swap1\n      tag_425\n      jump\t// in\n    tag_650:\n        /* \"testnet.sol\":20819:20831  NextRoundPot */\n      0x07\n      0x00\n        /* \"testnet.sol\":20819:20851  NextRoundPot += (cost * 3) / 100 */\n      dup3\n      dup3\n      sload\n      tag_651\n      swap2\n      swap1\n      tag_438\n      jump\t// in\n    tag_651:\n      swap1\n      swap2\n      sstore\n      pop\n        /* \"testnet.sol\":20967:20970  100 */\n      0x64\n      swap1\n      pop\n        /* \"testnet.sol\":20955:20963  cost * 5 */\n      tag_652\n        /* \"testnet.sol\":20955:20959  cost */\n      dup3\n        /* \"testnet.sol\":20962:20963  5 */\n      0x05\n        /* \"testnet.sol\":20955:20963  cost * 5 */\n      tag_423\n      jump\t// in\n    tag_652:\n        /* \"testnet.sol\":20954:20970  (cost * 5) / 100 */\n      tag_653\n      swap2\n      swap1\n      tag_425\n      jump\t// in\n    tag_653:\n        /* \"testnet.sol\":20944:20950  GasPot */\n      0x08\n      0x00\n        /* \"testnet.sol\":20944:20970  GasPot += (cost * 5) / 100 */\n      dup3\n      dup3\n      sload\n      tag_654\n      swap2\n      swap1\n      tag_438\n      jump\t// in\n    tag_654:\n      swap1\n      swap2\n      sstore\n      pop\n        /* \"testnet.sol\":21045:21048  100 */\n      0x64\n      swap1\n      pop\n        /* \"testnet.sol\":21033:21041  cost * 2 */\n      tag_655\n        /* \"testnet.sol\":21033:21037  cost */\n      dup3\n        /* \"testnet.sol\":21040:21041  2 */\n      0x02\n        /* \"testnet.sol\":21033:21041  cost * 2 */\n      tag_423\n      jump\t// in\n    tag_655:\n        /* \"testnet.sol\":21032:21048  (cost * 2) / 100 */\n      tag_656\n      swap2\n      swap1\n      tag_425\n      jump\t// in\n    tag_656:\n        /* \"testnet.sol\":21016:21028  LiquidityPot */\n      0x09\n      0x00\n        /* \"testnet.sol\":21016:21048  LiquidityPot += (cost * 2) / 100 */\n      dup3\n      dup3\n      sload\n      tag_657\n      swap2\n      swap1\n      tag_438\n      jump\t// in\n    tag_657:\n      swap1\n      swap2\n      sstore\n      pop\n        /* \"testnet.sol\":21114:21117  100 */\n      0x64\n      swap1\n      pop\n        /* \"testnet.sol\":21101:21110  cost * 90 */\n      tag_658\n        /* \"testnet.sol\":21101:21105  cost */\n      dup3\n        /* \"testnet.sol\":21108:21110  90 */\n      0x5a\n        /* \"testnet.sol\":21101:21110  cost * 90 */\n      tag_423\n      jump\t// in\n    tag_658:\n        /* \"testnet.sol\":21100:21117  (cost * 90) / 100 */\n      tag_659\n      swap2\n      swap1\n      tag_425\n      jump\t// in\n    tag_659:\n        /* \"testnet.sol\":21082:21096  CurrentJackpot */\n      0x0e\n      0x00\n        /* \"testnet.sol\":21082:21117  CurrentJackpot += (cost * 90) / 100 */\n      dup3\n      dup3\n      sload\n      tag_660\n      swap2\n      swap1\n      tag_438\n      jump\t// in\n    tag_660:\n      swap1\n      swap2\n      sstore\n      pop\n        /* \"testnet.sol\":21183:21191  uint32 i */\n      0x00\n      swap1\n      pop\n        /* \"testnet.sol\":21178:21310  for (uint32 i = 0; i < NumberofTickets; i++) {... */\n    tag_661:\n        /* \"testnet.sol\":21201:21216  NumberofTickets */\n      dup4\n        /* \"testnet.sol\":21197:21216  i < NumberofTickets */\n      0xffffffff\n      and\n        /* \"testnet.sol\":21197:21198  i */\n      dup2\n        /* \"testnet.sol\":21197:21216  i < NumberofTickets */\n      0xffffffff\n      and\n      lt\n        /* \"testnet.sol\":21178:21310  for (uint32 i = 0; i < NumberofTickets; i++) {... */\n      iszero\n      tag_662\n      jumpi\n        /* \"testnet.sol\":21246:21258  RoundEntries */\n      0x0c\n      dup1\n      sload\n      sub(shl(0x40, 0x01), 0x01)\n      swap1\n      dup2\n      and\n        /* \"testnet.sol\":21238:21259  entries[RoundEntries] */\n      0x00\n      swap1\n      dup2\n      mstore\n        /* \"testnet.sol\":21238:21245  entries */\n      0x0b\n        /* \"testnet.sol\":21238:21259  entries[RoundEntries] */\n      0x20\n      mstore\n      0x40\n      dup2\n      keccak256\n        /* \"testnet.sol\":21238:21269  entries[RoundEntries] = entrant */\n      dup1\n      sload\n      not(sub(shl(0xa0, 0x01), 0x01))\n      and\n      sub(shl(0xa0, 0x01), 0x01)\n      dup9\n      and\n      or\n      swap1\n      sstore\n        /* \"testnet.sol\":21284:21298  RoundEntries++ */\n      dup3\n      sload\n      swap1\n      swap2\n      and\n      swap2\n        /* \"testnet.sol\":21246:21258  RoundEntries */\n      swap1\n        /* \"testnet.sol\":21284:21298  RoundEntries++ */\n      tag_664\n      dup4\n      tag_665\n      jump\t// in\n    tag_664:\n      swap2\n      swap1\n      0x0100\n      exp\n      dup2\n      sload\n      dup2\n      sub(shl(0x40, 0x01), 0x01)\n      mul\n      not\n      and\n      swap1\n      dup4\n      sub(shl(0x40, 0x01), 0x01)\n      and\n      mul\n      or\n      swap1\n      sstore\n      pop\n      pop\n        /* \"testnet.sol\":21218:21221  i++ */\n      dup1\n      dup1\n      tag_666\n      swap1\n      tag_667\n      jump\t// in\n    tag_666:\n      swap2\n      pop\n      pop\n        /* \"testnet.sol\":21178:21310  for (uint32 i = 0; i < NumberofTickets; i++) {... */\n      jump(tag_661)\n    tag_662:\n      pop\n        /* \"testnet.sol\":21341:21356  Minimum_Entries */\n      sload(0x0c)\n      sub(shl(0x40, 0x01), 0x01)\n      shl(0x80, 0x01)\n      dup3\n      div\n      dup2\n      and\n        /* \"testnet.sol\":21325:21337  RoundEntries */\n      swap2\n      and\n        /* \"testnet.sol\":21325:21356  RoundEntries >= Minimum_Entries */\n      lt\n      dup1\n      iszero\n      swap1\n        /* \"testnet.sol\":21324:21389  (RoundEntries >= Minimum_Entries) && (getSecondsRemaining() == 0) */\n      tag_668\n      jumpi\n      pop\n        /* \"testnet.sol\":21362:21383  getSecondsRemaining() */\n      tag_669\n        /* \"testnet.sol\":21362:21381  getSecondsRemaining */\n      tag_275\n        /* \"testnet.sol\":21362:21383  getSecondsRemaining() */\n      jump\t// in\n    tag_669:\n        /* \"testnet.sol\":21362:21388  getSecondsRemaining() == 0 */\n      iszero\n        /* \"testnet.sol\":21324:21389  (RoundEntries >= Minimum_Entries) && (getSecondsRemaining() == 0) */\n    tag_668:\n        /* \"testnet.sol\":21320:21688  if ((RoundEntries >= Minimum_Entries) && (getSecondsRemaining() == 0)) {... */\n      iszero\n      tag_670\n      jumpi\n        /* \"testnet.sol\":21410:21427  usingChainLinkVRF */\n      and(0xff, sload(0x17))\n        /* \"testnet.sol\":21406:21662  if (usingChainLinkVRF)... */\n      iszero\n      tag_673\n      jumpi\n        /* \"testnet.sol\":21472:21491  randomRequestedFlag */\n      and(0xff, sload(0x24))\n        /* \"testnet.sol\":21446:21662  if (... */\n      tag_672\n      jumpi\n        /* \"testnet.sol\":21600:21621  getRandomNumberLINK() */\n      tag_673\n        /* \"testnet.sol\":21600:21619  getRandomNumberLINK */\n      tag_603\n        /* \"testnet.sol\":21600:21621  getRandomNumberLINK() */\n      jump\t// in\n    tag_673:\n        /* \"testnet.sol\":19867:21696  {... */\n      pop\n      pop\n        /* \"testnet.sol\":19817:21696  function EnterDraw(uint32 NumberofTickets) public {... */\n      pop\n      jump\t// out\n        /* \"testnet.sol\":21446:21662  if (... */\n    tag_672:\n        /* \"testnet.sol\":21647:21662  FinalizeRound() */\n      tag_675\n        /* \"testnet.sol\":21647:21660  FinalizeRound */\n      tag_606\n        /* \"testnet.sol\":21647:21662  FinalizeRound() */\n      jump\t// in\n    tag_675:\n      pop\n        /* \"testnet.sol\":19867:21696  {... */\n      pop\n      pop\n        /* \"testnet.sol\":19817:21696  function EnterDraw(uint32 NumberofTickets) public {... */\n      pop\n      jump\t// out\n        /* \"testnet.sol\":21320:21688  if ((RoundEntries >= Minimum_Entries) && (getSecondsRemaining() == 0)) {... */\n    tag_670:\n        /* \"testnet.sol\":21680:21688  doWork() */\n      tag_673\n        /* \"testnet.sol\":21680:21686  doWork */\n      tag_157\n        /* \"testnet.sol\":21680:21688  doWork() */\n      jump\t// in\n        /* \"testnet.sol\":24576:24691  function setTaxTokenDestination(address Contract) public onlyMain {... */\n    tag_389:\n        /* \"testnet.sol\":11593:11603  MainWallet */\n      and(sub(shl(0xa0, 0x01), 0x01), sload(0x02))\n        /* \"testnet.sol\":11579:11589  msg.sender */\n      caller\n        /* \"testnet.sol\":11579:11603  msg.sender == MainWallet */\n      eq\n      dup1\n        /* \"testnet.sol\":11578:11640  (msg.sender == MainWallet) || (msg.sender == WorkHelperWallet) */\n      tag_679\n      jumpi\n      pop\n        /* \"testnet.sol\":11623:11639  WorkHelperWallet */\n      and(sub(shl(0xa0, 0x01), 0x01), sload(0x03))\n        /* \"testnet.sol\":11609:11619  msg.sender */\n      caller\n        /* \"testnet.sol\":11609:11639  msg.sender == WorkHelperWallet */\n      eq\n        /* \"testnet.sol\":11578:11640  (msg.sender == MainWallet) || (msg.sender == WorkHelperWallet) */\n    tag_679:\n        /* \"testnet.sol\":11570:11641  require((msg.sender == MainWallet) || (msg.sender == WorkHelperWallet)) */\n      tag_680\n      jumpi\n      0x00\n      dup1\n      revert\n    tag_680:\n        /* \"testnet.sol\":24653:24672  TaxTokenDestination */\n      0x05\n        /* \"testnet.sol\":24653:24683  TaxTokenDestination = Contract */\n      dup1\n      sload\n      not(sub(shl(0xa0, 0x01), 0x01))\n      and\n      sub(shl(0xa0, 0x01), 0x01)\n      swap3\n      swap1\n      swap3\n      and\n      swap2\n      swap1\n      swap2\n      or\n      swap1\n      sstore\n        /* \"testnet.sol\":24576:24691  function setTaxTokenDestination(address Contract) public onlyMain {... */\n      jump\t// out\n        /* \"testnet.sol\":28779:29669  function _swapTokenForBNB(uint256 tokenamount) private returns (uint256) {... */\n    tag_471:\n        /* \"testnet.sol\":28843:28850  uint256 */\n      0x00\n        /* \"testnet.sol\":28867:28882  tokenamount > 0 */\n      dup2\n      iszero\n        /* \"testnet.sol\":28863:29643  if (tokenamount > 0) {... */\n      tag_683\n      jumpi\n        /* \"testnet.sol\":28935:28949  _pancakeRouter */\n      sload(0x01)\n        /* \"testnet.sol\":28899:28964  _approveMore(address(this), address(_pancakeRouter), tokenamount) */\n      tag_684\n      swap1\n        /* \"testnet.sol\":28920:28924  this */\n      address\n      swap1\n      sub(shl(0xa0, 0x01), 0x01)\n        /* \"testnet.sol\":28935:28949  _pancakeRouter */\n      and\n        /* \"testnet.sol\":28952:28963  tokenamount */\n      dup5\n        /* \"testnet.sol\":28899:28911  _approveMore */\n      tag_685\n        /* \"testnet.sol\":28899:28964  _approveMore(address(this), address(_pancakeRouter), tokenamount) */\n      jump\t// in\n    tag_684:\n      pop\n        /* \"testnet.sol\":29005:29021  new address[](2) */\n      0x40\n      dup1\n      mload\n        /* \"testnet.sol\":29019:29020  2 */\n      0x02\n        /* \"testnet.sol\":29005:29021  new address[](2) */\n      dup1\n      dup3\n      mstore\n      0x60\n      dup3\n      add\n      dup4\n      mstore\n        /* \"testnet.sol\":28981:29002  address[] memory path */\n      0x00\n      swap3\n        /* \"testnet.sol\":29005:29021  new address[](2) */\n      0x20\n      dup4\n      add\n      swap1\n      dup1\n      calldatasize\n      dup4\n      calldatacopy\n      add\n      swap1\n      pop\n      pop\n        /* \"testnet.sol\":28981:29021  address[] memory path = new address[](2) */\n      swap1\n      pop\n        /* \"testnet.sol\":29054:29058  this */\n      address\n        /* \"testnet.sol\":29036:29040  path */\n      dup2\n        /* \"testnet.sol\":29041:29042  0 */\n      0x00\n        /* \"testnet.sol\":29036:29043  path[0] */\n      dup2\n      mload\n      dup2\n      lt\n      tag_690\n      jumpi\n      tag_690\n      tag_456\n      jump\t// in\n    tag_690:\n      sub(shl(0xa0, 0x01), 0x01)\n        /* \"testnet.sol\":29036:29059  path[0] = address(this) */\n      swap3\n      dup4\n      and\n        /* \"testnet.sol\":29036:29043  path[0] */\n      0x20\n      swap2\n      dup3\n      mul\n      swap3\n      swap1\n      swap3\n      add\n      dup2\n      add\n        /* \"testnet.sol\":29036:29059  path[0] = address(this) */\n      swap2\n      swap1\n      swap2\n      mstore\n        /* \"testnet.sol\":29084:29098  _pancakeRouter */\n      sload(0x01)\n        /* \"testnet.sol\":29084:29105  _pancakeRouter.WETH() */\n      0x40\n      dup1\n      mload\n      shl(0xe3, 0x15ab88c9)\n      dup2\n      mstore\n      swap1\n      mload\n        /* \"testnet.sol\":29084:29098  _pancakeRouter */\n      swap2\n      swap1\n      swap4\n      and\n      swap3\n        /* \"testnet.sol\":29084:29103  _pancakeRouter.WETH */\n      0xad5c4648\n      swap3\n        /* \"testnet.sol\":29084:29105  _pancakeRouter.WETH() */\n      0x04\n      dup1\n      dup4\n      add\n      swap4\n        /* \"testnet.sol\":29036:29043  path[0] */\n      swap2\n      swap3\n        /* \"testnet.sol\":29084:29105  _pancakeRouter.WETH() */\n      dup3\n      swap1\n      sub\n      add\n      dup2\n        /* \"testnet.sol\":29084:29098  _pancakeRouter */\n      dup7\n        /* \"testnet.sol\":29084:29105  _pancakeRouter.WETH() */\n      gas\n      staticcall\n      iszero\n      dup1\n      iszero\n      tag_692\n      jumpi\n      returndatasize\n      0x00\n      dup1\n      returndatacopy\n      revert(0x00, returndatasize)\n    tag_692:\n      pop\n      pop\n      pop\n      pop\n      mload(0x40)\n      returndatasize\n      not(0x1f)\n      0x1f\n      dup3\n      add\n      and\n      dup3\n      add\n      dup1\n      0x40\n      mstore\n      pop\n      dup2\n      add\n      swap1\n      tag_693\n      swap2\n      swap1\n      tag_453\n      jump\t// in\n    tag_693:\n        /* \"testnet.sol\":29074:29078  path */\n      dup2\n        /* \"testnet.sol\":29079:29080  1 */\n      0x01\n        /* \"testnet.sol\":29074:29081  path[1] */\n      dup2\n      mload\n      dup2\n      lt\n      tag_695\n      jumpi\n      tag_695\n      tag_456\n      jump\t// in\n    tag_695:\n      sub(shl(0xa0, 0x01), 0x01)\n        /* \"testnet.sol\":29074:29105  path[1] = _pancakeRouter.WETH() */\n      swap1\n      swap3\n      and\n        /* \"testnet.sol\":29074:29081  path[1] */\n      0x20\n      swap3\n      dup4\n      mul\n      swap2\n      swap1\n      swap2\n      add\n      swap1\n      swap2\n      add\n        /* \"testnet.sol\":29074:29105  path[1] = _pancakeRouter.WETH() */\n      mstore\n        /* \"testnet.sol\":29123:29135  bool success */\n      0x00\n      dup1\n        /* \"testnet.sol\":10732:10774  0x9Ac64Cc6e4415144C455BD8E4837Fea55603e5c3 */\n      0x9ac64cc6e4415144c455bd8e4837fea55603e5c3\n        /* \"testnet.sol\":29240:29250  0x18cbafe5 */\n      0x18cbafe5\n        /* \"testnet.sol\":29273:29284  tokenamount */\n      dup7\n        /* \"testnet.sol\":29123:29135  bool success */\n      dup4\n        /* \"testnet.sol\":29331:29335  path */\n      dup7\n        /* \"testnet.sol\":29366:29370  this */\n      address\n        /* \"testnet.sol\":29394:29414  block.timestamp + 20 */\n      tag_696\n        /* \"testnet.sol\":29394:29409  block.timestamp */\n      timestamp\n        /* \"testnet.sol\":29412:29414  20 */\n      0x14\n        /* \"testnet.sol\":29394:29414  block.timestamp + 20 */\n      tag_438\n      jump\t// in\n    tag_696:\n        /* \"testnet.sol\":29195:29433  abi.encodeWithSelector(... */\n      add(0x24, mload(0x40))\n      tag_697\n      swap6\n      swap5\n      swap4\n      swap3\n      swap2\n      swap1\n      tag_698\n      jump\t// in\n    tag_697:\n      mload(0x40)\n      0x20\n      dup2\n      dup4\n      sub\n      sub\n      dup2\n      mstore\n      swap1\n      0x40\n      mstore\n      swap1\n      0xe0\n      shl\n      0x20\n      dup3\n      add\n      dup1\n      mload\n      sub(shl(0xe0, 0x01), 0x01)\n      dup4\n      dup2\n      dup4\n      and\n      or\n      dup4\n      mstore\n      pop\n      pop\n      pop\n      pop\n        /* \"testnet.sol\":29158:29448  routerAddress.call(... */\n      mload(0x40)\n      tag_699\n      swap2\n      swap1\n      tag_486\n      jump\t// in\n    tag_699:\n      0x00\n      mload(0x40)\n      dup1\n      dup4\n      sub\n      dup2\n      0x00\n      dup7\n      gas\n      call\n      swap2\n      pop\n      pop\n      returndatasize\n      dup1\n      0x00\n      dup2\n      eq\n      tag_702\n      jumpi\n      mload(0x40)\n      swap2\n      pop\n      and(add(returndatasize, 0x3f), not(0x1f))\n      dup3\n      add\n      0x40\n      mstore\n      returndatasize\n      dup3\n      mstore\n      returndatasize\n      0x00\n      0x20\n      dup5\n      add\n      returndatacopy\n      jump(tag_701)\n    tag_702:\n      0x60\n      swap2\n      pop\n    tag_701:\n      pop\n        /* \"testnet.sol\":29122:29448  (bool success, bytes memory data) = routerAddress.call(... */\n      swap2\n      pop\n      swap2\n      pop\n        /* \"testnet.sol\":29469:29476  success */\n      dup2\n        /* \"testnet.sol\":29465:29632  if (success) {... */\n      iszero\n      tag_703\n      jumpi\n        /* \"testnet.sol\":29497:29521  uint256[] memory amounts */\n      0x00\n        /* \"testnet.sol\":29535:29539  data */\n      dup2\n        /* \"testnet.sol\":29524:29553  abi.decode(data, (uint256[])) */\n      dup1\n      0x20\n      add\n      swap1\n      mload\n      dup2\n      add\n      swap1\n      tag_704\n      swap2\n      swap1\n      tag_464\n      jump\t// in\n    tag_704:\n        /* \"testnet.sol\":29497:29553  uint256[] memory amounts = abi.decode(data, (uint256[])) */\n      swap1\n      pop\n        /* \"testnet.sol\":29596:29597  2 */\n      0x02\n        /* \"testnet.sol\":29578:29585  amounts */\n      dup2\n        /* \"testnet.sol\":29578:29592  amounts.length */\n      mload\n        /* \"testnet.sol\":29578:29597  amounts.length >= 2 */\n      lt\n        /* \"testnet.sol\":29574:29616  if (amounts.length >= 2) return amounts[1] */\n      tag_705\n      jumpi\n        /* \"testnet.sol\":29606:29613  amounts */\n      dup1\n        /* \"testnet.sol\":29614:29615  1 */\n      0x01\n        /* \"testnet.sol\":29606:29616  amounts[1] */\n      dup2\n      mload\n      dup2\n      lt\n      tag_707\n      jumpi\n      tag_707\n      tag_456\n      jump\t// in\n    tag_707:\n      0x20\n      mul\n      0x20\n      add\n      add\n      mload\n        /* \"testnet.sol\":29599:29616  return amounts[1] */\n      swap5\n      pop\n      pop\n      pop\n      pop\n      pop\n        /* \"testnet.sol\":28779:29669  function _swapTokenForBNB(uint256 tokenamount) private returns (uint256) {... */\n      swap2\n      swap1\n      pop\n      jump\t// out\n        /* \"testnet.sol\":29574:29616  if (amounts.length >= 2) return amounts[1] */\n    tag_705:\n        /* \"testnet.sol\":29478:29632  {... */\n      pop\n        /* \"testnet.sol\":29465:29632  if (success) {... */\n    tag_703:\n        /* \"testnet.sol\":28884:29643  {... */\n      pop\n      pop\n      pop\n        /* \"testnet.sol\":28863:29643  if (tokenamount > 0) {... */\n    tag_683:\n      pop\n        /* \"testnet.sol\":29660:29661  0 */\n      0x00\n      swap2\n        /* \"testnet.sol\":28779:29669  function _swapTokenForBNB(uint256 tokenamount) private returns (uint256) {... */\n      swap1\n      pop\n      jump\t// out\n        /* \"testnet.sol\":29720:30301  function _swapBNBforChosenTokenandPayout(... */\n    tag_480:\n        /* \"testnet.sol\":29919:29935  new address[](2) */\n      0x40\n      dup1\n      mload\n        /* \"testnet.sol\":29933:29934  2 */\n      0x02\n        /* \"testnet.sol\":29919:29935  new address[](2) */\n      dup1\n      dup3\n      mstore\n      0x60\n      dup3\n      add\n      dup4\n      mstore\n        /* \"testnet.sol\":29878:29882  bool */\n      0x00\n      swap3\n      dup4\n      swap3\n        /* \"testnet.sol\":29919:29935  new address[](2) */\n      swap2\n        /* \"testnet.sol\":29933:29934  2 */\n      swap1\n        /* \"testnet.sol\":29919:29935  new address[](2) */\n      0x20\n      dup4\n      add\n      swap1\n      dup1\n      calldatasize\n      dup4\n      calldatacopy\n      pop\n      pop\n        /* \"testnet.sol\":29956:29970  _pancakeRouter */\n      sload(0x01)\n        /* \"testnet.sol\":29956:29977  _pancakeRouter.WETH() */\n      0x40\n      dup1\n      mload\n      shl(0xe3, 0x15ab88c9)\n      dup2\n      mstore\n      swap1\n      mload\n        /* \"testnet.sol\":29895:29935  address[] memory path = new address[](2) */\n      swap4\n      swap5\n      pop\n      sub(shl(0xa0, 0x01), 0x01)\n        /* \"testnet.sol\":29956:29970  _pancakeRouter */\n      swap1\n      swap2\n      and\n      swap3\n        /* \"testnet.sol\":29956:29975  _pancakeRouter.WETH */\n      0xad5c4648\n      swap3\n      pop\n        /* \"testnet.sol\":29956:29977  _pancakeRouter.WETH() */\n      0x04\n      dup1\n      dup4\n      add\n      swap3\n      0x20\n      swap3\n      swap2\n      swap1\n      dup3\n      swap1\n      sub\n      add\n      dup2\n        /* \"testnet.sol\":29956:29970  _pancakeRouter */\n      dup7\n        /* \"testnet.sol\":29956:29977  _pancakeRouter.WETH() */\n      gas\n      staticcall\n      iszero\n      dup1\n      iszero\n      tag_713\n      jumpi\n      returndatasize\n      0x00\n      dup1\n      returndatacopy\n      revert(0x00, returndatasize)\n    tag_713:\n      pop\n      pop\n      pop\n      pop\n      mload(0x40)\n      returndatasize\n      not(0x1f)\n      0x1f\n      dup3\n      add\n      and\n      dup3\n      add\n      dup1\n      0x40\n      mstore\n      pop\n      dup2\n      add\n      swap1\n      tag_714\n      swap2\n      swap1\n      tag_453\n      jump\t// in\n    tag_714:\n        /* \"testnet.sol\":29946:29950  path */\n      dup2\n        /* \"testnet.sol\":29951:29952  0 */\n      0x00\n        /* \"testnet.sol\":29946:29953  path[0] */\n      dup2\n      mload\n      dup2\n      lt\n      tag_716\n      jumpi\n      tag_716\n      tag_456\n      jump\t// in\n    tag_716:\n      0x20\n      mul\n      0x20\n      add\n      add\n        /* \"testnet.sol\":29946:29977  path[0] = _pancakeRouter.WETH() */\n      swap1\n      sub(shl(0xa0, 0x01), 0x01)\n      and\n      swap1\n      dup2\n      sub(shl(0xa0, 0x01), 0x01)\n      and\n      dup2\n      mstore\n      pop\n      pop\n        /* \"testnet.sol\":29998:30017  PayoutTokenContract */\n      dup4\n        /* \"testnet.sol\":29988:29992  path */\n      dup2\n        /* \"testnet.sol\":29993:29994  1 */\n      0x01\n        /* \"testnet.sol\":29988:29995  path[1] */\n      dup2\n      mload\n      dup2\n      lt\n      tag_718\n      jumpi\n      tag_718\n      tag_456\n      jump\t// in\n    tag_718:\n      sub(shl(0xa0, 0x01), 0x01)\n        /* \"testnet.sol\":29988:30017  path[1] = PayoutTokenContract */\n      swap3\n      dup4\n      and\n        /* \"testnet.sol\":29988:29995  path[1] */\n      0x20\n      swap2\n      dup3\n      mul\n      swap3\n      swap1\n      swap3\n      add\n      add\n        /* \"testnet.sol\":29988:30017  path[1] = PayoutTokenContract */\n      mstore\n        /* \"testnet.sol\":30047:30061  _pancakeRouter */\n      sload(0x01)\n      and\n        /* \"testnet.sol\":30047:30112  _pancakeRouter.swapExactETHForTokensSupportingFeeOnTransferTokens */\n      0xb6f9de95\n        /* \"testnet.sol\":30138:30147  amountBNB */\n      dup7\n        /* \"testnet.sol\":30047:30061  _pancakeRouter */\n      0x00\n        /* \"testnet.sol\":30166:30170  path */\n      dup5\n        /* \"testnet.sol\":30180:30188  receiver */\n      dup8\n        /* \"testnet.sol\":30191:30211  block.timestamp + 20 */\n      tag_719\n        /* \"testnet.sol\":30191:30206  block.timestamp */\n      timestamp\n        /* \"testnet.sol\":30209:30211  20 */\n      0x14\n        /* \"testnet.sol\":30191:30211  block.timestamp + 20 */\n      tag_438\n      jump\t// in\n    tag_719:\n        /* \"testnet.sol\":30047:30212  _pancakeRouter.swapExactETHForTokensSupportingFeeOnTransferTokens{... */\n      mload(0x40)\n      dup7\n      0xffffffff\n      and\n      0xe0\n      shl\n      dup2\n      mstore\n      0x04\n      add\n      tag_720\n      swap5\n      swap4\n      swap3\n      swap2\n      swap1\n      tag_721\n      jump\t// in\n    tag_720:\n      0x00\n      mload(0x40)\n      dup1\n      dup4\n      sub\n      dup2\n      dup6\n      dup9\n      dup1\n      extcodesize\n      iszero\n      dup1\n      iszero\n      tag_722\n      jumpi\n      0x00\n      dup1\n      revert\n    tag_722:\n      pop\n      gas\n      call\n      swap4\n      pop\n      pop\n      pop\n      pop\n      dup1\n      iszero\n      tag_723\n      jumpi\n      pop\n      0x01\n    tag_723:\n        /* \"testnet.sol\":30030:30269  try... */\n      tag_724\n      jumpi\n      jump(tag_577)\n    tag_724:\n        /* \"testnet.sol\":30244:30248  true */\n      0x01\n        /* \"testnet.sol\":30237:30248  return true */\n      swap2\n      pop\n      pop\n      jump(tag_418)\n        /* \"testnet.sol\":32611:32860  function fulfillRandomness(bytes32 requestId, uint256 randomness)... */\n    tag_556:\n        /* \"testnet.sol\":32766:32778  randomOutput */\n      0x23\n        /* \"testnet.sol\":32766:32786  randomOutput = Value */\n      dup2\n      swap1\n      sstore\n        /* \"testnet.sol\":32745:32755  randomness */\n      dup1\n        /* \"testnet.sol\":32799:32814  FinalizeRound() */\n      tag_730\n        /* \"testnet.sol\":32799:32812  FinalizeRound */\n      tag_606\n        /* \"testnet.sol\":32799:32814  FinalizeRound() */\n      jump\t// in\n    tag_730:\n      pop\n      pop\n        /* \"testnet.sol\":32825:32844  randomRequestedFlag */\n      0x24\n        /* \"testnet.sol\":32825:32852  randomRequestedFlag = false */\n      dup1\n      sload\n      not(0xff)\n      and\n      swap1\n      sstore\n      pop\n      pop\n        /* \"testnet.sol\":32611:32860  function fulfillRandomness(bytes32 requestId, uint256 randomness)... */\n      jump\t// out\n        /* \"testnet.sol\":32310:32603  function getRandomNumberLINK() private {... */\n    tag_603:\n        /* \"testnet.sol\":32414:32422  LINK_fee */\n      sload(0x19)\n        /* \"testnet.sol\":32382:32411  LINK.balanceOf(address(this)) */\n      mload(0x40)\n      shl(0xe0, 0x70a08231)\n      dup2\n      mstore\n        /* \"testnet.sol\":32405:32409  this */\n      address\n        /* \"testnet.sol\":32382:32411  LINK.balanceOf(address(this)) */\n      0x04\n      dup3\n      add\n        /* \"#utility.yul\":2178:2229   */\n      mstore\n        /* \"testnet.sol\":32382:32386  LINK */\n      immutable(\"0xb2219b801710730437d0358146c829b62297a059eceaa0b40b27aea2daecf595\")\n      sub(shl(0xa0, 0x01), 0x01)\n        /* \"testnet.sol\":32382:32396  LINK.balanceOf */\n      and\n      swap1\n      0x70a08231\n      swap1\n        /* \"#utility.yul\":2151:2169   */\n      0x24\n      add\n        /* \"testnet.sol\":32382:32411  LINK.balanceOf(address(this)) */\n      0x20\n      mload(0x40)\n      dup1\n      dup4\n      sub\n      dup2\n      dup7\n      gas\n      staticcall\n      iszero\n      dup1\n      iszero\n      tag_734\n      jumpi\n      returndatasize\n      0x00\n      dup1\n      returndatacopy\n      revert(0x00, returndatasize)\n    tag_734:\n      pop\n      pop\n      pop\n      pop\n      mload(0x40)\n      returndatasize\n      not(0x1f)\n      0x1f\n      dup3\n      add\n      and\n      dup3\n      add\n      dup1\n      0x40\n      mstore\n      pop\n      dup2\n      add\n      swap1\n      tag_735\n      swap2\n      swap1\n      tag_591\n      jump\t// in\n    tag_735:\n        /* \"testnet.sol\":32382:32422  LINK.balanceOf(address(this)) > LINK_fee */\n      gt\n        /* \"testnet.sol\":32360:32493  require(... */\n      tag_736\n      jumpi\n      mload(0x40)\n      shl(0xe5, 0x461bcd)\n      dup2\n      mstore\n        /* \"#utility.yul\":13574:13576   */\n      0x20\n        /* \"testnet.sol\":32360:32493  require(... */\n      0x04\n      dup3\n      add\n        /* \"#utility.yul\":13556:13577   */\n      mstore\n        /* \"#utility.yul\":13613:13615   */\n      0x2b\n        /* \"#utility.yul\":13593:13611   */\n      0x24\n      dup3\n      add\n        /* \"#utility.yul\":13586:13616   */\n      mstore\n        /* \"#utility.yul\":13652:13686   */\n      0x4e6f7420656e6f756768204c494e4b202d2066696c6c20636f6e747261637420\n        /* \"#utility.yul\":13632:13650   */\n      0x44\n      dup3\n      add\n        /* \"#utility.yul\":13625:13687   */\n      mstore\n      shl(0xaa, 0x1dda5d1a0819985d58d95d)\n        /* \"#utility.yul\":13703:13721   */\n      0x64\n      dup3\n      add\n        /* \"#utility.yul\":13696:13737   */\n      mstore\n        /* \"#utility.yul\":13754:13773   */\n      0x84\n      add\n        /* \"testnet.sol\":32360:32493  require(... */\n      tag_431\n        /* \"#utility.yul\":13372:13779   */\n      jump\n        /* \"testnet.sol\":32360:32493  require(... */\n    tag_736:\n        /* \"testnet.sol\":32522:32558  requestRandomness(keyHash, LINK_fee) */\n      tag_739\n        /* \"testnet.sol\":32540:32547  keyHash */\n      sload(0x18)\n        /* \"testnet.sol\":32549:32557  LINK_fee */\n      sload(0x19)\n        /* \"testnet.sol\":32522:32539  requestRandomness */\n      tag_740\n        /* \"testnet.sol\":32522:32558  requestRandomness(keyHash, LINK_fee) */\n      jump\t// in\n    tag_739:\n        /* \"testnet.sol\":32504:32519  requestIdOutput */\n      0x22\n        /* \"testnet.sol\":32504:32558  requestIdOutput = requestRandomness(keyHash, LINK_fee) */\n      sstore\n        /* \"testnet.sol\":32569:32588  randomRequestedFlag */\n      0x24\n        /* \"testnet.sol\":32569:32595  randomRequestedFlag = true */\n      dup1\n      sload\n      not(0xff)\n      and\n        /* \"testnet.sol\":32591:32595  true */\n      0x01\n        /* \"testnet.sol\":32569:32595  randomRequestedFlag = true */\n      or\n      swap1\n      sstore\n        /* \"testnet.sol\":32310:32603  function getRandomNumberLINK() private {... */\n      jump\t// out\n        /* \"testnet.sol\":26506:27695  function FinalizeRound() internal returns (bool) {... */\n    tag_606:\n        /* \"testnet.sol\":26570:26582  RoundEntries */\n      sload(0x0c)\n        /* \"testnet.sol\":26549:26553  bool */\n      0x00\n      swap1\n      sub(shl(0x40, 0x01), 0x01)\n        /* \"testnet.sol\":26570:26582  RoundEntries */\n      and\n        /* \"testnet.sol\":26570:26586  RoundEntries > 0 */\n      iszero\n        /* \"testnet.sol\":26566:27687  if (RoundEntries > 0) {... */\n      tag_405\n      jumpi\n        /* \"testnet.sol\":26685:26697  RoundEntries */\n      sload(0x0c)\n        /* \"testnet.sol\":26625:26640  block.timestamp */\n      timestamp\n      swap1\n        /* \"testnet.sol\":26603:26622  uint256 currentTime */\n      0x00\n      swap1\n        /* \"testnet.sol\":26669:26698  getRandomNumber(RoundEntries) */\n      tag_743\n      swap1\n      sub(shl(0x40, 0x01), 0x01)\n        /* \"testnet.sol\":26685:26697  RoundEntries */\n      and\n        /* \"testnet.sol\":26669:26684  getRandomNumber */\n      tag_744\n        /* \"testnet.sol\":26669:26698  getRandomNumber(RoundEntries) */\n      jump\t// in\n    tag_743:\n        /* \"testnet.sol\":26655:26698  uint256 Num = getRandomNumber(RoundEntries) */\n      swap1\n      pop\n        /* \"testnet.sol\":26713:26727  address Winner */\n      0x00\n        /* \"testnet.sol\":26730:26737  entries */\n      0x0b\n        /* \"testnet.sol\":26730:26742  entries[Num] */\n      0x00\n        /* \"testnet.sol\":26738:26741  Num */\n      dup4\n        /* \"testnet.sol\":26730:26742  entries[Num] */\n      dup2\n      mstore\n      0x20\n      add\n      swap1\n      dup2\n      mstore\n      0x20\n      add\n      0x00\n      keccak256\n      0x00\n      swap1\n      sload\n      swap1\n      0x0100\n      exp\n      swap1\n      div\n      sub(shl(0xa0, 0x01), 0x01)\n      and\n        /* \"testnet.sol\":26713:26742  address Winner = entries[Num] */\n      swap1\n      pop\n        /* \"testnet.sol\":26759:26769  ResultsLog */\n      0x1a\n        /* \"testnet.sol\":26793:26856  Results(Num, Winner, CurrentJackpot, StartTime + RoundDuration) */\n      mload(0x40)\n      dup1\n      0x80\n      add\n      0x40\n      mstore\n      dup1\n        /* \"testnet.sol\":26801:26804  Num */\n      dup5\n        /* \"testnet.sol\":26793:26856  Results(Num, Winner, CurrentJackpot, StartTime + RoundDuration) */\n      dup2\n      mstore\n      0x20\n      add\n        /* \"testnet.sol\":26806:26812  Winner */\n      dup4\n      sub(shl(0xa0, 0x01), 0x01)\n        /* \"testnet.sol\":26793:26856  Results(Num, Winner, CurrentJackpot, StartTime + RoundDuration) */\n      and\n      dup2\n      mstore\n      0x20\n      add\n        /* \"testnet.sol\":26814:26828  CurrentJackpot */\n      sload(0x0e)\n        /* \"testnet.sol\":26793:26856  Results(Num, Winner, CurrentJackpot, StartTime + RoundDuration) */\n      dup2\n      mstore\n      0x20\n      add\n        /* \"testnet.sol\":26842:26855  RoundDuration */\n      sload(0x12)\n        /* \"testnet.sol\":26830:26839  StartTime */\n      sload(0x13)\n        /* \"testnet.sol\":26830:26855  StartTime + RoundDuration */\n      tag_745\n      swap2\n      swap1\n      tag_438\n      jump\t// in\n    tag_745:\n        /* \"testnet.sol\":26793:26856  Results(Num, Winner, CurrentJackpot, StartTime + RoundDuration) */\n      swap1\n      mstore\n        /* \"testnet.sol\":26759:26871  ResultsLog.push(... */\n      dup2\n      sload\n      0x01\n      dup1\n      dup3\n      add\n      dup5\n      sstore\n      0x00\n      swap4\n      dup5\n      mstore\n      0x20\n      dup1\n      dup6\n      keccak256\n      dup5\n      mload\n      0x04\n      swap1\n      swap5\n      mul\n      add\n      swap3\n      dup4\n      sstore\n      dup4\n      add\n      mload\n      swap1\n      dup3\n      add\n      dup1\n      sload\n      not(sub(shl(0xa0, 0x01), 0x01))\n      and\n      sub(shl(0xa0, 0x01), 0x01)\n      swap1\n      swap3\n      and\n      swap2\n      swap1\n      swap2\n      or\n      swap1\n      sstore\n      0x40\n      dup3\n      add\n      mload\n      0x02\n      dup3\n      add\n      sstore\n      0x60\n      swap1\n      swap2\n      add\n      mload\n      0x03\n      swap1\n      swap2\n      add\n      sstore\n        /* \"testnet.sol\":27149:27158  StartTime */\n      0x13\n        /* \"testnet.sol\":27149:27172  StartTime = currentTime */\n      dup5\n      swap1\n      sstore\n        /* \"testnet.sol\":27251:27271  NextRoundTicketPrice */\n      sload(0x11)\n        /* \"testnet.sol\":27237:27248  TicketPrice */\n      0x10\n        /* \"testnet.sol\":27237:27271  TicketPrice = NextRoundTicketPrice */\n      sstore\n        /* \"testnet.sol\":27327:27341  CurrentJackpot */\n      0x0e\n      dup1\n      sload\n        /* \"testnet.sol\":27373:27385  NextRoundPot */\n      0x07\n      dup1\n      sload\n        /* \"testnet.sol\":27356:27385  CurrentJackpot = NextRoundPot */\n      swap1\n      swap3\n      sstore\n        /* \"testnet.sol\":27439:27455  NextRoundPot = 0 */\n      swap2\n      swap1\n      sstore\n        /* \"testnet.sol\":27472:27494  transfer(Winner, temp) */\n      tag_747\n        /* \"testnet.sol\":27481:27487  Winner */\n      dup3\n        /* \"testnet.sol\":27327:27341  CurrentJackpot */\n      dup3\n        /* \"testnet.sol\":27472:27480  transfer */\n      tag_284\n        /* \"testnet.sol\":27472:27494  transfer(Winner, temp) */\n      jump\t// in\n    tag_747:\n      pop\n        /* \"testnet.sol\":27514:27538  LotteryWon(Winner, temp) */\n      0x40\n      dup1\n      mload\n      sub(shl(0xa0, 0x01), 0x01)\n        /* \"#utility.yul\":13976:14008   */\n      dup5\n      and\n        /* \"#utility.yul\":13958:14009   */\n      dup2\n      mstore\n        /* \"#utility.yul\":14040:14042   */\n      0x20\n        /* \"#utility.yul\":14025:14043   */\n      dup2\n      add\n        /* \"#utility.yul\":14018:14052   */\n      dup4\n      swap1\n      mstore\n        /* \"testnet.sol\":27514:27538  LotteryWon(Winner, temp) */\n      0x2e798dd4337e515c79b64c40e1a93baa1aefbd9180ac7905e02508edd7971e50\n      swap2\n        /* \"#utility.yul\":13931:13949   */\n      add\n        /* \"testnet.sol\":27514:27538  LotteryWon(Winner, temp) */\n      mload(0x40)\n      dup1\n      swap2\n      sub\n      swap1\n      log1\n        /* \"testnet.sol\":27553:27560  RoundNr */\n      0x0c\n        /* \"testnet.sol\":27553:27562  RoundNr++ */\n      dup1\n      sload\n      shl(0x40, 0x01)\n      swap1\n      div\n      sub(shl(0x40, 0x01), 0x01)\n      and\n      swap1\n        /* \"testnet.sol\":27553:27560  RoundNr */\n      0x08\n        /* \"testnet.sol\":27553:27562  RoundNr++ */\n      tag_750\n      dup4\n      tag_665\n      jump\t// in\n    tag_750:\n      dup3\n      sload\n      sub(shl(0x40, 0x01), 0x01)\n      swap2\n      dup3\n      and\n      0x0100\n      swap4\n      swap1\n      swap4\n      exp\n      swap3\n      dup4\n      mul\n      swap2\n      swap1\n      swap3\n      mul\n      not\n      swap1\n      swap2\n      and\n      or\n      swap1\n      sstore\n      pop\n        /* \"testnet.sol\":27577:27589  RoundEntries */\n      0x0c\n        /* \"testnet.sol\":27577:27593  RoundEntries = 0 */\n      dup1\n      sload\n      not(0xffffffffffffffff)\n      and\n      swap1\n      sstore\n        /* \"testnet.sol\":27608:27623  TotalPaidOutVal */\n      0x0f\n        /* \"testnet.sol\":27608:27631  TotalPaidOutVal += temp */\n      dup1\n      sload\n        /* \"testnet.sol\":27627:27631  temp */\n      dup3\n      swap2\n        /* \"testnet.sol\":27608:27623  TotalPaidOutVal */\n      swap1\n      0x00\n      swap1\n        /* \"testnet.sol\":27608:27631  TotalPaidOutVal += temp */\n      tag_751\n      swap1\n        /* \"testnet.sol\":27627:27631  temp */\n      dup5\n      swap1\n        /* \"testnet.sol\":27608:27631  TotalPaidOutVal += temp */\n      tag_438\n      jump\t// in\n    tag_751:\n      swap1\n      swap2\n      sstore\n      pop\n        /* \"testnet.sol\":27653:27657  true */\n      0x01\n      swap7\n        /* \"testnet.sol\":26506:27695  function FinalizeRound() internal returns (bool) {... */\n      swap6\n      pop\n      pop\n      pop\n      pop\n      pop\n      pop\n      jump\t// out\n        /* \"testnet.sol\":19167:19497  function _approveMore(... */\n    tag_685:\n      sub(shl(0xa0, 0x01), 0x01)\n        /* \"testnet.sol\":19330:19350  __allowances[_owner] */\n      dup4\n      dup2\n      and\n        /* \"testnet.sol\":19291:19303  bool success */\n      0x00\n        /* \"testnet.sol\":19330:19350  __allowances[_owner] */\n      swap1\n      dup2\n      mstore\n        /* \"testnet.sol\":19330:19342  __allowances */\n      0x1f\n        /* \"testnet.sol\":19330:19350  __allowances[_owner] */\n      0x20\n      swap1\n      dup2\n      mstore\n      0x40\n      dup1\n      dup4\n      keccak256\n        /* \"testnet.sol\":19330:19360  __allowances[_owner][_spender] */\n      swap4\n      dup7\n      and\n      dup4\n      mstore\n      swap3\n      swap1\n      mstore\n      swap1\n      dup2\n      keccak256\n      dup1\n      sload\n      swap1\n        /* \"testnet.sol\":19405:19411  _value */\n      dup4\n      swap1\n        /* \"testnet.sol\":19291:19303  bool success */\n      dup4\n        /* \"testnet.sol\":19371:19411  __allowances[_owner][_spender] += _value */\n      tag_754\n        /* \"testnet.sol\":19405:19411  _value */\n      dup4\n        /* \"testnet.sol\":19330:19360  __allowances[_owner][_spender] */\n      dup6\n        /* \"testnet.sol\":19371:19411  __allowances[_owner][_spender] += _value */\n      tag_438\n      jump\t// in\n    tag_754:\n      swap1\n      swap2\n      sstore\n      pop\n      pop\n      sub(shl(0xa0, 0x01), 0x01)\n        /* \"testnet.sol\":19427:19467  Approval(_owner, _spender, old + _value) */\n      dup1\n      dup6\n      and\n      swap1\n      dup7\n      and\n      0x8c5be1e5ebec7d5bd14f71427d1e84f3dd0314c0f7b2291e5b200ac8c7c3b925\n        /* \"testnet.sol\":19454:19466  old + _value */\n      tag_755\n        /* \"testnet.sol\":19460:19466  _value */\n      dup7\n        /* \"testnet.sol\":19454:19457  old */\n      dup6\n        /* \"testnet.sol\":19454:19466  old + _value */\n      tag_438\n      jump\t// in\n    tag_755:\n        /* \"testnet.sol\":19427:19467  Approval(_owner, _spender, old + _value) */\n      mload(0x40)\n        /* \"#utility.yul\":1996:2021   */\n      swap1\n      dup2\n      mstore\n        /* \"#utility.yul\":1984:1986   */\n      0x20\n        /* \"#utility.yul\":1969:1987   */\n      add\n        /* \"testnet.sol\":19427:19467  Approval(_owner, _spender, old + _value) */\n      mload(0x40)\n      dup1\n      swap2\n      sub\n      swap1\n      log3\n      pop\n        /* \"testnet.sol\":19485:19489  true */\n      0x01\n      swap5\n        /* \"testnet.sol\":19167:19497  function _approveMore(... */\n      swap4\n      pop\n      pop\n      pop\n      pop\n      jump\t// out\n        /* \"https://github.com/smartcontractkit/chainlink/blob/develop/contracts/src/v0.8/VRFConsumerBase.sol\":7732:8752  function requestRandomness(bytes32 _keyHash, uint256 _fee) internal returns (bytes32 requestId) {... */\n    tag_740:\n        /* \"https://github.com/smartcontractkit/chainlink/blob/develop/contracts/src/v0.8/VRFConsumerBase.sol\":7809:7826  bytes32 requestId */\n      0x00\n        /* \"https://github.com/smartcontractkit/chainlink/blob/develop/contracts/src/v0.8/VRFConsumerBase.sol\":7834:7838  LINK */\n      immutable(\"0xb2219b801710730437d0358146c829b62297a059eceaa0b40b27aea2daecf595\")\n      sub(shl(0xa0, 0x01), 0x01)\n        /* \"https://github.com/smartcontractkit/chainlink/blob/develop/contracts/src/v0.8/VRFConsumerBase.sol\":7834:7854  LINK.transferAndCall */\n      and\n      0x4000aea0\n        /* \"https://github.com/smartcontractkit/chainlink/blob/develop/contracts/src/v0.8/VRFConsumerBase.sol\":7855:7869  vrfCoordinator */\n      immutable(\"0x6dbb33232cde86c8a04f90a8bed9fc1c5ef520188a14538d96eb100d69bc2a94\")\n        /* \"https://github.com/smartcontractkit/chainlink/blob/develop/contracts/src/v0.8/VRFConsumerBase.sol\":7871:7875  _fee */\n      dup5\n        /* \"https://github.com/smartcontractkit/chainlink/blob/develop/contracts/src/v0.8/VRFConsumerBase.sol\":7888:7896  _keyHash */\n      dup7\n        /* \"https://github.com/smartcontractkit/chainlink/blob/develop/contracts/src/v0.8/VRFConsumerBase.sol\":6589:6590  0 */\n      0x00\n        /* \"https://github.com/smartcontractkit/chainlink/blob/develop/contracts/src/v0.8/VRFConsumerBase.sol\":7877:7920  abi.encode(_keyHash, USER_SEED_PLACEHOLDER) */\n      add(0x20, mload(0x40))\n      tag_758\n      swap3\n      swap2\n      swap1\n        /* \"#utility.yul\":14237:14262   */\n      swap2\n      dup3\n      mstore\n        /* \"#utility.yul\":14293:14295   */\n      0x20\n        /* \"#utility.yul\":14278:14296   */\n      dup3\n      add\n        /* \"#utility.yul\":14271:14305   */\n      mstore\n        /* \"#utility.yul\":14225:14227   */\n      0x40\n        /* \"#utility.yul\":14210:14228   */\n      add\n      swap1\n        /* \"#utility.yul\":14063:14311   */\n      jump\n        /* \"https://github.com/smartcontractkit/chainlink/blob/develop/contracts/src/v0.8/VRFConsumerBase.sol\":7877:7920  abi.encode(_keyHash, USER_SEED_PLACEHOLDER) */\n    tag_758:\n      mload(0x40)\n      0x20\n      dup2\n      dup4\n      sub\n      sub\n      dup2\n      mstore\n      swap1\n      0x40\n      mstore\n        /* \"https://github.com/smartcontractkit/chainlink/blob/develop/contracts/src/v0.8/VRFConsumerBase.sol\":7834:7921  LINK.transferAndCall(vrfCoordinator, _fee, abi.encode(_keyHash, USER_SEED_PLACEHOLDER)) */\n      mload(0x40)\n      dup5\n      0xffffffff\n      and\n      0xe0\n      shl\n      dup2\n      mstore\n      0x04\n      add\n      tag_760\n      swap4\n      swap3\n      swap2\n      swap1\n      tag_761\n      jump\t// in\n    tag_760:\n      0x20\n      mload(0x40)\n      dup1\n      dup4\n      sub\n      dup2\n      0x00\n      dup8\n      gas\n      call\n      iszero\n      dup1\n      iszero\n      tag_763\n      jumpi\n      returndatasize\n      0x00\n      dup1\n      returndatacopy\n      revert(0x00, returndatasize)\n    tag_763:\n      pop\n      pop\n      pop\n      pop\n      mload(0x40)\n      returndatasize\n      not(0x1f)\n      0x1f\n      dup3\n      add\n      and\n      dup3\n      add\n      dup1\n      0x40\n      mstore\n      pop\n      dup2\n      add\n      swap1\n      tag_764\n      swap2\n      swap1\n      tag_765\n      jump\t// in\n    tag_764:\n      pop\n        /* \"https://github.com/smartcontractkit/chainlink/blob/develop/contracts/src/v0.8/VRFConsumerBase.sol\":8152:8167  uint256 vRFSeed */\n      0x00\n        /* \"https://github.com/smartcontractkit/chainlink/blob/develop/contracts/src/v0.8/VRFConsumerBase.sol\":8235:8251  nonces[_keyHash] */\n      dup4\n      dup2\n      mstore\n      0x20\n      dup2\n      dup2\n      mstore\n      0x40\n      dup1\n      dup4\n      keccak256\n      sload\n        /* \"https://github.com/smartcontractkit/chainlink/blob/develop/contracts/src/v0.8/VRFRequestIDBase.sol\":978:1029  abi.encode(_keyHash, _userSeed, _requester, _nonce) */\n      dup2\n      mload\n      dup1\n      dup5\n      add\n        /* \"#utility.yul\":15809:15834   */\n      dup9\n      swap1\n      mstore\n        /* \"#utility.yul\":15850:15868   */\n      dup1\n      dup4\n      add\n        /* \"#utility.yul\":15843:15877   */\n      dup6\n      swap1\n      mstore\n        /* \"https://github.com/smartcontractkit/chainlink/blob/develop/contracts/src/v0.8/VRFConsumerBase.sol\":8228:8232  this */\n      address\n        /* \"#utility.yul\":15893:15911   */\n      0x60\n      dup3\n      add\n        /* \"#utility.yul\":15886:15946   */\n      mstore\n        /* \"#utility.yul\":15962:15980   */\n      0x80\n      dup1\n      dup3\n      add\n        /* \"#utility.yul\":15955:15989   */\n      dup4\n      swap1\n      mstore\n        /* \"https://github.com/smartcontractkit/chainlink/blob/develop/contracts/src/v0.8/VRFRequestIDBase.sol\":978:1029  abi.encode(_keyHash, _userSeed, _requester, _nonce) */\n      dup4\n      mload\n      dup1\n      dup4\n      sub\n      swap1\n      swap2\n      add\n      dup2\n      mstore\n        /* \"#utility.yul\":15781:15800   */\n      0xa0\n      swap1\n      swap2\n      add\n        /* \"https://github.com/smartcontractkit/chainlink/blob/develop/contracts/src/v0.8/VRFRequestIDBase.sol\":978:1029  abi.encode(_keyHash, _userSeed, _requester, _nonce) */\n      swap1\n      swap3\n      mstore\n        /* \"https://github.com/smartcontractkit/chainlink/blob/develop/contracts/src/v0.8/VRFRequestIDBase.sol\":968:1030  keccak256(abi.encode(_keyHash, _userSeed, _requester, _nonce)) */\n      dup2\n      mload\n      swap2\n      dup4\n      add\n      swap2\n      swap1\n      swap2\n      keccak256\n        /* \"https://github.com/smartcontractkit/chainlink/blob/develop/contracts/src/v0.8/VRFConsumerBase.sol\":8682:8698  nonces[_keyHash] */\n      dup7\n      dup5\n      mstore\n      swap3\n      swap1\n      swap2\n      mstore\n        /* \"https://github.com/smartcontractkit/chainlink/blob/develop/contracts/src/v0.8/VRFConsumerBase.sol\":8682:8702  nonces[_keyHash] + 1 */\n      tag_768\n      swap1\n        /* \"https://github.com/smartcontractkit/chainlink/blob/develop/contracts/src/v0.8/VRFConsumerBase.sol\":8701:8702  1 */\n      0x01\n        /* \"https://github.com/smartcontractkit/chainlink/blob/develop/contracts/src/v0.8/VRFConsumerBase.sol\":8682:8702  nonces[_keyHash] + 1 */\n      tag_438\n      jump\t// in\n    tag_768:\n        /* \"https://github.com/smartcontractkit/chainlink/blob/develop/contracts/src/v0.8/VRFConsumerBase.sol\":8663:8669  nonces */\n      0x00\n        /* \"https://github.com/smartcontractkit/chainlink/blob/develop/contracts/src/v0.8/VRFConsumerBase.sol\":8663:8679  nonces[_keyHash] */\n      dup6\n      dup2\n      mstore\n      0x20\n      dup2\n      dup2\n      mstore\n      0x40\n      swap2\n      dup3\n      swap1\n      keccak256\n        /* \"https://github.com/smartcontractkit/chainlink/blob/develop/contracts/src/v0.8/VRFConsumerBase.sol\":8663:8702  nonces[_keyHash] = nonces[_keyHash] + 1 */\n      swap3\n      swap1\n      swap3\n      sstore\n        /* \"https://github.com/smartcontractkit/chainlink/blob/develop/contracts/src/v0.8/VRFRequestIDBase.sol\":1535:1576  abi.encodePacked(_keyHash, _vRFInputSeed) */\n      dup1\n      mload\n      dup1\n      dup4\n      add\n        /* \"#utility.yul\":16157:16176   */\n      dup8\n      swap1\n      mstore\n        /* \"#utility.yul\":16192:16204   */\n      dup1\n      dup3\n      add\n        /* \"#utility.yul\":16185:16213   */\n      dup5\n      swap1\n      mstore\n        /* \"https://github.com/smartcontractkit/chainlink/blob/develop/contracts/src/v0.8/VRFRequestIDBase.sol\":1535:1576  abi.encodePacked(_keyHash, _vRFInputSeed) */\n      dup2\n      mload\n      dup1\n      dup3\n      sub\n      dup4\n      add\n      dup2\n      mstore\n        /* \"#utility.yul\":16229:16241   */\n      0x60\n      swap1\n      swap2\n      add\n        /* \"https://github.com/smartcontractkit/chainlink/blob/develop/contracts/src/v0.8/VRFRequestIDBase.sol\":1535:1576  abi.encodePacked(_keyHash, _vRFInputSeed) */\n      swap1\n      swap2\n      mstore\n        /* \"https://github.com/smartcontractkit/chainlink/blob/develop/contracts/src/v0.8/VRFRequestIDBase.sol\":1525:1577  keccak256(abi.encodePacked(_keyHash, _vRFInputSeed)) */\n      dup1\n      mload\n      swap2\n      add\n      keccak256\n        /* \"https://github.com/smartcontractkit/chainlink/blob/develop/contracts/src/v0.8/VRFConsumerBase.sol\":8715:8747  makeRequestId(_keyHash, vRFSeed) */\n    tag_769:\n        /* \"https://github.com/smartcontractkit/chainlink/blob/develop/contracts/src/v0.8/VRFConsumerBase.sol\":8708:8747  return makeRequestId(_keyHash, vRFSeed) */\n      swap5\n        /* \"https://github.com/smartcontractkit/chainlink/blob/develop/contracts/src/v0.8/VRFConsumerBase.sol\":7732:8752  function requestRandomness(bytes32 _keyHash, uint256 _fee) internal returns (bytes32 requestId) {... */\n      swap4\n      pop\n      pop\n      pop\n      pop\n      jump\t// out\n        /* \"testnet.sol\":31449:31833  function getRandomNumber(uint256 range) internal returns (uint256) {... */\n    tag_744:\n        /* \"testnet.sol\":31507:31514  uint256 */\n      0x00\n        /* \"testnet.sol\":31527:31547  uint256 randomnumber */\n      dup1\n        /* \"testnet.sol\":31560:31572  uint256 seed */\n      0x00\n        /* \"testnet.sol\":31598:31612  CurrentJackpot */\n      sload(0x0e)\n        /* \"testnet.sol\":31583:31595  randomOutput */\n      sload(0x23)\n        /* \"testnet.sol\":31575:31580  nonce */\n      sload(0x21)\n        /* \"testnet.sol\":31575:31595  nonce + randomOutput */\n      tag_772\n      swap2\n      swap1\n      tag_438\n      jump\t// in\n    tag_772:\n        /* \"testnet.sol\":31575:31612  nonce + randomOutput + CurrentJackpot */\n      tag_773\n      swap2\n      swap1\n      tag_438\n      jump\t// in\n    tag_773:\n        /* \"testnet.sol\":31687:31738  abi.encodePacked(block.timestamp, msg.sender, seed) */\n      0x40\n      dup1\n      mload\n        /* \"testnet.sol\":31704:31719  block.timestamp */\n      timestamp\n        /* \"testnet.sol\":31687:31738  abi.encodePacked(block.timestamp, msg.sender, seed) */\n      0x20\n      dup3\n      add\n        /* \"#utility.yul\":15142:15161   */\n      mstore\n      not(0xffffffffffffffffffffffff)\n        /* \"testnet.sol\":31721:31731  msg.sender */\n      caller\n        /* \"#utility.yul\":15199:15201   */\n      0x60\n        /* \"#utility.yul\":15195:15210   */\n      shl\n        /* \"#utility.yul\":15191:15244   */\n      and\n        /* \"#utility.yul\":15177:15189   */\n      swap2\n      dup2\n      add\n        /* \"#utility.yul\":15170:15245   */\n      swap2\n      swap1\n      swap2\n      mstore\n        /* \"#utility.yul\":15261:15273   */\n      0x54\n      dup2\n      add\n        /* \"#utility.yul\":15254:15282   */\n      dup3\n      swap1\n      mstore\n        /* \"testnet.sol\":31560:31612  uint256 seed = nonce + randomOutput + CurrentJackpot */\n      swap1\n      swap2\n      pop\n        /* \"testnet.sol\":31770:31775  range */\n      dup5\n      swap1\n        /* \"#utility.yul\":15298:15310   */\n      0x74\n      add\n        /* \"testnet.sol\":31687:31738  abi.encodePacked(block.timestamp, msg.sender, seed) */\n      mload(0x40)\n      0x20\n      dup2\n      dup4\n      sub\n      sub\n      dup2\n      mstore\n      swap1\n      0x40\n      mstore\n        /* \"testnet.sol\":31677:31739  keccak256(abi.encodePacked(block.timestamp, msg.sender, seed)) */\n      dup1\n      mload\n      swap1\n      0x20\n      add\n      keccak256\n        /* \"testnet.sol\":31651:31754  uint256(... */\n      0x00\n      shr\n        /* \"testnet.sol\":31651:31775  uint256(... */\n      tag_776\n      swap2\n      swap1\n      tag_777\n      jump\t// in\n    tag_776:\n        /* \"testnet.sol\":31786:31791  nonce */\n      0x21\n        /* \"testnet.sol\":31786:31793  nonce++ */\n      dup1\n      sload\n        /* \"testnet.sol\":31623:31775  randomnumber =... */\n      swap2\n      swap4\n      pop\n        /* \"testnet.sol\":31786:31791  nonce */\n      0x00\n        /* \"testnet.sol\":31786:31793  nonce++ */\n      tag_778\n      dup4\n      tag_779\n      jump\t// in\n    tag_778:\n      swap1\n      swap2\n      sstore\n      pop\n        /* \"testnet.sol\":31813:31825  randomnumber */\n      swap2\n      swap5\n        /* \"testnet.sol\":31449:31833  function getRandomNumber(uint256 range) internal returns (uint256) {... */\n      swap4\n      pop\n      pop\n      pop\n      pop\n      jump\t// out\n        /* \"#utility.yul\":14:145   */\n    tag_786:\n      sub(shl(0xa0, 0x01), 0x01)\n        /* \"#utility.yul\":89:120   */\n      dup2\n      and\n        /* \"#utility.yul\":79:121   */\n      dup2\n      eq\n        /* \"#utility.yul\":69:139   */\n      tag_475\n      jumpi\n        /* \"#utility.yul\":135:136   */\n      0x00\n        /* \"#utility.yul\":132:133   */\n      dup1\n        /* \"#utility.yul\":125:137   */\n      revert\n        /* \"#utility.yul\":150:397   */\n    tag_93:\n        /* \"#utility.yul\":209:215   */\n      0x00\n        /* \"#utility.yul\":262:264   */\n      0x20\n        /* \"#utility.yul\":250:259   */\n      dup3\n        /* \"#utility.yul\":241:248   */\n      dup5\n        /* \"#utility.yul\":237:260   */\n      sub\n        /* \"#utility.yul\":233:265   */\n      slt\n        /* \"#utility.yul\":230:282   */\n      iszero\n      tag_799\n      jumpi\n        /* \"#utility.yul\":278:279   */\n      0x00\n        /* \"#utility.yul\":275:276   */\n      dup1\n        /* \"#utility.yul\":268:280   */\n      revert\n        /* \"#utility.yul\":230:282   */\n    tag_799:\n        /* \"#utility.yul\":317:326   */\n      dup2\n        /* \"#utility.yul\":304:327   */\n      calldataload\n        /* \"#utility.yul\":336:367   */\n      tag_418\n        /* \"#utility.yul\":361:366   */\n      dup2\n        /* \"#utility.yul\":336:367   */\n      tag_786\n      jump\t// in\n        /* \"#utility.yul\":402:582   */\n    tag_98:\n        /* \"#utility.yul\":461:467   */\n      0x00\n        /* \"#utility.yul\":514:516   */\n      0x20\n        /* \"#utility.yul\":502:511   */\n      dup3\n        /* \"#utility.yul\":493:500   */\n      dup5\n        /* \"#utility.yul\":489:512   */\n      sub\n        /* \"#utility.yul\":485:517   */\n      slt\n        /* \"#utility.yul\":482:534   */\n      iszero\n      tag_802\n      jumpi\n        /* \"#utility.yul\":530:531   */\n      0x00\n        /* \"#utility.yul\":527:528   */\n      dup1\n        /* \"#utility.yul\":520:532   */\n      revert\n        /* \"#utility.yul\":482:534   */\n    tag_802:\n      pop\n        /* \"#utility.yul\":553:576   */\n      calldataload\n      swap2\n        /* \"#utility.yul\":402:582   */\n      swap1\n      pop\n      jump\t// out\n        /* \"#utility.yul\":587:845   */\n    tag_787:\n        /* \"#utility.yul\":659:660   */\n      0x00\n        /* \"#utility.yul\":669:782   */\n    tag_804:\n        /* \"#utility.yul\":683:689   */\n      dup4\n        /* \"#utility.yul\":680:681   */\n      dup2\n        /* \"#utility.yul\":677:690   */\n      lt\n        /* \"#utility.yul\":669:782   */\n      iszero\n      tag_806\n      jumpi\n        /* \"#utility.yul\":759:770   */\n      dup2\n      dup2\n      add\n        /* \"#utility.yul\":753:771   */\n      mload\n        /* \"#utility.yul\":740:751   */\n      dup4\n      dup3\n      add\n        /* \"#utility.yul\":733:772   */\n      mstore\n        /* \"#utility.yul\":705:707   */\n      0x20\n        /* \"#utility.yul\":698:708   */\n      add\n        /* \"#utility.yul\":669:782   */\n      jump(tag_804)\n    tag_806:\n        /* \"#utility.yul\":800:806   */\n      dup4\n        /* \"#utility.yul\":797:798   */\n      dup2\n        /* \"#utility.yul\":794:807   */\n      gt\n        /* \"#utility.yul\":791:839   */\n      iszero\n      tag_675\n      jumpi\n      pop\n      pop\n        /* \"#utility.yul\":835:836   */\n      0x00\n        /* \"#utility.yul\":817:833   */\n      swap2\n      add\n        /* \"#utility.yul\":810:837   */\n      mstore\n        /* \"#utility.yul\":587:845   */\n      jump\t// out\n        /* \"#utility.yul\":850:1108   */\n    tag_788:\n        /* \"#utility.yul\":892:895   */\n      0x00\n        /* \"#utility.yul\":930:935   */\n      dup2\n        /* \"#utility.yul\":924:936   */\n      mload\n        /* \"#utility.yul\":957:963   */\n      dup1\n        /* \"#utility.yul\":952:955   */\n      dup5\n        /* \"#utility.yul\":945:964   */\n      mstore\n        /* \"#utility.yul\":973:1036   */\n      tag_809\n        /* \"#utility.yul\":1029:1035   */\n      dup2\n        /* \"#utility.yul\":1022:1026   */\n      0x20\n        /* \"#utility.yul\":1017:1020   */\n      dup7\n        /* \"#utility.yul\":1013:1027   */\n      add\n        /* \"#utility.yul\":1006:1010   */\n      0x20\n        /* \"#utility.yul\":999:1004   */\n      dup7\n        /* \"#utility.yul\":995:1011   */\n      add\n        /* \"#utility.yul\":973:1036   */\n      tag_787\n      jump\t// in\n    tag_809:\n        /* \"#utility.yul\":1090:1092   */\n      0x1f\n        /* \"#utility.yul\":1069:1084   */\n      add\n      not(0x1f)\n        /* \"#utility.yul\":1065:1094   */\n      and\n        /* \"#utility.yul\":1056:1095   */\n      swap3\n      swap1\n      swap3\n      add\n        /* \"#utility.yul\":1097:1101   */\n      0x20\n        /* \"#utility.yul\":1052:1102   */\n      add\n      swap3\n        /* \"#utility.yul\":850:1108   */\n      swap2\n      pop\n      pop\n      jump\t// out\n        /* \"#utility.yul\":1113:1333   */\n    tag_104:\n        /* \"#utility.yul\":1262:1264   */\n      0x20\n        /* \"#utility.yul\":1251:1260   */\n      dup2\n        /* \"#utility.yul\":1244:1265   */\n      mstore\n        /* \"#utility.yul\":1225:1229   */\n      0x00\n        /* \"#utility.yul\":1282:1327   */\n      tag_418\n        /* \"#utility.yul\":1323:1325   */\n      0x20\n        /* \"#utility.yul\":1312:1321   */\n      dup4\n        /* \"#utility.yul\":1308:1326   */\n      add\n        /* \"#utility.yul\":1300:1306   */\n      dup5\n        /* \"#utility.yul\":1282:1327   */\n      tag_788\n      jump\t// in\n        /* \"#utility.yul\":1338:1653   */\n    tag_108:\n        /* \"#utility.yul\":1406:1412   */\n      0x00\n        /* \"#utility.yul\":1414:1420   */\n      dup1\n        /* \"#utility.yul\":1467:1469   */\n      0x40\n        /* \"#utility.yul\":1455:1464   */\n      dup4\n        /* \"#utility.yul\":1446:1453   */\n      dup6\n        /* \"#utility.yul\":1442:1465   */\n      sub\n        /* \"#utility.yul\":1438:1470   */\n      slt\n        /* \"#utility.yul\":1435:1487   */\n      iszero\n      tag_813\n      jumpi\n        /* \"#utility.yul\":1483:1484   */\n      0x00\n        /* \"#utility.yul\":1480:1481   */\n      dup1\n        /* \"#utility.yul\":1473:1485   */\n      revert\n        /* \"#utility.yul\":1435:1487   */\n    tag_813:\n        /* \"#utility.yul\":1522:1531   */\n      dup3\n        /* \"#utility.yul\":1509:1532   */\n      calldataload\n        /* \"#utility.yul\":1541:1572   */\n      tag_814\n        /* \"#utility.yul\":1566:1571   */\n      dup2\n        /* \"#utility.yul\":1541:1572   */\n      tag_786\n      jump\t// in\n    tag_814:\n        /* \"#utility.yul\":1591:1596   */\n      swap5\n        /* \"#utility.yul\":1643:1645   */\n      0x20\n        /* \"#utility.yul\":1628:1646   */\n      swap4\n      swap1\n      swap4\n      add\n        /* \"#utility.yul\":1615:1647   */\n      calldataload\n      swap4\n      pop\n      pop\n      pop\n        /* \"#utility.yul\":1338:1653   */\n      jump\t// out\n        /* \"#utility.yul\":2240:2524   */\n    tag_134:\n        /* \"#utility.yul\":2298:2304   */\n      0x00\n        /* \"#utility.yul\":2351:2353   */\n      0x20\n        /* \"#utility.yul\":2339:2348   */\n      dup3\n        /* \"#utility.yul\":2330:2337   */\n      dup5\n        /* \"#utility.yul\":2326:2349   */\n      sub\n        /* \"#utility.yul\":2322:2354   */\n      slt\n        /* \"#utility.yul\":2319:2371   */\n      iszero\n      tag_819\n      jumpi\n        /* \"#utility.yul\":2367:2368   */\n      0x00\n        /* \"#utility.yul\":2364:2365   */\n      dup1\n        /* \"#utility.yul\":2357:2369   */\n      revert\n        /* \"#utility.yul\":2319:2371   */\n    tag_819:\n        /* \"#utility.yul\":2406:2415   */\n      dup2\n        /* \"#utility.yul\":2393:2416   */\n      calldataload\n      sub(shl(0x40, 0x01), 0x01)\n        /* \"#utility.yul\":2449:2454   */\n      dup2\n        /* \"#utility.yul\":2445:2475   */\n      and\n        /* \"#utility.yul\":2438:2443   */\n      dup2\n        /* \"#utility.yul\":2435:2476   */\n      eq\n        /* \"#utility.yul\":2425:2494   */\n      tag_418\n      jumpi\n        /* \"#utility.yul\":2490:2491   */\n      0x00\n        /* \"#utility.yul\":2487:2488   */\n      dup1\n        /* \"#utility.yul\":2480:2492   */\n      revert\n        /* \"#utility.yul\":2529:2985   */\n    tag_147:\n        /* \"#utility.yul\":2606:2612   */\n      0x00\n        /* \"#utility.yul\":2614:2620   */\n      dup1\n        /* \"#utility.yul\":2622:2628   */\n      0x00\n        /* \"#utility.yul\":2675:2677   */\n      0x60\n        /* \"#utility.yul\":2663:2672   */\n      dup5\n        /* \"#utility.yul\":2654:2661   */\n      dup7\n        /* \"#utility.yul\":2650:2673   */\n      sub\n        /* \"#utility.yul\":2646:2678   */\n      slt\n        /* \"#utility.yul\":2643:2695   */\n      iszero\n      tag_822\n      jumpi\n        /* \"#utility.yul\":2691:2692   */\n      0x00\n        /* \"#utility.yul\":2688:2689   */\n      dup1\n        /* \"#utility.yul\":2681:2693   */\n      revert\n        /* \"#utility.yul\":2643:2695   */\n    tag_822:\n        /* \"#utility.yul\":2730:2739   */\n      dup4\n        /* \"#utility.yul\":2717:2740   */\n      calldataload\n        /* \"#utility.yul\":2749:2780   */\n      tag_823\n        /* \"#utility.yul\":2774:2779   */\n      dup2\n        /* \"#utility.yul\":2749:2780   */\n      tag_786\n      jump\t// in\n    tag_823:\n        /* \"#utility.yul\":2799:2804   */\n      swap3\n      pop\n        /* \"#utility.yul\":2856:2858   */\n      0x20\n        /* \"#utility.yul\":2841:2859   */\n      dup5\n      add\n        /* \"#utility.yul\":2828:2860   */\n      calldataload\n        /* \"#utility.yul\":2869:2902   */\n      tag_824\n        /* \"#utility.yul\":2828:2860   */\n      dup2\n        /* \"#utility.yul\":2869:2902   */\n      tag_786\n      jump\t// in\n    tag_824:\n        /* \"#utility.yul\":2529:2985   */\n      swap3\n      swap6\n        /* \"#utility.yul\":2921:2928   */\n      swap3\n      swap5\n      pop\n      pop\n      pop\n        /* \"#utility.yul\":2975:2977   */\n      0x40\n        /* \"#utility.yul\":2960:2978   */\n      swap2\n      swap1\n      swap2\n      add\n        /* \"#utility.yul\":2947:2979   */\n      calldataload\n      swap1\n        /* \"#utility.yul\":2529:2985   */\n      jump\t// out\n        /* \"#utility.yul\":3575:3693   */\n    tag_789:\n        /* \"#utility.yul\":3661:3666   */\n      dup1\n        /* \"#utility.yul\":3654:3667   */\n      iszero\n        /* \"#utility.yul\":3647:3668   */\n      iszero\n        /* \"#utility.yul\":3640:3645   */\n      dup2\n        /* \"#utility.yul\":3637:3669   */\n      eq\n        /* \"#utility.yul\":3627:3687   */\n      tag_475\n      jumpi\n        /* \"#utility.yul\":3683:3684   */\n      0x00\n        /* \"#utility.yul\":3680:3681   */\n      dup1\n        /* \"#utility.yul\":3673:3685   */\n      revert\n        /* \"#utility.yul\":3698:3939   */\n    tag_211:\n        /* \"#utility.yul\":3754:3760   */\n      0x00\n        /* \"#utility.yul\":3807:3809   */\n      0x20\n        /* \"#utility.yul\":3795:3804   */\n      dup3\n        /* \"#utility.yul\":3786:3793   */\n      dup5\n        /* \"#utility.yul\":3782:3805   */\n      sub\n        /* \"#utility.yul\":3778:3810   */\n      slt\n        /* \"#utility.yul\":3775:3827   */\n      iszero\n      tag_830\n      jumpi\n        /* \"#utility.yul\":3823:3824   */\n      0x00\n        /* \"#utility.yul\":3820:3821   */\n      dup1\n        /* \"#utility.yul\":3813:3825   */\n      revert\n        /* \"#utility.yul\":3775:3827   */\n    tag_830:\n        /* \"#utility.yul\":3862:3871   */\n      dup2\n        /* \"#utility.yul\":3849:3872   */\n      calldataload\n        /* \"#utility.yul\":3881:3909   */\n      tag_418\n        /* \"#utility.yul\":3903:3908   */\n      dup2\n        /* \"#utility.yul\":3881:3909   */\n      tag_789\n      jump\t// in\n        /* \"#utility.yul\":4331:4579   */\n    tag_267:\n        /* \"#utility.yul\":4399:4405   */\n      0x00\n        /* \"#utility.yul\":4407:4413   */\n      dup1\n        /* \"#utility.yul\":4460:4462   */\n      0x40\n        /* \"#utility.yul\":4448:4457   */\n      dup4\n        /* \"#utility.yul\":4439:4446   */\n      dup6\n        /* \"#utility.yul\":4435:4458   */\n      sub\n        /* \"#utility.yul\":4431:4463   */\n      slt\n        /* \"#utility.yul\":4428:4480   */\n      iszero\n      tag_835\n      jumpi\n        /* \"#utility.yul\":4476:4477   */\n      0x00\n        /* \"#utility.yul\":4473:4474   */\n      dup1\n        /* \"#utility.yul\":4466:4478   */\n      revert\n        /* \"#utility.yul\":4428:4480   */\n    tag_835:\n      pop\n      pop\n        /* \"#utility.yul\":4499:4522   */\n      dup1\n      calldataload\n      swap3\n        /* \"#utility.yul\":4569:4571   */\n      0x20\n        /* \"#utility.yul\":4554:4572   */\n      swap1\n      swap2\n      add\n        /* \"#utility.yul\":4541:4573   */\n      calldataload\n      swap2\n      pop\n        /* \"#utility.yul\":4331:4579   */\n      jump\t// out\n        /* \"#utility.yul\":5006:5394   */\n    tag_358:\n        /* \"#utility.yul\":5074:5080   */\n      0x00\n        /* \"#utility.yul\":5082:5088   */\n      dup1\n        /* \"#utility.yul\":5135:5137   */\n      0x40\n        /* \"#utility.yul\":5123:5132   */\n      dup4\n        /* \"#utility.yul\":5114:5121   */\n      dup6\n        /* \"#utility.yul\":5110:5133   */\n      sub\n        /* \"#utility.yul\":5106:5138   */\n      slt\n        /* \"#utility.yul\":5103:5155   */\n      iszero\n      tag_838\n      jumpi\n        /* \"#utility.yul\":5151:5152   */\n      0x00\n        /* \"#utility.yul\":5148:5149   */\n      dup1\n        /* \"#utility.yul\":5141:5153   */\n      revert\n        /* \"#utility.yul\":5103:5155   */\n    tag_838:\n        /* \"#utility.yul\":5190:5199   */\n      dup3\n        /* \"#utility.yul\":5177:5200   */\n      calldataload\n        /* \"#utility.yul\":5209:5240   */\n      tag_839\n        /* \"#utility.yul\":5234:5239   */\n      dup2\n        /* \"#utility.yul\":5209:5240   */\n      tag_786\n      jump\t// in\n    tag_839:\n        /* \"#utility.yul\":5259:5264   */\n      swap2\n      pop\n        /* \"#utility.yul\":5316:5318   */\n      0x20\n        /* \"#utility.yul\":5301:5319   */\n      dup4\n      add\n        /* \"#utility.yul\":5288:5320   */\n      calldataload\n        /* \"#utility.yul\":5329:5362   */\n      tag_840\n        /* \"#utility.yul\":5288:5320   */\n      dup2\n        /* \"#utility.yul\":5329:5362   */\n      tag_786\n      jump\t// in\n    tag_840:\n        /* \"#utility.yul\":5381:5388   */\n      dup1\n        /* \"#utility.yul\":5371:5388   */\n      swap2\n      pop\n      pop\n        /* \"#utility.yul\":5006:5394   */\n      swap3\n      pop\n      swap3\n      swap1\n      pop\n      jump\t// out\n        /* \"#utility.yul\":5399:5675   */\n    tag_384:\n        /* \"#utility.yul\":5457:5463   */\n      0x00\n        /* \"#utility.yul\":5510:5512   */\n      0x20\n        /* \"#utility.yul\":5498:5507   */\n      dup3\n        /* \"#utility.yul\":5489:5496   */\n      dup5\n        /* \"#utility.yul\":5485:5508   */\n      sub\n        /* \"#utility.yul\":5481:5513   */\n      slt\n        /* \"#utility.yul\":5478:5530   */\n      iszero\n      tag_842\n      jumpi\n        /* \"#utility.yul\":5526:5527   */\n      0x00\n        /* \"#utility.yul\":5523:5524   */\n      dup1\n        /* \"#utility.yul\":5516:5528   */\n      revert\n        /* \"#utility.yul\":5478:5530   */\n    tag_842:\n        /* \"#utility.yul\":5565:5574   */\n      dup2\n        /* \"#utility.yul\":5552:5575   */\n      calldataload\n        /* \"#utility.yul\":5615:5625   */\n      0xffffffff\n        /* \"#utility.yul\":5608:5613   */\n      dup2\n        /* \"#utility.yul\":5604:5626   */\n      and\n        /* \"#utility.yul\":5597:5602   */\n      dup2\n        /* \"#utility.yul\":5594:5627   */\n      eq\n        /* \"#utility.yul\":5584:5645   */\n      tag_418\n      jumpi\n        /* \"#utility.yul\":5641:5642   */\n      0x00\n        /* \"#utility.yul\":5638:5639   */\n      dup1\n        /* \"#utility.yul\":5631:5643   */\n      revert\n        /* \"#utility.yul\":5680:5807   */\n    tag_790:\n        /* \"#utility.yul\":5741:5751   */\n      0x4e487b71\n        /* \"#utility.yul\":5736:5739   */\n      0xe0\n        /* \"#utility.yul\":5732:5752   */\n      shl\n        /* \"#utility.yul\":5729:5730   */\n      0x00\n        /* \"#utility.yul\":5722:5753   */\n      mstore\n        /* \"#utility.yul\":5772:5776   */\n      0x11\n        /* \"#utility.yul\":5769:5770   */\n      0x04\n        /* \"#utility.yul\":5762:5777   */\n      mstore\n        /* \"#utility.yul\":5796:5800   */\n      0x24\n        /* \"#utility.yul\":5793:5794   */\n      0x00\n        /* \"#utility.yul\":5786:5801   */\n      revert\n        /* \"#utility.yul\":5812:5980   */\n    tag_423:\n        /* \"#utility.yul\":5852:5859   */\n      0x00\n        /* \"#utility.yul\":5918:5919   */\n      dup2\n        /* \"#utility.yul\":5914:5915   */\n      0x00\n        /* \"#utility.yul\":5910:5916   */\n      not\n        /* \"#utility.yul\":5906:5920   */\n      div\n        /* \"#utility.yul\":5903:5904   */\n      dup4\n        /* \"#utility.yul\":5900:5921   */\n      gt\n        /* \"#utility.yul\":5895:5896   */\n      dup3\n        /* \"#utility.yul\":5888:5897   */\n      iszero\n        /* \"#utility.yul\":5881:5898   */\n      iszero\n        /* \"#utility.yul\":5877:5922   */\n      and\n        /* \"#utility.yul\":5874:5945   */\n      iszero\n      tag_847\n      jumpi\n        /* \"#utility.yul\":5925:5943   */\n      tag_847\n      tag_790\n      jump\t// in\n    tag_847:\n      pop\n        /* \"#utility.yul\":5965:5974   */\n      mul\n      swap1\n        /* \"#utility.yul\":5812:5980   */\n      jump\t// out\n        /* \"#utility.yul\":5985:6112   */\n    tag_791:\n        /* \"#utility.yul\":6046:6056   */\n      0x4e487b71\n        /* \"#utility.yul\":6041:6044   */\n      0xe0\n        /* \"#utility.yul\":6037:6057   */\n      shl\n        /* \"#utility.yul\":6034:6035   */\n      0x00\n        /* \"#utility.yul\":6027:6058   */\n      mstore\n        /* \"#utility.yul\":6077:6081   */\n      0x12\n        /* \"#utility.yul\":6074:6075   */\n      0x04\n        /* \"#utility.yul\":6067:6082   */\n      mstore\n        /* \"#utility.yul\":6101:6105   */\n      0x24\n        /* \"#utility.yul\":6098:6099   */\n      0x00\n        /* \"#utility.yul\":6091:6106   */\n      revert\n        /* \"#utility.yul\":6117:6237   */\n    tag_425:\n        /* \"#utility.yul\":6157:6158   */\n      0x00\n        /* \"#utility.yul\":6183:6184   */\n      dup3\n        /* \"#utility.yul\":6173:6208   */\n      tag_851\n      jumpi\n        /* \"#utility.yul\":6188:6206   */\n      tag_851\n      tag_791\n      jump\t// in\n    tag_851:\n      pop\n        /* \"#utility.yul\":6222:6231   */\n      div\n      swap1\n        /* \"#utility.yul\":6117:6237   */\n      jump\t// out\n        /* \"#utility.yul\":6242:6367   */\n    tag_427:\n        /* \"#utility.yul\":6282:6286   */\n      0x00\n        /* \"#utility.yul\":6310:6311   */\n      dup3\n        /* \"#utility.yul\":6307:6308   */\n      dup3\n        /* \"#utility.yul\":6304:6312   */\n      lt\n        /* \"#utility.yul\":6301:6335   */\n      iszero\n      tag_854\n      jumpi\n        /* \"#utility.yul\":6315:6333   */\n      tag_854\n      tag_790\n      jump\t// in\n    tag_854:\n      pop\n        /* \"#utility.yul\":6352:6361   */\n      sub\n      swap1\n        /* \"#utility.yul\":6242:6367   */\n      jump\t// out\n        /* \"#utility.yul\":6715:6843   */\n    tag_438:\n        /* \"#utility.yul\":6755:6758   */\n      0x00\n        /* \"#utility.yul\":6786:6787   */\n      dup3\n        /* \"#utility.yul\":6782:6788   */\n      not\n        /* \"#utility.yul\":6779:6780   */\n      dup3\n        /* \"#utility.yul\":6776:6789   */\n      gt\n        /* \"#utility.yul\":6773:6812   */\n      iszero\n      tag_858\n      jumpi\n        /* \"#utility.yul\":6792:6810   */\n      tag_858\n      tag_790\n      jump\t// in\n    tag_858:\n      pop\n        /* \"#utility.yul\":6828:6837   */\n      add\n      swap1\n        /* \"#utility.yul\":6715:6843   */\n      jump\t// out\n        /* \"#utility.yul\":6848:6975   */\n    tag_448:\n        /* \"#utility.yul\":6909:6919   */\n      0x4e487b71\n        /* \"#utility.yul\":6904:6907   */\n      0xe0\n        /* \"#utility.yul\":6900:6920   */\n      shl\n        /* \"#utility.yul\":6897:6898   */\n      0x00\n        /* \"#utility.yul\":6890:6921   */\n      mstore\n        /* \"#utility.yul\":6940:6944   */\n      0x41\n        /* \"#utility.yul\":6937:6938   */\n      0x04\n        /* \"#utility.yul\":6930:6945   */\n      mstore\n        /* \"#utility.yul\":6964:6968   */\n      0x24\n        /* \"#utility.yul\":6961:6962   */\n      0x00\n        /* \"#utility.yul\":6954:6969   */\n      revert\n        /* \"#utility.yul\":6980:7231   */\n    tag_453:\n        /* \"#utility.yul\":7050:7056   */\n      0x00\n        /* \"#utility.yul\":7103:7105   */\n      0x20\n        /* \"#utility.yul\":7091:7100   */\n      dup3\n        /* \"#utility.yul\":7082:7089   */\n      dup5\n        /* \"#utility.yul\":7078:7101   */\n      sub\n        /* \"#utility.yul\":7074:7106   */\n      slt\n        /* \"#utility.yul\":7071:7123   */\n      iszero\n      tag_861\n      jumpi\n        /* \"#utility.yul\":7119:7120   */\n      0x00\n        /* \"#utility.yul\":7116:7117   */\n      dup1\n        /* \"#utility.yul\":7109:7121   */\n      revert\n        /* \"#utility.yul\":7071:7123   */\n    tag_861:\n        /* \"#utility.yul\":7151:7160   */\n      dup2\n        /* \"#utility.yul\":7145:7161   */\n      mload\n        /* \"#utility.yul\":7170:7201   */\n      tag_418\n        /* \"#utility.yul\":7195:7200   */\n      dup2\n        /* \"#utility.yul\":7170:7201   */\n      tag_786\n      jump\t// in\n        /* \"#utility.yul\":7236:7363   */\n    tag_456:\n        /* \"#utility.yul\":7297:7307   */\n      0x4e487b71\n        /* \"#utility.yul\":7292:7295   */\n      0xe0\n        /* \"#utility.yul\":7288:7308   */\n      shl\n        /* \"#utility.yul\":7285:7286   */\n      0x00\n        /* \"#utility.yul\":7278:7309   */\n      mstore\n        /* \"#utility.yul\":7328:7332   */\n      0x32\n        /* \"#utility.yul\":7325:7326   */\n      0x04\n        /* \"#utility.yul\":7318:7333   */\n      mstore\n        /* \"#utility.yul\":7352:7356   */\n      0x24\n        /* \"#utility.yul\":7349:7350   */\n      0x00\n        /* \"#utility.yul\":7342:7357   */\n      revert\n        /* \"#utility.yul\":7368:7829   */\n    tag_792:\n        /* \"#utility.yul\":7421:7424   */\n      0x00\n        /* \"#utility.yul\":7459:7464   */\n      dup2\n        /* \"#utility.yul\":7453:7465   */\n      mload\n        /* \"#utility.yul\":7486:7492   */\n      dup1\n        /* \"#utility.yul\":7481:7484   */\n      dup5\n        /* \"#utility.yul\":7474:7493   */\n      mstore\n        /* \"#utility.yul\":7512:7516   */\n      0x20\n        /* \"#utility.yul\":7541:7543   */\n      dup1\n        /* \"#utility.yul\":7536:7539   */\n      dup6\n        /* \"#utility.yul\":7532:7544   */\n      add\n        /* \"#utility.yul\":7525:7544   */\n      swap5\n      pop\n        /* \"#utility.yul\":7578:7580   */\n      dup1\n        /* \"#utility.yul\":7571:7576   */\n      dup5\n        /* \"#utility.yul\":7567:7581   */\n      add\n        /* \"#utility.yul\":7599:7600   */\n      0x00\n        /* \"#utility.yul\":7609:7804   */\n    tag_865:\n        /* \"#utility.yul\":7623:7629   */\n      dup4\n        /* \"#utility.yul\":7620:7621   */\n      dup2\n        /* \"#utility.yul\":7617:7630   */\n      lt\n        /* \"#utility.yul\":7609:7804   */\n      iszero\n      tag_867\n      jumpi\n        /* \"#utility.yul\":7688:7701   */\n      dup2\n      mload\n      sub(shl(0xa0, 0x01), 0x01)\n        /* \"#utility.yul\":7684:7723   */\n      and\n        /* \"#utility.yul\":7672:7724   */\n      dup8\n      mstore\n        /* \"#utility.yul\":7744:7756   */\n      swap6\n      dup3\n      add\n      swap6\n        /* \"#utility.yul\":7779:7794   */\n      swap1\n      dup3\n      add\n      swap1\n        /* \"#utility.yul\":7720:7721   */\n      0x01\n        /* \"#utility.yul\":7638:7647   */\n      add\n        /* \"#utility.yul\":7609:7804   */\n      jump(tag_865)\n    tag_867:\n      pop\n        /* \"#utility.yul\":7820:7823   */\n      swap5\n      swap6\n        /* \"#utility.yul\":7368:7829   */\n      swap5\n      pop\n      pop\n      pop\n      pop\n      pop\n      jump\t// out\n        /* \"#utility.yul\":7834:8166   */\n    tag_460:\n        /* \"#utility.yul\":8041:8047   */\n      dup3\n        /* \"#utility.yul\":8030:8039   */\n      dup2\n        /* \"#utility.yul\":8023:8048   */\n      mstore\n        /* \"#utility.yul\":8084:8086   */\n      0x40\n        /* \"#utility.yul\":8079:8081   */\n      0x20\n        /* \"#utility.yul\":8068:8077   */\n      dup3\n        /* \"#utility.yul\":8064:8082   */\n      add\n        /* \"#utility.yul\":8057:8087   */\n      mstore\n        /* \"#utility.yul\":8004:8008   */\n      0x00\n        /* \"#utility.yul\":8104:8160   */\n      tag_769\n        /* \"#utility.yul\":8156:8158   */\n      0x40\n        /* \"#utility.yul\":8145:8154   */\n      dup4\n        /* \"#utility.yul\":8141:8159   */\n      add\n        /* \"#utility.yul\":8133:8139   */\n      dup5\n        /* \"#utility.yul\":8104:8160   */\n      tag_792\n      jump\t// in\n        /* \"#utility.yul\":8171:9276   */\n    tag_464:\n        /* \"#utility.yul\":8266:8272   */\n      0x00\n        /* \"#utility.yul\":8297:8299   */\n      0x20\n        /* \"#utility.yul\":8340:8342   */\n      dup1\n        /* \"#utility.yul\":8328:8337   */\n      dup4\n        /* \"#utility.yul\":8319:8326   */\n      dup6\n        /* \"#utility.yul\":8315:8338   */\n      sub\n        /* \"#utility.yul\":8311:8343   */\n      slt\n        /* \"#utility.yul\":8308:8360   */\n      iszero\n      tag_871\n      jumpi\n        /* \"#utility.yul\":8356:8357   */\n      0x00\n        /* \"#utility.yul\":8353:8354   */\n      dup1\n        /* \"#utility.yul\":8346:8358   */\n      revert\n        /* \"#utility.yul\":8308:8360   */\n    tag_871:\n        /* \"#utility.yul\":8389:8398   */\n      dup3\n        /* \"#utility.yul\":8383:8399   */\n      mload\n      sub(shl(0x40, 0x01), 0x01)\n        /* \"#utility.yul\":8459:8461   */\n      dup1\n        /* \"#utility.yul\":8451:8457   */\n      dup3\n        /* \"#utility.yul\":8448:8462   */\n      gt\n        /* \"#utility.yul\":8445:8479   */\n      iszero\n      tag_872\n      jumpi\n        /* \"#utility.yul\":8475:8476   */\n      0x00\n        /* \"#utility.yul\":8472:8473   */\n      dup1\n        /* \"#utility.yul\":8465:8477   */\n      revert\n        /* \"#utility.yul\":8445:8479   */\n    tag_872:\n        /* \"#utility.yul\":8513:8519   */\n      dup2\n        /* \"#utility.yul\":8502:8511   */\n      dup6\n        /* \"#utility.yul\":8498:8520   */\n      add\n        /* \"#utility.yul\":8488:8520   */\n      swap2\n      pop\n        /* \"#utility.yul\":8558:8565   */\n      dup6\n        /* \"#utility.yul\":8551:8555   */\n      0x1f\n        /* \"#utility.yul\":8547:8549   */\n      dup4\n        /* \"#utility.yul\":8543:8556   */\n      add\n        /* \"#utility.yul\":8539:8566   */\n      slt\n        /* \"#utility.yul\":8529:8584   */\n      tag_873\n      jumpi\n        /* \"#utility.yul\":8580:8581   */\n      0x00\n        /* \"#utility.yul\":8577:8578   */\n      dup1\n        /* \"#utility.yul\":8570:8582   */\n      revert\n        /* \"#utility.yul\":8529:8584   */\n    tag_873:\n        /* \"#utility.yul\":8609:8611   */\n      dup2\n        /* \"#utility.yul\":8603:8612   */\n      mload\n        /* \"#utility.yul\":8631:8633   */\n      dup2\n        /* \"#utility.yul\":8627:8629   */\n      dup2\n        /* \"#utility.yul\":8624:8634   */\n      gt\n        /* \"#utility.yul\":8621:8657   */\n      iszero\n      tag_875\n      jumpi\n        /* \"#utility.yul\":8637:8655   */\n      tag_875\n      tag_448\n      jump\t// in\n    tag_875:\n        /* \"#utility.yul\":8683:8685   */\n      dup1\n        /* \"#utility.yul\":8680:8681   */\n      0x05\n        /* \"#utility.yul\":8676:8686   */\n      shl\n        /* \"#utility.yul\":8715:8717   */\n      0x40\n        /* \"#utility.yul\":8709:8718   */\n      mload\n        /* \"#utility.yul\":8778:8780   */\n      0x1f\n        /* \"#utility.yul\":8774:8781   */\n      not\n        /* \"#utility.yul\":8769:8771   */\n      0x3f\n        /* \"#utility.yul\":8765:8767   */\n      dup4\n        /* \"#utility.yul\":8761:8772   */\n      add\n        /* \"#utility.yul\":8757:8782   */\n      and\n        /* \"#utility.yul\":8749:8755   */\n      dup2\n        /* \"#utility.yul\":8745:8783   */\n      add\n        /* \"#utility.yul\":8833:8839   */\n      dup2\n        /* \"#utility.yul\":8821:8831   */\n      dup2\n        /* \"#utility.yul\":8818:8840   */\n      lt\n        /* \"#utility.yul\":8813:8815   */\n      dup6\n        /* \"#utility.yul\":8801:8811   */\n      dup3\n        /* \"#utility.yul\":8798:8816   */\n      gt\n        /* \"#utility.yul\":8795:8841   */\n      or\n        /* \"#utility.yul\":8792:8864   */\n      iszero\n      tag_877\n      jumpi\n        /* \"#utility.yul\":8844:8862   */\n      tag_877\n      tag_448\n      jump\t// in\n    tag_877:\n        /* \"#utility.yul\":8880:8882   */\n      0x40\n        /* \"#utility.yul\":8873:8895   */\n      mstore\n        /* \"#utility.yul\":8930:8948   */\n      swap2\n      dup3\n      mstore\n        /* \"#utility.yul\":8964:8979   */\n      dup5\n      dup3\n      add\n      swap3\n      pop\n        /* \"#utility.yul\":9006:9017   */\n      dup4\n      dup2\n      add\n        /* \"#utility.yul\":9002:9022   */\n      dup6\n      add\n      swap2\n        /* \"#utility.yul\":9034:9053   */\n      dup9\n      dup4\n      gt\n        /* \"#utility.yul\":9031:9070   */\n      iszero\n      tag_878\n      jumpi\n        /* \"#utility.yul\":9066:9067   */\n      0x00\n        /* \"#utility.yul\":9063:9064   */\n      dup1\n        /* \"#utility.yul\":9056:9068   */\n      revert\n        /* \"#utility.yul\":9031:9070   */\n    tag_878:\n        /* \"#utility.yul\":9090:9101   */\n      swap4\n      dup6\n      add\n      swap4\n        /* \"#utility.yul\":9110:9245   */\n    tag_879:\n        /* \"#utility.yul\":9126:9132   */\n      dup3\n        /* \"#utility.yul\":9121:9124   */\n      dup6\n        /* \"#utility.yul\":9118:9133   */\n      lt\n        /* \"#utility.yul\":9110:9245   */\n      iszero\n      tag_881\n      jumpi\n        /* \"#utility.yul\":9192:9202   */\n      dup5\n      mload\n        /* \"#utility.yul\":9180:9203   */\n      dup5\n      mstore\n        /* \"#utility.yul\":9143:9155   */\n      swap4\n      dup6\n      add\n      swap4\n        /* \"#utility.yul\":9223:9235   */\n      swap3\n      dup6\n      add\n      swap3\n        /* \"#utility.yul\":9110:9245   */\n      jump(tag_879)\n    tag_881:\n        /* \"#utility.yul\":9264:9270   */\n      swap9\n        /* \"#utility.yul\":8171:9276   */\n      swap8\n      pop\n      pop\n      pop\n      pop\n      pop\n      pop\n      pop\n      pop\n      jump\t// out\n        /* \"#utility.yul\":9281:9555   */\n    tag_486:\n        /* \"#utility.yul\":9410:9413   */\n      0x00\n        /* \"#utility.yul\":9448:9454   */\n      dup3\n        /* \"#utility.yul\":9442:9455   */\n      mload\n        /* \"#utility.yul\":9464:9517   */\n      tag_883\n        /* \"#utility.yul\":9510:9516   */\n      dup2\n        /* \"#utility.yul\":9505:9508   */\n      dup5\n        /* \"#utility.yul\":9498:9502   */\n      0x20\n        /* \"#utility.yul\":9490:9496   */\n      dup8\n        /* \"#utility.yul\":9486:9503   */\n      add\n        /* \"#utility.yul\":9464:9517   */\n      tag_787\n      jump\t// in\n    tag_883:\n        /* \"#utility.yul\":9533:9549   */\n      swap2\n      swap1\n      swap2\n      add\n      swap3\n        /* \"#utility.yul\":9281:9555   */\n      swap2\n      pop\n      pop\n      jump\t// out\n        /* \"#utility.yul\":9920:10104   */\n    tag_591:\n        /* \"#utility.yul\":9990:9996   */\n      0x00\n        /* \"#utility.yul\":10043:10045   */\n      0x20\n        /* \"#utility.yul\":10031:10040   */\n      dup3\n        /* \"#utility.yul\":10022:10029   */\n      dup5\n        /* \"#utility.yul\":10018:10041   */\n      sub\n        /* \"#utility.yul\":10014:10046   */\n      slt\n        /* \"#utility.yul\":10011:10063   */\n      iszero\n      tag_886\n      jumpi\n        /* \"#utility.yul\":10059:10060   */\n      0x00\n        /* \"#utility.yul\":10056:10057   */\n      dup1\n        /* \"#utility.yul\":10049:10061   */\n      revert\n        /* \"#utility.yul\":10011:10063   */\n    tag_886:\n      pop\n        /* \"#utility.yul\":10082:10098   */\n      mload\n      swap2\n        /* \"#utility.yul\":9920:10104   */\n      swap1\n      pop\n      jump\t// out\n        /* \"#utility.yul\":10109:10531   */\n    tag_793:\n        /* \"#utility.yul\":10198:10199   */\n      0x01\n        /* \"#utility.yul\":10241:10246   */\n      dup2\n        /* \"#utility.yul\":10198:10199   */\n      dup2\n        /* \"#utility.yul\":10255:10525   */\n    tag_888:\n        /* \"#utility.yul\":10276:10283   */\n      dup1\n        /* \"#utility.yul\":10266:10274   */\n      dup6\n        /* \"#utility.yul\":10263:10284   */\n      gt\n        /* \"#utility.yul\":10255:10525   */\n      iszero\n      tag_890\n      jumpi\n        /* \"#utility.yul\":10335:10339   */\n      dup2\n        /* \"#utility.yul\":10331:10332   */\n      0x00\n        /* \"#utility.yul\":10327:10333   */\n      not\n        /* \"#utility.yul\":10323:10340   */\n      div\n        /* \"#utility.yul\":10317:10321   */\n      dup3\n        /* \"#utility.yul\":10314:10341   */\n      gt\n        /* \"#utility.yul\":10311:10364   */\n      iszero\n      tag_892\n      jumpi\n        /* \"#utility.yul\":10344:10362   */\n      tag_892\n      tag_790\n      jump\t// in\n    tag_892:\n        /* \"#utility.yul\":10394:10401   */\n      dup1\n        /* \"#utility.yul\":10384:10392   */\n      dup6\n        /* \"#utility.yul\":10380:10402   */\n      and\n        /* \"#utility.yul\":10377:10432   */\n      iszero\n      tag_893\n      jumpi\n        /* \"#utility.yul\":10414:10430   */\n      swap2\n      dup2\n      mul\n      swap2\n        /* \"#utility.yul\":10377:10432   */\n    tag_893:\n        /* \"#utility.yul\":10493:10515   */\n      swap4\n      dup5\n      shr\n      swap4\n        /* \"#utility.yul\":10453:10468   */\n      swap1\n      dup1\n      mul\n      swap1\n        /* \"#utility.yul\":10255:10525   */\n      jump(tag_888)\n    tag_890:\n        /* \"#utility.yul\":10259:10262   */\n      pop\n        /* \"#utility.yul\":10109:10531   */\n      swap3\n      pop\n      swap3\n      swap1\n      pop\n      jump\t// out\n        /* \"#utility.yul\":10536:11342   */\n    tag_794:\n        /* \"#utility.yul\":10585:10590   */\n      0x00\n        /* \"#utility.yul\":10615:10623   */\n      dup3\n        /* \"#utility.yul\":10605:10685   */\n      tag_895\n      jumpi\n      pop\n        /* \"#utility.yul\":10656:10657   */\n      0x01\n        /* \"#utility.yul\":10670:10675   */\n      jump(tag_402)\n        /* \"#utility.yul\":10605:10685   */\n    tag_895:\n        /* \"#utility.yul\":10704:10708   */\n      dup2\n        /* \"#utility.yul\":10694:10770   */\n      tag_896\n      jumpi\n      pop\n        /* \"#utility.yul\":10741:10742   */\n      0x00\n        /* \"#utility.yul\":10755:10760   */\n      jump(tag_402)\n        /* \"#utility.yul\":10694:10770   */\n    tag_896:\n        /* \"#utility.yul\":10786:10790   */\n      dup2\n        /* \"#utility.yul\":10804:10805   */\n      0x01\n        /* \"#utility.yul\":10799:10858   */\n      dup2\n      eq\n      tag_898\n      jumpi\n        /* \"#utility.yul\":10872:10873   */\n      0x02\n        /* \"#utility.yul\":10867:10997   */\n      dup2\n      eq\n      tag_899\n      jumpi\n        /* \"#utility.yul\":10779:10997   */\n      jump(tag_897)\n        /* \"#utility.yul\":10799:10858   */\n    tag_898:\n        /* \"#utility.yul\":10829:10830   */\n      0x01\n        /* \"#utility.yul\":10820:10830   */\n      swap2\n      pop\n        /* \"#utility.yul\":10843:10848   */\n      pop\n      jump(tag_402)\n        /* \"#utility.yul\":10867:10997   */\n    tag_899:\n        /* \"#utility.yul\":10904:10907   */\n      0xff\n        /* \"#utility.yul\":10894:10902   */\n      dup5\n        /* \"#utility.yul\":10891:10908   */\n      gt\n        /* \"#utility.yul\":10888:10931   */\n      iszero\n      tag_901\n      jumpi\n        /* \"#utility.yul\":10911:10929   */\n      tag_901\n      tag_790\n      jump\t// in\n    tag_901:\n      pop\n      pop\n        /* \"#utility.yul\":10967:10968   */\n      0x01\n        /* \"#utility.yul\":10953:10969   */\n      dup3\n      shl\n        /* \"#utility.yul\":10982:10987   */\n      jump(tag_402)\n        /* \"#utility.yul\":10779:10997   */\n    tag_897:\n      pop\n        /* \"#utility.yul\":11081:11083   */\n      0x20\n        /* \"#utility.yul\":11071:11079   */\n      dup4\n        /* \"#utility.yul\":11068:11084   */\n      lt\n        /* \"#utility.yul\":11062:11065   */\n      0x0133\n        /* \"#utility.yul\":11056:11060   */\n      dup4\n        /* \"#utility.yul\":11053:11066   */\n      lt\n        /* \"#utility.yul\":11049:11085   */\n      and\n        /* \"#utility.yul\":11043:11045   */\n      0x4e\n        /* \"#utility.yul\":11033:11041   */\n      dup5\n        /* \"#utility.yul\":11030:11046   */\n      lt\n        /* \"#utility.yul\":11025:11027   */\n      0x0b\n        /* \"#utility.yul\":11019:11023   */\n      dup5\n        /* \"#utility.yul\":11016:11028   */\n      lt\n        /* \"#utility.yul\":11012:11047   */\n      and\n        /* \"#utility.yul\":11009:11086   */\n      or\n        /* \"#utility.yul\":11006:11165   */\n      iszero\n      tag_902\n      jumpi\n      pop\n        /* \"#utility.yul\":11118:11137   */\n      dup2\n      dup2\n      exp\n        /* \"#utility.yul\":11150:11155   */\n      jump(tag_402)\n        /* \"#utility.yul\":11006:11165   */\n    tag_902:\n        /* \"#utility.yul\":11197:11231   */\n      tag_903\n        /* \"#utility.yul\":11222:11230   */\n      dup4\n        /* \"#utility.yul\":11216:11220   */\n      dup4\n        /* \"#utility.yul\":11197:11231   */\n      tag_793\n      jump\t// in\n    tag_903:\n        /* \"#utility.yul\":11267:11273   */\n      dup1\n        /* \"#utility.yul\":11263:11264   */\n      0x00\n        /* \"#utility.yul\":11259:11265   */\n      not\n        /* \"#utility.yul\":11255:11274   */\n      div\n        /* \"#utility.yul\":11246:11253   */\n      dup3\n        /* \"#utility.yul\":11243:11275   */\n      gt\n        /* \"#utility.yul\":11240:11298   */\n      iszero\n      tag_905\n      jumpi\n        /* \"#utility.yul\":11278:11296   */\n      tag_905\n      tag_790\n      jump\t// in\n    tag_905:\n        /* \"#utility.yul\":11316:11336   */\n      mul\n      swap4\n        /* \"#utility.yul\":10536:11342   */\n      swap3\n      pop\n      pop\n      pop\n      jump\t// out\n        /* \"#utility.yul\":11347:11487   */\n    tag_619:\n        /* \"#utility.yul\":11405:11410   */\n      0x00\n        /* \"#utility.yul\":11434:11481   */\n      tag_418\n        /* \"#utility.yul\":11475:11479   */\n      0xff\n        /* \"#utility.yul\":11465:11473   */\n      dup5\n        /* \"#utility.yul\":11461:11480   */\n      and\n        /* \"#utility.yul\":11455:11459   */\n      dup4\n        /* \"#utility.yul\":11434:11481   */\n      tag_794\n      jump\t// in\n        /* \"#utility.yul\":11841:12050   */\n    tag_665:\n        /* \"#utility.yul\":11879:11882   */\n      0x00\n      sub(shl(0x40, 0x01), 0x01)\n        /* \"#utility.yul\":11960:11962   */\n      dup1\n        /* \"#utility.yul\":11953:11958   */\n      dup4\n        /* \"#utility.yul\":11949:11963   */\n      and\n        /* \"#utility.yul\":11987:11989   */\n      dup2\n        /* \"#utility.yul\":11978:11985   */\n      dup2\n        /* \"#utility.yul\":11975:11990   */\n      eq\n        /* \"#utility.yul\":11972:12013   */\n      iszero\n      tag_911\n      jumpi\n        /* \"#utility.yul\":11993:12011   */\n      tag_911\n      tag_790\n      jump\t// in\n    tag_911:\n        /* \"#utility.yul\":12042:12043   */\n      0x01\n        /* \"#utility.yul\":12029:12044   */\n      add\n      swap4\n        /* \"#utility.yul\":11841:12050   */\n      swap3\n      pop\n      pop\n      pop\n      jump\t// out\n        /* \"#utility.yul\":12055:12256   */\n    tag_667:\n        /* \"#utility.yul\":12093:12096   */\n      0x00\n        /* \"#utility.yul\":12121:12131   */\n      0xffffffff\n        /* \"#utility.yul\":12166:12168   */\n      dup1\n        /* \"#utility.yul\":12159:12164   */\n      dup4\n        /* \"#utility.yul\":12155:12169   */\n      and\n        /* \"#utility.yul\":12193:12195   */\n      dup2\n        /* \"#utility.yul\":12184:12191   */\n      dup2\n        /* \"#utility.yul\":12181:12196   */\n      eq\n        /* \"#utility.yul\":12178:12219   */\n      iszero\n      tag_911\n      jumpi\n        /* \"#utility.yul\":12199:12217   */\n      tag_911\n      tag_790\n      jump\t// in\n        /* \"#utility.yul\":12261:12852   */\n    tag_698:\n        /* \"#utility.yul\":12558:12564   */\n      dup6\n        /* \"#utility.yul\":12547:12556   */\n      dup2\n        /* \"#utility.yul\":12540:12565   */\n      mstore\n        /* \"#utility.yul\":12613:12617   */\n      0xff\n        /* \"#utility.yul\":12605:12611   */\n      dup6\n        /* \"#utility.yul\":12601:12618   */\n      and\n        /* \"#utility.yul\":12596:12598   */\n      0x20\n        /* \"#utility.yul\":12585:12594   */\n      dup3\n        /* \"#utility.yul\":12581:12599   */\n      add\n        /* \"#utility.yul\":12574:12619   */\n      mstore\n        /* \"#utility.yul\":12655:12658   */\n      0xa0\n        /* \"#utility.yul\":12650:12652   */\n      0x40\n        /* \"#utility.yul\":12639:12648   */\n      dup3\n        /* \"#utility.yul\":12635:12653   */\n      add\n        /* \"#utility.yul\":12628:12659   */\n      mstore\n        /* \"#utility.yul\":12521:12525   */\n      0x00\n        /* \"#utility.yul\":12676:12733   */\n      tag_916\n        /* \"#utility.yul\":12728:12731   */\n      0xa0\n        /* \"#utility.yul\":12717:12726   */\n      dup4\n        /* \"#utility.yul\":12713:12732   */\n      add\n        /* \"#utility.yul\":12705:12711   */\n      dup7\n        /* \"#utility.yul\":12676:12733   */\n      tag_792\n      jump\t// in\n    tag_916:\n      sub(shl(0xa0, 0x01), 0x01)\n        /* \"#utility.yul\":12769:12801   */\n      swap5\n      swap1\n      swap5\n      and\n        /* \"#utility.yul\":12764:12766   */\n      0x60\n        /* \"#utility.yul\":12749:12767   */\n      dup4\n      add\n        /* \"#utility.yul\":12742:12802   */\n      mstore\n      pop\n        /* \"#utility.yul\":12833:12836   */\n      0x80\n        /* \"#utility.yul\":12818:12837   */\n      add\n        /* \"#utility.yul\":12811:12846   */\n      mstore\n        /* \"#utility.yul\":12668:12733   */\n      swap4\n        /* \"#utility.yul\":12261:12852   */\n      swap3\n      pop\n      pop\n      pop\n      jump\t// out\n        /* \"#utility.yul\":12857:13367   */\n    tag_721:\n        /* \"#utility.yul\":13128:13134   */\n      dup5\n        /* \"#utility.yul\":13117:13126   */\n      dup2\n        /* \"#utility.yul\":13110:13135   */\n      mstore\n        /* \"#utility.yul\":13171:13174   */\n      0x80\n        /* \"#utility.yul\":13166:13168   */\n      0x20\n        /* \"#utility.yul\":13155:13164   */\n      dup3\n        /* \"#utility.yul\":13151:13169   */\n      add\n        /* \"#utility.yul\":13144:13175   */\n      mstore\n        /* \"#utility.yul\":13091:13095   */\n      0x00\n        /* \"#utility.yul\":13192:13249   */\n      tag_918\n        /* \"#utility.yul\":13244:13247   */\n      0x80\n        /* \"#utility.yul\":13233:13242   */\n      dup4\n        /* \"#utility.yul\":13229:13248   */\n      add\n        /* \"#utility.yul\":13221:13227   */\n      dup7\n        /* \"#utility.yul\":13192:13249   */\n      tag_792\n      jump\t// in\n    tag_918:\n      sub(shl(0xa0, 0x01), 0x01)\n        /* \"#utility.yul\":13285:13317   */\n      swap5\n      swap1\n      swap5\n      and\n        /* \"#utility.yul\":13280:13282   */\n      0x40\n        /* \"#utility.yul\":13265:13283   */\n      dup4\n      add\n        /* \"#utility.yul\":13258:13318   */\n      mstore\n      pop\n        /* \"#utility.yul\":13349:13351   */\n      0x60\n        /* \"#utility.yul\":13334:13352   */\n      add\n        /* \"#utility.yul\":13327:13361   */\n      mstore\n        /* \"#utility.yul\":13184:13249   */\n      swap3\n        /* \"#utility.yul\":12857:13367   */\n      swap2\n      pop\n      pop\n      jump\t// out\n        /* \"#utility.yul\":14316:14702   */\n    tag_761:\n        /* \"#utility.yul\":14548:14549   */\n      0x01\n        /* \"#utility.yul\":14544:14545   */\n      dup1\n        /* \"#utility.yul\":14539:14542   */\n      0xa0\n        /* \"#utility.yul\":14535:14546   */\n      shl\n        /* \"#utility.yul\":14531:14550   */\n      sub\n        /* \"#utility.yul\":14523:14529   */\n      dup5\n        /* \"#utility.yul\":14519:14551   */\n      and\n        /* \"#utility.yul\":14508:14517   */\n      dup2\n        /* \"#utility.yul\":14501:14552   */\n      mstore\n        /* \"#utility.yul\":14588:14594   */\n      dup3\n        /* \"#utility.yul\":14583:14585   */\n      0x20\n        /* \"#utility.yul\":14572:14581   */\n      dup3\n        /* \"#utility.yul\":14568:14586   */\n      add\n        /* \"#utility.yul\":14561:14595   */\n      mstore\n        /* \"#utility.yul\":14631:14633   */\n      0x60\n        /* \"#utility.yul\":14626:14628   */\n      0x40\n        /* \"#utility.yul\":14615:14624   */\n      dup3\n        /* \"#utility.yul\":14611:14629   */\n      add\n        /* \"#utility.yul\":14604:14634   */\n      mstore\n        /* \"#utility.yul\":14482:14486   */\n      0x00\n        /* \"#utility.yul\":14651:14696   */\n      tag_923\n        /* \"#utility.yul\":14692:14694   */\n      0x60\n        /* \"#utility.yul\":14681:14690   */\n      dup4\n        /* \"#utility.yul\":14677:14695   */\n      add\n        /* \"#utility.yul\":14669:14675   */\n      dup5\n        /* \"#utility.yul\":14651:14696   */\n      tag_788\n      jump\t// in\n    tag_923:\n        /* \"#utility.yul\":14643:14696   */\n      swap6\n        /* \"#utility.yul\":14316:14702   */\n      swap5\n      pop\n      pop\n      pop\n      pop\n      pop\n      jump\t// out\n        /* \"#utility.yul\":14707:14952   */\n    tag_765:\n        /* \"#utility.yul\":14774:14780   */\n      0x00\n        /* \"#utility.yul\":14827:14829   */\n      0x20\n        /* \"#utility.yul\":14815:14824   */\n      dup3\n        /* \"#utility.yul\":14806:14813   */\n      dup5\n        /* \"#utility.yul\":14802:14825   */\n      sub\n        /* \"#utility.yul\":14798:14830   */\n      slt\n        /* \"#utility.yul\":14795:14847   */\n      iszero\n      tag_925\n      jumpi\n        /* \"#utility.yul\":14843:14844   */\n      0x00\n        /* \"#utility.yul\":14840:14841   */\n      dup1\n        /* \"#utility.yul\":14833:14845   */\n      revert\n        /* \"#utility.yul\":14795:14847   */\n    tag_925:\n        /* \"#utility.yul\":14875:14884   */\n      dup2\n        /* \"#utility.yul\":14869:14885   */\n      mload\n        /* \"#utility.yul\":14894:14922   */\n      tag_418\n        /* \"#utility.yul\":14916:14921   */\n      dup2\n        /* \"#utility.yul\":14894:14922   */\n      tag_789\n      jump\t// in\n        /* \"#utility.yul\":15321:15433   */\n    tag_777:\n        /* \"#utility.yul\":15353:15354   */\n      0x00\n        /* \"#utility.yul\":15379:15380   */\n      dup3\n        /* \"#utility.yul\":15369:15404   */\n      tag_930\n      jumpi\n        /* \"#utility.yul\":15384:15402   */\n      tag_930\n      tag_791\n      jump\t// in\n    tag_930:\n      pop\n        /* \"#utility.yul\":15418:15427   */\n      mod\n      swap1\n        /* \"#utility.yul\":15321:15433   */\n      jump\t// out\n        /* \"#utility.yul\":15438:15573   */\n    tag_779:\n        /* \"#utility.yul\":15477:15480   */\n      0x00\n      not(0x00)\n        /* \"#utility.yul\":15498:15515   */\n      dup3\n      eq\n        /* \"#utility.yul\":15495:15538   */\n      iszero\n      tag_933\n      jumpi\n        /* \"#utility.yul\":15518:15536   */\n      tag_933\n      tag_790\n      jump\t// in\n    tag_933:\n      pop\n        /* \"#utility.yul\":15565:15566   */\n      0x01\n        /* \"#utility.yul\":15554:15567   */\n      add\n      swap1\n        /* \"#utility.yul\":15438:15573   */\n      jump\t// out\n\n    auxdata: 0xa26469706673582212200e47599be6d5bc475a748307e83c8f433ed52749b5b2e27f320a23fb559507b064736f6c634300080a0033\n}\n",
				"bytecode": {
					"linkReferences": {},
					"object": "60c0604052600180546001600160a01b0319908116739ac64cc6e4415144c455bd8e4837fea55603e5c3179091556004805482167378867bbeef44f2326bf8ddd1941a4439382ef2a7179055600680549091167384b9b910527ad5c03a9ca831909e21e236ea7b06179055600a808055600c8054781e0000000000000032000000000000000000000000000000006001600160801b03909116179055620000a990601290620002f9565b620000b690606462000311565b601055601054601155610e106012556005601054620000d6919062000333565b601555601460165569d3c21bcecceda1000000601b556001602155348015620000fe57600080fd5b5073a555fc018435bef5a13c6c6870a9d4c11dec329c60a0527384b9b910527ad5c03a9ca831909e21e236ea7b066080527fcaf3c3727e033261d383b315559476f48034c13b18f8cafed4d871abe50491866018556702c68af0bb14000060195560178054600160ff199182168117909255601b54336000818152601c60209081526040808320859055601494909455308252805282812080548516861790558181529190912080549092169092179055600280546001600160a01b03199081168317909155600380548216831790556005805490911690911790554260135562000356565b634e487b7160e01b600052601160045260246000fd5b600181815b808511156200023b5781600019048211156200021f576200021f620001e4565b808516156200022d57918102915b93841c9390800290620001ff565b509250929050565b6000826200025457506001620002f3565b816200026357506000620002f3565b81600181146200027c57600281146200028757620002a7565b6001915050620002f3565b60ff8411156200029b576200029b620001e4565b50506001821b620002f3565b5060208310610133831016604e8410600b8410161715620002cc575081810a620002f3565b620002d88383620001fa565b8060001904821115620002ef57620002ef620001e4565b0290505b92915050565b60006200030a60ff84168362000243565b9392505050565b60008160001904831182151516156200032e576200032e620001e4565b500290565b6000826200035157634e487b7160e01b600052601260045260246000fd5b500490565b60805160a0516130a462000391600039600081816117a6015261284d015260008181611a94015281816124c8015261281e01526130a46000f3fe6080604052600436106104085760003560e01c806377150eee11610213578063c061660111610123578063dd62ed3e116100ab578063f03fa8241161007a578063f03fa82414610c77578063f25790e614610c8d578063f3430c7614610cad578063f7a6340d14610ccd578063fc4a4a1e14610ced57600080fd5b8063dd62ed3e14610bde578063df75bc8514610c24578063e6c6e0f214610c4b578063ead0ab2714610c6157600080fd5b8063c9f01b3c116100f2578063c9f01b3c14610b26578063cbf474a814610b40578063d0a5eb4e14610b60578063d154763914610b80578063d21d64f114610bc857600080fd5b8063c061660114610ab0578063c2e799ff14610ad0578063c5639cc614610af0578063c5bd765314610b1057600080fd5b8063a9059cbb116101a6578063b4228db011610175578063b4228db014610a2f578063bd16a09c14610a4f578063bed9985014610a65578063bf6a1c0d14610a7b578063bfac300314610a9057600080fd5b8063a9059cbb146109b2578063a9e8fd78146109d2578063ac428e7a146109f9578063b187bd2614610a0e57600080fd5b806394985ddd116101e257806394985ddd1461093657806395d89b41146109565780639ac9f2a01461098a578063a8e7f7c81461099f57600080fd5b806377150eee146108be5780637ef267c0146108de5780638cd9e3a3146108fe57806394071d9a1461091457600080fd5b8063362d04e71161031957806352c655f3116102a15780636b7b15d5116102705780636b7b15d5146107fd5780636b8fa66c1461081d5780636e83cc1a146108335780636ea405d31461087257806370a082311461088857600080fd5b806352c655f31461079257806353321c88146107b25780635a273b79146107c8578063686ac48a146107e857600080fd5b80633f180bf5116102e85780633f180bf5146106f75780634aded88a146107175780634e09d120146107375780634f2bfcbf1461074d57806351bd4f8d1461077c57600080fd5b8063362d04e71461067657806336f56ba01461068c578063378dc3dc146106ac578063392b9273146106c257600080fd5b8063176412c11161039c578063241f50de1161036b578063241f50de146105e55780632630dd3a146106055780632854d65c1461061a578063313ce5671461062f578063331a70491461065657600080fd5b8063176412c11461057057806318160ddd14610590578063189d165e146105a557806323b872dd146105c557600080fd5b806313191a6e116103d857806313191a6e146104de5780631567d567146105015780631598926e14610517578063162790551461054f57600080fd5b80625351691461041457806304dc1c4a1461043657806306fdde0314610456578063095ea7b3146104ae57600080fd5b3661040f57005b600080fd5b34801561042057600080fd5b5061043461042f366004612a41565b610d03565b005b34801561044257600080fd5b50610434610451366004612a5e565b610d52565b34801561046257600080fd5b506104986040518060400160405280601681526020017522ba3432b93730b6102637ba3a32b93c902a37b5b2b760511b81525081565b6040516104a59190612acf565b60405180910390f35b3480156104ba57600080fd5b506104ce6104c9366004612ae2565b610d83565b60405190151581526020016104a5565b3480156104ea57600080fd5b506104f3610df0565b6040519081526020016104a5565b34801561050d57600080fd5b506104f360125481565b34801561052357600080fd5b50600654610537906001600160a01b031681565b6040516001600160a01b0390911681526020016104a5565b34801561055b57600080fd5b506104ce61056a366004612a41565b3b151590565b34801561057c57600080fd5b5061043461058b366004612b0e565b610e35565b34801561059c57600080fd5b50601b546104f3565b3480156105b157600080fd5b506104346105c0366004612a5e565b610e8e565b3480156105d157600080fd5b506104ce6105e0366004612b37565b610ecc565b3480156105f157600080fd5b506104f3610600366004612a5e565b611156565b34801561061157600080fd5b506104346112de565b34801561062657600080fd5b50610434611471565b34801561063b57600080fd5b50610644601281565b60405160ff90911681526020016104a5565b34801561066257600080fd5b50600354610537906001600160a01b031681565b34801561068257600080fd5b506104f3600f5481565b34801561069857600080fd5b506104346106a7366004612a5e565b6114b2565b3480156106b857600080fd5b506104f360145481565b3480156106ce57600080fd5b506106d76114f0565b6040805194855260208501939093529183015260608201526080016104a5565b34801561070357600080fd5b50610434610712366004612a5e565b6115fc565b34801561072357600080fd5b50610434610732366004612a41565b61163b565b34801561074357600080fd5b506104f360235481565b34801561075957600080fd5b506104ce610768366004612a41565b602080526000908152604090205460ff1681565b34801561078857600080fd5b506104f3600e5481565b34801561079e57600080fd5b506104346107ad366004612b86565b611687565b3480156107be57600080fd5b506104f360105481565b3480156107d457600080fd5b50600454610537906001600160a01b031681565b3480156107f457600080fd5b506104f36116c6565b34801561080957600080fd5b50610434610818366004612b0e565b611709565b34801561082957600080fd5b506104f360225481565b34801561083f57600080fd5b50600c5461085a90600160801b90046001600160401b031681565b6040516001600160401b0390911681526020016104a5565b34801561087e57600080fd5b506104f3600d5481565b34801561089457600080fd5b506104f36108a3366004612a41565b6001600160a01b03166000908152601c602052604090205490565b3480156108ca57600080fd5b506104346108d9366004612a5e565b61175d565b3480156108ea57600080fd5b50600c5461085a906001600160401b031681565b34801561090a57600080fd5b506104f360075481565b34801561092057600080fd5b50306000908152601c60205260409020546104f3565b34801561094257600080fd5b50610434610951366004612ba3565b61179b565b34801561096257600080fd5b50610498604051806040016040528060088152602001674554484c4f54544f60c01b81525081565b34801561099657600080fd5b506104f3611821565b3480156109ab57600080fd5b50476104f3565b3480156109be57600080fd5b506104ce6109cd366004612ae2565b611866565b3480156109de57600080fd5b50600c5461085a90600160c01b90046001600160401b031681565b348015610a0557600080fd5b506104f3611a7c565b348015610a1a57600080fd5b506006546104ce90600160a01b900460ff1681565b348015610a3b57600080fd5b50600554610537906001600160a01b031681565b348015610a5b57600080fd5b506104f360195481565b348015610a7157600080fd5b506104f3600a5481565b348015610a8757600080fd5b50610434611b07565b348015610a9c57600080fd5b50610434610aab366004612a5e565b611b42565b348015610abc57600080fd5b50610434610acb366004612a5e565b611b92565b348015610adc57600080fd5b50610434610aeb366004612a5e565b611c1a565b348015610afc57600080fd5b50610434610b0b366004612a41565b611c92565b348015610b1c57600080fd5b506104f360155481565b348015610b3257600080fd5b506017546104ce9060ff1681565b348015610b4c57600080fd5b50600254610537906001600160a01b031681565b348015610b6c57600080fd5b50610434610b7b366004612a41565b611ce0565b348015610b8c57600080fd5b50610ba0610b9b366004612a5e565b611d2e565b604080519485526001600160a01b0390931660208501529183015260608201526080016104a5565b348015610bd457600080fd5b506104f360095481565b348015610bea57600080fd5b506104f3610bf9366004612bc5565b6001600160a01b039182166000908152601f6020908152604080832093909416825291909152205490565b348015610c3057600080fd5b50600c5461085a90600160401b90046001600160401b031681565b348015610c5757600080fd5b506104f360115481565b348015610c6d57600080fd5b506104f360085481565b348015610c8357600080fd5b506104f360165481565b348015610c9957600080fd5b50610434610ca8366004612a41565b611d71565b348015610cb957600080fd5b50610434610cc8366004612bfe565b611dbf565b348015610cd957600080fd5b50610434610ce8366004612a41565b6120c6565b348015610cf957600080fd5b506104f360135481565b6002546001600160a01b0316331480610d2657506003546001600160a01b031633145b610d2f57600080fd5b6001600160a01b031660009081526020805260409020805460ff19166001179055565b6002546001600160a01b0316331480610d7557506003546001600160a01b031633145b610d7e57600080fd5b601955565b336000818152601f602090815260408083206001600160a01b038716808552925280832085905551919290917f8c5be1e5ebec7d5bd14f71427d1e84f3dd0314c0f7b2291e5b200ac8c7c3b92590610dde9086815260200190565b60405180910390a35060015b92915050565b600c54336000908152601e60205260408120549091600160401b90046001600160401b03161415610e2f5750336000908152601d602052604090205490565b50600090565b6002546001600160a01b0316331480610e5857506003546001600160a01b031633145b610e6157600080fd5b600c80546001600160401b03909216600160801b0267ffffffffffffffff60801b19909216919091179055565b6002546001600160a01b0316331480610eb157506003546001600160a01b031633145b610eba57600080fd5b60648110610ec757600080fd5b600a55565b6001600160a01b0382166000908152602080526040812054819060ff1680610f0b57506001600160a01b038516600090815260208052604090205460ff165b15610f1857506000610f35565b6064600d5484610f289190612c3a565b610f329190612c6f565b90505b6000610f418285612c83565b600654909150600160a01b900460ff1615610fd5576001600160a01b038516600090815260208052604090205460ff1680610f9357506001600160a01b038616600090815260208052604090205460ff165b610fd55760405162461bcd60e51b815260206004820152600e60248201526d151c98591a5b99c814185d5cd95960921b60448201526064015b60405180910390fd5b6001600160a01b0386166000908152601f60209081526040808320338452909152902054158015906110075750600084115b801561103657506001600160a01b0386166000908152601f602090815260408083203384529091529020548411155b15611148576001600160a01b0386166000908152601c602052604081208054869290611063908490612c83565b90915550506001600160a01b0385166000908152601c602052604081208054839290611090908490612c9a565b92505081905550846001600160a01b0316866001600160a01b03167fddf252ad1be2c89b69c2b068fc378daa952ba7f163c4a11628f55a4df523b3ef836040516110dc91815260200190565b60405180910390a360006064600a54846110f69190612c3a565b6111009190612c6f565b905061110c8184612c83565b6008600082825461111d9190612c9a565b9250508190555080601b60008282546111369190612c83565b909155506001945061114f9350505050565b6000925050505b9392505050565b604080516002808252606082018352600092839291906020830190803683375050600154604080516315ab88c960e31b815290519394506001600160a01b039091169263ad5c4648925060048083019260209291908290030181865afa1580156111c4573d6000803e3d6000fd5b505050506040513d601f19601f820116820180604052508101906111e89190612cc8565b816000815181106111fb576111fb612ce5565b60200260200101906001600160a01b031690816001600160a01b031681525050308160018151811061122f5761122f612ce5565b6001600160a01b03928316602091820292909201015260015460405163d06ca61f60e01b8152600092919091169063d06ca61f906112739087908690600401612d3f565b600060405180830381865afa158015611290573d6000803e3d6000fd5b505050506040513d6000823e601f3d908101601f191682016040526112b89190810190612d58565b9050806001815181106112cd576112cd612ce5565b602002602001015192505050919050565b601554600854106113635760088054600091829055308252601c60205260408220805491928392611310908490612c9a565b9091555061131f905081612114565b61136157306000908152601c602052604081208054839290611342908490612c83565b92505081905550806008600082825461135b9190612c9a565b90915550505b505b4761271081111561146e57601654156113c25760006064601654836113889190612c3a565b6113929190612c6f565b6004546005549192506113b39183916001600160a01b03908116911661232d565b506113be8183612c83565b9150505b6003546040805160008082526020820192839052926001600160a01b03169184916113ec91612e15565b60006040518083038185875af1925050503d8060008114611429576040519150601f19603f3d011682016040523d82523d6000602084013e61142e565b606091505b5050600980546000918290556003546001600160a01b03168252601c6020526040822080549394509092839290611466908490612c9a565b909155505050505b50565b6002546001600160a01b031633148061149457506003546001600160a01b031633145b61149d57600080fd5b6006805460ff60a01b1916600160a01b179055565b6002546001600160a01b03163314806114d557506003546001600160a01b031633145b6114de57600080fd5b6114ea81610e10612c3a565b60125550565b600080600080600042905060125460135461150b9190612c9a565b8110156115e4576000816012546013546115259190612c9a565b61152f9190612c83565b905061153e6201518082612c6f565b955061154b866018612c3a565b611557610e1083612c6f565b6115619190612c83565b945061156e866018612c3a565b6115789086612c9a565b61158390603c612c3a565b61158e603c83612c6f565b6115989190612c83565b93506115a584603c612c3a565b6115b186610e10612c3a565b6115be8862015180612c3a565b6115c89084612c83565b6115d29190612c83565b6115dc9190612c83565b9250506115f5565b600094506000935060009250600091505b5090919293565b6002546001600160a01b031633148061161f57506003546001600160a01b031633145b61162857600080fd5b601481111561163657600080fd5b600d55565b6002546001600160a01b031633148061165e57506003546001600160a01b031633145b61166757600080fd5b6001600160a01b031660009081526020805260409020805460ff19169055565b6002546001600160a01b03163314806116aa57506003546001600160a01b031633145b6116b357600080fd5b6017805460ff1916911515919091179055565b600c546000906001600160401b031615610e2f57600c546001600160401b03166116ee610df0565b6116fa90612710612c3a565b6117049190612c6f565b905090565b6002546001600160a01b031633148061172c57506003546001600160a01b031633145b61173557600080fd5b600c80546001600160401b03909216600160c01b026001600160c01b03909216919091179055565b6002546001600160a01b031633148061178057506003546001600160a01b031633145b61178957600080fd5b6064811061179657600080fd5b601655565b336001600160a01b037f000000000000000000000000000000000000000000000000000000000000000016146118135760405162461bcd60e51b815260206004820152601f60248201527f4f6e6c7920565246436f6f7264696e61746f722063616e2066756c66696c6c006044820152606401610fcc565b61181d8282612492565b5050565b60125460135460009142916118369190612c9a565b81101561185e578060125460135461184e9190612c9a565b6118589190612c83565b91505090565b600091505090565b6001600160a01b0382166000908152602080526040812054819060ff168061189c575033600090815260208052604090205460ff165b156118a9575060006118c6565b6064600d54846118b99190612c3a565b6118c39190612c6f565b90505b60006118d28285612c83565b600654909150600160a01b900460ff1615611958576001600160a01b038516600090815260208052604090205460ff168061191b575033600090815260208052604090205460ff165b6119585760405162461bcd60e51b815260206004820152600e60248201526d151c98591a5b99c814185d5cd95960921b6044820152606401610fcc565b6000841180156119775750336000908152601c60205260409020548411155b15611a7157336000908152601c60205260408120805486929061199b908490612c83565b90915550506001600160a01b0385166000908152601c6020526040812080548392906119c8908490612c9a565b90915550506040518181526001600160a01b0386169033907fddf252ad1be2c89b69c2b068fc378daa952ba7f163c4a11628f55a4df523b3ef9060200160405180910390a360006064600a5484611a1f9190612c3a565b611a299190612c6f565b9050611a358184612c83565b60086000828254611a469190612c9a565b9250508190555080601b6000828254611a5f9190612c83565b9091555060019450610dea9350505050565b506000949350505050565b6040516370a0823160e01b81523060048201526000907f00000000000000000000000000000000000000000000000000000000000000006001600160a01b0316906370a0823190602401602060405180830381865afa158015611ae3573d6000803e3d6000fd5b505050506040513d601f19601f820116820180604052508101906117049190612e31565b6002546001600160a01b0316331480611b2a57506003546001600160a01b031633145b611b3357600080fd5b6006805460ff60a01b19169055565b6002546001600160a01b0316331480611b6557506003546001600160a01b031633145b611b6e57600080fd5b80607b141561146e5760175460ff1615611b8a5761146e6124b0565b61181d6125bc565b6002546001600160a01b0316331480611bb557506003546001600160a01b031633145b611bbe57600080fd5b306000908152601c6020526040902054811115611bda57600080fd5b306000908152601c602052604081208054839290611bf9908490612c83565b9250508190555080600e6000828254611c129190612c9a565b909155505050565b6002546001600160a01b0316331480611c3d57506003546001600160a01b031633145b611c4657600080fd5b611c526012600a612f2e565b611c5d906064612c3a565b601b54611c6a9190612c6f565b811115611c7657600080fd5b611c826012600a612f2e565b611c8c9082612c3a565b60115550565b6002546001600160a01b0316331480611cb557506003546001600160a01b031633145b611cbe57600080fd5b600380546001600160a01b0319166001600160a01b0392909216919091179055565b6002546001600160a01b0316331480611d0357506003546001600160a01b031633145b611d0c57600080fd5b600280546001600160a01b0319166001600160a01b0392909216919091179055565b601a8181548110611d3e57600080fd5b600091825260209091206004909102018054600182015460028301546003909301549193506001600160a01b0316919084565b6002546001600160a01b0316331480611d9457506003546001600160a01b031633145b611d9d57600080fd5b600480546001600160a01b0319166001600160a01b0392909216919091179055565b6010543390600090611dd79063ffffffff8516612c3a565b6001600160a01b0383166000908152601c6020526040902054909150811115611e395760405162461bcd60e51b8152602060048201526014602482015273496e73756666696369656e742042616c616e636560601b6044820152606401610fcc565b6001600160a01b0382166000908152601c602052604081208054839290611e61908490612c83565b9091555050600c546001600160a01b0383166000908152601e6020526040902054600160401b9091046001600160401b03161115611ede57600c546001600160a01b0383166000908152601e60209081526040808320600160401b9094046001600160401b0316909355601d90522063ffffffff84169055611f12565b6001600160a01b0382166000908152601d60205260408120805463ffffffff86169290611f0c908490612c9a565b90915550505b6064611f1f826003612c3a565b611f299190612c6f565b60076000828254611f3a9190612c9a565b9091555060649050611f4d826005612c3a565b611f579190612c6f565b60086000828254611f689190612c9a565b9091555060649050611f7b826002612c3a565b611f859190612c6f565b60096000828254611f969190612c9a565b9091555060649050611fa982605a612c3a565b611fb39190612c6f565b600e6000828254611fc49190612c9a565b90915550600090505b8363ffffffff168163ffffffff16101561205f57600c80546001600160401b039081166000908152600b6020526040812080546001600160a01b0319166001600160a01b0388161790558254909116919061202783612f3d565b91906101000a8154816001600160401b0302191690836001600160401b0316021790555050808061205790612f64565b915050611fcd565b50600c546001600160401b03600160801b820481169116108015906120895750612087611821565b155b156120be5760175460ff16156120ab5760245460ff166120b0576120ab6124b0565b505050565b6120b86125bc565b50505050565b6120ab6112de565b6002546001600160a01b03163314806120e957506003546001600160a01b031633145b6120f257600080fd5b600580546001600160a01b0319166001600160a01b0392909216919091179055565b60008115612325576001546121349030906001600160a01b031684612789565b50604080516002808252606082018352600092602083019080368337019050509050308160008151811061216a5761216a612ce5565b6001600160a01b03928316602091820292909201810191909152600154604080516315ab88c960e31b81529051919093169263ad5c46489260048083019391928290030181865afa1580156121c3573d6000803e3d6000fd5b505050506040513d601f19601f820116820180604052508101906121e79190612cc8565b816001815181106121fa576121fa612ce5565b6001600160a01b0390921660209283029190910190910152600080739ac64cc6e4415144c455bd8e4837fea55603e5c36318cbafe58683863061223e426014612c9a565b604051602401612252959493929190612f7e565b6040516020818303038152906040529060e01b6020820180516001600160e01b03838183161783525050505060405161228b9190612e15565b6000604051808303816000865af19150503d80600081146122c8576040519150601f19603f3d011682016040523d82523d6000602084013e6122cd565b606091505b50915091508115612321576000818060200190518101906122ee9190612d58565b9050600281511061231f578060018151811061230c5761230c612ce5565b6020026020010151945050505050919050565b505b5050505b506000919050565b604080516002808252606082018352600092839291906020830190803683375050600154604080516315ab88c960e31b815290519394506001600160a01b039091169263ad5c4648925060048083019260209291908290030181865afa15801561239b573d6000803e3d6000fd5b505050506040513d601f19601f820116820180604052508101906123bf9190612cc8565b816000815181106123d2576123d2612ce5565b60200260200101906001600160a01b031690816001600160a01b031681525050838160018151811061240657612406612ce5565b6001600160a01b0392831660209182029290920101526001541663b6f9de958660008487612435426014612c9a565b6040518663ffffffff1660e01b81526004016124549493929190612fbd565b6000604051808303818588803b15801561246d57600080fd5b505af19350505050801561247f575060015b61248857611a71565b600191505061114f565b6023819055806124a06125bc565b50506024805460ff191690555050565b6019546040516370a0823160e01b81523060048201527f00000000000000000000000000000000000000000000000000000000000000006001600160a01b0316906370a0823190602401602060405180830381865afa158015612517573d6000803e3d6000fd5b505050506040513d601f19601f8201168201806040525081019061253b9190612e31565b1161259c5760405162461bcd60e51b815260206004820152602b60248201527f4e6f7420656e6f756768204c494e4b202d2066696c6c20636f6e74726163742060448201526a1dda5d1a0819985d58d95d60aa1b6064820152608401610fcc565b6125aa60185460195461281a565b6022556024805460ff19166001179055565b600c546000906001600160401b031615610e2f57600c5442906000906125ea906001600160401b0316612995565b90506000600b600083815260200190815260200160002060009054906101000a90046001600160a01b03169050601a6040518060800160405280848152602001836001600160a01b03168152602001600e5481526020016012546013546126519190612c9a565b905281546001808201845560009384526020808520845160049094020192835583015190820180546001600160a01b0319166001600160a01b03909216919091179055604082015160028201556060909101516003909101556013849055601154601055600e8054600780549092559190556126cd8282611866565b50604080516001600160a01b0384168152602081018390527f2e798dd4337e515c79b64c40e1a93baa1aefbd9180ac7905e02508edd7971e50910160405180910390a1600c8054600160401b90046001600160401b031690600861273083612f3d565b82546001600160401b039182166101009390930a928302919092021990911617905550600c805467ffffffffffffffff19169055600f8054829190600090612779908490612c9a565b9091555060019695505050505050565b6001600160a01b038381166000908152601f6020908152604080832093861683529290529081208054908390836127c08385612c9a565b90915550506001600160a01b038085169086167f8c5be1e5ebec7d5bd14f71427d1e84f3dd0314c0f7b2291e5b200ac8c7c3b9256127fe8685612c9a565b60405190815260200160405180910390a3506001949350505050565b60007f00000000000000000000000000000000000000000000000000000000000000006001600160a01b0316634000aea07f00000000000000000000000000000000000000000000000000000000000000008486600060405160200161288a929190918252602082015260400190565b6040516020818303038152906040526040518463ffffffff1660e01b81526004016128b793929190612ff2565b6020604051808303816000875af11580156128d6573d6000803e3d6000fd5b505050506040513d601f19601f820116820180604052508101906128fa9190613022565b5060008381526020818152604080832054815180840188905280830185905230606082015260808082018390528351808303909101815260a090910190925281519183019190912086845292909152612954906001612c9a565b60008581526020818152604091829020929092558051808301879052808201849052815180820383018152606090910190915280519101205b949350505050565b6000806000600e546023546021546129ad9190612c9a565b6129b79190612c9a565b604080514260208201526bffffffffffffffffffffffff193360601b16918101919091526054810182905290915084906074016040516020818303038152906040528051906020012060001c612a0d919061303f565b602180549193506000612a1f83613053565b9091555091949350505050565b6001600160a01b038116811461146e57600080fd5b600060208284031215612a5357600080fd5b813561114f81612a2c565b600060208284031215612a7057600080fd5b5035919050565b60005b83811015612a92578181015183820152602001612a7a565b838111156120b85750506000910152565b60008151808452612abb816020860160208601612a77565b601f01601f19169290920160200192915050565b60208152600061114f6020830184612aa3565b60008060408385031215612af557600080fd5b8235612b0081612a2c565b946020939093013593505050565b600060208284031215612b2057600080fd5b81356001600160401b038116811461114f57600080fd5b600080600060608486031215612b4c57600080fd5b8335612b5781612a2c565b92506020840135612b6781612a2c565b929592945050506040919091013590565b801515811461146e57600080fd5b600060208284031215612b9857600080fd5b813561114f81612b78565b60008060408385031215612bb657600080fd5b50508035926020909101359150565b60008060408385031215612bd857600080fd5b8235612be381612a2c565b91506020830135612bf381612a2c565b809150509250929050565b600060208284031215612c1057600080fd5b813563ffffffff8116811461114f57600080fd5b634e487b7160e01b600052601160045260246000fd5b6000816000190483118215151615612c5457612c54612c24565b500290565b634e487b7160e01b600052601260045260246000fd5b600082612c7e57612c7e612c59565b500490565b600082821015612c9557612c95612c24565b500390565b60008219821115612cad57612cad612c24565b500190565b634e487b7160e01b600052604160045260246000fd5b600060208284031215612cda57600080fd5b815161114f81612a2c565b634e487b7160e01b600052603260045260246000fd5b600081518084526020808501945080840160005b83811015612d345781516001600160a01b031687529582019590820190600101612d0f565b509495945050505050565b82815260406020820152600061298d6040830184612cfb565b60006020808385031215612d6b57600080fd5b82516001600160401b0380821115612d8257600080fd5b818501915085601f830112612d9657600080fd5b815181811115612da857612da8612cb2565b8060051b604051601f19603f83011681018181108582111715612dcd57612dcd612cb2565b604052918252848201925083810185019188831115612deb57600080fd5b938501935b82851015612e0957845184529385019392850192612df0565b98975050505050505050565b60008251612e27818460208701612a77565b9190910192915050565b600060208284031215612e4357600080fd5b5051919050565b600181815b80851115612e85578160001904821115612e6b57612e6b612c24565b80851615612e7857918102915b93841c9390800290612e4f565b509250929050565b600082612e9c57506001610dea565b81612ea957506000610dea565b8160018114612ebf5760028114612ec957612ee5565b6001915050610dea565b60ff841115612eda57612eda612c24565b50506001821b610dea565b5060208310610133831016604e8410600b8410161715612f08575081810a610dea565b612f128383612e4a565b8060001904821115612f2657612f26612c24565b029392505050565b600061114f60ff841683612e8d565b60006001600160401b0380831681811415612f5a57612f5a612c24565b6001019392505050565b600063ffffffff80831681811415612f5a57612f5a612c24565b85815260ff8516602082015260a060408201526000612fa060a0830186612cfb565b6001600160a01b0394909416606083015250608001529392505050565b848152608060208201526000612fd66080830186612cfb565b6001600160a01b03949094166040830152506060015292915050565b60018060a01b03841681528260208201526060604082015260006130196060830184612aa3565b95945050505050565b60006020828403121561303457600080fd5b815161114f81612b78565b60008261304e5761304e612c59565b500690565b600060001982141561306757613067612c24565b506001019056fea26469706673582212200e47599be6d5bc475a748307e83c8f433ed52749b5b2e27f320a23fb559507b064736f6c634300080a0033",
					"opcodes": "PUSH1 0xC0 PUSH1 0x40 MSTORE PUSH1 0x1 DUP1 SLOAD PUSH1 0x1 PUSH1 0x1 PUSH1 0xA0 SHL SUB NOT SWAP1 DUP2 AND PUSH20 0x9AC64CC6E4415144C455BD8E4837FEA55603E5C3 OR SWAP1 SWAP2 SSTORE PUSH1 0x4 DUP1 SLOAD DUP3 AND PUSH20 0x78867BBEEF44F2326BF8DDD1941A4439382EF2A7 OR SWAP1 SSTORE PUSH1 0x6 DUP1 SLOAD SWAP1 SWAP2 AND PUSH20 0x84B9B910527AD5C03A9CA831909E21E236EA7B06 OR SWAP1 SSTORE PUSH1 0xA DUP1 DUP1 SSTORE PUSH1 0xC DUP1 SLOAD PUSH25 0x1E000000000000003200000000000000000000000000000000 PUSH1 0x1 PUSH1 0x1 PUSH1 0x80 SHL SUB SWAP1 SWAP2 AND OR SWAP1 SSTORE PUSH3 0xA9 SWAP1 PUSH1 0x12 SWAP1 PUSH3 0x2F9 JUMP JUMPDEST PUSH3 0xB6 SWAP1 PUSH1 0x64 PUSH3 0x311 JUMP JUMPDEST PUSH1 0x10 SSTORE PUSH1 0x10 SLOAD PUSH1 0x11 SSTORE PUSH2 0xE10 PUSH1 0x12 SSTORE PUSH1 0x5 PUSH1 0x10 SLOAD PUSH3 0xD6 SWAP2 SWAP1 PUSH3 0x333 JUMP JUMPDEST PUSH1 0x15 SSTORE PUSH1 0x14 PUSH1 0x16 SSTORE PUSH10 0xD3C21BCECCEDA1000000 PUSH1 0x1B SSTORE PUSH1 0x1 PUSH1 0x21 SSTORE CALLVALUE DUP1 ISZERO PUSH3 0xFE JUMPI PUSH1 0x0 DUP1 REVERT JUMPDEST POP PUSH20 0xA555FC018435BEF5A13C6C6870A9D4C11DEC329C PUSH1 0xA0 MSTORE PUSH20 0x84B9B910527AD5C03A9CA831909E21E236EA7B06 PUSH1 0x80 MSTORE PUSH32 0xCAF3C3727E033261D383B315559476F48034C13B18F8CAFED4D871ABE5049186 PUSH1 0x18 SSTORE PUSH8 0x2C68AF0BB140000 PUSH1 0x19 SSTORE PUSH1 0x17 DUP1 SLOAD PUSH1 0x1 PUSH1 0xFF NOT SWAP2 DUP3 AND DUP2 OR SWAP1 SWAP3 SSTORE PUSH1 0x1B SLOAD CALLER PUSH1 0x0 DUP2 DUP2 MSTORE PUSH1 0x1C PUSH1 0x20 SWAP1 DUP2 MSTORE PUSH1 0x40 DUP1 DUP4 KECCAK256 DUP6 SWAP1 SSTORE PUSH1 0x14 SWAP5 SWAP1 SWAP5 SSTORE ADDRESS DUP3 MSTORE DUP1 MSTORE DUP3 DUP2 KECCAK256 DUP1 SLOAD DUP6 AND DUP7 OR SWAP1 SSTORE DUP2 DUP2 MSTORE SWAP2 SWAP1 SWAP2 KECCAK256 DUP1 SLOAD SWAP1 SWAP3 AND SWAP1 SWAP3 OR SWAP1 SSTORE PUSH1 0x2 DUP1 SLOAD PUSH1 0x1 PUSH1 0x1 PUSH1 0xA0 SHL SUB NOT SWAP1 DUP2 AND DUP4 OR SWAP1 SWAP2 SSTORE PUSH1 0x3 DUP1 SLOAD DUP3 AND DUP4 OR SWAP1 SSTORE PUSH1 0x5 DUP1 SLOAD SWAP1 SWAP2 AND SWAP1 SWAP2 OR SWAP1 SSTORE TIMESTAMP PUSH1 0x13 SSTORE PUSH3 0x356 JUMP JUMPDEST PUSH4 0x4E487B71 PUSH1 0xE0 SHL PUSH1 0x0 MSTORE PUSH1 0x11 PUSH1 0x4 MSTORE PUSH1 0x24 PUSH1 0x0 REVERT JUMPDEST PUSH1 0x1 DUP2 DUP2 JUMPDEST DUP1 DUP6 GT ISZERO PUSH3 0x23B JUMPI DUP2 PUSH1 0x0 NOT DIV DUP3 GT ISZERO PUSH3 0x21F JUMPI PUSH3 0x21F PUSH3 0x1E4 JUMP JUMPDEST DUP1 DUP6 AND ISZERO PUSH3 0x22D JUMPI SWAP2 DUP2 MUL SWAP2 JUMPDEST SWAP4 DUP5 SHR SWAP4 SWAP1 DUP1 MUL SWAP1 PUSH3 0x1FF JUMP JUMPDEST POP SWAP3 POP SWAP3 SWAP1 POP JUMP JUMPDEST PUSH1 0x0 DUP3 PUSH3 0x254 JUMPI POP PUSH1 0x1 PUSH3 0x2F3 JUMP JUMPDEST DUP2 PUSH3 0x263 JUMPI POP PUSH1 0x0 PUSH3 0x2F3 JUMP JUMPDEST DUP2 PUSH1 0x1 DUP2 EQ PUSH3 0x27C JUMPI PUSH1 0x2 DUP2 EQ PUSH3 0x287 JUMPI PUSH3 0x2A7 JUMP JUMPDEST PUSH1 0x1 SWAP2 POP POP PUSH3 0x2F3 JUMP JUMPDEST PUSH1 0xFF DUP5 GT ISZERO PUSH3 0x29B JUMPI PUSH3 0x29B PUSH3 0x1E4 JUMP JUMPDEST POP POP PUSH1 0x1 DUP3 SHL PUSH3 0x2F3 JUMP JUMPDEST POP PUSH1 0x20 DUP4 LT PUSH2 0x133 DUP4 LT AND PUSH1 0x4E DUP5 LT PUSH1 0xB DUP5 LT AND OR ISZERO PUSH3 0x2CC JUMPI POP DUP2 DUP2 EXP PUSH3 0x2F3 JUMP JUMPDEST PUSH3 0x2D8 DUP4 DUP4 PUSH3 0x1FA JUMP JUMPDEST DUP1 PUSH1 0x0 NOT DIV DUP3 GT ISZERO PUSH3 0x2EF JUMPI PUSH3 0x2EF PUSH3 0x1E4 JUMP JUMPDEST MUL SWAP1 POP JUMPDEST SWAP3 SWAP2 POP POP JUMP JUMPDEST PUSH1 0x0 PUSH3 0x30A PUSH1 0xFF DUP5 AND DUP4 PUSH3 0x243 JUMP JUMPDEST SWAP4 SWAP3 POP POP POP JUMP JUMPDEST PUSH1 0x0 DUP2 PUSH1 0x0 NOT DIV DUP4 GT DUP3 ISZERO ISZERO AND ISZERO PUSH3 0x32E JUMPI PUSH3 0x32E PUSH3 0x1E4 JUMP JUMPDEST POP MUL SWAP1 JUMP JUMPDEST PUSH1 0x0 DUP3 PUSH3 0x351 JUMPI PUSH4 0x4E487B71 PUSH1 0xE0 SHL PUSH1 0x0 MSTORE PUSH1 0x12 PUSH1 0x4 MSTORE PUSH1 0x24 PUSH1 0x0 REVERT JUMPDEST POP DIV SWAP1 JUMP JUMPDEST PUSH1 0x80 MLOAD PUSH1 0xA0 MLOAD PUSH2 0x30A4 PUSH3 0x391 PUSH1 0x0 CODECOPY PUSH1 0x0 DUP2 DUP2 PUSH2 0x17A6 ADD MSTORE PUSH2 0x284D ADD MSTORE PUSH1 0x0 DUP2 DUP2 PUSH2 0x1A94 ADD MSTORE DUP2 DUP2 PUSH2 0x24C8 ADD MSTORE PUSH2 0x281E ADD MSTORE PUSH2 0x30A4 PUSH1 0x0 RETURN INVALID PUSH1 0x80 PUSH1 0x40 MSTORE PUSH1 0x4 CALLDATASIZE LT PUSH2 0x408 JUMPI PUSH1 0x0 CALLDATALOAD PUSH1 0xE0 SHR DUP1 PUSH4 0x77150EEE GT PUSH2 0x213 JUMPI DUP1 PUSH4 0xC0616601 GT PUSH2 0x123 JUMPI DUP1 PUSH4 0xDD62ED3E GT PUSH2 0xAB JUMPI DUP1 PUSH4 0xF03FA824 GT PUSH2 0x7A JUMPI DUP1 PUSH4 0xF03FA824 EQ PUSH2 0xC77 JUMPI DUP1 PUSH4 0xF25790E6 EQ PUSH2 0xC8D JUMPI DUP1 PUSH4 0xF3430C76 EQ PUSH2 0xCAD JUMPI DUP1 PUSH4 0xF7A6340D EQ PUSH2 0xCCD JUMPI DUP1 PUSH4 0xFC4A4A1E EQ PUSH2 0xCED JUMPI PUSH1 0x0 DUP1 REVERT JUMPDEST DUP1 PUSH4 0xDD62ED3E EQ PUSH2 0xBDE JUMPI DUP1 PUSH4 0xDF75BC85 EQ PUSH2 0xC24 JUMPI DUP1 PUSH4 0xE6C6E0F2 EQ PUSH2 0xC4B JUMPI DUP1 PUSH4 0xEAD0AB27 EQ PUSH2 0xC61 JUMPI PUSH1 0x0 DUP1 REVERT JUMPDEST DUP1 PUSH4 0xC9F01B3C GT PUSH2 0xF2 JUMPI DUP1 PUSH4 0xC9F01B3C EQ PUSH2 0xB26 JUMPI DUP1 PUSH4 0xCBF474A8 EQ PUSH2 0xB40 JUMPI DUP1 PUSH4 0xD0A5EB4E EQ PUSH2 0xB60 JUMPI DUP1 PUSH4 0xD1547639 EQ PUSH2 0xB80 JUMPI DUP1 PUSH4 0xD21D64F1 EQ PUSH2 0xBC8 JUMPI PUSH1 0x0 DUP1 REVERT JUMPDEST DUP1 PUSH4 0xC0616601 EQ PUSH2 0xAB0 JUMPI DUP1 PUSH4 0xC2E799FF EQ PUSH2 0xAD0 JUMPI DUP1 PUSH4 0xC5639CC6 EQ PUSH2 0xAF0 JUMPI DUP1 PUSH4 0xC5BD7653 EQ PUSH2 0xB10 JUMPI PUSH1 0x0 DUP1 REVERT JUMPDEST DUP1 PUSH4 0xA9059CBB GT PUSH2 0x1A6 JUMPI DUP1 PUSH4 0xB4228DB0 GT PUSH2 0x175 JUMPI DUP1 PUSH4 0xB4228DB0 EQ PUSH2 0xA2F JUMPI DUP1 PUSH4 0xBD16A09C EQ PUSH2 0xA4F JUMPI DUP1 PUSH4 0xBED99850 EQ PUSH2 0xA65 JUMPI DUP1 PUSH4 0xBF6A1C0D EQ PUSH2 0xA7B JUMPI DUP1 PUSH4 0xBFAC3003 EQ PUSH2 0xA90 JUMPI PUSH1 0x0 DUP1 REVERT JUMPDEST DUP1 PUSH4 0xA9059CBB EQ PUSH2 0x9B2 JUMPI DUP1 PUSH4 0xA9E8FD78 EQ PUSH2 0x9D2 JUMPI DUP1 PUSH4 0xAC428E7A EQ PUSH2 0x9F9 JUMPI DUP1 PUSH4 0xB187BD26 EQ PUSH2 0xA0E JUMPI PUSH1 0x0 DUP1 REVERT JUMPDEST DUP1 PUSH4 0x94985DDD GT PUSH2 0x1E2 JUMPI DUP1 PUSH4 0x94985DDD EQ PUSH2 0x936 JUMPI DUP1 PUSH4 0x95D89B41 EQ PUSH2 0x956 JUMPI DUP1 PUSH4 0x9AC9F2A0 EQ PUSH2 0x98A JUMPI DUP1 PUSH4 0xA8E7F7C8 EQ PUSH2 0x99F JUMPI PUSH1 0x0 DUP1 REVERT JUMPDEST DUP1 PUSH4 0x77150EEE EQ PUSH2 0x8BE JUMPI DUP1 PUSH4 0x7EF267C0 EQ PUSH2 0x8DE JUMPI DUP1 PUSH4 0x8CD9E3A3 EQ PUSH2 0x8FE JUMPI DUP1 PUSH4 0x94071D9A EQ PUSH2 0x914 JUMPI PUSH1 0x0 DUP1 REVERT JUMPDEST DUP1 PUSH4 0x362D04E7 GT PUSH2 0x319 JUMPI DUP1 PUSH4 0x52C655F3 GT PUSH2 0x2A1 JUMPI DUP1 PUSH4 0x6B7B15D5 GT PUSH2 0x270 JUMPI DUP1 PUSH4 0x6B7B15D5 EQ PUSH2 0x7FD JUMPI DUP1 PUSH4 0x6B8FA66C EQ PUSH2 0x81D JUMPI DUP1 PUSH4 0x6E83CC1A EQ PUSH2 0x833 JUMPI DUP1 PUSH4 0x6EA405D3 EQ PUSH2 0x872 JUMPI DUP1 PUSH4 0x70A08231 EQ PUSH2 0x888 JUMPI PUSH1 0x0 DUP1 REVERT JUMPDEST DUP1 PUSH4 0x52C655F3 EQ PUSH2 0x792 JUMPI DUP1 PUSH4 0x53321C88 EQ PUSH2 0x7B2 JUMPI DUP1 PUSH4 0x5A273B79 EQ PUSH2 0x7C8 JUMPI DUP1 PUSH4 0x686AC48A EQ PUSH2 0x7E8 JUMPI PUSH1 0x0 DUP1 REVERT JUMPDEST DUP1 PUSH4 0x3F180BF5 GT PUSH2 0x2E8 JUMPI DUP1 PUSH4 0x3F180BF5 EQ PUSH2 0x6F7 JUMPI DUP1 PUSH4 0x4ADED88A EQ PUSH2 0x717 JUMPI DUP1 PUSH4 0x4E09D120 EQ PUSH2 0x737 JUMPI DUP1 PUSH4 0x4F2BFCBF EQ PUSH2 0x74D JUMPI DUP1 PUSH4 0x51BD4F8D EQ PUSH2 0x77C JUMPI PUSH1 0x0 DUP1 REVERT JUMPDEST DUP1 PUSH4 0x362D04E7 EQ PUSH2 0x676 JUMPI DUP1 PUSH4 0x36F56BA0 EQ PUSH2 0x68C JUMPI DUP1 PUSH4 0x378DC3DC EQ PUSH2 0x6AC JUMPI DUP1 PUSH4 0x392B9273 EQ PUSH2 0x6C2 JUMPI PUSH1 0x0 DUP1 REVERT JUMPDEST DUP1 PUSH4 0x176412C1 GT PUSH2 0x39C JUMPI DUP1 PUSH4 0x241F50DE GT PUSH2 0x36B JUMPI DUP1 PUSH4 0x241F50DE EQ PUSH2 0x5E5 JUMPI DUP1 PUSH4 0x2630DD3A EQ PUSH2 0x605 JUMPI DUP1 PUSH4 0x2854D65C EQ PUSH2 0x61A JUMPI DUP1 PUSH4 0x313CE567 EQ PUSH2 0x62F JUMPI DUP1 PUSH4 0x331A7049 EQ PUSH2 0x656 JUMPI PUSH1 0x0 DUP1 REVERT JUMPDEST DUP1 PUSH4 0x176412C1 EQ PUSH2 0x570 JUMPI DUP1 PUSH4 0x18160DDD EQ PUSH2 0x590 JUMPI DUP1 PUSH4 0x189D165E EQ PUSH2 0x5A5 JUMPI DUP1 PUSH4 0x23B872DD EQ PUSH2 0x5C5 JUMPI PUSH1 0x0 DUP1 REVERT JUMPDEST DUP1 PUSH4 0x13191A6E GT PUSH2 0x3D8 JUMPI DUP1 PUSH4 0x13191A6E EQ PUSH2 0x4DE JUMPI DUP1 PUSH4 0x1567D567 EQ PUSH2 0x501 JUMPI DUP1 PUSH4 0x1598926E EQ PUSH2 0x517 JUMPI DUP1 PUSH4 0x16279055 EQ PUSH2 0x54F JUMPI PUSH1 0x0 DUP1 REVERT JUMPDEST DUP1 PUSH3 0x535169 EQ PUSH2 0x414 JUMPI DUP1 PUSH4 0x4DC1C4A EQ PUSH2 0x436 JUMPI DUP1 PUSH4 0x6FDDE03 EQ PUSH2 0x456 JUMPI DUP1 PUSH4 0x95EA7B3 EQ PUSH2 0x4AE JUMPI PUSH1 0x0 DUP1 REVERT JUMPDEST CALLDATASIZE PUSH2 0x40F JUMPI STOP JUMPDEST PUSH1 0x0 DUP1 REVERT JUMPDEST CALLVALUE DUP1 ISZERO PUSH2 0x420 JUMPI PUSH1 0x0 DUP1 REVERT JUMPDEST POP PUSH2 0x434 PUSH2 0x42F CALLDATASIZE PUSH1 0x4 PUSH2 0x2A41 JUMP JUMPDEST PUSH2 0xD03 JUMP JUMPDEST STOP JUMPDEST CALLVALUE DUP1 ISZERO PUSH2 0x442 JUMPI PUSH1 0x0 DUP1 REVERT JUMPDEST POP PUSH2 0x434 PUSH2 0x451 CALLDATASIZE PUSH1 0x4 PUSH2 0x2A5E JUMP JUMPDEST PUSH2 0xD52 JUMP JUMPDEST CALLVALUE DUP1 ISZERO PUSH2 0x462 JUMPI PUSH1 0x0 DUP1 REVERT JUMPDEST POP PUSH2 0x498 PUSH1 0x40 MLOAD DUP1 PUSH1 0x40 ADD PUSH1 0x40 MSTORE DUP1 PUSH1 0x16 DUP2 MSTORE PUSH1 0x20 ADD PUSH22 0x22BA3432B93730B6102637BA3A32B93C902A37B5B2B7 PUSH1 0x51 SHL DUP2 MSTORE POP DUP2 JUMP JUMPDEST PUSH1 0x40 MLOAD PUSH2 0x4A5 SWAP2 SWAP1 PUSH2 0x2ACF JUMP JUMPDEST PUSH1 0x40 MLOAD DUP1 SWAP2 SUB SWAP1 RETURN JUMPDEST CALLVALUE DUP1 ISZERO PUSH2 0x4BA JUMPI PUSH1 0x0 DUP1 REVERT JUMPDEST POP PUSH2 0x4CE PUSH2 0x4C9 CALLDATASIZE PUSH1 0x4 PUSH2 0x2AE2 JUMP JUMPDEST PUSH2 0xD83 JUMP JUMPDEST PUSH1 0x40 MLOAD SWAP1 ISZERO ISZERO DUP2 MSTORE PUSH1 0x20 ADD PUSH2 0x4A5 JUMP JUMPDEST CALLVALUE DUP1 ISZERO PUSH2 0x4EA JUMPI PUSH1 0x0 DUP1 REVERT JUMPDEST POP PUSH2 0x4F3 PUSH2 0xDF0 JUMP JUMPDEST PUSH1 0x40 MLOAD SWAP1 DUP2 MSTORE PUSH1 0x20 ADD PUSH2 0x4A5 JUMP JUMPDEST CALLVALUE DUP1 ISZERO PUSH2 0x50D JUMPI PUSH1 0x0 DUP1 REVERT JUMPDEST POP PUSH2 0x4F3 PUSH1 0x12 SLOAD DUP2 JUMP JUMPDEST CALLVALUE DUP1 ISZERO PUSH2 0x523 JUMPI PUSH1 0x0 DUP1 REVERT JUMPDEST POP PUSH1 0x6 SLOAD PUSH2 0x537 SWAP1 PUSH1 0x1 PUSH1 0x1 PUSH1 0xA0 SHL SUB AND DUP2 JUMP JUMPDEST PUSH1 0x40 MLOAD PUSH1 0x1 PUSH1 0x1 PUSH1 0xA0 SHL SUB SWAP1 SWAP2 AND DUP2 MSTORE PUSH1 0x20 ADD PUSH2 0x4A5 JUMP JUMPDEST CALLVALUE DUP1 ISZERO PUSH2 0x55B JUMPI PUSH1 0x0 DUP1 REVERT JUMPDEST POP PUSH2 0x4CE PUSH2 0x56A CALLDATASIZE PUSH1 0x4 PUSH2 0x2A41 JUMP JUMPDEST EXTCODESIZE ISZERO ISZERO SWAP1 JUMP JUMPDEST CALLVALUE DUP1 ISZERO PUSH2 0x57C JUMPI PUSH1 0x0 DUP1 REVERT JUMPDEST POP PUSH2 0x434 PUSH2 0x58B CALLDATASIZE PUSH1 0x4 PUSH2 0x2B0E JUMP JUMPDEST PUSH2 0xE35 JUMP JUMPDEST CALLVALUE DUP1 ISZERO PUSH2 0x59C JUMPI PUSH1 0x0 DUP1 REVERT JUMPDEST POP PUSH1 0x1B SLOAD PUSH2 0x4F3 JUMP JUMPDEST CALLVALUE DUP1 ISZERO PUSH2 0x5B1 JUMPI PUSH1 0x0 DUP1 REVERT JUMPDEST POP PUSH2 0x434 PUSH2 0x5C0 CALLDATASIZE PUSH1 0x4 PUSH2 0x2A5E JUMP JUMPDEST PUSH2 0xE8E JUMP JUMPDEST CALLVALUE DUP1 ISZERO PUSH2 0x5D1 JUMPI PUSH1 0x0 DUP1 REVERT JUMPDEST POP PUSH2 0x4CE PUSH2 0x5E0 CALLDATASIZE PUSH1 0x4 PUSH2 0x2B37 JUMP JUMPDEST PUSH2 0xECC JUMP JUMPDEST CALLVALUE DUP1 ISZERO PUSH2 0x5F1 JUMPI PUSH1 0x0 DUP1 REVERT JUMPDEST POP PUSH2 0x4F3 PUSH2 0x600 CALLDATASIZE PUSH1 0x4 PUSH2 0x2A5E JUMP JUMPDEST PUSH2 0x1156 JUMP JUMPDEST CALLVALUE DUP1 ISZERO PUSH2 0x611 JUMPI PUSH1 0x0 DUP1 REVERT JUMPDEST POP PUSH2 0x434 PUSH2 0x12DE JUMP JUMPDEST CALLVALUE DUP1 ISZERO PUSH2 0x626 JUMPI PUSH1 0x0 DUP1 REVERT JUMPDEST POP PUSH2 0x434 PUSH2 0x1471 JUMP JUMPDEST CALLVALUE DUP1 ISZERO PUSH2 0x63B JUMPI PUSH1 0x0 DUP1 REVERT JUMPDEST POP PUSH2 0x644 PUSH1 0x12 DUP2 JUMP JUMPDEST PUSH1 0x40 MLOAD PUSH1 0xFF SWAP1 SWAP2 AND DUP2 MSTORE PUSH1 0x20 ADD PUSH2 0x4A5 JUMP JUMPDEST CALLVALUE DUP1 ISZERO PUSH2 0x662 JUMPI PUSH1 0x0 DUP1 REVERT JUMPDEST POP PUSH1 0x3 SLOAD PUSH2 0x537 SWAP1 PUSH1 0x1 PUSH1 0x1 PUSH1 0xA0 SHL SUB AND DUP2 JUMP JUMPDEST CALLVALUE DUP1 ISZERO PUSH2 0x682 JUMPI PUSH1 0x0 DUP1 REVERT JUMPDEST POP PUSH2 0x4F3 PUSH1 0xF SLOAD DUP2 JUMP JUMPDEST CALLVALUE DUP1 ISZERO PUSH2 0x698 JUMPI PUSH1 0x0 DUP1 REVERT JUMPDEST POP PUSH2 0x434 PUSH2 0x6A7 CALLDATASIZE PUSH1 0x4 PUSH2 0x2A5E JUMP JUMPDEST PUSH2 0x14B2 JUMP JUMPDEST CALLVALUE DUP1 ISZERO PUSH2 0x6B8 JUMPI PUSH1 0x0 DUP1 REVERT JUMPDEST POP PUSH2 0x4F3 PUSH1 0x14 SLOAD DUP2 JUMP JUMPDEST CALLVALUE DUP1 ISZERO PUSH2 0x6CE JUMPI PUSH1 0x0 DUP1 REVERT JUMPDEST POP PUSH2 0x6D7 PUSH2 0x14F0 JUMP JUMPDEST PUSH1 0x40 DUP1 MLOAD SWAP5 DUP6 MSTORE PUSH1 0x20 DUP6 ADD SWAP4 SWAP1 SWAP4 MSTORE SWAP2 DUP4 ADD MSTORE PUSH1 0x60 DUP3 ADD MSTORE PUSH1 0x80 ADD PUSH2 0x4A5 JUMP JUMPDEST CALLVALUE DUP1 ISZERO PUSH2 0x703 JUMPI PUSH1 0x0 DUP1 REVERT JUMPDEST POP PUSH2 0x434 PUSH2 0x712 CALLDATASIZE PUSH1 0x4 PUSH2 0x2A5E JUMP JUMPDEST PUSH2 0x15FC JUMP JUMPDEST CALLVALUE DUP1 ISZERO PUSH2 0x723 JUMPI PUSH1 0x0 DUP1 REVERT JUMPDEST POP PUSH2 0x434 PUSH2 0x732 CALLDATASIZE PUSH1 0x4 PUSH2 0x2A41 JUMP JUMPDEST PUSH2 0x163B JUMP JUMPDEST CALLVALUE DUP1 ISZERO PUSH2 0x743 JUMPI PUSH1 0x0 DUP1 REVERT JUMPDEST POP PUSH2 0x4F3 PUSH1 0x23 SLOAD DUP2 JUMP JUMPDEST CALLVALUE DUP1 ISZERO PUSH2 0x759 JUMPI PUSH1 0x0 DUP1 REVERT JUMPDEST POP PUSH2 0x4CE PUSH2 0x768 CALLDATASIZE PUSH1 0x4 PUSH2 0x2A41 JUMP JUMPDEST PUSH1 0x20 DUP1 MSTORE PUSH1 0x0 SWAP1 DUP2 MSTORE PUSH1 0x40 SWAP1 KECCAK256 SLOAD PUSH1 0xFF AND DUP2 JUMP JUMPDEST CALLVALUE DUP1 ISZERO PUSH2 0x788 JUMPI PUSH1 0x0 DUP1 REVERT JUMPDEST POP PUSH2 0x4F3 PUSH1 0xE SLOAD DUP2 JUMP JUMPDEST CALLVALUE DUP1 ISZERO PUSH2 0x79E JUMPI PUSH1 0x0 DUP1 REVERT JUMPDEST POP PUSH2 0x434 PUSH2 0x7AD CALLDATASIZE PUSH1 0x4 PUSH2 0x2B86 JUMP JUMPDEST PUSH2 0x1687 JUMP JUMPDEST CALLVALUE DUP1 ISZERO PUSH2 0x7BE JUMPI PUSH1 0x0 DUP1 REVERT JUMPDEST POP PUSH2 0x4F3 PUSH1 0x10 SLOAD DUP2 JUMP JUMPDEST CALLVALUE DUP1 ISZERO PUSH2 0x7D4 JUMPI PUSH1 0x0 DUP1 REVERT JUMPDEST POP PUSH1 0x4 SLOAD PUSH2 0x537 SWAP1 PUSH1 0x1 PUSH1 0x1 PUSH1 0xA0 SHL SUB AND DUP2 JUMP JUMPDEST CALLVALUE DUP1 ISZERO PUSH2 0x7F4 JUMPI PUSH1 0x0 DUP1 REVERT JUMPDEST POP PUSH2 0x4F3 PUSH2 0x16C6 JUMP JUMPDEST CALLVALUE DUP1 ISZERO PUSH2 0x809 JUMPI PUSH1 0x0 DUP1 REVERT JUMPDEST POP PUSH2 0x434 PUSH2 0x818 CALLDATASIZE PUSH1 0x4 PUSH2 0x2B0E JUMP JUMPDEST PUSH2 0x1709 JUMP JUMPDEST CALLVALUE DUP1 ISZERO PUSH2 0x829 JUMPI PUSH1 0x0 DUP1 REVERT JUMPDEST POP PUSH2 0x4F3 PUSH1 0x22 SLOAD DUP2 JUMP JUMPDEST CALLVALUE DUP1 ISZERO PUSH2 0x83F JUMPI PUSH1 0x0 DUP1 REVERT JUMPDEST POP PUSH1 0xC SLOAD PUSH2 0x85A SWAP1 PUSH1 0x1 PUSH1 0x80 SHL SWAP1 DIV PUSH1 0x1 PUSH1 0x1 PUSH1 0x40 SHL SUB AND DUP2 JUMP JUMPDEST PUSH1 0x40 MLOAD PUSH1 0x1 PUSH1 0x1 PUSH1 0x40 SHL SUB SWAP1 SWAP2 AND DUP2 MSTORE PUSH1 0x20 ADD PUSH2 0x4A5 JUMP JUMPDEST CALLVALUE DUP1 ISZERO PUSH2 0x87E JUMPI PUSH1 0x0 DUP1 REVERT JUMPDEST POP PUSH2 0x4F3 PUSH1 0xD SLOAD DUP2 JUMP JUMPDEST CALLVALUE DUP1 ISZERO PUSH2 0x894 JUMPI PUSH1 0x0 DUP1 REVERT JUMPDEST POP PUSH2 0x4F3 PUSH2 0x8A3 CALLDATASIZE PUSH1 0x4 PUSH2 0x2A41 JUMP JUMPDEST PUSH1 0x1 PUSH1 0x1 PUSH1 0xA0 SHL SUB AND PUSH1 0x0 SWAP1 DUP2 MSTORE PUSH1 0x1C PUSH1 0x20 MSTORE PUSH1 0x40 SWAP1 KECCAK256 SLOAD SWAP1 JUMP JUMPDEST CALLVALUE DUP1 ISZERO PUSH2 0x8CA JUMPI PUSH1 0x0 DUP1 REVERT JUMPDEST POP PUSH2 0x434 PUSH2 0x8D9 CALLDATASIZE PUSH1 0x4 PUSH2 0x2A5E JUMP JUMPDEST PUSH2 0x175D JUMP JUMPDEST CALLVALUE DUP1 ISZERO PUSH2 0x8EA JUMPI PUSH1 0x0 DUP1 REVERT JUMPDEST POP PUSH1 0xC SLOAD PUSH2 0x85A SWAP1 PUSH1 0x1 PUSH1 0x1 PUSH1 0x40 SHL SUB AND DUP2 JUMP JUMPDEST CALLVALUE DUP1 ISZERO PUSH2 0x90A JUMPI PUSH1 0x0 DUP1 REVERT JUMPDEST POP PUSH2 0x4F3 PUSH1 0x7 SLOAD DUP2 JUMP JUMPDEST CALLVALUE DUP1 ISZERO PUSH2 0x920 JUMPI PUSH1 0x0 DUP1 REVERT JUMPDEST POP ADDRESS PUSH1 0x0 SWAP1 DUP2 MSTORE PUSH1 0x1C PUSH1 0x20 MSTORE PUSH1 0x40 SWAP1 KECCAK256 SLOAD PUSH2 0x4F3 JUMP JUMPDEST CALLVALUE DUP1 ISZERO PUSH2 0x942 JUMPI PUSH1 0x0 DUP1 REVERT JUMPDEST POP PUSH2 0x434 PUSH2 0x951 CALLDATASIZE PUSH1 0x4 PUSH2 0x2BA3 JUMP JUMPDEST PUSH2 0x179B JUMP JUMPDEST CALLVALUE DUP1 ISZERO PUSH2 0x962 JUMPI PUSH1 0x0 DUP1 REVERT JUMPDEST POP PUSH2 0x498 PUSH1 0x40 MLOAD DUP1 PUSH1 0x40 ADD PUSH1 0x40 MSTORE DUP1 PUSH1 0x8 DUP2 MSTORE PUSH1 0x20 ADD PUSH8 0x4554484C4F54544F PUSH1 0xC0 SHL DUP2 MSTORE POP DUP2 JUMP JUMPDEST CALLVALUE DUP1 ISZERO PUSH2 0x996 JUMPI PUSH1 0x0 DUP1 REVERT JUMPDEST POP PUSH2 0x4F3 PUSH2 0x1821 JUMP JUMPDEST CALLVALUE DUP1 ISZERO PUSH2 0x9AB JUMPI PUSH1 0x0 DUP1 REVERT JUMPDEST POP SELFBALANCE PUSH2 0x4F3 JUMP JUMPDEST CALLVALUE DUP1 ISZERO PUSH2 0x9BE JUMPI PUSH1 0x0 DUP1 REVERT JUMPDEST POP PUSH2 0x4CE PUSH2 0x9CD CALLDATASIZE PUSH1 0x4 PUSH2 0x2AE2 JUMP JUMPDEST PUSH2 0x1866 JUMP JUMPDEST CALLVALUE DUP1 ISZERO PUSH2 0x9DE JUMPI PUSH1 0x0 DUP1 REVERT JUMPDEST POP PUSH1 0xC SLOAD PUSH2 0x85A SWAP1 PUSH1 0x1 PUSH1 0xC0 SHL SWAP1 DIV PUSH1 0x1 PUSH1 0x1 PUSH1 0x40 SHL SUB AND DUP2 JUMP JUMPDEST CALLVALUE DUP1 ISZERO PUSH2 0xA05 JUMPI PUSH1 0x0 DUP1 REVERT JUMPDEST POP PUSH2 0x4F3 PUSH2 0x1A7C JUMP JUMPDEST CALLVALUE DUP1 ISZERO PUSH2 0xA1A JUMPI PUSH1 0x0 DUP1 REVERT JUMPDEST POP PUSH1 0x6 SLOAD PUSH2 0x4CE SWAP1 PUSH1 0x1 PUSH1 0xA0 SHL SWAP1 DIV PUSH1 0xFF AND DUP2 JUMP JUMPDEST CALLVALUE DUP1 ISZERO PUSH2 0xA3B JUMPI PUSH1 0x0 DUP1 REVERT JUMPDEST POP PUSH1 0x5 SLOAD PUSH2 0x537 SWAP1 PUSH1 0x1 PUSH1 0x1 PUSH1 0xA0 SHL SUB AND DUP2 JUMP JUMPDEST CALLVALUE DUP1 ISZERO PUSH2 0xA5B JUMPI PUSH1 0x0 DUP1 REVERT JUMPDEST POP PUSH2 0x4F3 PUSH1 0x19 SLOAD DUP2 JUMP JUMPDEST CALLVALUE DUP1 ISZERO PUSH2 0xA71 JUMPI PUSH1 0x0 DUP1 REVERT JUMPDEST POP PUSH2 0x4F3 PUSH1 0xA SLOAD DUP2 JUMP JUMPDEST CALLVALUE DUP1 ISZERO PUSH2 0xA87 JUMPI PUSH1 0x0 DUP1 REVERT JUMPDEST POP PUSH2 0x434 PUSH2 0x1B07 JUMP JUMPDEST CALLVALUE DUP1 ISZERO PUSH2 0xA9C JUMPI PUSH1 0x0 DUP1 REVERT JUMPDEST POP PUSH2 0x434 PUSH2 0xAAB CALLDATASIZE PUSH1 0x4 PUSH2 0x2A5E JUMP JUMPDEST PUSH2 0x1B42 JUMP JUMPDEST CALLVALUE DUP1 ISZERO PUSH2 0xABC JUMPI PUSH1 0x0 DUP1 REVERT JUMPDEST POP PUSH2 0x434 PUSH2 0xACB CALLDATASIZE PUSH1 0x4 PUSH2 0x2A5E JUMP JUMPDEST PUSH2 0x1B92 JUMP JUMPDEST CALLVALUE DUP1 ISZERO PUSH2 0xADC JUMPI PUSH1 0x0 DUP1 REVERT JUMPDEST POP PUSH2 0x434 PUSH2 0xAEB CALLDATASIZE PUSH1 0x4 PUSH2 0x2A5E JUMP JUMPDEST PUSH2 0x1C1A JUMP JUMPDEST CALLVALUE DUP1 ISZERO PUSH2 0xAFC JUMPI PUSH1 0x0 DUP1 REVERT JUMPDEST POP PUSH2 0x434 PUSH2 0xB0B CALLDATASIZE PUSH1 0x4 PUSH2 0x2A41 JUMP JUMPDEST PUSH2 0x1C92 JUMP JUMPDEST CALLVALUE DUP1 ISZERO PUSH2 0xB1C JUMPI PUSH1 0x0 DUP1 REVERT JUMPDEST POP PUSH2 0x4F3 PUSH1 0x15 SLOAD DUP2 JUMP JUMPDEST CALLVALUE DUP1 ISZERO PUSH2 0xB32 JUMPI PUSH1 0x0 DUP1 REVERT JUMPDEST POP PUSH1 0x17 SLOAD PUSH2 0x4CE SWAP1 PUSH1 0xFF AND DUP2 JUMP JUMPDEST CALLVALUE DUP1 ISZERO PUSH2 0xB4C JUMPI PUSH1 0x0 DUP1 REVERT JUMPDEST POP PUSH1 0x2 SLOAD PUSH2 0x537 SWAP1 PUSH1 0x1 PUSH1 0x1 PUSH1 0xA0 SHL SUB AND DUP2 JUMP JUMPDEST CALLVALUE DUP1 ISZERO PUSH2 0xB6C JUMPI PUSH1 0x0 DUP1 REVERT JUMPDEST POP PUSH2 0x434 PUSH2 0xB7B CALLDATASIZE PUSH1 0x4 PUSH2 0x2A41 JUMP JUMPDEST PUSH2 0x1CE0 JUMP JUMPDEST CALLVALUE DUP1 ISZERO PUSH2 0xB8C JUMPI PUSH1 0x0 DUP1 REVERT JUMPDEST POP PUSH2 0xBA0 PUSH2 0xB9B CALLDATASIZE PUSH1 0x4 PUSH2 0x2A5E JUMP JUMPDEST PUSH2 0x1D2E JUMP JUMPDEST PUSH1 0x40 DUP1 MLOAD SWAP5 DUP6 MSTORE PUSH1 0x1 PUSH1 0x1 PUSH1 0xA0 SHL SUB SWAP1 SWAP4 AND PUSH1 0x20 DUP6 ADD MSTORE SWAP2 DUP4 ADD MSTORE PUSH1 0x60 DUP3 ADD MSTORE PUSH1 0x80 ADD PUSH2 0x4A5 JUMP JUMPDEST CALLVALUE DUP1 ISZERO PUSH2 0xBD4 JUMPI PUSH1 0x0 DUP1 REVERT JUMPDEST POP PUSH2 0x4F3 PUSH1 0x9 SLOAD DUP2 JUMP JUMPDEST CALLVALUE DUP1 ISZERO PUSH2 0xBEA JUMPI PUSH1 0x0 DUP1 REVERT JUMPDEST POP PUSH2 0x4F3 PUSH2 0xBF9 CALLDATASIZE PUSH1 0x4 PUSH2 0x2BC5 JUMP JUMPDEST PUSH1 0x1 PUSH1 0x1 PUSH1 0xA0 SHL SUB SWAP2 DUP3 AND PUSH1 0x0 SWAP1 DUP2 MSTORE PUSH1 0x1F PUSH1 0x20 SWAP1 DUP2 MSTORE PUSH1 0x40 DUP1 DUP4 KECCAK256 SWAP4 SWAP1 SWAP5 AND DUP3 MSTORE SWAP2 SWAP1 SWAP2 MSTORE KECCAK256 SLOAD SWAP1 JUMP JUMPDEST CALLVALUE DUP1 ISZERO PUSH2 0xC30 JUMPI PUSH1 0x0 DUP1 REVERT JUMPDEST POP PUSH1 0xC SLOAD PUSH2 0x85A SWAP1 PUSH1 0x1 PUSH1 0x40 SHL SWAP1 DIV PUSH1 0x1 PUSH1 0x1 PUSH1 0x40 SHL SUB AND DUP2 JUMP JUMPDEST CALLVALUE DUP1 ISZERO PUSH2 0xC57 JUMPI PUSH1 0x0 DUP1 REVERT JUMPDEST POP PUSH2 0x4F3 PUSH1 0x11 SLOAD DUP2 JUMP JUMPDEST CALLVALUE DUP1 ISZERO PUSH2 0xC6D JUMPI PUSH1 0x0 DUP1 REVERT JUMPDEST POP PUSH2 0x4F3 PUSH1 0x8 SLOAD DUP2 JUMP JUMPDEST CALLVALUE DUP1 ISZERO PUSH2 0xC83 JUMPI PUSH1 0x0 DUP1 REVERT JUMPDEST POP PUSH2 0x4F3 PUSH1 0x16 SLOAD DUP2 JUMP JUMPDEST CALLVALUE DUP1 ISZERO PUSH2 0xC99 JUMPI PUSH1 0x0 DUP1 REVERT JUMPDEST POP PUSH2 0x434 PUSH2 0xCA8 CALLDATASIZE PUSH1 0x4 PUSH2 0x2A41 JUMP JUMPDEST PUSH2 0x1D71 JUMP JUMPDEST CALLVALUE DUP1 ISZERO PUSH2 0xCB9 JUMPI PUSH1 0x0 DUP1 REVERT JUMPDEST POP PUSH2 0x434 PUSH2 0xCC8 CALLDATASIZE PUSH1 0x4 PUSH2 0x2BFE JUMP JUMPDEST PUSH2 0x1DBF JUMP JUMPDEST CALLVALUE DUP1 ISZERO PUSH2 0xCD9 JUMPI PUSH1 0x0 DUP1 REVERT JUMPDEST POP PUSH2 0x434 PUSH2 0xCE8 CALLDATASIZE PUSH1 0x4 PUSH2 0x2A41 JUMP JUMPDEST PUSH2 0x20C6 JUMP JUMPDEST CALLVALUE DUP1 ISZERO PUSH2 0xCF9 JUMPI PUSH1 0x0 DUP1 REVERT JUMPDEST POP PUSH2 0x4F3 PUSH1 0x13 SLOAD DUP2 JUMP JUMPDEST PUSH1 0x2 SLOAD PUSH1 0x1 PUSH1 0x1 PUSH1 0xA0 SHL SUB AND CALLER EQ DUP1 PUSH2 0xD26 JUMPI POP PUSH1 0x3 SLOAD PUSH1 0x1 PUSH1 0x1 PUSH1 0xA0 SHL SUB AND CALLER EQ JUMPDEST PUSH2 0xD2F JUMPI PUSH1 0x0 DUP1 REVERT JUMPDEST PUSH1 0x1 PUSH1 0x1 PUSH1 0xA0 SHL SUB AND PUSH1 0x0 SWAP1 DUP2 MSTORE PUSH1 0x20 DUP1 MSTORE PUSH1 0x40 SWAP1 KECCAK256 DUP1 SLOAD PUSH1 0xFF NOT AND PUSH1 0x1 OR SWAP1 SSTORE JUMP JUMPDEST PUSH1 0x2 SLOAD PUSH1 0x1 PUSH1 0x1 PUSH1 0xA0 SHL SUB AND CALLER EQ DUP1 PUSH2 0xD75 JUMPI POP PUSH1 0x3 SLOAD PUSH1 0x1 PUSH1 0x1 PUSH1 0xA0 SHL SUB AND CALLER EQ JUMPDEST PUSH2 0xD7E JUMPI PUSH1 0x0 DUP1 REVERT JUMPDEST PUSH1 0x19 SSTORE JUMP JUMPDEST CALLER PUSH1 0x0 DUP2 DUP2 MSTORE PUSH1 0x1F PUSH1 0x20 SWAP1 DUP2 MSTORE PUSH1 0x40 DUP1 DUP4 KECCAK256 PUSH1 0x1 PUSH1 0x1 PUSH1 0xA0 SHL SUB DUP8 AND DUP1 DUP6 MSTORE SWAP3 MSTORE DUP1 DUP4 KECCAK256 DUP6 SWAP1 SSTORE MLOAD SWAP2 SWAP3 SWAP1 SWAP2 PUSH32 0x8C5BE1E5EBEC7D5BD14F71427D1E84F3DD0314C0F7B2291E5B200AC8C7C3B925 SWAP1 PUSH2 0xDDE SWAP1 DUP7 DUP2 MSTORE PUSH1 0x20 ADD SWAP1 JUMP JUMPDEST PUSH1 0x40 MLOAD DUP1 SWAP2 SUB SWAP1 LOG3 POP PUSH1 0x1 JUMPDEST SWAP3 SWAP2 POP POP JUMP JUMPDEST PUSH1 0xC SLOAD CALLER PUSH1 0x0 SWAP1 DUP2 MSTORE PUSH1 0x1E PUSH1 0x20 MSTORE PUSH1 0x40 DUP2 KECCAK256 SLOAD SWAP1 SWAP2 PUSH1 0x1 PUSH1 0x40 SHL SWAP1 DIV PUSH1 0x1 PUSH1 0x1 PUSH1 0x40 SHL SUB AND EQ ISZERO PUSH2 0xE2F JUMPI POP CALLER PUSH1 0x0 SWAP1 DUP2 MSTORE PUSH1 0x1D PUSH1 0x20 MSTORE PUSH1 0x40 SWAP1 KECCAK256 SLOAD SWAP1 JUMP JUMPDEST POP PUSH1 0x0 SWAP1 JUMP JUMPDEST PUSH1 0x2 SLOAD PUSH1 0x1 PUSH1 0x1 PUSH1 0xA0 SHL SUB AND CALLER EQ DUP1 PUSH2 0xE58 JUMPI POP PUSH1 0x3 SLOAD PUSH1 0x1 PUSH1 0x1 PUSH1 0xA0 SHL SUB AND CALLER EQ JUMPDEST PUSH2 0xE61 JUMPI PUSH1 0x0 DUP1 REVERT JUMPDEST PUSH1 0xC DUP1 SLOAD PUSH1 0x1 PUSH1 0x1 PUSH1 0x40 SHL SUB SWAP1 SWAP3 AND PUSH1 0x1 PUSH1 0x80 SHL MUL PUSH8 0xFFFFFFFFFFFFFFFF PUSH1 0x80 SHL NOT SWAP1 SWAP3 AND SWAP2 SWAP1 SWAP2 OR SWAP1 SSTORE JUMP JUMPDEST PUSH1 0x2 SLOAD PUSH1 0x1 PUSH1 0x1 PUSH1 0xA0 SHL SUB AND CALLER EQ DUP1 PUSH2 0xEB1 JUMPI POP PUSH1 0x3 SLOAD PUSH1 0x1 PUSH1 0x1 PUSH1 0xA0 SHL SUB AND CALLER EQ JUMPDEST PUSH2 0xEBA JUMPI PUSH1 0x0 DUP1 REVERT JUMPDEST PUSH1 0x64 DUP2 LT PUSH2 0xEC7 JUMPI PUSH1 0x0 DUP1 REVERT JUMPDEST PUSH1 0xA SSTORE JUMP JUMPDEST PUSH1 0x1 PUSH1 0x1 PUSH1 0xA0 SHL SUB DUP3 AND PUSH1 0x0 SWAP1 DUP2 MSTORE PUSH1 0x20 DUP1 MSTORE PUSH1 0x40 DUP2 KECCAK256 SLOAD DUP2 SWAP1 PUSH1 0xFF AND DUP1 PUSH2 0xF0B JUMPI POP PUSH1 0x1 PUSH1 0x1 PUSH1 0xA0 SHL SUB DUP6 AND PUSH1 0x0 SWAP1 DUP2 MSTORE PUSH1 0x20 DUP1 MSTORE PUSH1 0x40 SWAP1 KECCAK256 SLOAD PUSH1 0xFF AND JUMPDEST ISZERO PUSH2 0xF18 JUMPI POP PUSH1 0x0 PUSH2 0xF35 JUMP JUMPDEST PUSH1 0x64 PUSH1 0xD SLOAD DUP5 PUSH2 0xF28 SWAP2 SWAP1 PUSH2 0x2C3A JUMP JUMPDEST PUSH2 0xF32 SWAP2 SWAP1 PUSH2 0x2C6F JUMP JUMPDEST SWAP1 POP JUMPDEST PUSH1 0x0 PUSH2 0xF41 DUP3 DUP6 PUSH2 0x2C83 JUMP JUMPDEST PUSH1 0x6 SLOAD SWAP1 SWAP2 POP PUSH1 0x1 PUSH1 0xA0 SHL SWAP1 DIV PUSH1 0xFF AND ISZERO PUSH2 0xFD5 JUMPI PUSH1 0x1 PUSH1 0x1 PUSH1 0xA0 SHL SUB DUP6 AND PUSH1 0x0 SWAP1 DUP2 MSTORE PUSH1 0x20 DUP1 MSTORE PUSH1 0x40 SWAP1 KECCAK256 SLOAD PUSH1 0xFF AND DUP1 PUSH2 0xF93 JUMPI POP PUSH1 0x1 PUSH1 0x1 PUSH1 0xA0 SHL SUB DUP7 AND PUSH1 0x0 SWAP1 DUP2 MSTORE PUSH1 0x20 DUP1 MSTORE PUSH1 0x40 SWAP1 KECCAK256 SLOAD PUSH1 0xFF AND JUMPDEST PUSH2 0xFD5 JUMPI PUSH1 0x40 MLOAD PUSH3 0x461BCD PUSH1 0xE5 SHL DUP2 MSTORE PUSH1 0x20 PUSH1 0x4 DUP3 ADD MSTORE PUSH1 0xE PUSH1 0x24 DUP3 ADD MSTORE PUSH14 0x151C98591A5B99C814185D5CD959 PUSH1 0x92 SHL PUSH1 0x44 DUP3 ADD MSTORE PUSH1 0x64 ADD JUMPDEST PUSH1 0x40 MLOAD DUP1 SWAP2 SUB SWAP1 REVERT JUMPDEST PUSH1 0x1 PUSH1 0x1 PUSH1 0xA0 SHL SUB DUP7 AND PUSH1 0x0 SWAP1 DUP2 MSTORE PUSH1 0x1F PUSH1 0x20 SWAP1 DUP2 MSTORE PUSH1 0x40 DUP1 DUP4 KECCAK256 CALLER DUP5 MSTORE SWAP1 SWAP2 MSTORE SWAP1 KECCAK256 SLOAD ISZERO DUP1 ISZERO SWAP1 PUSH2 0x1007 JUMPI POP PUSH1 0x0 DUP5 GT JUMPDEST DUP1 ISZERO PUSH2 0x1036 JUMPI POP PUSH1 0x1 PUSH1 0x1 PUSH1 0xA0 SHL SUB DUP7 AND PUSH1 0x0 SWAP1 DUP2 MSTORE PUSH1 0x1F PUSH1 0x20 SWAP1 DUP2 MSTORE PUSH1 0x40 DUP1 DUP4 KECCAK256 CALLER DUP5 MSTORE SWAP1 SWAP2 MSTORE SWAP1 KECCAK256 SLOAD DUP5 GT ISZERO JUMPDEST ISZERO PUSH2 0x1148 JUMPI PUSH1 0x1 PUSH1 0x1 PUSH1 0xA0 SHL SUB DUP7 AND PUSH1 0x0 SWAP1 DUP2 MSTORE PUSH1 0x1C PUSH1 0x20 MSTORE PUSH1 0x40 DUP2 KECCAK256 DUP1 SLOAD DUP7 SWAP3 SWAP1 PUSH2 0x1063 SWAP1 DUP5 SWAP1 PUSH2 0x2C83 JUMP JUMPDEST SWAP1 SWAP2 SSTORE POP POP PUSH1 0x1 PUSH1 0x1 PUSH1 0xA0 SHL SUB DUP6 AND PUSH1 0x0 SWAP1 DUP2 MSTORE PUSH1 0x1C PUSH1 0x20 MSTORE PUSH1 0x40 DUP2 KECCAK256 DUP1 SLOAD DUP4 SWAP3 SWAP1 PUSH2 0x1090 SWAP1 DUP5 SWAP1 PUSH2 0x2C9A JUMP JUMPDEST SWAP3 POP POP DUP2 SWAP1 SSTORE POP DUP5 PUSH1 0x1 PUSH1 0x1 PUSH1 0xA0 SHL SUB AND DUP7 PUSH1 0x1 PUSH1 0x1 PUSH1 0xA0 SHL SUB AND PUSH32 0xDDF252AD1BE2C89B69C2B068FC378DAA952BA7F163C4A11628F55A4DF523B3EF DUP4 PUSH1 0x40 MLOAD PUSH2 0x10DC SWAP2 DUP2 MSTORE PUSH1 0x20 ADD SWAP1 JUMP JUMPDEST PUSH1 0x40 MLOAD DUP1 SWAP2 SUB SWAP1 LOG3 PUSH1 0x0 PUSH1 0x64 PUSH1 0xA SLOAD DUP5 PUSH2 0x10F6 SWAP2 SWAP1 PUSH2 0x2C3A JUMP JUMPDEST PUSH2 0x1100 SWAP2 SWAP1 PUSH2 0x2C6F JUMP JUMPDEST SWAP1 POP PUSH2 0x110C DUP2 DUP5 PUSH2 0x2C83 JUMP JUMPDEST PUSH1 0x8 PUSH1 0x0 DUP3 DUP3 SLOAD PUSH2 0x111D SWAP2 SWAP1 PUSH2 0x2C9A JUMP JUMPDEST SWAP3 POP POP DUP2 SWAP1 SSTORE POP DUP1 PUSH1 0x1B PUSH1 0x0 DUP3 DUP3 SLOAD PUSH2 0x1136 SWAP2 SWAP1 PUSH2 0x2C83 JUMP JUMPDEST SWAP1 SWAP2 SSTORE POP PUSH1 0x1 SWAP5 POP PUSH2 0x114F SWAP4 POP POP POP POP JUMP JUMPDEST PUSH1 0x0 SWAP3 POP POP POP JUMPDEST SWAP4 SWAP3 POP POP POP JUMP JUMPDEST PUSH1 0x40 DUP1 MLOAD PUSH1 0x2 DUP1 DUP3 MSTORE PUSH1 0x60 DUP3 ADD DUP4 MSTORE PUSH1 0x0 SWAP3 DUP4 SWAP3 SWAP2 SWAP1 PUSH1 0x20 DUP4 ADD SWAP1 DUP1 CALLDATASIZE DUP4 CALLDATACOPY POP POP PUSH1 0x1 SLOAD PUSH1 0x40 DUP1 MLOAD PUSH4 0x15AB88C9 PUSH1 0xE3 SHL DUP2 MSTORE SWAP1 MLOAD SWAP4 SWAP5 POP PUSH1 0x1 PUSH1 0x1 PUSH1 0xA0 SHL SUB SWAP1 SWAP2 AND SWAP3 PUSH4 0xAD5C4648 SWAP3 POP PUSH1 0x4 DUP1 DUP4 ADD SWAP3 PUSH1 0x20 SWAP3 SWAP2 SWAP1 DUP3 SWAP1 SUB ADD DUP2 DUP7 GAS STATICCALL ISZERO DUP1 ISZERO PUSH2 0x11C4 JUMPI RETURNDATASIZE PUSH1 0x0 DUP1 RETURNDATACOPY RETURNDATASIZE PUSH1 0x0 REVERT JUMPDEST POP POP POP POP PUSH1 0x40 MLOAD RETURNDATASIZE PUSH1 0x1F NOT PUSH1 0x1F DUP3 ADD AND DUP3 ADD DUP1 PUSH1 0x40 MSTORE POP DUP2 ADD SWAP1 PUSH2 0x11E8 SWAP2 SWAP1 PUSH2 0x2CC8 JUMP JUMPDEST DUP2 PUSH1 0x0 DUP2 MLOAD DUP2 LT PUSH2 0x11FB JUMPI PUSH2 0x11FB PUSH2 0x2CE5 JUMP JUMPDEST PUSH1 0x20 MUL PUSH1 0x20 ADD ADD SWAP1 PUSH1 0x1 PUSH1 0x1 PUSH1 0xA0 SHL SUB AND SWAP1 DUP2 PUSH1 0x1 PUSH1 0x1 PUSH1 0xA0 SHL SUB AND DUP2 MSTORE POP POP ADDRESS DUP2 PUSH1 0x1 DUP2 MLOAD DUP2 LT PUSH2 0x122F JUMPI PUSH2 0x122F PUSH2 0x2CE5 JUMP JUMPDEST PUSH1 0x1 PUSH1 0x1 PUSH1 0xA0 SHL SUB SWAP3 DUP4 AND PUSH1 0x20 SWAP2 DUP3 MUL SWAP3 SWAP1 SWAP3 ADD ADD MSTORE PUSH1 0x1 SLOAD PUSH1 0x40 MLOAD PUSH4 0xD06CA61F PUSH1 0xE0 SHL DUP2 MSTORE PUSH1 0x0 SWAP3 SWAP2 SWAP1 SWAP2 AND SWAP1 PUSH4 0xD06CA61F SWAP1 PUSH2 0x1273 SWAP1 DUP8 SWAP1 DUP7 SWAP1 PUSH1 0x4 ADD PUSH2 0x2D3F JUMP JUMPDEST PUSH1 0x0 PUSH1 0x40 MLOAD DUP1 DUP4 SUB DUP2 DUP7 GAS STATICCALL ISZERO DUP1 ISZERO PUSH2 0x1290 JUMPI RETURNDATASIZE PUSH1 0x0 DUP1 RETURNDATACOPY RETURNDATASIZE PUSH1 0x0 REVERT JUMPDEST POP POP POP POP PUSH1 0x40 MLOAD RETURNDATASIZE PUSH1 0x0 DUP3 RETURNDATACOPY PUSH1 0x1F RETURNDATASIZE SWAP1 DUP2 ADD PUSH1 0x1F NOT AND DUP3 ADD PUSH1 0x40 MSTORE PUSH2 0x12B8 SWAP2 SWAP1 DUP2 ADD SWAP1 PUSH2 0x2D58 JUMP JUMPDEST SWAP1 POP DUP1 PUSH1 0x1 DUP2 MLOAD DUP2 LT PUSH2 0x12CD JUMPI PUSH2 0x12CD PUSH2 0x2CE5 JUMP JUMPDEST PUSH1 0x20 MUL PUSH1 0x20 ADD ADD MLOAD SWAP3 POP POP POP SWAP2 SWAP1 POP JUMP JUMPDEST PUSH1 0x15 SLOAD PUSH1 0x8 SLOAD LT PUSH2 0x1363 JUMPI PUSH1 0x8 DUP1 SLOAD PUSH1 0x0 SWAP2 DUP3 SWAP1 SSTORE ADDRESS DUP3 MSTORE PUSH1 0x1C PUSH1 0x20 MSTORE PUSH1 0x40 DUP3 KECCAK256 DUP1 SLOAD SWAP2 SWAP3 DUP4 SWAP3 PUSH2 0x1310 SWAP1 DUP5 SWAP1 PUSH2 0x2C9A JUMP JUMPDEST SWAP1 SWAP2 SSTORE POP PUSH2 0x131F SWAP1 POP DUP2 PUSH2 0x2114 JUMP JUMPDEST PUSH2 0x1361 JUMPI ADDRESS PUSH1 0x0 SWAP1 DUP2 MSTORE PUSH1 0x1C PUSH1 0x20 MSTORE PUSH1 0x40 DUP2 KECCAK256 DUP1 SLOAD DUP4 SWAP3 SWAP1 PUSH2 0x1342 SWAP1 DUP5 SWAP1 PUSH2 0x2C83 JUMP JUMPDEST SWAP3 POP POP DUP2 SWAP1 SSTORE POP DUP1 PUSH1 0x8 PUSH1 0x0 DUP3 DUP3 SLOAD PUSH2 0x135B SWAP2 SWAP1 PUSH2 0x2C9A JUMP JUMPDEST SWAP1 SWAP2 SSTORE POP POP JUMPDEST POP JUMPDEST SELFBALANCE PUSH2 0x2710 DUP2 GT ISZERO PUSH2 0x146E JUMPI PUSH1 0x16 SLOAD ISZERO PUSH2 0x13C2 JUMPI PUSH1 0x0 PUSH1 0x64 PUSH1 0x16 SLOAD DUP4 PUSH2 0x1388 SWAP2 SWAP1 PUSH2 0x2C3A JUMP JUMPDEST PUSH2 0x1392 SWAP2 SWAP1 PUSH2 0x2C6F JUMP JUMPDEST PUSH1 0x4 SLOAD PUSH1 0x5 SLOAD SWAP2 SWAP3 POP PUSH2 0x13B3 SWAP2 DUP4 SWAP2 PUSH1 0x1 PUSH1 0x1 PUSH1 0xA0 SHL SUB SWAP1 DUP2 AND SWAP2 AND PUSH2 0x232D JUMP JUMPDEST POP PUSH2 0x13BE DUP2 DUP4 PUSH2 0x2C83 JUMP JUMPDEST SWAP2 POP POP JUMPDEST PUSH1 0x3 SLOAD PUSH1 0x40 DUP1 MLOAD PUSH1 0x0 DUP1 DUP3 MSTORE PUSH1 0x20 DUP3 ADD SWAP3 DUP4 SWAP1 MSTORE SWAP3 PUSH1 0x1 PUSH1 0x1 PUSH1 0xA0 SHL SUB AND SWAP2 DUP5 SWAP2 PUSH2 0x13EC SWAP2 PUSH2 0x2E15 JUMP JUMPDEST PUSH1 0x0 PUSH1 0x40 MLOAD DUP1 DUP4 SUB DUP2 DUP6 DUP8 GAS CALL SWAP3 POP POP POP RETURNDATASIZE DUP1 PUSH1 0x0 DUP2 EQ PUSH2 0x1429 JUMPI PUSH1 0x40 MLOAD SWAP2 POP PUSH1 0x1F NOT PUSH1 0x3F RETURNDATASIZE ADD AND DUP3 ADD PUSH1 0x40 MSTORE RETURNDATASIZE DUP3 MSTORE RETURNDATASIZE PUSH1 0x0 PUSH1 0x20 DUP5 ADD RETURNDATACOPY PUSH2 0x142E JUMP JUMPDEST PUSH1 0x60 SWAP2 POP JUMPDEST POP POP PUSH1 0x9 DUP1 SLOAD PUSH1 0x0 SWAP2 DUP3 SWAP1 SSTORE PUSH1 0x3 SLOAD PUSH1 0x1 PUSH1 0x1 PUSH1 0xA0 SHL SUB AND DUP3 MSTORE PUSH1 0x1C PUSH1 0x20 MSTORE PUSH1 0x40 DUP3 KECCAK256 DUP1 SLOAD SWAP4 SWAP5 POP SWAP1 SWAP3 DUP4 SWAP3 SWAP1 PUSH2 0x1466 SWAP1 DUP5 SWAP1 PUSH2 0x2C9A JUMP JUMPDEST SWAP1 SWAP2 SSTORE POP POP POP POP JUMPDEST POP JUMP JUMPDEST PUSH1 0x2 SLOAD PUSH1 0x1 PUSH1 0x1 PUSH1 0xA0 SHL SUB AND CALLER EQ DUP1 PUSH2 0x1494 JUMPI POP PUSH1 0x3 SLOAD PUSH1 0x1 PUSH1 0x1 PUSH1 0xA0 SHL SUB AND CALLER EQ JUMPDEST PUSH2 0x149D JUMPI PUSH1 0x0 DUP1 REVERT JUMPDEST PUSH1 0x6 DUP1 SLOAD PUSH1 0xFF PUSH1 0xA0 SHL NOT AND PUSH1 0x1 PUSH1 0xA0 SHL OR SWAP1 SSTORE JUMP JUMPDEST PUSH1 0x2 SLOAD PUSH1 0x1 PUSH1 0x1 PUSH1 0xA0 SHL SUB AND CALLER EQ DUP1 PUSH2 0x14D5 JUMPI POP PUSH1 0x3 SLOAD PUSH1 0x1 PUSH1 0x1 PUSH1 0xA0 SHL SUB AND CALLER EQ JUMPDEST PUSH2 0x14DE JUMPI PUSH1 0x0 DUP1 REVERT JUMPDEST PUSH2 0x14EA DUP2 PUSH2 0xE10 PUSH2 0x2C3A JUMP JUMPDEST PUSH1 0x12 SSTORE POP JUMP JUMPDEST PUSH1 0x0 DUP1 PUSH1 0x0 DUP1 PUSH1 0x0 TIMESTAMP SWAP1 POP PUSH1 0x12 SLOAD PUSH1 0x13 SLOAD PUSH2 0x150B SWAP2 SWAP1 PUSH2 0x2C9A JUMP JUMPDEST DUP2 LT ISZERO PUSH2 0x15E4 JUMPI PUSH1 0x0 DUP2 PUSH1 0x12 SLOAD PUSH1 0x13 SLOAD PUSH2 0x1525 SWAP2 SWAP1 PUSH2 0x2C9A JUMP JUMPDEST PUSH2 0x152F SWAP2 SWAP1 PUSH2 0x2C83 JUMP JUMPDEST SWAP1 POP PUSH2 0x153E PUSH3 0x15180 DUP3 PUSH2 0x2C6F JUMP JUMPDEST SWAP6 POP PUSH2 0x154B DUP7 PUSH1 0x18 PUSH2 0x2C3A JUMP JUMPDEST PUSH2 0x1557 PUSH2 0xE10 DUP4 PUSH2 0x2C6F JUMP JUMPDEST PUSH2 0x1561 SWAP2 SWAP1 PUSH2 0x2C83 JUMP JUMPDEST SWAP5 POP PUSH2 0x156E DUP7 PUSH1 0x18 PUSH2 0x2C3A JUMP JUMPDEST PUSH2 0x1578 SWAP1 DUP7 PUSH2 0x2C9A JUMP JUMPDEST PUSH2 0x1583 SWAP1 PUSH1 0x3C PUSH2 0x2C3A JUMP JUMPDEST PUSH2 0x158E PUSH1 0x3C DUP4 PUSH2 0x2C6F JUMP JUMPDEST PUSH2 0x1598 SWAP2 SWAP1 PUSH2 0x2C83 JUMP JUMPDEST SWAP4 POP PUSH2 0x15A5 DUP5 PUSH1 0x3C PUSH2 0x2C3A JUMP JUMPDEST PUSH2 0x15B1 DUP7 PUSH2 0xE10 PUSH2 0x2C3A JUMP JUMPDEST PUSH2 0x15BE DUP9 PUSH3 0x15180 PUSH2 0x2C3A JUMP JUMPDEST PUSH2 0x15C8 SWAP1 DUP5 PUSH2 0x2C83 JUMP JUMPDEST PUSH2 0x15D2 SWAP2 SWAP1 PUSH2 0x2C83 JUMP JUMPDEST PUSH2 0x15DC SWAP2 SWAP1 PUSH2 0x2C83 JUMP JUMPDEST SWAP3 POP POP PUSH2 0x15F5 JUMP JUMPDEST PUSH1 0x0 SWAP5 POP PUSH1 0x0 SWAP4 POP PUSH1 0x0 SWAP3 POP PUSH1 0x0 SWAP2 POP JUMPDEST POP SWAP1 SWAP2 SWAP3 SWAP4 JUMP JUMPDEST PUSH1 0x2 SLOAD PUSH1 0x1 PUSH1 0x1 PUSH1 0xA0 SHL SUB AND CALLER EQ DUP1 PUSH2 0x161F JUMPI POP PUSH1 0x3 SLOAD PUSH1 0x1 PUSH1 0x1 PUSH1 0xA0 SHL SUB AND CALLER EQ JUMPDEST PUSH2 0x1628 JUMPI PUSH1 0x0 DUP1 REVERT JUMPDEST PUSH1 0x14 DUP2 GT ISZERO PUSH2 0x1636 JUMPI PUSH1 0x0 DUP1 REVERT JUMPDEST PUSH1 0xD SSTORE JUMP JUMPDEST PUSH1 0x2 SLOAD PUSH1 0x1 PUSH1 0x1 PUSH1 0xA0 SHL SUB AND CALLER EQ DUP1 PUSH2 0x165E JUMPI POP PUSH1 0x3 SLOAD PUSH1 0x1 PUSH1 0x1 PUSH1 0xA0 SHL SUB AND CALLER EQ JUMPDEST PUSH2 0x1667 JUMPI PUSH1 0x0 DUP1 REVERT JUMPDEST PUSH1 0x1 PUSH1 0x1 PUSH1 0xA0 SHL SUB AND PUSH1 0x0 SWAP1 DUP2 MSTORE PUSH1 0x20 DUP1 MSTORE PUSH1 0x40 SWAP1 KECCAK256 DUP1 SLOAD PUSH1 0xFF NOT AND SWAP1 SSTORE JUMP JUMPDEST PUSH1 0x2 SLOAD PUSH1 0x1 PUSH1 0x1 PUSH1 0xA0 SHL SUB AND CALLER EQ DUP1 PUSH2 0x16AA JUMPI POP PUSH1 0x3 SLOAD PUSH1 0x1 PUSH1 0x1 PUSH1 0xA0 SHL SUB AND CALLER EQ JUMPDEST PUSH2 0x16B3 JUMPI PUSH1 0x0 DUP1 REVERT JUMPDEST PUSH1 0x17 DUP1 SLOAD PUSH1 0xFF NOT AND SWAP2 ISZERO ISZERO SWAP2 SWAP1 SWAP2 OR SWAP1 SSTORE JUMP JUMPDEST PUSH1 0xC SLOAD PUSH1 0x0 SWAP1 PUSH1 0x1 PUSH1 0x1 PUSH1 0x40 SHL SUB AND ISZERO PUSH2 0xE2F JUMPI PUSH1 0xC SLOAD PUSH1 0x1 PUSH1 0x1 PUSH1 0x40 SHL SUB AND PUSH2 0x16EE PUSH2 0xDF0 JUMP JUMPDEST PUSH2 0x16FA SWAP1 PUSH2 0x2710 PUSH2 0x2C3A JUMP JUMPDEST PUSH2 0x1704 SWAP2 SWAP1 PUSH2 0x2C6F JUMP JUMPDEST SWAP1 POP SWAP1 JUMP JUMPDEST PUSH1 0x2 SLOAD PUSH1 0x1 PUSH1 0x1 PUSH1 0xA0 SHL SUB AND CALLER EQ DUP1 PUSH2 0x172C JUMPI POP PUSH1 0x3 SLOAD PUSH1 0x1 PUSH1 0x1 PUSH1 0xA0 SHL SUB AND CALLER EQ JUMPDEST PUSH2 0x1735 JUMPI PUSH1 0x0 DUP1 REVERT JUMPDEST PUSH1 0xC DUP1 SLOAD PUSH1 0x1 PUSH1 0x1 PUSH1 0x40 SHL SUB SWAP1 SWAP3 AND PUSH1 0x1 PUSH1 0xC0 SHL MUL PUSH1 0x1 PUSH1 0x1 PUSH1 0xC0 SHL SUB SWAP1 SWAP3 AND SWAP2 SWAP1 SWAP2 OR SWAP1 SSTORE JUMP JUMPDEST PUSH1 0x2 SLOAD PUSH1 0x1 PUSH1 0x1 PUSH1 0xA0 SHL SUB AND CALLER EQ DUP1 PUSH2 0x1780 JUMPI POP PUSH1 0x3 SLOAD PUSH1 0x1 PUSH1 0x1 PUSH1 0xA0 SHL SUB AND CALLER EQ JUMPDEST PUSH2 0x1789 JUMPI PUSH1 0x0 DUP1 REVERT JUMPDEST PUSH1 0x64 DUP2 LT PUSH2 0x1796 JUMPI PUSH1 0x0 DUP1 REVERT JUMPDEST PUSH1 0x16 SSTORE JUMP JUMPDEST CALLER PUSH1 0x1 PUSH1 0x1 PUSH1 0xA0 SHL SUB PUSH32 0x0 AND EQ PUSH2 0x1813 JUMPI PUSH1 0x40 MLOAD PUSH3 0x461BCD PUSH1 0xE5 SHL DUP2 MSTORE PUSH1 0x20 PUSH1 0x4 DUP3 ADD MSTORE PUSH1 0x1F PUSH1 0x24 DUP3 ADD MSTORE PUSH32 0x4F6E6C7920565246436F6F7264696E61746F722063616E2066756C66696C6C00 PUSH1 0x44 DUP3 ADD MSTORE PUSH1 0x64 ADD PUSH2 0xFCC JUMP JUMPDEST PUSH2 0x181D DUP3 DUP3 PUSH2 0x2492 JUMP JUMPDEST POP POP JUMP JUMPDEST PUSH1 0x12 SLOAD PUSH1 0x13 SLOAD PUSH1 0x0 SWAP2 TIMESTAMP SWAP2 PUSH2 0x1836 SWAP2 SWAP1 PUSH2 0x2C9A JUMP JUMPDEST DUP2 LT ISZERO PUSH2 0x185E JUMPI DUP1 PUSH1 0x12 SLOAD PUSH1 0x13 SLOAD PUSH2 0x184E SWAP2 SWAP1 PUSH2 0x2C9A JUMP JUMPDEST PUSH2 0x1858 SWAP2 SWAP1 PUSH2 0x2C83 JUMP JUMPDEST SWAP2 POP POP SWAP1 JUMP JUMPDEST PUSH1 0x0 SWAP2 POP POP SWAP1 JUMP JUMPDEST PUSH1 0x1 PUSH1 0x1 PUSH1 0xA0 SHL SUB DUP3 AND PUSH1 0x0 SWAP1 DUP2 MSTORE PUSH1 0x20 DUP1 MSTORE PUSH1 0x40 DUP2 KECCAK256 SLOAD DUP2 SWAP1 PUSH1 0xFF AND DUP1 PUSH2 0x189C JUMPI POP CALLER PUSH1 0x0 SWAP1 DUP2 MSTORE PUSH1 0x20 DUP1 MSTORE PUSH1 0x40 SWAP1 KECCAK256 SLOAD PUSH1 0xFF AND JUMPDEST ISZERO PUSH2 0x18A9 JUMPI POP PUSH1 0x0 PUSH2 0x18C6 JUMP JUMPDEST PUSH1 0x64 PUSH1 0xD SLOAD DUP5 PUSH2 0x18B9 SWAP2 SWAP1 PUSH2 0x2C3A JUMP JUMPDEST PUSH2 0x18C3 SWAP2 SWAP1 PUSH2 0x2C6F JUMP JUMPDEST SWAP1 POP JUMPDEST PUSH1 0x0 PUSH2 0x18D2 DUP3 DUP6 PUSH2 0x2C83 JUMP JUMPDEST PUSH1 0x6 SLOAD SWAP1 SWAP2 POP PUSH1 0x1 PUSH1 0xA0 SHL SWAP1 DIV PUSH1 0xFF AND ISZERO PUSH2 0x1958 JUMPI PUSH1 0x1 PUSH1 0x1 PUSH1 0xA0 SHL SUB DUP6 AND PUSH1 0x0 SWAP1 DUP2 MSTORE PUSH1 0x20 DUP1 MSTORE PUSH1 0x40 SWAP1 KECCAK256 SLOAD PUSH1 0xFF AND DUP1 PUSH2 0x191B JUMPI POP CALLER PUSH1 0x0 SWAP1 DUP2 MSTORE PUSH1 0x20 DUP1 MSTORE PUSH1 0x40 SWAP1 KECCAK256 SLOAD PUSH1 0xFF AND JUMPDEST PUSH2 0x1958 JUMPI PUSH1 0x40 MLOAD PUSH3 0x461BCD PUSH1 0xE5 SHL DUP2 MSTORE PUSH1 0x20 PUSH1 0x4 DUP3 ADD MSTORE PUSH1 0xE PUSH1 0x24 DUP3 ADD MSTORE PUSH14 0x151C98591A5B99C814185D5CD959 PUSH1 0x92 SHL PUSH1 0x44 DUP3 ADD MSTORE PUSH1 0x64 ADD PUSH2 0xFCC JUMP JUMPDEST PUSH1 0x0 DUP5 GT DUP1 ISZERO PUSH2 0x1977 JUMPI POP CALLER PUSH1 0x0 SWAP1 DUP2 MSTORE PUSH1 0x1C PUSH1 0x20 MSTORE PUSH1 0x40 SWAP1 KECCAK256 SLOAD DUP5 GT ISZERO JUMPDEST ISZERO PUSH2 0x1A71 JUMPI CALLER PUSH1 0x0 SWAP1 DUP2 MSTORE PUSH1 0x1C PUSH1 0x20 MSTORE PUSH1 0x40 DUP2 KECCAK256 DUP1 SLOAD DUP7 SWAP3 SWAP1 PUSH2 0x199B SWAP1 DUP5 SWAP1 PUSH2 0x2C83 JUMP JUMPDEST SWAP1 SWAP2 SSTORE POP POP PUSH1 0x1 PUSH1 0x1 PUSH1 0xA0 SHL SUB DUP6 AND PUSH1 0x0 SWAP1 DUP2 MSTORE PUSH1 0x1C PUSH1 0x20 MSTORE PUSH1 0x40 DUP2 KECCAK256 DUP1 SLOAD DUP4 SWAP3 SWAP1 PUSH2 0x19C8 SWAP1 DUP5 SWAP1 PUSH2 0x2C9A JUMP JUMPDEST SWAP1 SWAP2 SSTORE POP POP PUSH1 0x40 MLOAD DUP2 DUP2 MSTORE PUSH1 0x1 PUSH1 0x1 PUSH1 0xA0 SHL SUB DUP7 AND SWAP1 CALLER SWAP1 PUSH32 0xDDF252AD1BE2C89B69C2B068FC378DAA952BA7F163C4A11628F55A4DF523B3EF SWAP1 PUSH1 0x20 ADD PUSH1 0x40 MLOAD DUP1 SWAP2 SUB SWAP1 LOG3 PUSH1 0x0 PUSH1 0x64 PUSH1 0xA SLOAD DUP5 PUSH2 0x1A1F SWAP2 SWAP1 PUSH2 0x2C3A JUMP JUMPDEST PUSH2 0x1A29 SWAP2 SWAP1 PUSH2 0x2C6F JUMP JUMPDEST SWAP1 POP PUSH2 0x1A35 DUP2 DUP5 PUSH2 0x2C83 JUMP JUMPDEST PUSH1 0x8 PUSH1 0x0 DUP3 DUP3 SLOAD PUSH2 0x1A46 SWAP2 SWAP1 PUSH2 0x2C9A JUMP JUMPDEST SWAP3 POP POP DUP2 SWAP1 SSTORE POP DUP1 PUSH1 0x1B PUSH1 0x0 DUP3 DUP3 SLOAD PUSH2 0x1A5F SWAP2 SWAP1 PUSH2 0x2C83 JUMP JUMPDEST SWAP1 SWAP2 SSTORE POP PUSH1 0x1 SWAP5 POP PUSH2 0xDEA SWAP4 POP POP POP POP JUMP JUMPDEST POP PUSH1 0x0 SWAP5 SWAP4 POP POP POP POP JUMP JUMPDEST PUSH1 0x40 MLOAD PUSH4 0x70A08231 PUSH1 0xE0 SHL DUP2 MSTORE ADDRESS PUSH1 0x4 DUP3 ADD MSTORE PUSH1 0x0 SWAP1 PUSH32 0x0 PUSH1 0x1 PUSH1 0x1 PUSH1 0xA0 SHL SUB AND SWAP1 PUSH4 0x70A08231 SWAP1 PUSH1 0x24 ADD PUSH1 0x20 PUSH1 0x40 MLOAD DUP1 DUP4 SUB DUP2 DUP7 GAS STATICCALL ISZERO DUP1 ISZERO PUSH2 0x1AE3 JUMPI RETURNDATASIZE PUSH1 0x0 DUP1 RETURNDATACOPY RETURNDATASIZE PUSH1 0x0 REVERT JUMPDEST POP POP POP POP PUSH1 0x40 MLOAD RETURNDATASIZE PUSH1 0x1F NOT PUSH1 0x1F DUP3 ADD AND DUP3 ADD DUP1 PUSH1 0x40 MSTORE POP DUP2 ADD SWAP1 PUSH2 0x1704 SWAP2 SWAP1 PUSH2 0x2E31 JUMP JUMPDEST PUSH1 0x2 SLOAD PUSH1 0x1 PUSH1 0x1 PUSH1 0xA0 SHL SUB AND CALLER EQ DUP1 PUSH2 0x1B2A JUMPI POP PUSH1 0x3 SLOAD PUSH1 0x1 PUSH1 0x1 PUSH1 0xA0 SHL SUB AND CALLER EQ JUMPDEST PUSH2 0x1B33 JUMPI PUSH1 0x0 DUP1 REVERT JUMPDEST PUSH1 0x6 DUP1 SLOAD PUSH1 0xFF PUSH1 0xA0 SHL NOT AND SWAP1 SSTORE JUMP JUMPDEST PUSH1 0x2 SLOAD PUSH1 0x1 PUSH1 0x1 PUSH1 0xA0 SHL SUB AND CALLER EQ DUP1 PUSH2 0x1B65 JUMPI POP PUSH1 0x3 SLOAD PUSH1 0x1 PUSH1 0x1 PUSH1 0xA0 SHL SUB AND CALLER EQ JUMPDEST PUSH2 0x1B6E JUMPI PUSH1 0x0 DUP1 REVERT JUMPDEST DUP1 PUSH1 0x7B EQ ISZERO PUSH2 0x146E JUMPI PUSH1 0x17 SLOAD PUSH1 0xFF AND ISZERO PUSH2 0x1B8A JUMPI PUSH2 0x146E PUSH2 0x24B0 JUMP JUMPDEST PUSH2 0x181D PUSH2 0x25BC JUMP JUMPDEST PUSH1 0x2 SLOAD PUSH1 0x1 PUSH1 0x1 PUSH1 0xA0 SHL SUB AND CALLER EQ DUP1 PUSH2 0x1BB5 JUMPI POP PUSH1 0x3 SLOAD PUSH1 0x1 PUSH1 0x1 PUSH1 0xA0 SHL SUB AND CALLER EQ JUMPDEST PUSH2 0x1BBE JUMPI PUSH1 0x0 DUP1 REVERT JUMPDEST ADDRESS PUSH1 0x0 SWAP1 DUP2 MSTORE PUSH1 0x1C PUSH1 0x20 MSTORE PUSH1 0x40 SWAP1 KECCAK256 SLOAD DUP2 GT ISZERO PUSH2 0x1BDA JUMPI PUSH1 0x0 DUP1 REVERT JUMPDEST ADDRESS PUSH1 0x0 SWAP1 DUP2 MSTORE PUSH1 0x1C PUSH1 0x20 MSTORE PUSH1 0x40 DUP2 KECCAK256 DUP1 SLOAD DUP4 SWAP3 SWAP1 PUSH2 0x1BF9 SWAP1 DUP5 SWAP1 PUSH2 0x2C83 JUMP JUMPDEST SWAP3 POP POP DUP2 SWAP1 SSTORE POP DUP1 PUSH1 0xE PUSH1 0x0 DUP3 DUP3 SLOAD PUSH2 0x1C12 SWAP2 SWAP1 PUSH2 0x2C9A JUMP JUMPDEST SWAP1 SWAP2 SSTORE POP POP POP JUMP JUMPDEST PUSH1 0x2 SLOAD PUSH1 0x1 PUSH1 0x1 PUSH1 0xA0 SHL SUB AND CALLER EQ DUP1 PUSH2 0x1C3D JUMPI POP PUSH1 0x3 SLOAD PUSH1 0x1 PUSH1 0x1 PUSH1 0xA0 SHL SUB AND CALLER EQ JUMPDEST PUSH2 0x1C46 JUMPI PUSH1 0x0 DUP1 REVERT JUMPDEST PUSH2 0x1C52 PUSH1 0x12 PUSH1 0xA PUSH2 0x2F2E JUMP JUMPDEST PUSH2 0x1C5D SWAP1 PUSH1 0x64 PUSH2 0x2C3A JUMP JUMPDEST PUSH1 0x1B SLOAD PUSH2 0x1C6A SWAP2 SWAP1 PUSH2 0x2C6F JUMP JUMPDEST DUP2 GT ISZERO PUSH2 0x1C76 JUMPI PUSH1 0x0 DUP1 REVERT JUMPDEST PUSH2 0x1C82 PUSH1 0x12 PUSH1 0xA PUSH2 0x2F2E JUMP JUMPDEST PUSH2 0x1C8C SWAP1 DUP3 PUSH2 0x2C3A JUMP JUMPDEST PUSH1 0x11 SSTORE POP JUMP JUMPDEST PUSH1 0x2 SLOAD PUSH1 0x1 PUSH1 0x1 PUSH1 0xA0 SHL SUB AND CALLER EQ DUP1 PUSH2 0x1CB5 JUMPI POP PUSH1 0x3 SLOAD PUSH1 0x1 PUSH1 0x1 PUSH1 0xA0 SHL SUB AND CALLER EQ JUMPDEST PUSH2 0x1CBE JUMPI PUSH1 0x0 DUP1 REVERT JUMPDEST PUSH1 0x3 DUP1 SLOAD PUSH1 0x1 PUSH1 0x1 PUSH1 0xA0 SHL SUB NOT AND PUSH1 0x1 PUSH1 0x1 PUSH1 0xA0 SHL SUB SWAP3 SWAP1 SWAP3 AND SWAP2 SWAP1 SWAP2 OR SWAP1 SSTORE JUMP JUMPDEST PUSH1 0x2 SLOAD PUSH1 0x1 PUSH1 0x1 PUSH1 0xA0 SHL SUB AND CALLER EQ DUP1 PUSH2 0x1D03 JUMPI POP PUSH1 0x3 SLOAD PUSH1 0x1 PUSH1 0x1 PUSH1 0xA0 SHL SUB AND CALLER EQ JUMPDEST PUSH2 0x1D0C JUMPI PUSH1 0x0 DUP1 REVERT JUMPDEST PUSH1 0x2 DUP1 SLOAD PUSH1 0x1 PUSH1 0x1 PUSH1 0xA0 SHL SUB NOT AND PUSH1 0x1 PUSH1 0x1 PUSH1 0xA0 SHL SUB SWAP3 SWAP1 SWAP3 AND SWAP2 SWAP1 SWAP2 OR SWAP1 SSTORE JUMP JUMPDEST PUSH1 0x1A DUP2 DUP2 SLOAD DUP2 LT PUSH2 0x1D3E JUMPI PUSH1 0x0 DUP1 REVERT JUMPDEST PUSH1 0x0 SWAP2 DUP3 MSTORE PUSH1 0x20 SWAP1 SWAP2 KECCAK256 PUSH1 0x4 SWAP1 SWAP2 MUL ADD DUP1 SLOAD PUSH1 0x1 DUP3 ADD SLOAD PUSH1 0x2 DUP4 ADD SLOAD PUSH1 0x3 SWAP1 SWAP4 ADD SLOAD SWAP2 SWAP4 POP PUSH1 0x1 PUSH1 0x1 PUSH1 0xA0 SHL SUB AND SWAP2 SWAP1 DUP5 JUMP JUMPDEST PUSH1 0x2 SLOAD PUSH1 0x1 PUSH1 0x1 PUSH1 0xA0 SHL SUB AND CALLER EQ DUP1 PUSH2 0x1D94 JUMPI POP PUSH1 0x3 SLOAD PUSH1 0x1 PUSH1 0x1 PUSH1 0xA0 SHL SUB AND CALLER EQ JUMPDEST PUSH2 0x1D9D JUMPI PUSH1 0x0 DUP1 REVERT JUMPDEST PUSH1 0x4 DUP1 SLOAD PUSH1 0x1 PUSH1 0x1 PUSH1 0xA0 SHL SUB NOT AND PUSH1 0x1 PUSH1 0x1 PUSH1 0xA0 SHL SUB SWAP3 SWAP1 SWAP3 AND SWAP2 SWAP1 SWAP2 OR SWAP1 SSTORE JUMP JUMPDEST PUSH1 0x10 SLOAD CALLER SWAP1 PUSH1 0x0 SWAP1 PUSH2 0x1DD7 SWAP1 PUSH4 0xFFFFFFFF DUP6 AND PUSH2 0x2C3A JUMP JUMPDEST PUSH1 0x1 PUSH1 0x1 PUSH1 0xA0 SHL SUB DUP4 AND PUSH1 0x0 SWAP1 DUP2 MSTORE PUSH1 0x1C PUSH1 0x20 MSTORE PUSH1 0x40 SWAP1 KECCAK256 SLOAD SWAP1 SWAP2 POP DUP2 GT ISZERO PUSH2 0x1E39 JUMPI PUSH1 0x40 MLOAD PUSH3 0x461BCD PUSH1 0xE5 SHL DUP2 MSTORE PUSH1 0x20 PUSH1 0x4 DUP3 ADD MSTORE PUSH1 0x14 PUSH1 0x24 DUP3 ADD MSTORE PUSH20 0x496E73756666696369656E742042616C616E6365 PUSH1 0x60 SHL PUSH1 0x44 DUP3 ADD MSTORE PUSH1 0x64 ADD PUSH2 0xFCC JUMP JUMPDEST PUSH1 0x1 PUSH1 0x1 PUSH1 0xA0 SHL SUB DUP3 AND PUSH1 0x0 SWAP1 DUP2 MSTORE PUSH1 0x1C PUSH1 0x20 MSTORE PUSH1 0x40 DUP2 KECCAK256 DUP1 SLOAD DUP4 SWAP3 SWAP1 PUSH2 0x1E61 SWAP1 DUP5 SWAP1 PUSH2 0x2C83 JUMP JUMPDEST SWAP1 SWAP2 SSTORE POP POP PUSH1 0xC SLOAD PUSH1 0x1 PUSH1 0x1 PUSH1 0xA0 SHL SUB DUP4 AND PUSH1 0x0 SWAP1 DUP2 MSTORE PUSH1 0x1E PUSH1 0x20 MSTORE PUSH1 0x40 SWAP1 KECCAK256 SLOAD PUSH1 0x1 PUSH1 0x40 SHL SWAP1 SWAP2 DIV PUSH1 0x1 PUSH1 0x1 PUSH1 0x40 SHL SUB AND GT ISZERO PUSH2 0x1EDE JUMPI PUSH1 0xC SLOAD PUSH1 0x1 PUSH1 0x1 PUSH1 0xA0 SHL SUB DUP4 AND PUSH1 0x0 SWAP1 DUP2 MSTORE PUSH1 0x1E PUSH1 0x20 SWAP1 DUP2 MSTORE PUSH1 0x40 DUP1 DUP4 KECCAK256 PUSH1 0x1 PUSH1 0x40 SHL SWAP1 SWAP5 DIV PUSH1 0x1 PUSH1 0x1 PUSH1 0x40 SHL SUB AND SWAP1 SWAP4 SSTORE PUSH1 0x1D SWAP1 MSTORE KECCAK256 PUSH4 0xFFFFFFFF DUP5 AND SWAP1 SSTORE PUSH2 0x1F12 JUMP JUMPDEST PUSH1 0x1 PUSH1 0x1 PUSH1 0xA0 SHL SUB DUP3 AND PUSH1 0x0 SWAP1 DUP2 MSTORE PUSH1 0x1D PUSH1 0x20 MSTORE PUSH1 0x40 DUP2 KECCAK256 DUP1 SLOAD PUSH4 0xFFFFFFFF DUP7 AND SWAP3 SWAP1 PUSH2 0x1F0C SWAP1 DUP5 SWAP1 PUSH2 0x2C9A JUMP JUMPDEST SWAP1 SWAP2 SSTORE POP POP JUMPDEST PUSH1 0x64 PUSH2 0x1F1F DUP3 PUSH1 0x3 PUSH2 0x2C3A JUMP JUMPDEST PUSH2 0x1F29 SWAP2 SWAP1 PUSH2 0x2C6F JUMP JUMPDEST PUSH1 0x7 PUSH1 0x0 DUP3 DUP3 SLOAD PUSH2 0x1F3A SWAP2 SWAP1 PUSH2 0x2C9A JUMP JUMPDEST SWAP1 SWAP2 SSTORE POP PUSH1 0x64 SWAP1 POP PUSH2 0x1F4D DUP3 PUSH1 0x5 PUSH2 0x2C3A JUMP JUMPDEST PUSH2 0x1F57 SWAP2 SWAP1 PUSH2 0x2C6F JUMP JUMPDEST PUSH1 0x8 PUSH1 0x0 DUP3 DUP3 SLOAD PUSH2 0x1F68 SWAP2 SWAP1 PUSH2 0x2C9A JUMP JUMPDEST SWAP1 SWAP2 SSTORE POP PUSH1 0x64 SWAP1 POP PUSH2 0x1F7B DUP3 PUSH1 0x2 PUSH2 0x2C3A JUMP JUMPDEST PUSH2 0x1F85 SWAP2 SWAP1 PUSH2 0x2C6F JUMP JUMPDEST PUSH1 0x9 PUSH1 0x0 DUP3 DUP3 SLOAD PUSH2 0x1F96 SWAP2 SWAP1 PUSH2 0x2C9A JUMP JUMPDEST SWAP1 SWAP2 SSTORE POP PUSH1 0x64 SWAP1 POP PUSH2 0x1FA9 DUP3 PUSH1 0x5A PUSH2 0x2C3A JUMP JUMPDEST PUSH2 0x1FB3 SWAP2 SWAP1 PUSH2 0x2C6F JUMP JUMPDEST PUSH1 0xE PUSH1 0x0 DUP3 DUP3 SLOAD PUSH2 0x1FC4 SWAP2 SWAP1 PUSH2 0x2C9A JUMP JUMPDEST SWAP1 SWAP2 SSTORE POP PUSH1 0x0 SWAP1 POP JUMPDEST DUP4 PUSH4 0xFFFFFFFF AND DUP2 PUSH4 0xFFFFFFFF AND LT ISZERO PUSH2 0x205F JUMPI PUSH1 0xC DUP1 SLOAD PUSH1 0x1 PUSH1 0x1 PUSH1 0x40 SHL SUB SWAP1 DUP2 AND PUSH1 0x0 SWAP1 DUP2 MSTORE PUSH1 0xB PUSH1 0x20 MSTORE PUSH1 0x40 DUP2 KECCAK256 DUP1 SLOAD PUSH1 0x1 PUSH1 0x1 PUSH1 0xA0 SHL SUB NOT AND PUSH1 0x1 PUSH1 0x1 PUSH1 0xA0 SHL SUB DUP9 AND OR SWAP1 SSTORE DUP3 SLOAD SWAP1 SWAP2 AND SWAP2 SWAP1 PUSH2 0x2027 DUP4 PUSH2 0x2F3D JUMP JUMPDEST SWAP2 SWAP1 PUSH2 0x100 EXP DUP2 SLOAD DUP2 PUSH1 0x1 PUSH1 0x1 PUSH1 0x40 SHL SUB MUL NOT AND SWAP1 DUP4 PUSH1 0x1 PUSH1 0x1 PUSH1 0x40 SHL SUB AND MUL OR SWAP1 SSTORE POP POP DUP1 DUP1 PUSH2 0x2057 SWAP1 PUSH2 0x2F64 JUMP JUMPDEST SWAP2 POP POP PUSH2 0x1FCD JUMP JUMPDEST POP PUSH1 0xC SLOAD PUSH1 0x1 PUSH1 0x1 PUSH1 0x40 SHL SUB PUSH1 0x1 PUSH1 0x80 SHL DUP3 DIV DUP2 AND SWAP2 AND LT DUP1 ISZERO SWAP1 PUSH2 0x2089 JUMPI POP PUSH2 0x2087 PUSH2 0x1821 JUMP JUMPDEST ISZERO JUMPDEST ISZERO PUSH2 0x20BE JUMPI PUSH1 0x17 SLOAD PUSH1 0xFF AND ISZERO PUSH2 0x20AB JUMPI PUSH1 0x24 SLOAD PUSH1 0xFF AND PUSH2 0x20B0 JUMPI PUSH2 0x20AB PUSH2 0x24B0 JUMP JUMPDEST POP POP POP JUMP JUMPDEST PUSH2 0x20B8 PUSH2 0x25BC JUMP JUMPDEST POP POP POP POP JUMP JUMPDEST PUSH2 0x20AB PUSH2 0x12DE JUMP JUMPDEST PUSH1 0x2 SLOAD PUSH1 0x1 PUSH1 0x1 PUSH1 0xA0 SHL SUB AND CALLER EQ DUP1 PUSH2 0x20E9 JUMPI POP PUSH1 0x3 SLOAD PUSH1 0x1 PUSH1 0x1 PUSH1 0xA0 SHL SUB AND CALLER EQ JUMPDEST PUSH2 0x20F2 JUMPI PUSH1 0x0 DUP1 REVERT JUMPDEST PUSH1 0x5 DUP1 SLOAD PUSH1 0x1 PUSH1 0x1 PUSH1 0xA0 SHL SUB NOT AND PUSH1 0x1 PUSH1 0x1 PUSH1 0xA0 SHL SUB SWAP3 SWAP1 SWAP3 AND SWAP2 SWAP1 SWAP2 OR SWAP1 SSTORE JUMP JUMPDEST PUSH1 0x0 DUP2 ISZERO PUSH2 0x2325 JUMPI PUSH1 0x1 SLOAD PUSH2 0x2134 SWAP1 ADDRESS SWAP1 PUSH1 0x1 PUSH1 0x1 PUSH1 0xA0 SHL SUB AND DUP5 PUSH2 0x2789 JUMP JUMPDEST POP PUSH1 0x40 DUP1 MLOAD PUSH1 0x2 DUP1 DUP3 MSTORE PUSH1 0x60 DUP3 ADD DUP4 MSTORE PUSH1 0x0 SWAP3 PUSH1 0x20 DUP4 ADD SWAP1 DUP1 CALLDATASIZE DUP4 CALLDATACOPY ADD SWAP1 POP POP SWAP1 POP ADDRESS DUP2 PUSH1 0x0 DUP2 MLOAD DUP2 LT PUSH2 0x216A JUMPI PUSH2 0x216A PUSH2 0x2CE5 JUMP JUMPDEST PUSH1 0x1 PUSH1 0x1 PUSH1 0xA0 SHL SUB SWAP3 DUP4 AND PUSH1 0x20 SWAP2 DUP3 MUL SWAP3 SWAP1 SWAP3 ADD DUP2 ADD SWAP2 SWAP1 SWAP2 MSTORE PUSH1 0x1 SLOAD PUSH1 0x40 DUP1 MLOAD PUSH4 0x15AB88C9 PUSH1 0xE3 SHL DUP2 MSTORE SWAP1 MLOAD SWAP2 SWAP1 SWAP4 AND SWAP3 PUSH4 0xAD5C4648 SWAP3 PUSH1 0x4 DUP1 DUP4 ADD SWAP4 SWAP2 SWAP3 DUP3 SWAP1 SUB ADD DUP2 DUP7 GAS STATICCALL ISZERO DUP1 ISZERO PUSH2 0x21C3 JUMPI RETURNDATASIZE PUSH1 0x0 DUP1 RETURNDATACOPY RETURNDATASIZE PUSH1 0x0 REVERT JUMPDEST POP POP POP POP PUSH1 0x40 MLOAD RETURNDATASIZE PUSH1 0x1F NOT PUSH1 0x1F DUP3 ADD AND DUP3 ADD DUP1 PUSH1 0x40 MSTORE POP DUP2 ADD SWAP1 PUSH2 0x21E7 SWAP2 SWAP1 PUSH2 0x2CC8 JUMP JUMPDEST DUP2 PUSH1 0x1 DUP2 MLOAD DUP2 LT PUSH2 0x21FA JUMPI PUSH2 0x21FA PUSH2 0x2CE5 JUMP JUMPDEST PUSH1 0x1 PUSH1 0x1 PUSH1 0xA0 SHL SUB SWAP1 SWAP3 AND PUSH1 0x20 SWAP3 DUP4 MUL SWAP2 SWAP1 SWAP2 ADD SWAP1 SWAP2 ADD MSTORE PUSH1 0x0 DUP1 PUSH20 0x9AC64CC6E4415144C455BD8E4837FEA55603E5C3 PUSH4 0x18CBAFE5 DUP7 DUP4 DUP7 ADDRESS PUSH2 0x223E TIMESTAMP PUSH1 0x14 PUSH2 0x2C9A JUMP JUMPDEST PUSH1 0x40 MLOAD PUSH1 0x24 ADD PUSH2 0x2252 SWAP6 SWAP5 SWAP4 SWAP3 SWAP2 SWAP1 PUSH2 0x2F7E JUMP JUMPDEST PUSH1 0x40 MLOAD PUSH1 0x20 DUP2 DUP4 SUB SUB DUP2 MSTORE SWAP1 PUSH1 0x40 MSTORE SWAP1 PUSH1 0xE0 SHL PUSH1 0x20 DUP3 ADD DUP1 MLOAD PUSH1 0x1 PUSH1 0x1 PUSH1 0xE0 SHL SUB DUP4 DUP2 DUP4 AND OR DUP4 MSTORE POP POP POP POP PUSH1 0x40 MLOAD PUSH2 0x228B SWAP2 SWAP1 PUSH2 0x2E15 JUMP JUMPDEST PUSH1 0x0 PUSH1 0x40 MLOAD DUP1 DUP4 SUB DUP2 PUSH1 0x0 DUP7 GAS CALL SWAP2 POP POP RETURNDATASIZE DUP1 PUSH1 0x0 DUP2 EQ PUSH2 0x22C8 JUMPI PUSH1 0x40 MLOAD SWAP2 POP PUSH1 0x1F NOT PUSH1 0x3F RETURNDATASIZE ADD AND DUP3 ADD PUSH1 0x40 MSTORE RETURNDATASIZE DUP3 MSTORE RETURNDATASIZE PUSH1 0x0 PUSH1 0x20 DUP5 ADD RETURNDATACOPY PUSH2 0x22CD JUMP JUMPDEST PUSH1 0x60 SWAP2 POP JUMPDEST POP SWAP2 POP SWAP2 POP DUP2 ISZERO PUSH2 0x2321 JUMPI PUSH1 0x0 DUP2 DUP1 PUSH1 0x20 ADD SWAP1 MLOAD DUP2 ADD SWAP1 PUSH2 0x22EE SWAP2 SWAP1 PUSH2 0x2D58 JUMP JUMPDEST SWAP1 POP PUSH1 0x2 DUP2 MLOAD LT PUSH2 0x231F JUMPI DUP1 PUSH1 0x1 DUP2 MLOAD DUP2 LT PUSH2 0x230C JUMPI PUSH2 0x230C PUSH2 0x2CE5 JUMP JUMPDEST PUSH1 0x20 MUL PUSH1 0x20 ADD ADD MLOAD SWAP5 POP POP POP POP POP SWAP2 SWAP1 POP JUMP JUMPDEST POP JUMPDEST POP POP POP JUMPDEST POP PUSH1 0x0 SWAP2 SWAP1 POP JUMP JUMPDEST PUSH1 0x40 DUP1 MLOAD PUSH1 0x2 DUP1 DUP3 MSTORE PUSH1 0x60 DUP3 ADD DUP4 MSTORE PUSH1 0x0 SWAP3 DUP4 SWAP3 SWAP2 SWAP1 PUSH1 0x20 DUP4 ADD SWAP1 DUP1 CALLDATASIZE DUP4 CALLDATACOPY POP POP PUSH1 0x1 SLOAD PUSH1 0x40 DUP1 MLOAD PUSH4 0x15AB88C9 PUSH1 0xE3 SHL DUP2 MSTORE SWAP1 MLOAD SWAP4 SWAP5 POP PUSH1 0x1 PUSH1 0x1 PUSH1 0xA0 SHL SUB SWAP1 SWAP2 AND SWAP3 PUSH4 0xAD5C4648 SWAP3 POP PUSH1 0x4 DUP1 DUP4 ADD SWAP3 PUSH1 0x20 SWAP3 SWAP2 SWAP1 DUP3 SWAP1 SUB ADD DUP2 DUP7 GAS STATICCALL ISZERO DUP1 ISZERO PUSH2 0x239B JUMPI RETURNDATASIZE PUSH1 0x0 DUP1 RETURNDATACOPY RETURNDATASIZE PUSH1 0x0 REVERT JUMPDEST POP POP POP POP PUSH1 0x40 MLOAD RETURNDATASIZE PUSH1 0x1F NOT PUSH1 0x1F DUP3 ADD AND DUP3 ADD DUP1 PUSH1 0x40 MSTORE POP DUP2 ADD SWAP1 PUSH2 0x23BF SWAP2 SWAP1 PUSH2 0x2CC8 JUMP JUMPDEST DUP2 PUSH1 0x0 DUP2 MLOAD DUP2 LT PUSH2 0x23D2 JUMPI PUSH2 0x23D2 PUSH2 0x2CE5 JUMP JUMPDEST PUSH1 0x20 MUL PUSH1 0x20 ADD ADD SWAP1 PUSH1 0x1 PUSH1 0x1 PUSH1 0xA0 SHL SUB AND SWAP1 DUP2 PUSH1 0x1 PUSH1 0x1 PUSH1 0xA0 SHL SUB AND DUP2 MSTORE POP POP DUP4 DUP2 PUSH1 0x1 DUP2 MLOAD DUP2 LT PUSH2 0x2406 JUMPI PUSH2 0x2406 PUSH2 0x2CE5 JUMP JUMPDEST PUSH1 0x1 PUSH1 0x1 PUSH1 0xA0 SHL SUB SWAP3 DUP4 AND PUSH1 0x20 SWAP2 DUP3 MUL SWAP3 SWAP1 SWAP3 ADD ADD MSTORE PUSH1 0x1 SLOAD AND PUSH4 0xB6F9DE95 DUP7 PUSH1 0x0 DUP5 DUP8 PUSH2 0x2435 TIMESTAMP PUSH1 0x14 PUSH2 0x2C9A JUMP JUMPDEST PUSH1 0x40 MLOAD DUP7 PUSH4 0xFFFFFFFF AND PUSH1 0xE0 SHL DUP2 MSTORE PUSH1 0x4 ADD PUSH2 0x2454 SWAP5 SWAP4 SWAP3 SWAP2 SWAP1 PUSH2 0x2FBD JUMP JUMPDEST PUSH1 0x0 PUSH1 0x40 MLOAD DUP1 DUP4 SUB DUP2 DUP6 DUP9 DUP1 EXTCODESIZE ISZERO DUP1 ISZERO PUSH2 0x246D JUMPI PUSH1 0x0 DUP1 REVERT JUMPDEST POP GAS CALL SWAP4 POP POP POP POP DUP1 ISZERO PUSH2 0x247F JUMPI POP PUSH1 0x1 JUMPDEST PUSH2 0x2488 JUMPI PUSH2 0x1A71 JUMP JUMPDEST PUSH1 0x1 SWAP2 POP POP PUSH2 0x114F JUMP JUMPDEST PUSH1 0x23 DUP2 SWAP1 SSTORE DUP1 PUSH2 0x24A0 PUSH2 0x25BC JUMP JUMPDEST POP POP PUSH1 0x24 DUP1 SLOAD PUSH1 0xFF NOT AND SWAP1 SSTORE POP POP JUMP JUMPDEST PUSH1 0x19 SLOAD PUSH1 0x40 MLOAD PUSH4 0x70A08231 PUSH1 0xE0 SHL DUP2 MSTORE ADDRESS PUSH1 0x4 DUP3 ADD MSTORE PUSH32 0x0 PUSH1 0x1 PUSH1 0x1 PUSH1 0xA0 SHL SUB AND SWAP1 PUSH4 0x70A08231 SWAP1 PUSH1 0x24 ADD PUSH1 0x20 PUSH1 0x40 MLOAD DUP1 DUP4 SUB DUP2 DUP7 GAS STATICCALL ISZERO DUP1 ISZERO PUSH2 0x2517 JUMPI RETURNDATASIZE PUSH1 0x0 DUP1 RETURNDATACOPY RETURNDATASIZE PUSH1 0x0 REVERT JUMPDEST POP POP POP POP PUSH1 0x40 MLOAD RETURNDATASIZE PUSH1 0x1F NOT PUSH1 0x1F DUP3 ADD AND DUP3 ADD DUP1 PUSH1 0x40 MSTORE POP DUP2 ADD SWAP1 PUSH2 0x253B SWAP2 SWAP1 PUSH2 0x2E31 JUMP JUMPDEST GT PUSH2 0x259C JUMPI PUSH1 0x40 MLOAD PUSH3 0x461BCD PUSH1 0xE5 SHL DUP2 MSTORE PUSH1 0x20 PUSH1 0x4 DUP3 ADD MSTORE PUSH1 0x2B PUSH1 0x24 DUP3 ADD MSTORE PUSH32 0x4E6F7420656E6F756768204C494E4B202D2066696C6C20636F6E747261637420 PUSH1 0x44 DUP3 ADD MSTORE PUSH11 0x1DDA5D1A0819985D58D95D PUSH1 0xAA SHL PUSH1 0x64 DUP3 ADD MSTORE PUSH1 0x84 ADD PUSH2 0xFCC JUMP JUMPDEST PUSH2 0x25AA PUSH1 0x18 SLOAD PUSH1 0x19 SLOAD PUSH2 0x281A JUMP JUMPDEST PUSH1 0x22 SSTORE PUSH1 0x24 DUP1 SLOAD PUSH1 0xFF NOT AND PUSH1 0x1 OR SWAP1 SSTORE JUMP JUMPDEST PUSH1 0xC SLOAD PUSH1 0x0 SWAP1 PUSH1 0x1 PUSH1 0x1 PUSH1 0x40 SHL SUB AND ISZERO PUSH2 0xE2F JUMPI PUSH1 0xC SLOAD TIMESTAMP SWAP1 PUSH1 0x0 SWAP1 PUSH2 0x25EA SWAP1 PUSH1 0x1 PUSH1 0x1 PUSH1 0x40 SHL SUB AND PUSH2 0x2995 JUMP JUMPDEST SWAP1 POP PUSH1 0x0 PUSH1 0xB PUSH1 0x0 DUP4 DUP2 MSTORE PUSH1 0x20 ADD SWAP1 DUP2 MSTORE PUSH1 0x20 ADD PUSH1 0x0 KECCAK256 PUSH1 0x0 SWAP1 SLOAD SWAP1 PUSH2 0x100 EXP SWAP1 DIV PUSH1 0x1 PUSH1 0x1 PUSH1 0xA0 SHL SUB AND SWAP1 POP PUSH1 0x1A PUSH1 0x40 MLOAD DUP1 PUSH1 0x80 ADD PUSH1 0x40 MSTORE DUP1 DUP5 DUP2 MSTORE PUSH1 0x20 ADD DUP4 PUSH1 0x1 PUSH1 0x1 PUSH1 0xA0 SHL SUB AND DUP2 MSTORE PUSH1 0x20 ADD PUSH1 0xE SLOAD DUP2 MSTORE PUSH1 0x20 ADD PUSH1 0x12 SLOAD PUSH1 0x13 SLOAD PUSH2 0x2651 SWAP2 SWAP1 PUSH2 0x2C9A JUMP JUMPDEST SWAP1 MSTORE DUP2 SLOAD PUSH1 0x1 DUP1 DUP3 ADD DUP5 SSTORE PUSH1 0x0 SWAP4 DUP5 MSTORE PUSH1 0x20 DUP1 DUP6 KECCAK256 DUP5 MLOAD PUSH1 0x4 SWAP1 SWAP5 MUL ADD SWAP3 DUP4 SSTORE DUP4 ADD MLOAD SWAP1 DUP3 ADD DUP1 SLOAD PUSH1 0x1 PUSH1 0x1 PUSH1 0xA0 SHL SUB NOT AND PUSH1 0x1 PUSH1 0x1 PUSH1 0xA0 SHL SUB SWAP1 SWAP3 AND SWAP2 SWAP1 SWAP2 OR SWAP1 SSTORE PUSH1 0x40 DUP3 ADD MLOAD PUSH1 0x2 DUP3 ADD SSTORE PUSH1 0x60 SWAP1 SWAP2 ADD MLOAD PUSH1 0x3 SWAP1 SWAP2 ADD SSTORE PUSH1 0x13 DUP5 SWAP1 SSTORE PUSH1 0x11 SLOAD PUSH1 0x10 SSTORE PUSH1 0xE DUP1 SLOAD PUSH1 0x7 DUP1 SLOAD SWAP1 SWAP3 SSTORE SWAP2 SWAP1 SSTORE PUSH2 0x26CD DUP3 DUP3 PUSH2 0x1866 JUMP JUMPDEST POP PUSH1 0x40 DUP1 MLOAD PUSH1 0x1 PUSH1 0x1 PUSH1 0xA0 SHL SUB DUP5 AND DUP2 MSTORE PUSH1 0x20 DUP2 ADD DUP4 SWAP1 MSTORE PUSH32 0x2E798DD4337E515C79B64C40E1A93BAA1AEFBD9180AC7905E02508EDD7971E50 SWAP2 ADD PUSH1 0x40 MLOAD DUP1 SWAP2 SUB SWAP1 LOG1 PUSH1 0xC DUP1 SLOAD PUSH1 0x1 PUSH1 0x40 SHL SWAP1 DIV PUSH1 0x1 PUSH1 0x1 PUSH1 0x40 SHL SUB AND SWAP1 PUSH1 0x8 PUSH2 0x2730 DUP4 PUSH2 0x2F3D JUMP JUMPDEST DUP3 SLOAD PUSH1 0x1 PUSH1 0x1 PUSH1 0x40 SHL SUB SWAP2 DUP3 AND PUSH2 0x100 SWAP4 SWAP1 SWAP4 EXP SWAP3 DUP4 MUL SWAP2 SWAP1 SWAP3 MUL NOT SWAP1 SWAP2 AND OR SWAP1 SSTORE POP PUSH1 0xC DUP1 SLOAD PUSH8 0xFFFFFFFFFFFFFFFF NOT AND SWAP1 SSTORE PUSH1 0xF DUP1 SLOAD DUP3 SWAP2 SWAP1 PUSH1 0x0 SWAP1 PUSH2 0x2779 SWAP1 DUP5 SWAP1 PUSH2 0x2C9A JUMP JUMPDEST SWAP1 SWAP2 SSTORE POP PUSH1 0x1 SWAP7 SWAP6 POP POP POP POP POP POP JUMP JUMPDEST PUSH1 0x1 PUSH1 0x1 PUSH1 0xA0 SHL SUB DUP4 DUP2 AND PUSH1 0x0 SWAP1 DUP2 MSTORE PUSH1 0x1F PUSH1 0x20 SWAP1 DUP2 MSTORE PUSH1 0x40 DUP1 DUP4 KECCAK256 SWAP4 DUP7 AND DUP4 MSTORE SWAP3 SWAP1 MSTORE SWAP1 DUP2 KECCAK256 DUP1 SLOAD SWAP1 DUP4 SWAP1 DUP4 PUSH2 0x27C0 DUP4 DUP6 PUSH2 0x2C9A JUMP JUMPDEST SWAP1 SWAP2 SSTORE POP POP PUSH1 0x1 PUSH1 0x1 PUSH1 0xA0 SHL SUB DUP1 DUP6 AND SWAP1 DUP7 AND PUSH32 0x8C5BE1E5EBEC7D5BD14F71427D1E84F3DD0314C0F7B2291E5B200AC8C7C3B925 PUSH2 0x27FE DUP7 DUP6 PUSH2 0x2C9A JUMP JUMPDEST PUSH1 0x40 MLOAD SWAP1 DUP2 MSTORE PUSH1 0x20 ADD PUSH1 0x40 MLOAD DUP1 SWAP2 SUB SWAP1 LOG3 POP PUSH1 0x1 SWAP5 SWAP4 POP POP POP POP JUMP JUMPDEST PUSH1 0x0 PUSH32 0x0 PUSH1 0x1 PUSH1 0x1 PUSH1 0xA0 SHL SUB AND PUSH4 0x4000AEA0 PUSH32 0x0 DUP5 DUP7 PUSH1 0x0 PUSH1 0x40 MLOAD PUSH1 0x20 ADD PUSH2 0x288A SWAP3 SWAP2 SWAP1 SWAP2 DUP3 MSTORE PUSH1 0x20 DUP3 ADD MSTORE PUSH1 0x40 ADD SWAP1 JUMP JUMPDEST PUSH1 0x40 MLOAD PUSH1 0x20 DUP2 DUP4 SUB SUB DUP2 MSTORE SWAP1 PUSH1 0x40 MSTORE PUSH1 0x40 MLOAD DUP5 PUSH4 0xFFFFFFFF AND PUSH1 0xE0 SHL DUP2 MSTORE PUSH1 0x4 ADD PUSH2 0x28B7 SWAP4 SWAP3 SWAP2 SWAP1 PUSH2 0x2FF2 JUMP JUMPDEST PUSH1 0x20 PUSH1 0x40 MLOAD DUP1 DUP4 SUB DUP2 PUSH1 0x0 DUP8 GAS CALL ISZERO DUP1 ISZERO PUSH2 0x28D6 JUMPI RETURNDATASIZE PUSH1 0x0 DUP1 RETURNDATACOPY RETURNDATASIZE PUSH1 0x0 REVERT JUMPDEST POP POP POP POP PUSH1 0x40 MLOAD RETURNDATASIZE PUSH1 0x1F NOT PUSH1 0x1F DUP3 ADD AND DUP3 ADD DUP1 PUSH1 0x40 MSTORE POP DUP2 ADD SWAP1 PUSH2 0x28FA SWAP2 SWAP1 PUSH2 0x3022 JUMP JUMPDEST POP PUSH1 0x0 DUP4 DUP2 MSTORE PUSH1 0x20 DUP2 DUP2 MSTORE PUSH1 0x40 DUP1 DUP4 KECCAK256 SLOAD DUP2 MLOAD DUP1 DUP5 ADD DUP9 SWAP1 MSTORE DUP1 DUP4 ADD DUP6 SWAP1 MSTORE ADDRESS PUSH1 0x60 DUP3 ADD MSTORE PUSH1 0x80 DUP1 DUP3 ADD DUP4 SWAP1 MSTORE DUP4 MLOAD DUP1 DUP4 SUB SWAP1 SWAP2 ADD DUP2 MSTORE PUSH1 0xA0 SWAP1 SWAP2 ADD SWAP1 SWAP3 MSTORE DUP2 MLOAD SWAP2 DUP4 ADD SWAP2 SWAP1 SWAP2 KECCAK256 DUP7 DUP5 MSTORE SWAP3 SWAP1 SWAP2 MSTORE PUSH2 0x2954 SWAP1 PUSH1 0x1 PUSH2 0x2C9A JUMP JUMPDEST PUSH1 0x0 DUP6 DUP2 MSTORE PUSH1 0x20 DUP2 DUP2 MSTORE PUSH1 0x40 SWAP2 DUP3 SWAP1 KECCAK256 SWAP3 SWAP1 SWAP3 SSTORE DUP1 MLOAD DUP1 DUP4 ADD DUP8 SWAP1 MSTORE DUP1 DUP3 ADD DUP5 SWAP1 MSTORE DUP2 MLOAD DUP1 DUP3 SUB DUP4 ADD DUP2 MSTORE PUSH1 0x60 SWAP1 SWAP2 ADD SWAP1 SWAP2 MSTORE DUP1 MLOAD SWAP2 ADD KECCAK256 JUMPDEST SWAP5 SWAP4 POP POP POP POP JUMP JUMPDEST PUSH1 0x0 DUP1 PUSH1 0x0 PUSH1 0xE SLOAD PUSH1 0x23 SLOAD PUSH1 0x21 SLOAD PUSH2 0x29AD SWAP2 SWAP1 PUSH2 0x2C9A JUMP JUMPDEST PUSH2 0x29B7 SWAP2 SWAP1 PUSH2 0x2C9A JUMP JUMPDEST PUSH1 0x40 DUP1 MLOAD TIMESTAMP PUSH1 0x20 DUP3 ADD MSTORE PUSH12 0xFFFFFFFFFFFFFFFFFFFFFFFF NOT CALLER PUSH1 0x60 SHL AND SWAP2 DUP2 ADD SWAP2 SWAP1 SWAP2 MSTORE PUSH1 0x54 DUP2 ADD DUP3 SWAP1 MSTORE SWAP1 SWAP2 POP DUP5 SWAP1 PUSH1 0x74 ADD PUSH1 0x40 MLOAD PUSH1 0x20 DUP2 DUP4 SUB SUB DUP2 MSTORE SWAP1 PUSH1 0x40 MSTORE DUP1 MLOAD SWAP1 PUSH1 0x20 ADD KECCAK256 PUSH1 0x0 SHR PUSH2 0x2A0D SWAP2 SWAP1 PUSH2 0x303F JUMP JUMPDEST PUSH1 0x21 DUP1 SLOAD SWAP2 SWAP4 POP PUSH1 0x0 PUSH2 0x2A1F DUP4 PUSH2 0x3053 JUMP JUMPDEST SWAP1 SWAP2 SSTORE POP SWAP2 SWAP5 SWAP4 POP POP POP POP JUMP JUMPDEST PUSH1 0x1 PUSH1 0x1 PUSH1 0xA0 SHL SUB DUP2 AND DUP2 EQ PUSH2 0x146E JUMPI PUSH1 0x0 DUP1 REVERT JUMPDEST PUSH1 0x0 PUSH1 0x20 DUP3 DUP5 SUB SLT ISZERO PUSH2 0x2A53 JUMPI PUSH1 0x0 DUP1 REVERT JUMPDEST DUP2 CALLDATALOAD PUSH2 0x114F DUP2 PUSH2 0x2A2C JUMP JUMPDEST PUSH1 0x0 PUSH1 0x20 DUP3 DUP5 SUB SLT ISZERO PUSH2 0x2A70 JUMPI PUSH1 0x0 DUP1 REVERT JUMPDEST POP CALLDATALOAD SWAP2 SWAP1 POP JUMP JUMPDEST PUSH1 0x0 JUMPDEST DUP4 DUP2 LT ISZERO PUSH2 0x2A92 JUMPI DUP2 DUP2 ADD MLOAD DUP4 DUP3 ADD MSTORE PUSH1 0x20 ADD PUSH2 0x2A7A JUMP JUMPDEST DUP4 DUP2 GT ISZERO PUSH2 0x20B8 JUMPI POP POP PUSH1 0x0 SWAP2 ADD MSTORE JUMP JUMPDEST PUSH1 0x0 DUP2 MLOAD DUP1 DUP5 MSTORE PUSH2 0x2ABB DUP2 PUSH1 0x20 DUP7 ADD PUSH1 0x20 DUP7 ADD PUSH2 0x2A77 JUMP JUMPDEST PUSH1 0x1F ADD PUSH1 0x1F NOT AND SWAP3 SWAP1 SWAP3 ADD PUSH1 0x20 ADD SWAP3 SWAP2 POP POP JUMP JUMPDEST PUSH1 0x20 DUP2 MSTORE PUSH1 0x0 PUSH2 0x114F PUSH1 0x20 DUP4 ADD DUP5 PUSH2 0x2AA3 JUMP JUMPDEST PUSH1 0x0 DUP1 PUSH1 0x40 DUP4 DUP6 SUB SLT ISZERO PUSH2 0x2AF5 JUMPI PUSH1 0x0 DUP1 REVERT JUMPDEST DUP3 CALLDATALOAD PUSH2 0x2B00 DUP2 PUSH2 0x2A2C JUMP JUMPDEST SWAP5 PUSH1 0x20 SWAP4 SWAP1 SWAP4 ADD CALLDATALOAD SWAP4 POP POP POP JUMP JUMPDEST PUSH1 0x0 PUSH1 0x20 DUP3 DUP5 SUB SLT ISZERO PUSH2 0x2B20 JUMPI PUSH1 0x0 DUP1 REVERT JUMPDEST DUP2 CALLDATALOAD PUSH1 0x1 PUSH1 0x1 PUSH1 0x40 SHL SUB DUP2 AND DUP2 EQ PUSH2 0x114F JUMPI PUSH1 0x0 DUP1 REVERT JUMPDEST PUSH1 0x0 DUP1 PUSH1 0x0 PUSH1 0x60 DUP5 DUP7 SUB SLT ISZERO PUSH2 0x2B4C JUMPI PUSH1 0x0 DUP1 REVERT JUMPDEST DUP4 CALLDATALOAD PUSH2 0x2B57 DUP2 PUSH2 0x2A2C JUMP JUMPDEST SWAP3 POP PUSH1 0x20 DUP5 ADD CALLDATALOAD PUSH2 0x2B67 DUP2 PUSH2 0x2A2C JUMP JUMPDEST SWAP3 SWAP6 SWAP3 SWAP5 POP POP POP PUSH1 0x40 SWAP2 SWAP1 SWAP2 ADD CALLDATALOAD SWAP1 JUMP JUMPDEST DUP1 ISZERO ISZERO DUP2 EQ PUSH2 0x146E JUMPI PUSH1 0x0 DUP1 REVERT JUMPDEST PUSH1 0x0 PUSH1 0x20 DUP3 DUP5 SUB SLT ISZERO PUSH2 0x2B98 JUMPI PUSH1 0x0 DUP1 REVERT JUMPDEST DUP2 CALLDATALOAD PUSH2 0x114F DUP2 PUSH2 0x2B78 JUMP JUMPDEST PUSH1 0x0 DUP1 PUSH1 0x40 DUP4 DUP6 SUB SLT ISZERO PUSH2 0x2BB6 JUMPI PUSH1 0x0 DUP1 REVERT JUMPDEST POP POP DUP1 CALLDATALOAD SWAP3 PUSH1 0x20 SWAP1 SWAP2 ADD CALLDATALOAD SWAP2 POP JUMP JUMPDEST PUSH1 0x0 DUP1 PUSH1 0x40 DUP4 DUP6 SUB SLT ISZERO PUSH2 0x2BD8 JUMPI PUSH1 0x0 DUP1 REVERT JUMPDEST DUP3 CALLDATALOAD PUSH2 0x2BE3 DUP2 PUSH2 0x2A2C JUMP JUMPDEST SWAP2 POP PUSH1 0x20 DUP4 ADD CALLDATALOAD PUSH2 0x2BF3 DUP2 PUSH2 0x2A2C JUMP JUMPDEST DUP1 SWAP2 POP POP SWAP3 POP SWAP3 SWAP1 POP JUMP JUMPDEST PUSH1 0x0 PUSH1 0x20 DUP3 DUP5 SUB SLT ISZERO PUSH2 0x2C10 JUMPI PUSH1 0x0 DUP1 REVERT JUMPDEST DUP2 CALLDATALOAD PUSH4 0xFFFFFFFF DUP2 AND DUP2 EQ PUSH2 0x114F JUMPI PUSH1 0x0 DUP1 REVERT JUMPDEST PUSH4 0x4E487B71 PUSH1 0xE0 SHL PUSH1 0x0 MSTORE PUSH1 0x11 PUSH1 0x4 MSTORE PUSH1 0x24 PUSH1 0x0 REVERT JUMPDEST PUSH1 0x0 DUP2 PUSH1 0x0 NOT DIV DUP4 GT DUP3 ISZERO ISZERO AND ISZERO PUSH2 0x2C54 JUMPI PUSH2 0x2C54 PUSH2 0x2C24 JUMP JUMPDEST POP MUL SWAP1 JUMP JUMPDEST PUSH4 0x4E487B71 PUSH1 0xE0 SHL PUSH1 0x0 MSTORE PUSH1 0x12 PUSH1 0x4 MSTORE PUSH1 0x24 PUSH1 0x0 REVERT JUMPDEST PUSH1 0x0 DUP3 PUSH2 0x2C7E JUMPI PUSH2 0x2C7E PUSH2 0x2C59 JUMP JUMPDEST POP DIV SWAP1 JUMP JUMPDEST PUSH1 0x0 DUP3 DUP3 LT ISZERO PUSH2 0x2C95 JUMPI PUSH2 0x2C95 PUSH2 0x2C24 JUMP JUMPDEST POP SUB SWAP1 JUMP JUMPDEST PUSH1 0x0 DUP3 NOT DUP3 GT ISZERO PUSH2 0x2CAD JUMPI PUSH2 0x2CAD PUSH2 0x2C24 JUMP JUMPDEST POP ADD SWAP1 JUMP JUMPDEST PUSH4 0x4E487B71 PUSH1 0xE0 SHL PUSH1 0x0 MSTORE PUSH1 0x41 PUSH1 0x4 MSTORE PUSH1 0x24 PUSH1 0x0 REVERT JUMPDEST PUSH1 0x0 PUSH1 0x20 DUP3 DUP5 SUB SLT ISZERO PUSH2 0x2CDA JUMPI PUSH1 0x0 DUP1 REVERT JUMPDEST DUP2 MLOAD PUSH2 0x114F DUP2 PUSH2 0x2A2C JUMP JUMPDEST PUSH4 0x4E487B71 PUSH1 0xE0 SHL PUSH1 0x0 MSTORE PUSH1 0x32 PUSH1 0x4 MSTORE PUSH1 0x24 PUSH1 0x0 REVERT JUMPDEST PUSH1 0x0 DUP2 MLOAD DUP1 DUP5 MSTORE PUSH1 0x20 DUP1 DUP6 ADD SWAP5 POP DUP1 DUP5 ADD PUSH1 0x0 JUMPDEST DUP4 DUP2 LT ISZERO PUSH2 0x2D34 JUMPI DUP2 MLOAD PUSH1 0x1 PUSH1 0x1 PUSH1 0xA0 SHL SUB AND DUP8 MSTORE SWAP6 DUP3 ADD SWAP6 SWAP1 DUP3 ADD SWAP1 PUSH1 0x1 ADD PUSH2 0x2D0F JUMP JUMPDEST POP SWAP5 SWAP6 SWAP5 POP POP POP POP POP JUMP JUMPDEST DUP3 DUP2 MSTORE PUSH1 0x40 PUSH1 0x20 DUP3 ADD MSTORE PUSH1 0x0 PUSH2 0x298D PUSH1 0x40 DUP4 ADD DUP5 PUSH2 0x2CFB JUMP JUMPDEST PUSH1 0x0 PUSH1 0x20 DUP1 DUP4 DUP6 SUB SLT ISZERO PUSH2 0x2D6B JUMPI PUSH1 0x0 DUP1 REVERT JUMPDEST DUP3 MLOAD PUSH1 0x1 PUSH1 0x1 PUSH1 0x40 SHL SUB DUP1 DUP3 GT ISZERO PUSH2 0x2D82 JUMPI PUSH1 0x0 DUP1 REVERT JUMPDEST DUP2 DUP6 ADD SWAP2 POP DUP6 PUSH1 0x1F DUP4 ADD SLT PUSH2 0x2D96 JUMPI PUSH1 0x0 DUP1 REVERT JUMPDEST DUP2 MLOAD DUP2 DUP2 GT ISZERO PUSH2 0x2DA8 JUMPI PUSH2 0x2DA8 PUSH2 0x2CB2 JUMP JUMPDEST DUP1 PUSH1 0x5 SHL PUSH1 0x40 MLOAD PUSH1 0x1F NOT PUSH1 0x3F DUP4 ADD AND DUP2 ADD DUP2 DUP2 LT DUP6 DUP3 GT OR ISZERO PUSH2 0x2DCD JUMPI PUSH2 0x2DCD PUSH2 0x2CB2 JUMP JUMPDEST PUSH1 0x40 MSTORE SWAP2 DUP3 MSTORE DUP5 DUP3 ADD SWAP3 POP DUP4 DUP2 ADD DUP6 ADD SWAP2 DUP9 DUP4 GT ISZERO PUSH2 0x2DEB JUMPI PUSH1 0x0 DUP1 REVERT JUMPDEST SWAP4 DUP6 ADD SWAP4 JUMPDEST DUP3 DUP6 LT ISZERO PUSH2 0x2E09 JUMPI DUP5 MLOAD DUP5 MSTORE SWAP4 DUP6 ADD SWAP4 SWAP3 DUP6 ADD SWAP3 PUSH2 0x2DF0 JUMP JUMPDEST SWAP9 SWAP8 POP POP POP POP POP POP POP POP JUMP JUMPDEST PUSH1 0x0 DUP3 MLOAD PUSH2 0x2E27 DUP2 DUP5 PUSH1 0x20 DUP8 ADD PUSH2 0x2A77 JUMP JUMPDEST SWAP2 SWAP1 SWAP2 ADD SWAP3 SWAP2 POP POP JUMP JUMPDEST PUSH1 0x0 PUSH1 0x20 DUP3 DUP5 SUB SLT ISZERO PUSH2 0x2E43 JUMPI PUSH1 0x0 DUP1 REVERT JUMPDEST POP MLOAD SWAP2 SWAP1 POP JUMP JUMPDEST PUSH1 0x1 DUP2 DUP2 JUMPDEST DUP1 DUP6 GT ISZERO PUSH2 0x2E85 JUMPI DUP2 PUSH1 0x0 NOT DIV DUP3 GT ISZERO PUSH2 0x2E6B JUMPI PUSH2 0x2E6B PUSH2 0x2C24 JUMP JUMPDEST DUP1 DUP6 AND ISZERO PUSH2 0x2E78 JUMPI SWAP2 DUP2 MUL SWAP2 JUMPDEST SWAP4 DUP5 SHR SWAP4 SWAP1 DUP1 MUL SWAP1 PUSH2 0x2E4F JUMP JUMPDEST POP SWAP3 POP SWAP3 SWAP1 POP JUMP JUMPDEST PUSH1 0x0 DUP3 PUSH2 0x2E9C JUMPI POP PUSH1 0x1 PUSH2 0xDEA JUMP JUMPDEST DUP2 PUSH2 0x2EA9 JUMPI POP PUSH1 0x0 PUSH2 0xDEA JUMP JUMPDEST DUP2 PUSH1 0x1 DUP2 EQ PUSH2 0x2EBF JUMPI PUSH1 0x2 DUP2 EQ PUSH2 0x2EC9 JUMPI PUSH2 0x2EE5 JUMP JUMPDEST PUSH1 0x1 SWAP2 POP POP PUSH2 0xDEA JUMP JUMPDEST PUSH1 0xFF DUP5 GT ISZERO PUSH2 0x2EDA JUMPI PUSH2 0x2EDA PUSH2 0x2C24 JUMP JUMPDEST POP POP PUSH1 0x1 DUP3 SHL PUSH2 0xDEA JUMP JUMPDEST POP PUSH1 0x20 DUP4 LT PUSH2 0x133 DUP4 LT AND PUSH1 0x4E DUP5 LT PUSH1 0xB DUP5 LT AND OR ISZERO PUSH2 0x2F08 JUMPI POP DUP2 DUP2 EXP PUSH2 0xDEA JUMP JUMPDEST PUSH2 0x2F12 DUP4 DUP4 PUSH2 0x2E4A JUMP JUMPDEST DUP1 PUSH1 0x0 NOT DIV DUP3 GT ISZERO PUSH2 0x2F26 JUMPI PUSH2 0x2F26 PUSH2 0x2C24 JUMP JUMPDEST MUL SWAP4 SWAP3 POP POP POP JUMP JUMPDEST PUSH1 0x0 PUSH2 0x114F PUSH1 0xFF DUP5 AND DUP4 PUSH2 0x2E8D JUMP JUMPDEST PUSH1 0x0 PUSH1 0x1 PUSH1 0x1 PUSH1 0x40 SHL SUB DUP1 DUP4 AND DUP2 DUP2 EQ ISZERO PUSH2 0x2F5A JUMPI PUSH2 0x2F5A PUSH2 0x2C24 JUMP JUMPDEST PUSH1 0x1 ADD SWAP4 SWAP3 POP POP POP JUMP JUMPDEST PUSH1 0x0 PUSH4 0xFFFFFFFF DUP1 DUP4 AND DUP2 DUP2 EQ ISZERO PUSH2 0x2F5A JUMPI PUSH2 0x2F5A PUSH2 0x2C24 JUMP JUMPDEST DUP6 DUP2 MSTORE PUSH1 0xFF DUP6 AND PUSH1 0x20 DUP3 ADD MSTORE PUSH1 0xA0 PUSH1 0x40 DUP3 ADD MSTORE PUSH1 0x0 PUSH2 0x2FA0 PUSH1 0xA0 DUP4 ADD DUP7 PUSH2 0x2CFB JUMP JUMPDEST PUSH1 0x1 PUSH1 0x1 PUSH1 0xA0 SHL SUB SWAP5 SWAP1 SWAP5 AND PUSH1 0x60 DUP4 ADD MSTORE POP PUSH1 0x80 ADD MSTORE SWAP4 SWAP3 POP POP POP JUMP JUMPDEST DUP5 DUP2 MSTORE PUSH1 0x80 PUSH1 0x20 DUP3 ADD MSTORE PUSH1 0x0 PUSH2 0x2FD6 PUSH1 0x80 DUP4 ADD DUP7 PUSH2 0x2CFB JUMP JUMPDEST PUSH1 0x1 PUSH1 0x1 PUSH1 0xA0 SHL SUB SWAP5 SWAP1 SWAP5 AND PUSH1 0x40 DUP4 ADD MSTORE POP PUSH1 0x60 ADD MSTORE SWAP3 SWAP2 POP POP JUMP JUMPDEST PUSH1 0x1 DUP1 PUSH1 0xA0 SHL SUB DUP5 AND DUP2 MSTORE DUP3 PUSH1 0x20 DUP3 ADD MSTORE PUSH1 0x60 PUSH1 0x40 DUP3 ADD MSTORE PUSH1 0x0 PUSH2 0x3019 PUSH1 0x60 DUP4 ADD DUP5 PUSH2 0x2AA3 JUMP JUMPDEST SWAP6 SWAP5 POP POP POP POP POP JUMP JUMPDEST PUSH1 0x0 PUSH1 0x20 DUP3 DUP5 SUB SLT ISZERO PUSH2 0x3034 JUMPI PUSH1 0x0 DUP1 REVERT JUMPDEST DUP2 MLOAD PUSH2 0x114F DUP2 PUSH2 0x2B78 JUMP JUMPDEST PUSH1 0x0 DUP3 PUSH2 0x304E JUMPI PUSH2 0x304E PUSH2 0x2C59 JUMP JUMPDEST POP MOD SWAP1 JUMP JUMPDEST PUSH1 0x0 PUSH1 0x0 NOT DUP3 EQ ISZERO PUSH2 0x3067 JUMPI PUSH2 0x3067 PUSH2 0x2C24 JUMP JUMPDEST POP PUSH1 0x1 ADD SWAP1 JUMP INVALID LOG2 PUSH5 0x6970667358 0x22 SLT KECCAK256 0xE SELFBALANCE MSIZE SWAP12 0xE6 0xD5 0xBC SELFBALANCE GAS PUSH21 0x8307E83C8F433ED52749B5B2E27F320A23FB559507 0xB0 PUSH5 0x736F6C6343 STOP ADDMOD EXP STOP CALLER "
				},
				"gasEstimates": {
					"creation": {
						"codeDepositCost": "2490400",
						"executionCost": "infinite",
						"totalCost": "infinite"
					},
					"external": {
						"ChainlinkEnabled(bool)": "28876",
						"CurrentJackpot()": "2451",
						"EnterDraw(uint32)": "infinite",
						"ExcludefromTax(address)": "28959",
						"ForceEndRound(uint256)": "infinite",
						"GasPot()": "2428",
						"LINKContract()": "2450",
						"LINK_fee()": "2384",
						"LiquidityPot()": "2450",
						"MainWallet()": "2426",
						"MaxEntriessperTransaction()": "2444",
						"Minimum_Entries()": "2465",
						"NextRoundPot()": "2408",
						"NextRoundTicketPrice()": "2406",
						"PauseTrading()": "28777",
						"ReservesBNB()": "328",
						"ReservesToken()": "2495",
						"ResultsLog(uint256)": "11154",
						"RoundDuration()": "2386",
						"RoundEntries()": "2428",
						"RoundNr()": "2443",
						"SetMaxEntriesperTransaction(uint64)": "28902",
						"SetMinEntriesperRound(uint64)": "28901",
						"SetRoundDuration(uint256)": "26794",
						"SetTicketPrice(uint256)": "infinite",
						"StartTime()": "2449",
						"StartTrading()": "28786",
						"SwapThreshold()": "2429",
						"Tax()": "2428",
						"TaxTokenContract()": "2449",
						"TaxTokenDestination()": "2404",
						"TicketPrice()": "2385",
						"TotalPaidOutVal()": "2364",
						"UndoExcludefromTax(address)": "28973",
						"WorkHelperWallet()": "2493",
						"_ExcludedFromTax(address)": "2659",
						"addTokenstoJackpot(uint256)": "55433",
						"allowance(address,address)": "infinite",
						"approve(address,uint256)": "24630",
						"balanceOf(address)": "2686",
						"burnRate()": "2406",
						"decimals()": "338",
						"doWork()": "infinite",
						"getCountDown()": "infinite",
						"getLINKBalance()": "infinite",
						"getMyEntries()": "6780",
						"getMyWinningOdds10000()": "11293",
						"getSecondsRemaining()": "infinite",
						"getTokenprice(uint256)": "infinite",
						"initialSupply()": "2408",
						"isContract(address)": "3091",
						"isPaused()": "2461",
						"name()": "infinite",
						"percGastoSwap()": "2361",
						"randomOutput()": "2407",
						"rawFulfillRandomness(bytes32,uint256)": "infinite",
						"requestIdOutput()": "2384",
						"setBurnRate(uint256)": "26745",
						"setHelperContract(address)": "28962",
						"setLINKfee(uint256)": "26701",
						"setMainWallet(address)": "28961",
						"setPercGasToSwap(uint256)": "26701",
						"setTaxTokenContract(address)": "28938",
						"setTaxTokenDestination(address)": "28982",
						"setTokenTax(uint256)": "26703",
						"symbol()": "infinite",
						"totalSupply()": "2383",
						"transfer(address,uint256)": "infinite",
						"transferFrom(address,address,uint256)": "infinite",
						"usingChainLinkVRF()": "2377"
					},
					"internal": {
						"FinalizeRound()": "infinite",
						"_approveMore(address,address,uint256)": "infinite",
						"_swapBNBforChosenTokenandPayout(uint256,address,address)": "infinite",
						"_swapTokenForBNB(uint256)": "infinite",
						"_swapTokenForToken(address,uint256,address)": "infinite",
						"fulfillRandomness(bytes32,uint256)": "infinite",
						"getRandomNumber(uint256)": "infinite",
						"getRandomNumberLINK()": "infinite"
					}
				},
				"methodIdentifiers": {
					"ChainlinkEnabled(bool)": "52c655f3",
					"CurrentJackpot()": "51bd4f8d",
					"EnterDraw(uint32)": "f3430c76",
					"ExcludefromTax(address)": "00535169",
					"ForceEndRound(uint256)": "bfac3003",
					"GasPot()": "ead0ab27",
					"LINKContract()": "1598926e",
					"LINK_fee()": "bd16a09c",
					"LiquidityPot()": "d21d64f1",
					"MainWallet()": "cbf474a8",
					"MaxEntriessperTransaction()": "a9e8fd78",
					"Minimum_Entries()": "6e83cc1a",
					"NextRoundPot()": "8cd9e3a3",
					"NextRoundTicketPrice()": "e6c6e0f2",
					"PauseTrading()": "2854d65c",
					"ReservesBNB()": "a8e7f7c8",
					"ReservesToken()": "94071d9a",
					"ResultsLog(uint256)": "d1547639",
					"RoundDuration()": "1567d567",
					"RoundEntries()": "7ef267c0",
					"RoundNr()": "df75bc85",
					"SetMaxEntriesperTransaction(uint64)": "6b7b15d5",
					"SetMinEntriesperRound(uint64)": "176412c1",
					"SetRoundDuration(uint256)": "36f56ba0",
					"SetTicketPrice(uint256)": "c2e799ff",
					"StartTime()": "fc4a4a1e",
					"StartTrading()": "bf6a1c0d",
					"SwapThreshold()": "c5bd7653",
					"Tax()": "6ea405d3",
					"TaxTokenContract()": "5a273b79",
					"TaxTokenDestination()": "b4228db0",
					"TicketPrice()": "53321c88",
					"TotalPaidOutVal()": "362d04e7",
					"UndoExcludefromTax(address)": "4aded88a",
					"WorkHelperWallet()": "331a7049",
					"_ExcludedFromTax(address)": "4f2bfcbf",
					"addTokenstoJackpot(uint256)": "c0616601",
					"allowance(address,address)": "dd62ed3e",
					"approve(address,uint256)": "095ea7b3",
					"balanceOf(address)": "70a08231",
					"burnRate()": "bed99850",
					"decimals()": "313ce567",
					"doWork()": "2630dd3a",
					"getCountDown()": "392b9273",
					"getLINKBalance()": "ac428e7a",
					"getMyEntries()": "13191a6e",
					"getMyWinningOdds10000()": "686ac48a",
					"getSecondsRemaining()": "9ac9f2a0",
					"getTokenprice(uint256)": "241f50de",
					"initialSupply()": "378dc3dc",
					"isContract(address)": "16279055",
					"isPaused()": "b187bd26",
					"name()": "06fdde03",
					"percGastoSwap()": "f03fa824",
					"randomOutput()": "4e09d120",
					"rawFulfillRandomness(bytes32,uint256)": "94985ddd",
					"requestIdOutput()": "6b8fa66c",
					"setBurnRate(uint256)": "189d165e",
					"setHelperContract(address)": "c5639cc6",
					"setLINKfee(uint256)": "04dc1c4a",
					"setMainWallet(address)": "d0a5eb4e",
					"setPercGasToSwap(uint256)": "77150eee",
					"setTaxTokenContract(address)": "f25790e6",
					"setTaxTokenDestination(address)": "f7a6340d",
					"setTokenTax(uint256)": "3f180bf5",
					"symbol()": "95d89b41",
					"totalSupply()": "18160ddd",
					"transfer(address,uint256)": "a9059cbb",
					"transferFrom(address,address,uint256)": "23b872dd",
					"usingChainLinkVRF()": "c9f01b3c"
				}
			},
			"userdoc": {
				"kind": "user",
				"methods": {},
				"version": 1
			}
		}
	}
}