{
	"data": {
		"bytecode": {
			"linkReferences": {},
			"object": "60c0604052600180546001600160a01b0319908116739ac64cc6e4415144c455bd8e4837fea55603e5c3179091556004805482167378867bbeef44f2326bf8ddd1941a4439382ef2a7179055600680549091167384b9b910527ad5c03a9ca831909e21e236ea7b06179055600a808055600c8054781e0000000000000032000000000000000000000000000000006001600160801b03909116179055620000a990601290620002f9565b620000b690606462000311565b601055601054601155610e106012556005601054620000d6919062000333565b601555601460165569d3c21bcecceda1000000601b556001602155348015620000fe57600080fd5b5073a555fc018435bef5a13c6c6870a9d4c11dec329c60a0527384b9b910527ad5c03a9ca831909e21e236ea7b066080527fcaf3c3727e033261d383b315559476f48034c13b18f8cafed4d871abe50491866018556702c68af0bb14000060195560178054600160ff199182168117909255601b54336000818152601c60209081526040808320859055601494909455308252805282812080548516861790558181529190912080549092169092179055600280546001600160a01b03199081168317909155600380548216831790556005805490911690911790554260135562000356565b634e487b7160e01b600052601160045260246000fd5b600181815b808511156200023b5781600019048211156200021f576200021f620001e4565b808516156200022d57918102915b93841c9390800290620001ff565b509250929050565b6000826200025457506001620002f3565b816200026357506000620002f3565b81600181146200027c57600281146200028757620002a7565b6001915050620002f3565b60ff8411156200029b576200029b620001e4565b50506001821b620002f3565b5060208310610133831016604e8410600b8410161715620002cc575081810a620002f3565b620002d88383620001fa565b8060001904821115620002ef57620002ef620001e4565b0290505b92915050565b60006200030a60ff84168362000243565b9392505050565b60008160001904831182151516156200032e576200032e620001e4565b500290565b6000826200035157634e487b7160e01b600052601260045260246000fd5b500490565b60805160a0516130a462000391600039600081816117a6015261284d015260008181611a94015281816124c8015261281e01526130a46000f3fe6080604052600436106104085760003560e01c806377150eee11610213578063c061660111610123578063dd62ed3e116100ab578063f03fa8241161007a578063f03fa82414610c77578063f25790e614610c8d578063f3430c7614610cad578063f7a6340d14610ccd578063fc4a4a1e14610ced57600080fd5b8063dd62ed3e14610bde578063df75bc8514610c24578063e6c6e0f214610c4b578063ead0ab2714610c6157600080fd5b8063c9f01b3c116100f2578063c9f01b3c14610b26578063cbf474a814610b40578063d0a5eb4e14610b60578063d154763914610b80578063d21d64f114610bc857600080fd5b8063c061660114610ab0578063c2e799ff14610ad0578063c5639cc614610af0578063c5bd765314610b1057600080fd5b8063a9059cbb116101a6578063b4228db011610175578063b4228db014610a2f578063bd16a09c14610a4f578063bed9985014610a65578063bf6a1c0d14610a7b578063bfac300314610a9057600080fd5b8063a9059cbb146109b2578063a9e8fd78146109d2578063ac428e7a146109f9578063b187bd2614610a0e57600080fd5b806394985ddd116101e257806394985ddd1461093657806395d89b41146109565780639ac9f2a01461098a578063a8e7f7c81461099f57600080fd5b806377150eee146108be5780637ef267c0146108de5780638cd9e3a3146108fe57806394071d9a1461091457600080fd5b8063362d04e71161031957806352c655f3116102a15780636b7b15d5116102705780636b7b15d5146107fd5780636b8fa66c1461081d5780636e83cc1a146108335780636ea405d31461087257806370a082311461088857600080fd5b806352c655f31461079257806353321c88146107b25780635a273b79146107c8578063686ac48a146107e857600080fd5b80633f180bf5116102e85780633f180bf5146106f75780634aded88a146107175780634e09d120146107375780634f2bfcbf1461074d57806351bd4f8d1461077c57600080fd5b8063362d04e71461067657806336f56ba01461068c578063378dc3dc146106ac578063392b9273146106c257600080fd5b8063176412c11161039c578063241f50de1161036b578063241f50de146105e55780632630dd3a146106055780632854d65c1461061a578063313ce5671461062f578063331a70491461065657600080fd5b8063176412c11461057057806318160ddd14610590578063189d165e146105a557806323b872dd146105c557600080fd5b806313191a6e116103d857806313191a6e146104de5780631567d567146105015780631598926e14610517578063162790551461054f57600080fd5b80625351691461041457806304dc1c4a1461043657806306fdde0314610456578063095ea7b3146104ae57600080fd5b3661040f57005b600080fd5b34801561042057600080fd5b5061043461042f366004612a41565b610d03565b005b34801561044257600080fd5b50610434610451366004612a5e565b610d52565b34801561046257600080fd5b506104986040518060400160405280601681526020017522ba3432b93730b6102637ba3a32b93c902a37b5b2b760511b81525081565b6040516104a59190612acf565b60405180910390f35b3480156104ba57600080fd5b506104ce6104c9366004612ae2565b610d83565b60405190151581526020016104a5565b3480156104ea57600080fd5b506104f3610df0565b6040519081526020016104a5565b34801561050d57600080fd5b506104f360125481565b34801561052357600080fd5b50600654610537906001600160a01b031681565b6040516001600160a01b0390911681526020016104a5565b34801561055b57600080fd5b506104ce61056a366004612a41565b3b151590565b34801561057c57600080fd5b5061043461058b366004612b0e565b610e35565b34801561059c57600080fd5b50601b546104f3565b3480156105b157600080fd5b506104346105c0366004612a5e565b610e8e565b3480156105d157600080fd5b506104ce6105e0366004612b37565b610ecc565b3480156105f157600080fd5b506104f3610600366004612a5e565b611156565b34801561061157600080fd5b506104346112de565b34801561062657600080fd5b50610434611471565b34801561063b57600080fd5b50610644601281565b60405160ff90911681526020016104a5565b34801561066257600080fd5b50600354610537906001600160a01b031681565b34801561068257600080fd5b506104f3600f5481565b34801561069857600080fd5b506104346106a7366004612a5e565b6114b2565b3480156106b857600080fd5b506104f360145481565b3480156106ce57600080fd5b506106d76114f0565b6040805194855260208501939093529183015260608201526080016104a5565b34801561070357600080fd5b50610434610712366004612a5e565b6115fc565b34801561072357600080fd5b50610434610732366004612a41565b61163b565b34801561074357600080fd5b506104f360235481565b34801561075957600080fd5b506104ce610768366004612a41565b602080526000908152604090205460ff1681565b34801561078857600080fd5b506104f3600e5481565b34801561079e57600080fd5b506104346107ad366004612b86565b611687565b3480156107be57600080fd5b506104f360105481565b3480156107d457600080fd5b50600454610537906001600160a01b031681565b3480156107f457600080fd5b506104f36116c6565b34801561080957600080fd5b50610434610818366004612b0e565b611709565b34801561082957600080fd5b506104f360225481565b34801561083f57600080fd5b50600c5461085a90600160801b90046001600160401b031681565b6040516001600160401b0390911681526020016104a5565b34801561087e57600080fd5b506104f3600d5481565b34801561089457600080fd5b506104f36108a3366004612a41565b6001600160a01b03166000908152601c602052604090205490565b3480156108ca57600080fd5b506104346108d9366004612a5e565b61175d565b3480156108ea57600080fd5b50600c5461085a906001600160401b031681565b34801561090a57600080fd5b506104f360075481565b34801561092057600080fd5b50306000908152601c60205260409020546104f3565b34801561094257600080fd5b50610434610951366004612ba3565b61179b565b34801561096257600080fd5b50610498604051806040016040528060088152602001674554484c4f54544f60c01b81525081565b34801561099657600080fd5b506104f3611821565b3480156109ab57600080fd5b50476104f3565b3480156109be57600080fd5b506104ce6109cd366004612ae2565b611866565b3480156109de57600080fd5b50600c5461085a90600160c01b90046001600160401b031681565b348015610a0557600080fd5b506104f3611a7c565b348015610a1a57600080fd5b506006546104ce90600160a01b900460ff1681565b348015610a3b57600080fd5b50600554610537906001600160a01b031681565b348015610a5b57600080fd5b506104f360195481565b348015610a7157600080fd5b506104f3600a5481565b348015610a8757600080fd5b50610434611b07565b348015610a9c57600080fd5b50610434610aab366004612a5e565b611b42565b348015610abc57600080fd5b50610434610acb366004612a5e565b611b92565b348015610adc57600080fd5b50610434610aeb366004612a5e565b611c1a565b348015610afc57600080fd5b50610434610b0b366004612a41565b611c92565b348015610b1c57600080fd5b506104f360155481565b348015610b3257600080fd5b506017546104ce9060ff1681565b348015610b4c57600080fd5b50600254610537906001600160a01b031681565b348015610b6c57600080fd5b50610434610b7b366004612a41565b611ce0565b348015610b8c57600080fd5b50610ba0610b9b366004612a5e565b611d2e565b604080519485526001600160a01b0390931660208501529183015260608201526080016104a5565b348015610bd457600080fd5b506104f360095481565b348015610bea57600080fd5b506104f3610bf9366004612bc5565b6001600160a01b039182166000908152601f6020908152604080832093909416825291909152205490565b348015610c3057600080fd5b50600c5461085a90600160401b90046001600160401b031681565b348015610c5757600080fd5b506104f360115481565b348015610c6d57600080fd5b506104f360085481565b348015610c8357600080fd5b506104f360165481565b348015610c9957600080fd5b50610434610ca8366004612a41565b611d71565b348015610cb957600080fd5b50610434610cc8366004612bfe565b611dbf565b348015610cd957600080fd5b50610434610ce8366004612a41565b6120c6565b348015610cf957600080fd5b506104f360135481565b6002546001600160a01b0316331480610d2657506003546001600160a01b031633145b610d2f57600080fd5b6001600160a01b031660009081526020805260409020805460ff19166001179055565b6002546001600160a01b0316331480610d7557506003546001600160a01b031633145b610d7e57600080fd5b601955565b336000818152601f602090815260408083206001600160a01b038716808552925280832085905551919290917f8c5be1e5ebec7d5bd14f71427d1e84f3dd0314c0f7b2291e5b200ac8c7c3b92590610dde9086815260200190565b60405180910390a35060015b92915050565b600c54336000908152601e60205260408120549091600160401b90046001600160401b03161415610e2f5750336000908152601d602052604090205490565b50600090565b6002546001600160a01b0316331480610e5857506003546001600160a01b031633145b610e6157600080fd5b600c80546001600160401b03909216600160801b0267ffffffffffffffff60801b19909216919091179055565b6002546001600160a01b0316331480610eb157506003546001600160a01b031633145b610eba57600080fd5b60648110610ec757600080fd5b600a55565b6001600160a01b0382166000908152602080526040812054819060ff1680610f0b57506001600160a01b038516600090815260208052604090205460ff165b15610f1857506000610f35565b6064600d5484610f289190612c3a565b610f329190612c6f565b90505b6000610f418285612c83565b600654909150600160a01b900460ff1615610fd5576001600160a01b038516600090815260208052604090205460ff1680610f9357506001600160a01b038616600090815260208052604090205460ff165b610fd55760405162461bcd60e51b815260206004820152600e60248201526d151c98591a5b99c814185d5cd95960921b60448201526064015b60405180910390fd5b6001600160a01b0386166000908152601f60209081526040808320338452909152902054158015906110075750600084115b801561103657506001600160a01b0386166000908152601f602090815260408083203384529091529020548411155b15611148576001600160a01b0386166000908152601c602052604081208054869290611063908490612c83565b90915550506001600160a01b0385166000908152601c602052604081208054839290611090908490612c9a565b92505081905550846001600160a01b0316866001600160a01b03167fddf252ad1be2c89b69c2b068fc378daa952ba7f163c4a11628f55a4df523b3ef836040516110dc91815260200190565b60405180910390a360006064600a54846110f69190612c3a565b6111009190612c6f565b905061110c8184612c83565b6008600082825461111d9190612c9a565b9250508190555080601b60008282546111369190612c83565b909155506001945061114f9350505050565b6000925050505b9392505050565b604080516002808252606082018352600092839291906020830190803683375050600154604080516315ab88c960e31b815290519394506001600160a01b039091169263ad5c4648925060048083019260209291908290030181865afa1580156111c4573d6000803e3d6000fd5b505050506040513d601f19601f820116820180604052508101906111e89190612cc8565b816000815181106111fb576111fb612ce5565b60200260200101906001600160a01b031690816001600160a01b031681525050308160018151811061122f5761122f612ce5565b6001600160a01b03928316602091820292909201015260015460405163d06ca61f60e01b8152600092919091169063d06ca61f906112739087908690600401612d3f565b600060405180830381865afa158015611290573d6000803e3d6000fd5b505050506040513d6000823e601f3d908101601f191682016040526112b89190810190612d58565b9050806001815181106112cd576112cd612ce5565b602002602001015192505050919050565b601554600854106113635760088054600091829055308252601c60205260408220805491928392611310908490612c9a565b9091555061131f905081612114565b61136157306000908152601c602052604081208054839290611342908490612c83565b92505081905550806008600082825461135b9190612c9a565b90915550505b505b4761271081111561146e57601654156113c25760006064601654836113889190612c3a565b6113929190612c6f565b6004546005549192506113b39183916001600160a01b03908116911661232d565b506113be8183612c83565b9150505b6003546040805160008082526020820192839052926001600160a01b03169184916113ec91612e15565b60006040518083038185875af1925050503d8060008114611429576040519150601f19603f3d011682016040523d82523d6000602084013e61142e565b606091505b5050600980546000918290556003546001600160a01b03168252601c6020526040822080549394509092839290611466908490612c9a565b909155505050505b50565b6002546001600160a01b031633148061149457506003546001600160a01b031633145b61149d57600080fd5b6006805460ff60a01b1916600160a01b179055565b6002546001600160a01b03163314806114d557506003546001600160a01b031633145b6114de57600080fd5b6114ea81610e10612c3a565b60125550565b600080600080600042905060125460135461150b9190612c9a565b8110156115e4576000816012546013546115259190612c9a565b61152f9190612c83565b905061153e6201518082612c6f565b955061154b866018612c3a565b611557610e1083612c6f565b6115619190612c83565b945061156e866018612c3a565b6115789086612c9a565b61158390603c612c3a565b61158e603c83612c6f565b6115989190612c83565b93506115a584603c612c3a565b6115b186610e10612c3a565b6115be8862015180612c3a565b6115c89084612c83565b6115d29190612c83565b6115dc9190612c83565b9250506115f5565b600094506000935060009250600091505b5090919293565b6002546001600160a01b031633148061161f57506003546001600160a01b031633145b61162857600080fd5b601481111561163657600080fd5b600d55565b6002546001600160a01b031633148061165e57506003546001600160a01b031633145b61166757600080fd5b6001600160a01b031660009081526020805260409020805460ff19169055565b6002546001600160a01b03163314806116aa57506003546001600160a01b031633145b6116b357600080fd5b6017805460ff1916911515919091179055565b600c546000906001600160401b031615610e2f57600c546001600160401b03166116ee610df0565b6116fa90612710612c3a565b6117049190612c6f565b905090565b6002546001600160a01b031633148061172c57506003546001600160a01b031633145b61173557600080fd5b600c80546001600160401b03909216600160c01b026001600160c01b03909216919091179055565b6002546001600160a01b031633148061178057506003546001600160a01b031633145b61178957600080fd5b6064811061179657600080fd5b601655565b336001600160a01b037f000000000000000000000000000000000000000000000000000000000000000016146118135760405162461bcd60e51b815260206004820152601f60248201527f4f6e6c7920565246436f6f7264696e61746f722063616e2066756c66696c6c006044820152606401610fcc565b61181d8282612492565b5050565b60125460135460009142916118369190612c9a565b81101561185e578060125460135461184e9190612c9a565b6118589190612c83565b91505090565b600091505090565b6001600160a01b0382166000908152602080526040812054819060ff168061189c575033600090815260208052604090205460ff165b156118a9575060006118c6565b6064600d54846118b99190612c3a565b6118c39190612c6f565b90505b60006118d28285612c83565b600654909150600160a01b900460ff1615611958576001600160a01b038516600090815260208052604090205460ff168061191b575033600090815260208052604090205460ff165b6119585760405162461bcd60e51b815260206004820152600e60248201526d151c98591a5b99c814185d5cd95960921b6044820152606401610fcc565b6000841180156119775750336000908152601c60205260409020548411155b15611a7157336000908152601c60205260408120805486929061199b908490612c83565b90915550506001600160a01b0385166000908152601c6020526040812080548392906119c8908490612c9a565b90915550506040518181526001600160a01b0386169033907fddf252ad1be2c89b69c2b068fc378daa952ba7f163c4a11628f55a4df523b3ef9060200160405180910390a360006064600a5484611a1f9190612c3a565b611a299190612c6f565b9050611a358184612c83565b60086000828254611a469190612c9a565b9250508190555080601b6000828254611a5f9190612c83565b9091555060019450610dea9350505050565b506000949350505050565b6040516370a0823160e01b81523060048201526000907f00000000000000000000000000000000000000000000000000000000000000006001600160a01b0316906370a0823190602401602060405180830381865afa158015611ae3573d6000803e3d6000fd5b505050506040513d601f19601f820116820180604052508101906117049190612e31565b6002546001600160a01b0316331480611b2a57506003546001600160a01b031633145b611b3357600080fd5b6006805460ff60a01b19169055565b6002546001600160a01b0316331480611b6557506003546001600160a01b031633145b611b6e57600080fd5b80607b141561146e5760175460ff1615611b8a5761146e6124b0565b61181d6125bc565b6002546001600160a01b0316331480611bb557506003546001600160a01b031633145b611bbe57600080fd5b306000908152601c6020526040902054811115611bda57600080fd5b306000908152601c602052604081208054839290611bf9908490612c83565b9250508190555080600e6000828254611c129190612c9a565b909155505050565b6002546001600160a01b0316331480611c3d57506003546001600160a01b031633145b611c4657600080fd5b611c526012600a612f2e565b611c5d906064612c3a565b601b54611c6a9190612c6f565b811115611c7657600080fd5b611c826012600a612f2e565b611c8c9082612c3a565b60115550565b6002546001600160a01b0316331480611cb557506003546001600160a01b031633145b611cbe57600080fd5b600380546001600160a01b0319166001600160a01b0392909216919091179055565b6002546001600160a01b0316331480611d0357506003546001600160a01b031633145b611d0c57600080fd5b600280546001600160a01b0319166001600160a01b0392909216919091179055565b601a8181548110611d3e57600080fd5b600091825260209091206004909102018054600182015460028301546003909301549193506001600160a01b0316919084565b6002546001600160a01b0316331480611d9457506003546001600160a01b031633145b611d9d57600080fd5b600480546001600160a01b0319166001600160a01b0392909216919091179055565b6010543390600090611dd79063ffffffff8516612c3a565b6001600160a01b0383166000908152601c6020526040902054909150811115611e395760405162461bcd60e51b8152602060048201526014602482015273496e73756666696369656e742042616c616e636560601b6044820152606401610fcc565b6001600160a01b0382166000908152601c602052604081208054839290611e61908490612c83565b9091555050600c546001600160a01b0383166000908152601e6020526040902054600160401b9091046001600160401b03161115611ede57600c546001600160a01b0383166000908152601e60209081526040808320600160401b9094046001600160401b0316909355601d90522063ffffffff84169055611f12565b6001600160a01b0382166000908152601d60205260408120805463ffffffff86169290611f0c908490612c9a565b90915550505b6064611f1f826003612c3a565b611f299190612c6f565b60076000828254611f3a9190612c9a565b9091555060649050611f4d826005612c3a565b611f579190612c6f565b60086000828254611f689190612c9a565b9091555060649050611f7b826002612c3a565b611f859190612c6f565b60096000828254611f969190612c9a565b9091555060649050611fa982605a612c3a565b611fb39190612c6f565b600e6000828254611fc49190612c9a565b90915550600090505b8363ffffffff168163ffffffff16101561205f57600c80546001600160401b039081166000908152600b6020526040812080546001600160a01b0319166001600160a01b0388161790558254909116919061202783612f3d565b91906101000a8154816001600160401b0302191690836001600160401b0316021790555050808061205790612f64565b915050611fcd565b50600c546001600160401b03600160801b820481169116108015906120895750612087611821565b155b156120be5760175460ff16156120ab5760245460ff166120b0576120ab6124b0565b505050565b6120b86125bc565b50505050565b6120ab6112de565b6002546001600160a01b03163314806120e957506003546001600160a01b031633145b6120f257600080fd5b600580546001600160a01b0319166001600160a01b0392909216919091179055565b60008115612325576001546121349030906001600160a01b031684612789565b50604080516002808252606082018352600092602083019080368337019050509050308160008151811061216a5761216a612ce5565b6001600160a01b03928316602091820292909201810191909152600154604080516315ab88c960e31b81529051919093169263ad5c46489260048083019391928290030181865afa1580156121c3573d6000803e3d6000fd5b505050506040513d601f19601f820116820180604052508101906121e79190612cc8565b816001815181106121fa576121fa612ce5565b6001600160a01b0390921660209283029190910190910152600080739ac64cc6e4415144c455bd8e4837fea55603e5c36318cbafe58683863061223e426014612c9a565b604051602401612252959493929190612f7e565b6040516020818303038152906040529060e01b6020820180516001600160e01b03838183161783525050505060405161228b9190612e15565b6000604051808303816000865af19150503d80600081146122c8576040519150601f19603f3d011682016040523d82523d6000602084013e6122cd565b606091505b50915091508115612321576000818060200190518101906122ee9190612d58565b9050600281511061231f578060018151811061230c5761230c612ce5565b6020026020010151945050505050919050565b505b5050505b506000919050565b604080516002808252606082018352600092839291906020830190803683375050600154604080516315ab88c960e31b815290519394506001600160a01b039091169263ad5c4648925060048083019260209291908290030181865afa15801561239b573d6000803e3d6000fd5b505050506040513d601f19601f820116820180604052508101906123bf9190612cc8565b816000815181106123d2576123d2612ce5565b60200260200101906001600160a01b031690816001600160a01b031681525050838160018151811061240657612406612ce5565b6001600160a01b0392831660209182029290920101526001541663b6f9de958660008487612435426014612c9a565b6040518663ffffffff1660e01b81526004016124549493929190612fbd565b6000604051808303818588803b15801561246d57600080fd5b505af19350505050801561247f575060015b61248857611a71565b600191505061114f565b6023819055806124a06125bc565b50506024805460ff191690555050565b6019546040516370a0823160e01b81523060048201527f00000000000000000000000000000000000000000000000000000000000000006001600160a01b0316906370a0823190602401602060405180830381865afa158015612517573d6000803e3d6000fd5b505050506040513d601f19601f8201168201806040525081019061253b9190612e31565b1161259c5760405162461bcd60e51b815260206004820152602b60248201527f4e6f7420656e6f756768204c494e4b202d2066696c6c20636f6e74726163742060448201526a1dda5d1a0819985d58d95d60aa1b6064820152608401610fcc565b6125aa60185460195461281a565b6022556024805460ff19166001179055565b600c546000906001600160401b031615610e2f57600c5442906000906125ea906001600160401b0316612995565b90506000600b600083815260200190815260200160002060009054906101000a90046001600160a01b03169050601a6040518060800160405280848152602001836001600160a01b03168152602001600e5481526020016012546013546126519190612c9a565b905281546001808201845560009384526020808520845160049094020192835583015190820180546001600160a01b0319166001600160a01b03909216919091179055604082015160028201556060909101516003909101556013849055601154601055600e8054600780549092559190556126cd8282611866565b50604080516001600160a01b0384168152602081018390527f2e798dd4337e515c79b64c40e1a93baa1aefbd9180ac7905e02508edd7971e50910160405180910390a1600c8054600160401b90046001600160401b031690600861273083612f3d565b82546001600160401b039182166101009390930a928302919092021990911617905550600c805467ffffffffffffffff19169055600f8054829190600090612779908490612c9a565b9091555060019695505050505050565b6001600160a01b038381166000908152601f6020908152604080832093861683529290529081208054908390836127c08385612c9a565b90915550506001600160a01b038085169086167f8c5be1e5ebec7d5bd14f71427d1e84f3dd0314c0f7b2291e5b200ac8c7c3b9256127fe8685612c9a565b60405190815260200160405180910390a3506001949350505050565b60007f00000000000000000000000000000000000000000000000000000000000000006001600160a01b0316634000aea07f00000000000000000000000000000000000000000000000000000000000000008486600060405160200161288a929190918252602082015260400190565b6040516020818303038152906040526040518463ffffffff1660e01b81526004016128b793929190612ff2565b6020604051808303816000875af11580156128d6573d6000803e3d6000fd5b505050506040513d601f19601f820116820180604052508101906128fa9190613022565b5060008381526020818152604080832054815180840188905280830185905230606082015260808082018390528351808303909101815260a090910190925281519183019190912086845292909152612954906001612c9a565b60008581526020818152604091829020929092558051808301879052808201849052815180820383018152606090910190915280519101205b949350505050565b6000806000600e546023546021546129ad9190612c9a565b6129b79190612c9a565b604080514260208201526bffffffffffffffffffffffff193360601b16918101919091526054810182905290915084906074016040516020818303038152906040528051906020012060001c612a0d919061303f565b602180549193506000612a1f83613053565b9091555091949350505050565b6001600160a01b038116811461146e57600080fd5b600060208284031215612a5357600080fd5b813561114f81612a2c565b600060208284031215612a7057600080fd5b5035919050565b60005b83811015612a92578181015183820152602001612a7a565b838111156120b85750506000910152565b60008151808452612abb816020860160208601612a77565b601f01601f19169290920160200192915050565b60208152600061114f6020830184612aa3565b60008060408385031215612af557600080fd5b8235612b0081612a2c565b946020939093013593505050565b600060208284031215612b2057600080fd5b81356001600160401b038116811461114f57600080fd5b600080600060608486031215612b4c57600080fd5b8335612b5781612a2c565b92506020840135612b6781612a2c565b929592945050506040919091013590565b801515811461146e57600080fd5b600060208284031215612b9857600080fd5b813561114f81612b78565b60008060408385031215612bb657600080fd5b50508035926020909101359150565b60008060408385031215612bd857600080fd5b8235612be381612a2c565b91506020830135612bf381612a2c565b809150509250929050565b600060208284031215612c1057600080fd5b813563ffffffff8116811461114f57600080fd5b634e487b7160e01b600052601160045260246000fd5b6000816000190483118215151615612c5457612c54612c24565b500290565b634e487b7160e01b600052601260045260246000fd5b600082612c7e57612c7e612c59565b500490565b600082821015612c9557612c95612c24565b500390565b60008219821115612cad57612cad612c24565b500190565b634e487b7160e01b600052604160045260246000fd5b600060208284031215612cda57600080fd5b815161114f81612a2c565b634e487b7160e01b600052603260045260246000fd5b600081518084526020808501945080840160005b83811015612d345781516001600160a01b031687529582019590820190600101612d0f565b509495945050505050565b82815260406020820152600061298d6040830184612cfb565b60006020808385031215612d6b57600080fd5b82516001600160401b0380821115612d8257600080fd5b818501915085601f830112612d9657600080fd5b815181811115612da857612da8612cb2565b8060051b604051601f19603f83011681018181108582111715612dcd57612dcd612cb2565b604052918252848201925083810185019188831115612deb57600080fd5b938501935b82851015612e0957845184529385019392850192612df0565b98975050505050505050565b60008251612e27818460208701612a77565b9190910192915050565b600060208284031215612e4357600080fd5b5051919050565b600181815b80851115612e85578160001904821115612e6b57612e6b612c24565b80851615612e7857918102915b93841c9390800290612e4f565b509250929050565b600082612e9c57506001610dea565b81612ea957506000610dea565b8160018114612ebf5760028114612ec957612ee5565b6001915050610dea565b60ff841115612eda57612eda612c24565b50506001821b610dea565b5060208310610133831016604e8410600b8410161715612f08575081810a610dea565b612f128383612e4a565b8060001904821115612f2657612f26612c24565b029392505050565b600061114f60ff841683612e8d565b60006001600160401b0380831681811415612f5a57612f5a612c24565b6001019392505050565b600063ffffffff80831681811415612f5a57612f5a612c24565b85815260ff8516602082015260a060408201526000612fa060a0830186612cfb565b6001600160a01b0394909416606083015250608001529392505050565b848152608060208201526000612fd66080830186612cfb565b6001600160a01b03949094166040830152506060015292915050565b60018060a01b03841681528260208201526060604082015260006130196060830184612aa3565b95945050505050565b60006020828403121561303457600080fd5b815161114f81612b78565b60008261304e5761304e612c59565b500690565b600060001982141561306757613067612c24565b506001019056fea26469706673582212200e47599be6d5bc475a748307e83c8f433ed52749b5b2e27f320a23fb559507b064736f6c634300080a0033",
			"opcodes": "PUSH1 0xC0 PUSH1 0x40 MSTORE PUSH1 0x1 DUP1 SLOAD PUSH1 0x1 PUSH1 0x1 PUSH1 0xA0 SHL SUB NOT SWAP1 DUP2 AND PUSH20 0x9AC64CC6E4415144C455BD8E4837FEA55603E5C3 OR SWAP1 SWAP2 SSTORE PUSH1 0x4 DUP1 SLOAD DUP3 AND PUSH20 0x78867BBEEF44F2326BF8DDD1941A4439382EF2A7 OR SWAP1 SSTORE PUSH1 0x6 DUP1 SLOAD SWAP1 SWAP2 AND PUSH20 0x84B9B910527AD5C03A9CA831909E21E236EA7B06 OR SWAP1 SSTORE PUSH1 0xA DUP1 DUP1 SSTORE PUSH1 0xC DUP1 SLOAD PUSH25 0x1E000000000000003200000000000000000000000000000000 PUSH1 0x1 PUSH1 0x1 PUSH1 0x80 SHL SUB SWAP1 SWAP2 AND OR SWAP1 SSTORE PUSH3 0xA9 SWAP1 PUSH1 0x12 SWAP1 PUSH3 0x2F9 JUMP JUMPDEST PUSH3 0xB6 SWAP1 PUSH1 0x64 PUSH3 0x311 JUMP JUMPDEST PUSH1 0x10 SSTORE PUSH1 0x10 SLOAD PUSH1 0x11 SSTORE PUSH2 0xE10 PUSH1 0x12 SSTORE PUSH1 0x5 PUSH1 0x10 SLOAD PUSH3 0xD6 SWAP2 SWAP1 PUSH3 0x333 JUMP JUMPDEST PUSH1 0x15 SSTORE PUSH1 0x14 PUSH1 0x16 SSTORE PUSH10 0xD3C21BCECCEDA1000000 PUSH1 0x1B SSTORE PUSH1 0x1 PUSH1 0x21 SSTORE CALLVALUE DUP1 ISZERO PUSH3 0xFE JUMPI PUSH1 0x0 DUP1 REVERT JUMPDEST POP PUSH20 0xA555FC018435BEF5A13C6C6870A9D4C11DEC329C PUSH1 0xA0 MSTORE PUSH20 0x84B9B910527AD5C03A9CA831909E21E236EA7B06 PUSH1 0x80 MSTORE PUSH32 0xCAF3C3727E033261D383B315559476F48034C13B18F8CAFED4D871ABE5049186 PUSH1 0x18 SSTORE PUSH8 0x2C68AF0BB140000 PUSH1 0x19 SSTORE PUSH1 0x17 DUP1 SLOAD PUSH1 0x1 PUSH1 0xFF NOT SWAP2 DUP3 AND DUP2 OR SWAP1 SWAP3 SSTORE PUSH1 0x1B SLOAD CALLER PUSH1 0x0 DUP2 DUP2 MSTORE PUSH1 0x1C PUSH1 0x20 SWAP1 DUP2 MSTORE PUSH1 0x40 DUP1 DUP4 KECCAK256 DUP6 SWAP1 SSTORE PUSH1 0x14 SWAP5 SWAP1 SWAP5 SSTORE ADDRESS DUP3 MSTORE DUP1 MSTORE DUP3 DUP2 KECCAK256 DUP1 SLOAD DUP6 AND DUP7 OR SWAP1 SSTORE DUP2 DUP2 MSTORE SWAP2 SWAP1 SWAP2 KECCAK256 DUP1 SLOAD SWAP1 SWAP3 AND SWAP1 SWAP3 OR SWAP1 SSTORE PUSH1 0x2 DUP1 SLOAD PUSH1 0x1 PUSH1 0x1 PUSH1 0xA0 SHL SUB NOT SWAP1 DUP2 AND DUP4 OR SWAP1 SWAP2 SSTORE PUSH1 0x3 DUP1 SLOAD DUP3 AND DUP4 OR SWAP1 SSTORE PUSH1 0x5 DUP1 SLOAD SWAP1 SWAP2 AND SWAP1 SWAP2 OR SWAP1 SSTORE TIMESTAMP PUSH1 0x13 SSTORE PUSH3 0x356 JUMP JUMPDEST PUSH4 0x4E487B71 PUSH1 0xE0 SHL PUSH1 0x0 MSTORE PUSH1 0x11 PUSH1 0x4 MSTORE PUSH1 0x24 PUSH1 0x0 REVERT JUMPDEST PUSH1 0x1 DUP2 DUP2 JUMPDEST DUP1 DUP6 GT ISZERO PUSH3 0x23B JUMPI DUP2 PUSH1 0x0 NOT DIV DUP3 GT ISZERO PUSH3 0x21F JUMPI PUSH3 0x21F PUSH3 0x1E4 JUMP JUMPDEST DUP1 DUP6 AND ISZERO PUSH3 0x22D JUMPI SWAP2 DUP2 MUL SWAP2 JUMPDEST SWAP4 DUP5 SHR SWAP4 SWAP1 DUP1 MUL SWAP1 PUSH3 0x1FF JUMP JUMPDEST POP SWAP3 POP SWAP3 SWAP1 POP JUMP JUMPDEST PUSH1 0x0 DUP3 PUSH3 0x254 JUMPI POP PUSH1 0x1 PUSH3 0x2F3 JUMP JUMPDEST DUP2 PUSH3 0x263 JUMPI POP PUSH1 0x0 PUSH3 0x2F3 JUMP JUMPDEST DUP2 PUSH1 0x1 DUP2 EQ PUSH3 0x27C JUMPI PUSH1 0x2 DUP2 EQ PUSH3 0x287 JUMPI PUSH3 0x2A7 JUMP JUMPDEST PUSH1 0x1 SWAP2 POP POP PUSH3 0x2F3 JUMP JUMPDEST PUSH1 0xFF DUP5 GT ISZERO PUSH3 0x29B JUMPI PUSH3 0x29B PUSH3 0x1E4 JUMP JUMPDEST POP POP PUSH1 0x1 DUP3 SHL PUSH3 0x2F3 JUMP JUMPDEST POP PUSH1 0x20 DUP4 LT PUSH2 0x133 DUP4 LT AND PUSH1 0x4E DUP5 LT PUSH1 0xB DUP5 LT AND OR ISZERO PUSH3 0x2CC JUMPI POP DUP2 DUP2 EXP PUSH3 0x2F3 JUMP JUMPDEST PUSH3 0x2D8 DUP4 DUP4 PUSH3 0x1FA JUMP JUMPDEST DUP1 PUSH1 0x0 NOT DIV DUP3 GT ISZERO PUSH3 0x2EF JUMPI PUSH3 0x2EF PUSH3 0x1E4 JUMP JUMPDEST MUL SWAP1 POP JUMPDEST SWAP3 SWAP2 POP POP JUMP JUMPDEST PUSH1 0x0 PUSH3 0x30A PUSH1 0xFF DUP5 AND DUP4 PUSH3 0x243 JUMP JUMPDEST SWAP4 SWAP3 POP POP POP JUMP JUMPDEST PUSH1 0x0 DUP2 PUSH1 0x0 NOT DIV DUP4 GT DUP3 ISZERO ISZERO AND ISZERO PUSH3 0x32E JUMPI PUSH3 0x32E PUSH3 0x1E4 JUMP JUMPDEST POP MUL SWAP1 JUMP JUMPDEST PUSH1 0x0 DUP3 PUSH3 0x351 JUMPI PUSH4 0x4E487B71 PUSH1 0xE0 SHL PUSH1 0x0 MSTORE PUSH1 0x12 PUSH1 0x4 MSTORE PUSH1 0x24 PUSH1 0x0 REVERT JUMPDEST POP DIV SWAP1 JUMP JUMPDEST PUSH1 0x80 MLOAD PUSH1 0xA0 MLOAD PUSH2 0x30A4 PUSH3 0x391 PUSH1 0x0 CODECOPY PUSH1 0x0 DUP2 DUP2 PUSH2 0x17A6 ADD MSTORE PUSH2 0x284D ADD MSTORE PUSH1 0x0 DUP2 DUP2 PUSH2 0x1A94 ADD MSTORE DUP2 DUP2 PUSH2 0x24C8 ADD MSTORE PUSH2 0x281E ADD MSTORE PUSH2 0x30A4 PUSH1 0x0 RETURN INVALID PUSH1 0x80 PUSH1 0x40 MSTORE PUSH1 0x4 CALLDATASIZE LT PUSH2 0x408 JUMPI PUSH1 0x0 CALLDATALOAD PUSH1 0xE0 SHR DUP1 PUSH4 0x77150EEE GT PUSH2 0x213 JUMPI DUP1 PUSH4 0xC0616601 GT PUSH2 0x123 JUMPI DUP1 PUSH4 0xDD62ED3E GT PUSH2 0xAB JUMPI DUP1 PUSH4 0xF03FA824 GT PUSH2 0x7A JUMPI DUP1 PUSH4 0xF03FA824 EQ PUSH2 0xC77 JUMPI DUP1 PUSH4 0xF25790E6 EQ PUSH2 0xC8D JUMPI DUP1 PUSH4 0xF3430C76 EQ PUSH2 0xCAD JUMPI DUP1 PUSH4 0xF7A6340D EQ PUSH2 0xCCD JUMPI DUP1 PUSH4 0xFC4A4A1E EQ PUSH2 0xCED JUMPI PUSH1 0x0 DUP1 REVERT JUMPDEST DUP1 PUSH4 0xDD62ED3E EQ PUSH2 0xBDE JUMPI DUP1 PUSH4 0xDF75BC85 EQ PUSH2 0xC24 JUMPI DUP1 PUSH4 0xE6C6E0F2 EQ PUSH2 0xC4B JUMPI DUP1 PUSH4 0xEAD0AB27 EQ PUSH2 0xC61 JUMPI PUSH1 0x0 DUP1 REVERT JUMPDEST DUP1 PUSH4 0xC9F01B3C GT PUSH2 0xF2 JUMPI DUP1 PUSH4 0xC9F01B3C EQ PUSH2 0xB26 JUMPI DUP1 PUSH4 0xCBF474A8 EQ PUSH2 0xB40 JUMPI DUP1 PUSH4 0xD0A5EB4E EQ PUSH2 0xB60 JUMPI DUP1 PUSH4 0xD1547639 EQ PUSH2 0xB80 JUMPI DUP1 PUSH4 0xD21D64F1 EQ PUSH2 0xBC8 JUMPI PUSH1 0x0 DUP1 REVERT JUMPDEST DUP1 PUSH4 0xC0616601 EQ PUSH2 0xAB0 JUMPI DUP1 PUSH4 0xC2E799FF EQ PUSH2 0xAD0 JUMPI DUP1 PUSH4 0xC5639CC6 EQ PUSH2 0xAF0 JUMPI DUP1 PUSH4 0xC5BD7653 EQ PUSH2 0xB10 JUMPI PUSH1 0x0 DUP1 REVERT JUMPDEST DUP1 PUSH4 0xA9059CBB GT PUSH2 0x1A6 JUMPI DUP1 PUSH4 0xB4228DB0 GT PUSH2 0x175 JUMPI DUP1 PUSH4 0xB4228DB0 EQ PUSH2 0xA2F JUMPI DUP1 PUSH4 0xBD16A09C EQ PUSH2 0xA4F JUMPI DUP1 PUSH4 0xBED99850 EQ PUSH2 0xA65 JUMPI DUP1 PUSH4 0xBF6A1C0D EQ PUSH2 0xA7B JUMPI DUP1 PUSH4 0xBFAC3003 EQ PUSH2 0xA90 JUMPI PUSH1 0x0 DUP1 REVERT JUMPDEST DUP1 PUSH4 0xA9059CBB EQ PUSH2 0x9B2 JUMPI DUP1 PUSH4 0xA9E8FD78 EQ PUSH2 0x9D2 JUMPI DUP1 PUSH4 0xAC428E7A EQ PUSH2 0x9F9 JUMPI DUP1 PUSH4 0xB187BD26 EQ PUSH2 0xA0E JUMPI PUSH1 0x0 DUP1 REVERT JUMPDEST DUP1 PUSH4 0x94985DDD GT PUSH2 0x1E2 JUMPI DUP1 PUSH4 0x94985DDD EQ PUSH2 0x936 JUMPI DUP1 PUSH4 0x95D89B41 EQ PUSH2 0x956 JUMPI DUP1 PUSH4 0x9AC9F2A0 EQ PUSH2 0x98A JUMPI DUP1 PUSH4 0xA8E7F7C8 EQ PUSH2 0x99F JUMPI PUSH1 0x0 DUP1 REVERT JUMPDEST DUP1 PUSH4 0x77150EEE EQ PUSH2 0x8BE JUMPI DUP1 PUSH4 0x7EF267C0 EQ PUSH2 0x8DE JUMPI DUP1 PUSH4 0x8CD9E3A3 EQ PUSH2 0x8FE JUMPI DUP1 PUSH4 0x94071D9A EQ PUSH2 0x914 JUMPI PUSH1 0x0 DUP1 REVERT JUMPDEST DUP1 PUSH4 0x362D04E7 GT PUSH2 0x319 JUMPI DUP1 PUSH4 0x52C655F3 GT PUSH2 0x2A1 JUMPI DUP1 PUSH4 0x6B7B15D5 GT PUSH2 0x270 JUMPI DUP1 PUSH4 0x6B7B15D5 EQ PUSH2 0x7FD JUMPI DUP1 PUSH4 0x6B8FA66C EQ PUSH2 0x81D JUMPI DUP1 PUSH4 0x6E83CC1A EQ PUSH2 0x833 JUMPI DUP1 PUSH4 0x6EA405D3 EQ PUSH2 0x872 JUMPI DUP1 PUSH4 0x70A08231 EQ PUSH2 0x888 JUMPI PUSH1 0x0 DUP1 REVERT JUMPDEST DUP1 PUSH4 0x52C655F3 EQ PUSH2 0x792 JUMPI DUP1 PUSH4 0x53321C88 EQ PUSH2 0x7B2 JUMPI DUP1 PUSH4 0x5A273B79 EQ PUSH2 0x7C8 JUMPI DUP1 PUSH4 0x686AC48A EQ PUSH2 0x7E8 JUMPI PUSH1 0x0 DUP1 REVERT JUMPDEST DUP1 PUSH4 0x3F180BF5 GT PUSH2 0x2E8 JUMPI DUP1 PUSH4 0x3F180BF5 EQ PUSH2 0x6F7 JUMPI DUP1 PUSH4 0x4ADED88A EQ PUSH2 0x717 JUMPI DUP1 PUSH4 0x4E09D120 EQ PUSH2 0x737 JUMPI DUP1 PUSH4 0x4F2BFCBF EQ PUSH2 0x74D JUMPI DUP1 PUSH4 0x51BD4F8D EQ PUSH2 0x77C JUMPI PUSH1 0x0 DUP1 REVERT JUMPDEST DUP1 PUSH4 0x362D04E7 EQ PUSH2 0x676 JUMPI DUP1 PUSH4 0x36F56BA0 EQ PUSH2 0x68C JUMPI DUP1 PUSH4 0x378DC3DC EQ PUSH2 0x6AC JUMPI DUP1 PUSH4 0x392B9273 EQ PUSH2 0x6C2 JUMPI PUSH1 0x0 DUP1 REVERT JUMPDEST DUP1 PUSH4 0x176412C1 GT PUSH2 0x39C JUMPI DUP1 PUSH4 0x241F50DE GT PUSH2 0x36B JUMPI DUP1 PUSH4 0x241F50DE EQ PUSH2 0x5E5 JUMPI DUP1 PUSH4 0x2630DD3A EQ PUSH2 0x605 JUMPI DUP1 PUSH4 0x2854D65C EQ PUSH2 0x61A JUMPI DUP1 PUSH4 0x313CE567 EQ PUSH2 0x62F JUMPI DUP1 PUSH4 0x331A7049 EQ PUSH2 0x656 JUMPI PUSH1 0x0 DUP1 REVERT JUMPDEST DUP1 PUSH4 0x176412C1 EQ PUSH2 0x570 JUMPI DUP1 PUSH4 0x18160DDD EQ PUSH2 0x590 JUMPI DUP1 PUSH4 0x189D165E EQ PUSH2 0x5A5 JUMPI DUP1 PUSH4 0x23B872DD EQ PUSH2 0x5C5 JUMPI PUSH1 0x0 DUP1 REVERT JUMPDEST DUP1 PUSH4 0x13191A6E GT PUSH2 0x3D8 JUMPI DUP1 PUSH4 0x13191A6E EQ PUSH2 0x4DE JUMPI DUP1 PUSH4 0x1567D567 EQ PUSH2 0x501 JUMPI DUP1 PUSH4 0x1598926E EQ PUSH2 0x517 JUMPI DUP1 PUSH4 0x16279055 EQ PUSH2 0x54F JUMPI PUSH1 0x0 DUP1 REVERT JUMPDEST DUP1 PUSH3 0x535169 EQ PUSH2 0x414 JUMPI DUP1 PUSH4 0x4DC1C4A EQ PUSH2 0x436 JUMPI DUP1 PUSH4 0x6FDDE03 EQ PUSH2 0x456 JUMPI DUP1 PUSH4 0x95EA7B3 EQ PUSH2 0x4AE JUMPI PUSH1 0x0 DUP1 REVERT JUMPDEST CALLDATASIZE PUSH2 0x40F JUMPI STOP JUMPDEST PUSH1 0x0 DUP1 REVERT JUMPDEST CALLVALUE DUP1 ISZERO PUSH2 0x420 JUMPI PUSH1 0x0 DUP1 REVERT JUMPDEST POP PUSH2 0x434 PUSH2 0x42F CALLDATASIZE PUSH1 0x4 PUSH2 0x2A41 JUMP JUMPDEST PUSH2 0xD03 JUMP JUMPDEST STOP JUMPDEST CALLVALUE DUP1 ISZERO PUSH2 0x442 JUMPI PUSH1 0x0 DUP1 REVERT JUMPDEST POP PUSH2 0x434 PUSH2 0x451 CALLDATASIZE PUSH1 0x4 PUSH2 0x2A5E JUMP JUMPDEST PUSH2 0xD52 JUMP JUMPDEST CALLVALUE DUP1 ISZERO PUSH2 0x462 JUMPI PUSH1 0x0 DUP1 REVERT JUMPDEST POP PUSH2 0x498 PUSH1 0x40 MLOAD DUP1 PUSH1 0x40 ADD PUSH1 0x40 MSTORE DUP1 PUSH1 0x16 DUP2 MSTORE PUSH1 0x20 ADD PUSH22 0x22BA3432B93730B6102637BA3A32B93C902A37B5B2B7 PUSH1 0x51 SHL DUP2 MSTORE POP DUP2 JUMP JUMPDEST PUSH1 0x40 MLOAD PUSH2 0x4A5 SWAP2 SWAP1 PUSH2 0x2ACF JUMP JUMPDEST PUSH1 0x40 MLOAD DUP1 SWAP2 SUB SWAP1 RETURN JUMPDEST CALLVALUE DUP1 ISZERO PUSH2 0x4BA JUMPI PUSH1 0x0 DUP1 REVERT JUMPDEST POP PUSH2 0x4CE PUSH2 0x4C9 CALLDATASIZE PUSH1 0x4 PUSH2 0x2AE2 JUMP JUMPDEST PUSH2 0xD83 JUMP JUMPDEST PUSH1 0x40 MLOAD SWAP1 ISZERO ISZERO DUP2 MSTORE PUSH1 0x20 ADD PUSH2 0x4A5 JUMP JUMPDEST CALLVALUE DUP1 ISZERO PUSH2 0x4EA JUMPI PUSH1 0x0 DUP1 REVERT JUMPDEST POP PUSH2 0x4F3 PUSH2 0xDF0 JUMP JUMPDEST PUSH1 0x40 MLOAD SWAP1 DUP2 MSTORE PUSH1 0x20 ADD PUSH2 0x4A5 JUMP JUMPDEST CALLVALUE DUP1 ISZERO PUSH2 0x50D JUMPI PUSH1 0x0 DUP1 REVERT JUMPDEST POP PUSH2 0x4F3 PUSH1 0x12 SLOAD DUP2 JUMP JUMPDEST CALLVALUE DUP1 ISZERO PUSH2 0x523 JUMPI PUSH1 0x0 DUP1 REVERT JUMPDEST POP PUSH1 0x6 SLOAD PUSH2 0x537 SWAP1 PUSH1 0x1 PUSH1 0x1 PUSH1 0xA0 SHL SUB AND DUP2 JUMP JUMPDEST PUSH1 0x40 MLOAD PUSH1 0x1 PUSH1 0x1 PUSH1 0xA0 SHL SUB SWAP1 SWAP2 AND DUP2 MSTORE PUSH1 0x20 ADD PUSH2 0x4A5 JUMP JUMPDEST CALLVALUE DUP1 ISZERO PUSH2 0x55B JUMPI PUSH1 0x0 DUP1 REVERT JUMPDEST POP PUSH2 0x4CE PUSH2 0x56A CALLDATASIZE PUSH1 0x4 PUSH2 0x2A41 JUMP JUMPDEST EXTCODESIZE ISZERO ISZERO SWAP1 JUMP JUMPDEST CALLVALUE DUP1 ISZERO PUSH2 0x57C JUMPI PUSH1 0x0 DUP1 REVERT JUMPDEST POP PUSH2 0x434 PUSH2 0x58B CALLDATASIZE PUSH1 0x4 PUSH2 0x2B0E JUMP JUMPDEST PUSH2 0xE35 JUMP JUMPDEST CALLVALUE DUP1 ISZERO PUSH2 0x59C JUMPI PUSH1 0x0 DUP1 REVERT JUMPDEST POP PUSH1 0x1B SLOAD PUSH2 0x4F3 JUMP JUMPDEST CALLVALUE DUP1 ISZERO PUSH2 0x5B1 JUMPI PUSH1 0x0 DUP1 REVERT JUMPDEST POP PUSH2 0x434 PUSH2 0x5C0 CALLDATASIZE PUSH1 0x4 PUSH2 0x2A5E JUMP JUMPDEST PUSH2 0xE8E JUMP JUMPDEST CALLVALUE DUP1 ISZERO PUSH2 0x5D1 JUMPI PUSH1 0x0 DUP1 REVERT JUMPDEST POP PUSH2 0x4CE PUSH2 0x5E0 CALLDATASIZE PUSH1 0x4 PUSH2 0x2B37 JUMP JUMPDEST PUSH2 0xECC JUMP JUMPDEST CALLVALUE DUP1 ISZERO PUSH2 0x5F1 JUMPI PUSH1 0x0 DUP1 REVERT JUMPDEST POP PUSH2 0x4F3 PUSH2 0x600 CALLDATASIZE PUSH1 0x4 PUSH2 0x2A5E JUMP JUMPDEST PUSH2 0x1156 JUMP JUMPDEST CALLVALUE DUP1 ISZERO PUSH2 0x611 JUMPI PUSH1 0x0 DUP1 REVERT JUMPDEST POP PUSH2 0x434 PUSH2 0x12DE JUMP JUMPDEST CALLVALUE DUP1 ISZERO PUSH2 0x626 JUMPI PUSH1 0x0 DUP1 REVERT JUMPDEST POP PUSH2 0x434 PUSH2 0x1471 JUMP JUMPDEST CALLVALUE DUP1 ISZERO PUSH2 0x63B JUMPI PUSH1 0x0 DUP1 REVERT JUMPDEST POP PUSH2 0x644 PUSH1 0x12 DUP2 JUMP JUMPDEST PUSH1 0x40 MLOAD PUSH1 0xFF SWAP1 SWAP2 AND DUP2 MSTORE PUSH1 0x20 ADD PUSH2 0x4A5 JUMP JUMPDEST CALLVALUE DUP1 ISZERO PUSH2 0x662 JUMPI PUSH1 0x0 DUP1 REVERT JUMPDEST POP PUSH1 0x3 SLOAD PUSH2 0x537 SWAP1 PUSH1 0x1 PUSH1 0x1 PUSH1 0xA0 SHL SUB AND DUP2 JUMP JUMPDEST CALLVALUE DUP1 ISZERO PUSH2 0x682 JUMPI PUSH1 0x0 DUP1 REVERT JUMPDEST POP PUSH2 0x4F3 PUSH1 0xF SLOAD DUP2 JUMP JUMPDEST CALLVALUE DUP1 ISZERO PUSH2 0x698 JUMPI PUSH1 0x0 DUP1 REVERT JUMPDEST POP PUSH2 0x434 PUSH2 0x6A7 CALLDATASIZE PUSH1 0x4 PUSH2 0x2A5E JUMP JUMPDEST PUSH2 0x14B2 JUMP JUMPDEST CALLVALUE DUP1 ISZERO PUSH2 0x6B8 JUMPI PUSH1 0x0 DUP1 REVERT JUMPDEST POP PUSH2 0x4F3 PUSH1 0x14 SLOAD DUP2 JUMP JUMPDEST CALLVALUE DUP1 ISZERO PUSH2 0x6CE JUMPI PUSH1 0x0 DUP1 REVERT JUMPDEST POP PUSH2 0x6D7 PUSH2 0x14F0 JUMP JUMPDEST PUSH1 0x40 DUP1 MLOAD SWAP5 DUP6 MSTORE PUSH1 0x20 DUP6 ADD SWAP4 SWAP1 SWAP4 MSTORE SWAP2 DUP4 ADD MSTORE PUSH1 0x60 DUP3 ADD MSTORE PUSH1 0x80 ADD PUSH2 0x4A5 JUMP JUMPDEST CALLVALUE DUP1 ISZERO PUSH2 0x703 JUMPI PUSH1 0x0 DUP1 REVERT JUMPDEST POP PUSH2 0x434 PUSH2 0x712 CALLDATASIZE PUSH1 0x4 PUSH2 0x2A5E JUMP JUMPDEST PUSH2 0x15FC JUMP JUMPDEST CALLVALUE DUP1 ISZERO PUSH2 0x723 JUMPI PUSH1 0x0 DUP1 REVERT JUMPDEST POP PUSH2 0x434 PUSH2 0x732 CALLDATASIZE PUSH1 0x4 PUSH2 0x2A41 JUMP JUMPDEST PUSH2 0x163B JUMP JUMPDEST CALLVALUE DUP1 ISZERO PUSH2 0x743 JUMPI PUSH1 0x0 DUP1 REVERT JUMPDEST POP PUSH2 0x4F3 PUSH1 0x23 SLOAD DUP2 JUMP JUMPDEST CALLVALUE DUP1 ISZERO PUSH2 0x759 JUMPI PUSH1 0x0 DUP1 REVERT JUMPDEST POP PUSH2 0x4CE PUSH2 0x768 CALLDATASIZE PUSH1 0x4 PUSH2 0x2A41 JUMP JUMPDEST PUSH1 0x20 DUP1 MSTORE PUSH1 0x0 SWAP1 DUP2 MSTORE PUSH1 0x40 SWAP1 KECCAK256 SLOAD PUSH1 0xFF AND DUP2 JUMP JUMPDEST CALLVALUE DUP1 ISZERO PUSH2 0x788 JUMPI PUSH1 0x0 DUP1 REVERT JUMPDEST POP PUSH2 0x4F3 PUSH1 0xE SLOAD DUP2 JUMP JUMPDEST CALLVALUE DUP1 ISZERO PUSH2 0x79E JUMPI PUSH1 0x0 DUP1 REVERT JUMPDEST POP PUSH2 0x434 PUSH2 0x7AD CALLDATASIZE PUSH1 0x4 PUSH2 0x2B86 JUMP JUMPDEST PUSH2 0x1687 JUMP JUMPDEST CALLVALUE DUP1 ISZERO PUSH2 0x7BE JUMPI PUSH1 0x0 DUP1 REVERT JUMPDEST POP PUSH2 0x4F3 PUSH1 0x10 SLOAD DUP2 JUMP JUMPDEST CALLVALUE DUP1 ISZERO PUSH2 0x7D4 JUMPI PUSH1 0x0 DUP1 REVERT JUMPDEST POP PUSH1 0x4 SLOAD PUSH2 0x537 SWAP1 PUSH1 0x1 PUSH1 0x1 PUSH1 0xA0 SHL SUB AND DUP2 JUMP JUMPDEST CALLVALUE DUP1 ISZERO PUSH2 0x7F4 JUMPI PUSH1 0x0 DUP1 REVERT JUMPDEST POP PUSH2 0x4F3 PUSH2 0x16C6 JUMP JUMPDEST CALLVALUE DUP1 ISZERO PUSH2 0x809 JUMPI PUSH1 0x0 DUP1 REVERT JUMPDEST POP PUSH2 0x434 PUSH2 0x818 CALLDATASIZE PUSH1 0x4 PUSH2 0x2B0E JUMP JUMPDEST PUSH2 0x1709 JUMP JUMPDEST CALLVALUE DUP1 ISZERO PUSH2 0x829 JUMPI PUSH1 0x0 DUP1 REVERT JUMPDEST POP PUSH2 0x4F3 PUSH1 0x22 SLOAD DUP2 JUMP JUMPDEST CALLVALUE DUP1 ISZERO PUSH2 0x83F JUMPI PUSH1 0x0 DUP1 REVERT JUMPDEST POP PUSH1 0xC SLOAD PUSH2 0x85A SWAP1 PUSH1 0x1 PUSH1 0x80 SHL SWAP1 DIV PUSH1 0x1 PUSH1 0x1 PUSH1 0x40 SHL SUB AND DUP2 JUMP JUMPDEST PUSH1 0x40 MLOAD PUSH1 0x1 PUSH1 0x1 PUSH1 0x40 SHL SUB SWAP1 SWAP2 AND DUP2 MSTORE PUSH1 0x20 ADD PUSH2 0x4A5 JUMP JUMPDEST CALLVALUE DUP1 ISZERO PUSH2 0x87E JUMPI PUSH1 0x0 DUP1 REVERT JUMPDEST POP PUSH2 0x4F3 PUSH1 0xD SLOAD DUP2 JUMP JUMPDEST CALLVALUE DUP1 ISZERO PUSH2 0x894 JUMPI PUSH1 0x0 DUP1 REVERT JUMPDEST POP PUSH2 0x4F3 PUSH2 0x8A3 CALLDATASIZE PUSH1 0x4 PUSH2 0x2A41 JUMP JUMPDEST PUSH1 0x1 PUSH1 0x1 PUSH1 0xA0 SHL SUB AND PUSH1 0x0 SWAP1 DUP2 MSTORE PUSH1 0x1C PUSH1 0x20 MSTORE PUSH1 0x40 SWAP1 KECCAK256 SLOAD SWAP1 JUMP JUMPDEST CALLVALUE DUP1 ISZERO PUSH2 0x8CA JUMPI PUSH1 0x0 DUP1 REVERT JUMPDEST POP PUSH2 0x434 PUSH2 0x8D9 CALLDATASIZE PUSH1 0x4 PUSH2 0x2A5E JUMP JUMPDEST PUSH2 0x175D JUMP JUMPDEST CALLVALUE DUP1 ISZERO PUSH2 0x8EA JUMPI PUSH1 0x0 DUP1 REVERT JUMPDEST POP PUSH1 0xC SLOAD PUSH2 0x85A SWAP1 PUSH1 0x1 PUSH1 0x1 PUSH1 0x40 SHL SUB AND DUP2 JUMP JUMPDEST CALLVALUE DUP1 ISZERO PUSH2 0x90A JUMPI PUSH1 0x0 DUP1 REVERT JUMPDEST POP PUSH2 0x4F3 PUSH1 0x7 SLOAD DUP2 JUMP JUMPDEST CALLVALUE DUP1 ISZERO PUSH2 0x920 JUMPI PUSH1 0x0 DUP1 REVERT JUMPDEST POP ADDRESS PUSH1 0x0 SWAP1 DUP2 MSTORE PUSH1 0x1C PUSH1 0x20 MSTORE PUSH1 0x40 SWAP1 KECCAK256 SLOAD PUSH2 0x4F3 JUMP JUMPDEST CALLVALUE DUP1 ISZERO PUSH2 0x942 JUMPI PUSH1 0x0 DUP1 REVERT JUMPDEST POP PUSH2 0x434 PUSH2 0x951 CALLDATASIZE PUSH1 0x4 PUSH2 0x2BA3 JUMP JUMPDEST PUSH2 0x179B JUMP JUMPDEST CALLVALUE DUP1 ISZERO PUSH2 0x962 JUMPI PUSH1 0x0 DUP1 REVERT JUMPDEST POP PUSH2 0x498 PUSH1 0x40 MLOAD DUP1 PUSH1 0x40 ADD PUSH1 0x40 MSTORE DUP1 PUSH1 0x8 DUP2 MSTORE PUSH1 0x20 ADD PUSH8 0x4554484C4F54544F PUSH1 0xC0 SHL DUP2 MSTORE POP DUP2 JUMP JUMPDEST CALLVALUE DUP1 ISZERO PUSH2 0x996 JUMPI PUSH1 0x0 DUP1 REVERT JUMPDEST POP PUSH2 0x4F3 PUSH2 0x1821 JUMP JUMPDEST CALLVALUE DUP1 ISZERO PUSH2 0x9AB JUMPI PUSH1 0x0 DUP1 REVERT JUMPDEST POP SELFBALANCE PUSH2 0x4F3 JUMP JUMPDEST CALLVALUE DUP1 ISZERO PUSH2 0x9BE JUMPI PUSH1 0x0 DUP1 REVERT JUMPDEST POP PUSH2 0x4CE PUSH2 0x9CD CALLDATASIZE PUSH1 0x4 PUSH2 0x2AE2 JUMP JUMPDEST PUSH2 0x1866 JUMP JUMPDEST CALLVALUE DUP1 ISZERO PUSH2 0x9DE JUMPI PUSH1 0x0 DUP1 REVERT JUMPDEST POP PUSH1 0xC SLOAD PUSH2 0x85A SWAP1 PUSH1 0x1 PUSH1 0xC0 SHL SWAP1 DIV PUSH1 0x1 PUSH1 0x1 PUSH1 0x40 SHL SUB AND DUP2 JUMP JUMPDEST CALLVALUE DUP1 ISZERO PUSH2 0xA05 JUMPI PUSH1 0x0 DUP1 REVERT JUMPDEST POP PUSH2 0x4F3 PUSH2 0x1A7C JUMP JUMPDEST CALLVALUE DUP1 ISZERO PUSH2 0xA1A JUMPI PUSH1 0x0 DUP1 REVERT JUMPDEST POP PUSH1 0x6 SLOAD PUSH2 0x4CE SWAP1 PUSH1 0x1 PUSH1 0xA0 SHL SWAP1 DIV PUSH1 0xFF AND DUP2 JUMP JUMPDEST CALLVALUE DUP1 ISZERO PUSH2 0xA3B JUMPI PUSH1 0x0 DUP1 REVERT JUMPDEST POP PUSH1 0x5 SLOAD PUSH2 0x537 SWAP1 PUSH1 0x1 PUSH1 0x1 PUSH1 0xA0 SHL SUB AND DUP2 JUMP JUMPDEST CALLVALUE DUP1 ISZERO PUSH2 0xA5B JUMPI PUSH1 0x0 DUP1 REVERT JUMPDEST POP PUSH2 0x4F3 PUSH1 0x19 SLOAD DUP2 JUMP JUMPDEST CALLVALUE DUP1 ISZERO PUSH2 0xA71 JUMPI PUSH1 0x0 DUP1 REVERT JUMPDEST POP PUSH2 0x4F3 PUSH1 0xA SLOAD DUP2 JUMP JUMPDEST CALLVALUE DUP1 ISZERO PUSH2 0xA87 JUMPI PUSH1 0x0 DUP1 REVERT JUMPDEST POP PUSH2 0x434 PUSH2 0x1B07 JUMP JUMPDEST CALLVALUE DUP1 ISZERO PUSH2 0xA9C JUMPI PUSH1 0x0 DUP1 REVERT JUMPDEST POP PUSH2 0x434 PUSH2 0xAAB CALLDATASIZE PUSH1 0x4 PUSH2 0x2A5E JUMP JUMPDEST PUSH2 0x1B42 JUMP JUMPDEST CALLVALUE DUP1 ISZERO PUSH2 0xABC JUMPI PUSH1 0x0 DUP1 REVERT JUMPDEST POP PUSH2 0x434 PUSH2 0xACB CALLDATASIZE PUSH1 0x4 PUSH2 0x2A5E JUMP JUMPDEST PUSH2 0x1B92 JUMP JUMPDEST CALLVALUE DUP1 ISZERO PUSH2 0xADC JUMPI PUSH1 0x0 DUP1 REVERT JUMPDEST POP PUSH2 0x434 PUSH2 0xAEB CALLDATASIZE PUSH1 0x4 PUSH2 0x2A5E JUMP JUMPDEST PUSH2 0x1C1A JUMP JUMPDEST CALLVALUE DUP1 ISZERO PUSH2 0xAFC JUMPI PUSH1 0x0 DUP1 REVERT JUMPDEST POP PUSH2 0x434 PUSH2 0xB0B CALLDATASIZE PUSH1 0x4 PUSH2 0x2A41 JUMP JUMPDEST PUSH2 0x1C92 JUMP JUMPDEST CALLVALUE DUP1 ISZERO PUSH2 0xB1C JUMPI PUSH1 0x0 DUP1 REVERT JUMPDEST POP PUSH2 0x4F3 PUSH1 0x15 SLOAD DUP2 JUMP JUMPDEST CALLVALUE DUP1 ISZERO PUSH2 0xB32 JUMPI PUSH1 0x0 DUP1 REVERT JUMPDEST POP PUSH1 0x17 SLOAD PUSH2 0x4CE SWAP1 PUSH1 0xFF AND DUP2 JUMP JUMPDEST CALLVALUE DUP1 ISZERO PUSH2 0xB4C JUMPI PUSH1 0x0 DUP1 REVERT JUMPDEST POP PUSH1 0x2 SLOAD PUSH2 0x537 SWAP1 PUSH1 0x1 PUSH1 0x1 PUSH1 0xA0 SHL SUB AND DUP2 JUMP JUMPDEST CALLVALUE DUP1 ISZERO PUSH2 0xB6C JUMPI PUSH1 0x0 DUP1 REVERT JUMPDEST POP PUSH2 0x434 PUSH2 0xB7B CALLDATASIZE PUSH1 0x4 PUSH2 0x2A41 JUMP JUMPDEST PUSH2 0x1CE0 JUMP JUMPDEST CALLVALUE DUP1 ISZERO PUSH2 0xB8C JUMPI PUSH1 0x0 DUP1 REVERT JUMPDEST POP PUSH2 0xBA0 PUSH2 0xB9B CALLDATASIZE PUSH1 0x4 PUSH2 0x2A5E JUMP JUMPDEST PUSH2 0x1D2E JUMP JUMPDEST PUSH1 0x40 DUP1 MLOAD SWAP5 DUP6 MSTORE PUSH1 0x1 PUSH1 0x1 PUSH1 0xA0 SHL SUB SWAP1 SWAP4 AND PUSH1 0x20 DUP6 ADD MSTORE SWAP2 DUP4 ADD MSTORE PUSH1 0x60 DUP3 ADD MSTORE PUSH1 0x80 ADD PUSH2 0x4A5 JUMP JUMPDEST CALLVALUE DUP1 ISZERO PUSH2 0xBD4 JUMPI PUSH1 0x0 DUP1 REVERT JUMPDEST POP PUSH2 0x4F3 PUSH1 0x9 SLOAD DUP2 JUMP JUMPDEST CALLVALUE DUP1 ISZERO PUSH2 0xBEA JUMPI PUSH1 0x0 DUP1 REVERT JUMPDEST POP PUSH2 0x4F3 PUSH2 0xBF9 CALLDATASIZE PUSH1 0x4 PUSH2 0x2BC5 JUMP JUMPDEST PUSH1 0x1 PUSH1 0x1 PUSH1 0xA0 SHL SUB SWAP2 DUP3 AND PUSH1 0x0 SWAP1 DUP2 MSTORE PUSH1 0x1F PUSH1 0x20 SWAP1 DUP2 MSTORE PUSH1 0x40 DUP1 DUP4 KECCAK256 SWAP4 SWAP1 SWAP5 AND DUP3 MSTORE SWAP2 SWAP1 SWAP2 MSTORE KECCAK256 SLOAD SWAP1 JUMP JUMPDEST CALLVALUE DUP1 ISZERO PUSH2 0xC30 JUMPI PUSH1 0x0 DUP1 REVERT JUMPDEST POP PUSH1 0xC SLOAD PUSH2 0x85A SWAP1 PUSH1 0x1 PUSH1 0x40 SHL SWAP1 DIV PUSH1 0x1 PUSH1 0x1 PUSH1 0x40 SHL SUB AND DUP2 JUMP JUMPDEST CALLVALUE DUP1 ISZERO PUSH2 0xC57 JUMPI PUSH1 0x0 DUP1 REVERT JUMPDEST POP PUSH2 0x4F3 PUSH1 0x11 SLOAD DUP2 JUMP JUMPDEST CALLVALUE DUP1 ISZERO PUSH2 0xC6D JUMPI PUSH1 0x0 DUP1 REVERT JUMPDEST POP PUSH2 0x4F3 PUSH1 0x8 SLOAD DUP2 JUMP JUMPDEST CALLVALUE DUP1 ISZERO PUSH2 0xC83 JUMPI PUSH1 0x0 DUP1 REVERT JUMPDEST POP PUSH2 0x4F3 PUSH1 0x16 SLOAD DUP2 JUMP JUMPDEST CALLVALUE DUP1 ISZERO PUSH2 0xC99 JUMPI PUSH1 0x0 DUP1 REVERT JUMPDEST POP PUSH2 0x434 PUSH2 0xCA8 CALLDATASIZE PUSH1 0x4 PUSH2 0x2A41 JUMP JUMPDEST PUSH2 0x1D71 JUMP JUMPDEST CALLVALUE DUP1 ISZERO PUSH2 0xCB9 JUMPI PUSH1 0x0 DUP1 REVERT JUMPDEST POP PUSH2 0x434 PUSH2 0xCC8 CALLDATASIZE PUSH1 0x4 PUSH2 0x2BFE JUMP JUMPDEST PUSH2 0x1DBF JUMP JUMPDEST CALLVALUE DUP1 ISZERO PUSH2 0xCD9 JUMPI PUSH1 0x0 DUP1 REVERT JUMPDEST POP PUSH2 0x434 PUSH2 0xCE8 CALLDATASIZE PUSH1 0x4 PUSH2 0x2A41 JUMP JUMPDEST PUSH2 0x20C6 JUMP JUMPDEST CALLVALUE DUP1 ISZERO PUSH2 0xCF9 JUMPI PUSH1 0x0 DUP1 REVERT JUMPDEST POP PUSH2 0x4F3 PUSH1 0x13 SLOAD DUP2 JUMP JUMPDEST PUSH1 0x2 SLOAD PUSH1 0x1 PUSH1 0x1 PUSH1 0xA0 SHL SUB AND CALLER EQ DUP1 PUSH2 0xD26 JUMPI POP PUSH1 0x3 SLOAD PUSH1 0x1 PUSH1 0x1 PUSH1 0xA0 SHL SUB AND CALLER EQ JUMPDEST PUSH2 0xD2F JUMPI PUSH1 0x0 DUP1 REVERT JUMPDEST PUSH1 0x1 PUSH1 0x1 PUSH1 0xA0 SHL SUB AND PUSH1 0x0 SWAP1 DUP2 MSTORE PUSH1 0x20 DUP1 MSTORE PUSH1 0x40 SWAP1 KECCAK256 DUP1 SLOAD PUSH1 0xFF NOT AND PUSH1 0x1 OR SWAP1 SSTORE JUMP JUMPDEST PUSH1 0x2 SLOAD PUSH1 0x1 PUSH1 0x1 PUSH1 0xA0 SHL SUB AND CALLER EQ DUP1 PUSH2 0xD75 JUMPI POP PUSH1 0x3 SLOAD PUSH1 0x1 PUSH1 0x1 PUSH1 0xA0 SHL SUB AND CALLER EQ JUMPDEST PUSH2 0xD7E JUMPI PUSH1 0x0 DUP1 REVERT JUMPDEST PUSH1 0x19 SSTORE JUMP JUMPDEST CALLER PUSH1 0x0 DUP2 DUP2 MSTORE PUSH1 0x1F PUSH1 0x20 SWAP1 DUP2 MSTORE PUSH1 0x40 DUP1 DUP4 KECCAK256 PUSH1 0x1 PUSH1 0x1 PUSH1 0xA0 SHL SUB DUP8 AND DUP1 DUP6 MSTORE SWAP3 MSTORE DUP1 DUP4 KECCAK256 DUP6 SWAP1 SSTORE MLOAD SWAP2 SWAP3 SWAP1 SWAP2 PUSH32 0x8C5BE1E5EBEC7D5BD14F71427D1E84F3DD0314C0F7B2291E5B200AC8C7C3B925 SWAP1 PUSH2 0xDDE SWAP1 DUP7 DUP2 MSTORE PUSH1 0x20 ADD SWAP1 JUMP JUMPDEST PUSH1 0x40 MLOAD DUP1 SWAP2 SUB SWAP1 LOG3 POP PUSH1 0x1 JUMPDEST SWAP3 SWAP2 POP POP JUMP JUMPDEST PUSH1 0xC SLOAD CALLER PUSH1 0x0 SWAP1 DUP2 MSTORE PUSH1 0x1E PUSH1 0x20 MSTORE PUSH1 0x40 DUP2 KECCAK256 SLOAD SWAP1 SWAP2 PUSH1 0x1 PUSH1 0x40 SHL SWAP1 DIV PUSH1 0x1 PUSH1 0x1 PUSH1 0x40 SHL SUB AND EQ ISZERO PUSH2 0xE2F JUMPI POP CALLER PUSH1 0x0 SWAP1 DUP2 MSTORE PUSH1 0x1D PUSH1 0x20 MSTORE PUSH1 0x40 SWAP1 KECCAK256 SLOAD SWAP1 JUMP JUMPDEST POP PUSH1 0x0 SWAP1 JUMP JUMPDEST PUSH1 0x2 SLOAD PUSH1 0x1 PUSH1 0x1 PUSH1 0xA0 SHL SUB AND CALLER EQ DUP1 PUSH2 0xE58 JUMPI POP PUSH1 0x3 SLOAD PUSH1 0x1 PUSH1 0x1 PUSH1 0xA0 SHL SUB AND CALLER EQ JUMPDEST PUSH2 0xE61 JUMPI PUSH1 0x0 DUP1 REVERT JUMPDEST PUSH1 0xC DUP1 SLOAD PUSH1 0x1 PUSH1 0x1 PUSH1 0x40 SHL SUB SWAP1 SWAP3 AND PUSH1 0x1 PUSH1 0x80 SHL MUL PUSH8 0xFFFFFFFFFFFFFFFF PUSH1 0x80 SHL NOT SWAP1 SWAP3 AND SWAP2 SWAP1 SWAP2 OR SWAP1 SSTORE JUMP JUMPDEST PUSH1 0x2 SLOAD PUSH1 0x1 PUSH1 0x1 PUSH1 0xA0 SHL SUB AND CALLER EQ DUP1 PUSH2 0xEB1 JUMPI POP PUSH1 0x3 SLOAD PUSH1 0x1 PUSH1 0x1 PUSH1 0xA0 SHL SUB AND CALLER EQ JUMPDEST PUSH2 0xEBA JUMPI PUSH1 0x0 DUP1 REVERT JUMPDEST PUSH1 0x64 DUP2 LT PUSH2 0xEC7 JUMPI PUSH1 0x0 DUP1 REVERT JUMPDEST PUSH1 0xA SSTORE JUMP JUMPDEST PUSH1 0x1 PUSH1 0x1 PUSH1 0xA0 SHL SUB DUP3 AND PUSH1 0x0 SWAP1 DUP2 MSTORE PUSH1 0x20 DUP1 MSTORE PUSH1 0x40 DUP2 KECCAK256 SLOAD DUP2 SWAP1 PUSH1 0xFF AND DUP1 PUSH2 0xF0B JUMPI POP PUSH1 0x1 PUSH1 0x1 PUSH1 0xA0 SHL SUB DUP6 AND PUSH1 0x0 SWAP1 DUP2 MSTORE PUSH1 0x20 DUP1 MSTORE PUSH1 0x40 SWAP1 KECCAK256 SLOAD PUSH1 0xFF AND JUMPDEST ISZERO PUSH2 0xF18 JUMPI POP PUSH1 0x0 PUSH2 0xF35 JUMP JUMPDEST PUSH1 0x64 PUSH1 0xD SLOAD DUP5 PUSH2 0xF28 SWAP2 SWAP1 PUSH2 0x2C3A JUMP JUMPDEST PUSH2 0xF32 SWAP2 SWAP1 PUSH2 0x2C6F JUMP JUMPDEST SWAP1 POP JUMPDEST PUSH1 0x0 PUSH2 0xF41 DUP3 DUP6 PUSH2 0x2C83 JUMP JUMPDEST PUSH1 0x6 SLOAD SWAP1 SWAP2 POP PUSH1 0x1 PUSH1 0xA0 SHL SWAP1 DIV PUSH1 0xFF AND ISZERO PUSH2 0xFD5 JUMPI PUSH1 0x1 PUSH1 0x1 PUSH1 0xA0 SHL SUB DUP6 AND PUSH1 0x0 SWAP1 DUP2 MSTORE PUSH1 0x20 DUP1 MSTORE PUSH1 0x40 SWAP1 KECCAK256 SLOAD PUSH1 0xFF AND DUP1 PUSH2 0xF93 JUMPI POP PUSH1 0x1 PUSH1 0x1 PUSH1 0xA0 SHL SUB DUP7 AND PUSH1 0x0 SWAP1 DUP2 MSTORE PUSH1 0x20 DUP1 MSTORE PUSH1 0x40 SWAP1 KECCAK256 SLOAD PUSH1 0xFF AND JUMPDEST PUSH2 0xFD5 JUMPI PUSH1 0x40 MLOAD PUSH3 0x461BCD PUSH1 0xE5 SHL DUP2 MSTORE PUSH1 0x20 PUSH1 0x4 DUP3 ADD MSTORE PUSH1 0xE PUSH1 0x24 DUP3 ADD MSTORE PUSH14 0x151C98591A5B99C814185D5CD959 PUSH1 0x92 SHL PUSH1 0x44 DUP3 ADD MSTORE PUSH1 0x64 ADD JUMPDEST PUSH1 0x40 MLOAD DUP1 SWAP2 SUB SWAP1 REVERT JUMPDEST PUSH1 0x1 PUSH1 0x1 PUSH1 0xA0 SHL SUB DUP7 AND PUSH1 0x0 SWAP1 DUP2 MSTORE PUSH1 0x1F PUSH1 0x20 SWAP1 DUP2 MSTORE PUSH1 0x40 DUP1 DUP4 KECCAK256 CALLER DUP5 MSTORE SWAP1 SWAP2 MSTORE SWAP1 KECCAK256 SLOAD ISZERO DUP1 ISZERO SWAP1 PUSH2 0x1007 JUMPI POP PUSH1 0x0 DUP5 GT JUMPDEST DUP1 ISZERO PUSH2 0x1036 JUMPI POP PUSH1 0x1 PUSH1 0x1 PUSH1 0xA0 SHL SUB DUP7 AND PUSH1 0x0 SWAP1 DUP2 MSTORE PUSH1 0x1F PUSH1 0x20 SWAP1 DUP2 MSTORE PUSH1 0x40 DUP1 DUP4 KECCAK256 CALLER DUP5 MSTORE SWAP1 SWAP2 MSTORE SWAP1 KECCAK256 SLOAD DUP5 GT ISZERO JUMPDEST ISZERO PUSH2 0x1148 JUMPI PUSH1 0x1 PUSH1 0x1 PUSH1 0xA0 SHL SUB DUP7 AND PUSH1 0x0 SWAP1 DUP2 MSTORE PUSH1 0x1C PUSH1 0x20 MSTORE PUSH1 0x40 DUP2 KECCAK256 DUP1 SLOAD DUP7 SWAP3 SWAP1 PUSH2 0x1063 SWAP1 DUP5 SWAP1 PUSH2 0x2C83 JUMP JUMPDEST SWAP1 SWAP2 SSTORE POP POP PUSH1 0x1 PUSH1 0x1 PUSH1 0xA0 SHL SUB DUP6 AND PUSH1 0x0 SWAP1 DUP2 MSTORE PUSH1 0x1C PUSH1 0x20 MSTORE PUSH1 0x40 DUP2 KECCAK256 DUP1 SLOAD DUP4 SWAP3 SWAP1 PUSH2 0x1090 SWAP1 DUP5 SWAP1 PUSH2 0x2C9A JUMP JUMPDEST SWAP3 POP POP DUP2 SWAP1 SSTORE POP DUP5 PUSH1 0x1 PUSH1 0x1 PUSH1 0xA0 SHL SUB AND DUP7 PUSH1 0x1 PUSH1 0x1 PUSH1 0xA0 SHL SUB AND PUSH32 0xDDF252AD1BE2C89B69C2B068FC378DAA952BA7F163C4A11628F55A4DF523B3EF DUP4 PUSH1 0x40 MLOAD PUSH2 0x10DC SWAP2 DUP2 MSTORE PUSH1 0x20 ADD SWAP1 JUMP JUMPDEST PUSH1 0x40 MLOAD DUP1 SWAP2 SUB SWAP1 LOG3 PUSH1 0x0 PUSH1 0x64 PUSH1 0xA SLOAD DUP5 PUSH2 0x10F6 SWAP2 SWAP1 PUSH2 0x2C3A JUMP JUMPDEST PUSH2 0x1100 SWAP2 SWAP1 PUSH2 0x2C6F JUMP JUMPDEST SWAP1 POP PUSH2 0x110C DUP2 DUP5 PUSH2 0x2C83 JUMP JUMPDEST PUSH1 0x8 PUSH1 0x0 DUP3 DUP3 SLOAD PUSH2 0x111D SWAP2 SWAP1 PUSH2 0x2C9A JUMP JUMPDEST SWAP3 POP POP DUP2 SWAP1 SSTORE POP DUP1 PUSH1 0x1B PUSH1 0x0 DUP3 DUP3 SLOAD PUSH2 0x1136 SWAP2 SWAP1 PUSH2 0x2C83 JUMP JUMPDEST SWAP1 SWAP2 SSTORE POP PUSH1 0x1 SWAP5 POP PUSH2 0x114F SWAP4 POP POP POP POP JUMP JUMPDEST PUSH1 0x0 SWAP3 POP POP POP JUMPDEST SWAP4 SWAP3 POP POP POP JUMP JUMPDEST PUSH1 0x40 DUP1 MLOAD PUSH1 0x2 DUP1 DUP3 MSTORE PUSH1 0x60 DUP3 ADD DUP4 MSTORE PUSH1 0x0 SWAP3 DUP4 SWAP3 SWAP2 SWAP1 PUSH1 0x20 DUP4 ADD SWAP1 DUP1 CALLDATASIZE DUP4 CALLDATACOPY POP POP PUSH1 0x1 SLOAD PUSH1 0x40 DUP1 MLOAD PUSH4 0x15AB88C9 PUSH1 0xE3 SHL DUP2 MSTORE SWAP1 MLOAD SWAP4 SWAP5 POP PUSH1 0x1 PUSH1 0x1 PUSH1 0xA0 SHL SUB SWAP1 SWAP2 AND SWAP3 PUSH4 0xAD5C4648 SWAP3 POP PUSH1 0x4 DUP1 DUP4 ADD SWAP3 PUSH1 0x20 SWAP3 SWAP2 SWAP1 DUP3 SWAP1 SUB ADD DUP2 DUP7 GAS STATICCALL ISZERO DUP1 ISZERO PUSH2 0x11C4 JUMPI RETURNDATASIZE PUSH1 0x0 DUP1 RETURNDATACOPY RETURNDATASIZE PUSH1 0x0 REVERT JUMPDEST POP POP POP POP PUSH1 0x40 MLOAD RETURNDATASIZE PUSH1 0x1F NOT PUSH1 0x1F DUP3 ADD AND DUP3 ADD DUP1 PUSH1 0x40 MSTORE POP DUP2 ADD SWAP1 PUSH2 0x11E8 SWAP2 SWAP1 PUSH2 0x2CC8 JUMP JUMPDEST DUP2 PUSH1 0x0 DUP2 MLOAD DUP2 LT PUSH2 0x11FB JUMPI PUSH2 0x11FB PUSH2 0x2CE5 JUMP JUMPDEST PUSH1 0x20 MUL PUSH1 0x20 ADD ADD SWAP1 PUSH1 0x1 PUSH1 0x1 PUSH1 0xA0 SHL SUB AND SWAP1 DUP2 PUSH1 0x1 PUSH1 0x1 PUSH1 0xA0 SHL SUB AND DUP2 MSTORE POP POP ADDRESS DUP2 PUSH1 0x1 DUP2 MLOAD DUP2 LT PUSH2 0x122F JUMPI PUSH2 0x122F PUSH2 0x2CE5 JUMP JUMPDEST PUSH1 0x1 PUSH1 0x1 PUSH1 0xA0 SHL SUB SWAP3 DUP4 AND PUSH1 0x20 SWAP2 DUP3 MUL SWAP3 SWAP1 SWAP3 ADD ADD MSTORE PUSH1 0x1 SLOAD PUSH1 0x40 MLOAD PUSH4 0xD06CA61F PUSH1 0xE0 SHL DUP2 MSTORE PUSH1 0x0 SWAP3 SWAP2 SWAP1 SWAP2 AND SWAP1 PUSH4 0xD06CA61F SWAP1 PUSH2 0x1273 SWAP1 DUP8 SWAP1 DUP7 SWAP1 PUSH1 0x4 ADD PUSH2 0x2D3F JUMP JUMPDEST PUSH1 0x0 PUSH1 0x40 MLOAD DUP1 DUP4 SUB DUP2 DUP7 GAS STATICCALL ISZERO DUP1 ISZERO PUSH2 0x1290 JUMPI RETURNDATASIZE PUSH1 0x0 DUP1 RETURNDATACOPY RETURNDATASIZE PUSH1 0x0 REVERT JUMPDEST POP POP POP POP PUSH1 0x40 MLOAD RETURNDATASIZE PUSH1 0x0 DUP3 RETURNDATACOPY PUSH1 0x1F RETURNDATASIZE SWAP1 DUP2 ADD PUSH1 0x1F NOT AND DUP3 ADD PUSH1 0x40 MSTORE PUSH2 0x12B8 SWAP2 SWAP1 DUP2 ADD SWAP1 PUSH2 0x2D58 JUMP JUMPDEST SWAP1 POP DUP1 PUSH1 0x1 DUP2 MLOAD DUP2 LT PUSH2 0x12CD JUMPI PUSH2 0x12CD PUSH2 0x2CE5 JUMP JUMPDEST PUSH1 0x20 MUL PUSH1 0x20 ADD ADD MLOAD SWAP3 POP POP POP SWAP2 SWAP1 POP JUMP JUMPDEST PUSH1 0x15 SLOAD PUSH1 0x8 SLOAD LT PUSH2 0x1363 JUMPI PUSH1 0x8 DUP1 SLOAD PUSH1 0x0 SWAP2 DUP3 SWAP1 SSTORE ADDRESS DUP3 MSTORE PUSH1 0x1C PUSH1 0x20 MSTORE PUSH1 0x40 DUP3 KECCAK256 DUP1 SLOAD SWAP2 SWAP3 DUP4 SWAP3 PUSH2 0x1310 SWAP1 DUP5 SWAP1 PUSH2 0x2C9A JUMP JUMPDEST SWAP1 SWAP2 SSTORE POP PUSH2 0x131F SWAP1 POP DUP2 PUSH2 0x2114 JUMP JUMPDEST PUSH2 0x1361 JUMPI ADDRESS PUSH1 0x0 SWAP1 DUP2 MSTORE PUSH1 0x1C PUSH1 0x20 MSTORE PUSH1 0x40 DUP2 KECCAK256 DUP1 SLOAD DUP4 SWAP3 SWAP1 PUSH2 0x1342 SWAP1 DUP5 SWAP1 PUSH2 0x2C83 JUMP JUMPDEST SWAP3 POP POP DUP2 SWAP1 SSTORE POP DUP1 PUSH1 0x8 PUSH1 0x0 DUP3 DUP3 SLOAD PUSH2 0x135B SWAP2 SWAP1 PUSH2 0x2C9A JUMP JUMPDEST SWAP1 SWAP2 SSTORE POP POP JUMPDEST POP JUMPDEST SELFBALANCE PUSH2 0x2710 DUP2 GT ISZERO PUSH2 0x146E JUMPI PUSH1 0x16 SLOAD ISZERO PUSH2 0x13C2 JUMPI PUSH1 0x0 PUSH1 0x64 PUSH1 0x16 SLOAD DUP4 PUSH2 0x1388 SWAP2 SWAP1 PUSH2 0x2C3A JUMP JUMPDEST PUSH2 0x1392 SWAP2 SWAP1 PUSH2 0x2C6F JUMP JUMPDEST PUSH1 0x4 SLOAD PUSH1 0x5 SLOAD SWAP2 SWAP3 POP PUSH2 0x13B3 SWAP2 DUP4 SWAP2 PUSH1 0x1 PUSH1 0x1 PUSH1 0xA0 SHL SUB SWAP1 DUP2 AND SWAP2 AND PUSH2 0x232D JUMP JUMPDEST POP PUSH2 0x13BE DUP2 DUP4 PUSH2 0x2C83 JUMP JUMPDEST SWAP2 POP POP JUMPDEST PUSH1 0x3 SLOAD PUSH1 0x40 DUP1 MLOAD PUSH1 0x0 DUP1 DUP3 MSTORE PUSH1 0x20 DUP3 ADD SWAP3 DUP4 SWAP1 MSTORE SWAP3 PUSH1 0x1 PUSH1 0x1 PUSH1 0xA0 SHL SUB AND SWAP2 DUP5 SWAP2 PUSH2 0x13EC SWAP2 PUSH2 0x2E15 JUMP JUMPDEST PUSH1 0x0 PUSH1 0x40 MLOAD DUP1 DUP4 SUB DUP2 DUP6 DUP8 GAS CALL SWAP3 POP POP POP RETURNDATASIZE DUP1 PUSH1 0x0 DUP2 EQ PUSH2 0x1429 JUMPI PUSH1 0x40 MLOAD SWAP2 POP PUSH1 0x1F NOT PUSH1 0x3F RETURNDATASIZE ADD AND DUP3 ADD PUSH1 0x40 MSTORE RETURNDATASIZE DUP3 MSTORE RETURNDATASIZE PUSH1 0x0 PUSH1 0x20 DUP5 ADD RETURNDATACOPY PUSH2 0x142E JUMP JUMPDEST PUSH1 0x60 SWAP2 POP JUMPDEST POP POP PUSH1 0x9 DUP1 SLOAD PUSH1 0x0 SWAP2 DUP3 SWAP1 SSTORE PUSH1 0x3 SLOAD PUSH1 0x1 PUSH1 0x1 PUSH1 0xA0 SHL SUB AND DUP3 MSTORE PUSH1 0x1C PUSH1 0x20 MSTORE PUSH1 0x40 DUP3 KECCAK256 DUP1 SLOAD SWAP4 SWAP5 POP SWAP1 SWAP3 DUP4 SWAP3 SWAP1 PUSH2 0x1466 SWAP1 DUP5 SWAP1 PUSH2 0x2C9A JUMP JUMPDEST SWAP1 SWAP2 SSTORE POP POP POP POP JUMPDEST POP JUMP JUMPDEST PUSH1 0x2 SLOAD PUSH1 0x1 PUSH1 0x1 PUSH1 0xA0 SHL SUB AND CALLER EQ DUP1 PUSH2 0x1494 JUMPI POP PUSH1 0x3 SLOAD PUSH1 0x1 PUSH1 0x1 PUSH1 0xA0 SHL SUB AND CALLER EQ JUMPDEST PUSH2 0x149D JUMPI PUSH1 0x0 DUP1 REVERT JUMPDEST PUSH1 0x6 DUP1 SLOAD PUSH1 0xFF PUSH1 0xA0 SHL NOT AND PUSH1 0x1 PUSH1 0xA0 SHL OR SWAP1 SSTORE JUMP JUMPDEST PUSH1 0x2 SLOAD PUSH1 0x1 PUSH1 0x1 PUSH1 0xA0 SHL SUB AND CALLER EQ DUP1 PUSH2 0x14D5 JUMPI POP PUSH1 0x3 SLOAD PUSH1 0x1 PUSH1 0x1 PUSH1 0xA0 SHL SUB AND CALLER EQ JUMPDEST PUSH2 0x14DE JUMPI PUSH1 0x0 DUP1 REVERT JUMPDEST PUSH2 0x14EA DUP2 PUSH2 0xE10 PUSH2 0x2C3A JUMP JUMPDEST PUSH1 0x12 SSTORE POP JUMP JUMPDEST PUSH1 0x0 DUP1 PUSH1 0x0 DUP1 PUSH1 0x0 TIMESTAMP SWAP1 POP PUSH1 0x12 SLOAD PUSH1 0x13 SLOAD PUSH2 0x150B SWAP2 SWAP1 PUSH2 0x2C9A JUMP JUMPDEST DUP2 LT ISZERO PUSH2 0x15E4 JUMPI PUSH1 0x0 DUP2 PUSH1 0x12 SLOAD PUSH1 0x13 SLOAD PUSH2 0x1525 SWAP2 SWAP1 PUSH2 0x2C9A JUMP JUMPDEST PUSH2 0x152F SWAP2 SWAP1 PUSH2 0x2C83 JUMP JUMPDEST SWAP1 POP PUSH2 0x153E PUSH3 0x15180 DUP3 PUSH2 0x2C6F JUMP JUMPDEST SWAP6 POP PUSH2 0x154B DUP7 PUSH1 0x18 PUSH2 0x2C3A JUMP JUMPDEST PUSH2 0x1557 PUSH2 0xE10 DUP4 PUSH2 0x2C6F JUMP JUMPDEST PUSH2 0x1561 SWAP2 SWAP1 PUSH2 0x2C83 JUMP JUMPDEST SWAP5 POP PUSH2 0x156E DUP7 PUSH1 0x18 PUSH2 0x2C3A JUMP JUMPDEST PUSH2 0x1578 SWAP1 DUP7 PUSH2 0x2C9A JUMP JUMPDEST PUSH2 0x1583 SWAP1 PUSH1 0x3C PUSH2 0x2C3A JUMP JUMPDEST PUSH2 0x158E PUSH1 0x3C DUP4 PUSH2 0x2C6F JUMP JUMPDEST PUSH2 0x1598 SWAP2 SWAP1 PUSH2 0x2C83 JUMP JUMPDEST SWAP4 POP PUSH2 0x15A5 DUP5 PUSH1 0x3C PUSH2 0x2C3A JUMP JUMPDEST PUSH2 0x15B1 DUP7 PUSH2 0xE10 PUSH2 0x2C3A JUMP JUMPDEST PUSH2 0x15BE DUP9 PUSH3 0x15180 PUSH2 0x2C3A JUMP JUMPDEST PUSH2 0x15C8 SWAP1 DUP5 PUSH2 0x2C83 JUMP JUMPDEST PUSH2 0x15D2 SWAP2 SWAP1 PUSH2 0x2C83 JUMP JUMPDEST PUSH2 0x15DC SWAP2 SWAP1 PUSH2 0x2C83 JUMP JUMPDEST SWAP3 POP POP PUSH2 0x15F5 JUMP JUMPDEST PUSH1 0x0 SWAP5 POP PUSH1 0x0 SWAP4 POP PUSH1 0x0 SWAP3 POP PUSH1 0x0 SWAP2 POP JUMPDEST POP SWAP1 SWAP2 SWAP3 SWAP4 JUMP JUMPDEST PUSH1 0x2 SLOAD PUSH1 0x1 PUSH1 0x1 PUSH1 0xA0 SHL SUB AND CALLER EQ DUP1 PUSH2 0x161F JUMPI POP PUSH1 0x3 SLOAD PUSH1 0x1 PUSH1 0x1 PUSH1 0xA0 SHL SUB AND CALLER EQ JUMPDEST PUSH2 0x1628 JUMPI PUSH1 0x0 DUP1 REVERT JUMPDEST PUSH1 0x14 DUP2 GT ISZERO PUSH2 0x1636 JUMPI PUSH1 0x0 DUP1 REVERT JUMPDEST PUSH1 0xD SSTORE JUMP JUMPDEST PUSH1 0x2 SLOAD PUSH1 0x1 PUSH1 0x1 PUSH1 0xA0 SHL SUB AND CALLER EQ DUP1 PUSH2 0x165E JUMPI POP PUSH1 0x3 SLOAD PUSH1 0x1 PUSH1 0x1 PUSH1 0xA0 SHL SUB AND CALLER EQ JUMPDEST PUSH2 0x1667 JUMPI PUSH1 0x0 DUP1 REVERT JUMPDEST PUSH1 0x1 PUSH1 0x1 PUSH1 0xA0 SHL SUB AND PUSH1 0x0 SWAP1 DUP2 MSTORE PUSH1 0x20 DUP1 MSTORE PUSH1 0x40 SWAP1 KECCAK256 DUP1 SLOAD PUSH1 0xFF NOT AND SWAP1 SSTORE JUMP JUMPDEST PUSH1 0x2 SLOAD PUSH1 0x1 PUSH1 0x1 PUSH1 0xA0 SHL SUB AND CALLER EQ DUP1 PUSH2 0x16AA JUMPI POP PUSH1 0x3 SLOAD PUSH1 0x1 PUSH1 0x1 PUSH1 0xA0 SHL SUB AND CALLER EQ JUMPDEST PUSH2 0x16B3 JUMPI PUSH1 0x0 DUP1 REVERT JUMPDEST PUSH1 0x17 DUP1 SLOAD PUSH1 0xFF NOT AND SWAP2 ISZERO ISZERO SWAP2 SWAP1 SWAP2 OR SWAP1 SSTORE JUMP JUMPDEST PUSH1 0xC SLOAD PUSH1 0x0 SWAP1 PUSH1 0x1 PUSH1 0x1 PUSH1 0x40 SHL SUB AND ISZERO PUSH2 0xE2F JUMPI PUSH1 0xC SLOAD PUSH1 0x1 PUSH1 0x1 PUSH1 0x40 SHL SUB AND PUSH2 0x16EE PUSH2 0xDF0 JUMP JUMPDEST PUSH2 0x16FA SWAP1 PUSH2 0x2710 PUSH2 0x2C3A JUMP JUMPDEST PUSH2 0x1704 SWAP2 SWAP1 PUSH2 0x2C6F JUMP JUMPDEST SWAP1 POP SWAP1 JUMP JUMPDEST PUSH1 0x2 SLOAD PUSH1 0x1 PUSH1 0x1 PUSH1 0xA0 SHL SUB AND CALLER EQ DUP1 PUSH2 0x172C JUMPI POP PUSH1 0x3 SLOAD PUSH1 0x1 PUSH1 0x1 PUSH1 0xA0 SHL SUB AND CALLER EQ JUMPDEST PUSH2 0x1735 JUMPI PUSH1 0x0 DUP1 REVERT JUMPDEST PUSH1 0xC DUP1 SLOAD PUSH1 0x1 PUSH1 0x1 PUSH1 0x40 SHL SUB SWAP1 SWAP3 AND PUSH1 0x1 PUSH1 0xC0 SHL MUL PUSH1 0x1 PUSH1 0x1 PUSH1 0xC0 SHL SUB SWAP1 SWAP3 AND SWAP2 SWAP1 SWAP2 OR SWAP1 SSTORE JUMP JUMPDEST PUSH1 0x2 SLOAD PUSH1 0x1 PUSH1 0x1 PUSH1 0xA0 SHL SUB AND CALLER EQ DUP1 PUSH2 0x1780 JUMPI POP PUSH1 0x3 SLOAD PUSH1 0x1 PUSH1 0x1 PUSH1 0xA0 SHL SUB AND CALLER EQ JUMPDEST PUSH2 0x1789 JUMPI PUSH1 0x0 DUP1 REVERT JUMPDEST PUSH1 0x64 DUP2 LT PUSH2 0x1796 JUMPI PUSH1 0x0 DUP1 REVERT JUMPDEST PUSH1 0x16 SSTORE JUMP JUMPDEST CALLER PUSH1 0x1 PUSH1 0x1 PUSH1 0xA0 SHL SUB PUSH32 0x0 AND EQ PUSH2 0x1813 JUMPI PUSH1 0x40 MLOAD PUSH3 0x461BCD PUSH1 0xE5 SHL DUP2 MSTORE PUSH1 0x20 PUSH1 0x4 DUP3 ADD MSTORE PUSH1 0x1F PUSH1 0x24 DUP3 ADD MSTORE PUSH32 0x4F6E6C7920565246436F6F7264696E61746F722063616E2066756C66696C6C00 PUSH1 0x44 DUP3 ADD MSTORE PUSH1 0x64 ADD PUSH2 0xFCC JUMP JUMPDEST PUSH2 0x181D DUP3 DUP3 PUSH2 0x2492 JUMP JUMPDEST POP POP JUMP JUMPDEST PUSH1 0x12 SLOAD PUSH1 0x13 SLOAD PUSH1 0x0 SWAP2 TIMESTAMP SWAP2 PUSH2 0x1836 SWAP2 SWAP1 PUSH2 0x2C9A JUMP JUMPDEST DUP2 LT ISZERO PUSH2 0x185E JUMPI DUP1 PUSH1 0x12 SLOAD PUSH1 0x13 SLOAD PUSH2 0x184E SWAP2 SWAP1 PUSH2 0x2C9A JUMP JUMPDEST PUSH2 0x1858 SWAP2 SWAP1 PUSH2 0x2C83 JUMP JUMPDEST SWAP2 POP POP SWAP1 JUMP JUMPDEST PUSH1 0x0 SWAP2 POP POP SWAP1 JUMP JUMPDEST PUSH1 0x1 PUSH1 0x1 PUSH1 0xA0 SHL SUB DUP3 AND PUSH1 0x0 SWAP1 DUP2 MSTORE PUSH1 0x20 DUP1 MSTORE PUSH1 0x40 DUP2 KECCAK256 SLOAD DUP2 SWAP1 PUSH1 0xFF AND DUP1 PUSH2 0x189C JUMPI POP CALLER PUSH1 0x0 SWAP1 DUP2 MSTORE PUSH1 0x20 DUP1 MSTORE PUSH1 0x40 SWAP1 KECCAK256 SLOAD PUSH1 0xFF AND JUMPDEST ISZERO PUSH2 0x18A9 JUMPI POP PUSH1 0x0 PUSH2 0x18C6 JUMP JUMPDEST PUSH1 0x64 PUSH1 0xD SLOAD DUP5 PUSH2 0x18B9 SWAP2 SWAP1 PUSH2 0x2C3A JUMP JUMPDEST PUSH2 0x18C3 SWAP2 SWAP1 PUSH2 0x2C6F JUMP JUMPDEST SWAP1 POP JUMPDEST PUSH1 0x0 PUSH2 0x18D2 DUP3 DUP6 PUSH2 0x2C83 JUMP JUMPDEST PUSH1 0x6 SLOAD SWAP1 SWAP2 POP PUSH1 0x1 PUSH1 0xA0 SHL SWAP1 DIV PUSH1 0xFF AND ISZERO PUSH2 0x1958 JUMPI PUSH1 0x1 PUSH1 0x1 PUSH1 0xA0 SHL SUB DUP6 AND PUSH1 0x0 SWAP1 DUP2 MSTORE PUSH1 0x20 DUP1 MSTORE PUSH1 0x40 SWAP1 KECCAK256 SLOAD PUSH1 0xFF AND DUP1 PUSH2 0x191B JUMPI POP CALLER PUSH1 0x0 SWAP1 DUP2 MSTORE PUSH1 0x20 DUP1 MSTORE PUSH1 0x40 SWAP1 KECCAK256 SLOAD PUSH1 0xFF AND JUMPDEST PUSH2 0x1958 JUMPI PUSH1 0x40 MLOAD PUSH3 0x461BCD PUSH1 0xE5 SHL DUP2 MSTORE PUSH1 0x20 PUSH1 0x4 DUP3 ADD MSTORE PUSH1 0xE PUSH1 0x24 DUP3 ADD MSTORE PUSH14 0x151C98591A5B99C814185D5CD959 PUSH1 0x92 SHL PUSH1 0x44 DUP3 ADD MSTORE PUSH1 0x64 ADD PUSH2 0xFCC JUMP JUMPDEST PUSH1 0x0 DUP5 GT DUP1 ISZERO PUSH2 0x1977 JUMPI POP CALLER PUSH1 0x0 SWAP1 DUP2 MSTORE PUSH1 0x1C PUSH1 0x20 MSTORE PUSH1 0x40 SWAP1 KECCAK256 SLOAD DUP5 GT ISZERO JUMPDEST ISZERO PUSH2 0x1A71 JUMPI CALLER PUSH1 0x0 SWAP1 DUP2 MSTORE PUSH1 0x1C PUSH1 0x20 MSTORE PUSH1 0x40 DUP2 KECCAK256 DUP1 SLOAD DUP7 SWAP3 SWAP1 PUSH2 0x199B SWAP1 DUP5 SWAP1 PUSH2 0x2C83 JUMP JUMPDEST SWAP1 SWAP2 SSTORE POP POP PUSH1 0x1 PUSH1 0x1 PUSH1 0xA0 SHL SUB DUP6 AND PUSH1 0x0 SWAP1 DUP2 MSTORE PUSH1 0x1C PUSH1 0x20 MSTORE PUSH1 0x40 DUP2 KECCAK256 DUP1 SLOAD DUP4 SWAP3 SWAP1 PUSH2 0x19C8 SWAP1 DUP5 SWAP1 PUSH2 0x2C9A JUMP JUMPDEST SWAP1 SWAP2 SSTORE POP POP PUSH1 0x40 MLOAD DUP2 DUP2 MSTORE PUSH1 0x1 PUSH1 0x1 PUSH1 0xA0 SHL SUB DUP7 AND SWAP1 CALLER SWAP1 PUSH32 0xDDF252AD1BE2C89B69C2B068FC378DAA952BA7F163C4A11628F55A4DF523B3EF SWAP1 PUSH1 0x20 ADD PUSH1 0x40 MLOAD DUP1 SWAP2 SUB SWAP1 LOG3 PUSH1 0x0 PUSH1 0x64 PUSH1 0xA SLOAD DUP5 PUSH2 0x1A1F SWAP2 SWAP1 PUSH2 0x2C3A JUMP JUMPDEST PUSH2 0x1A29 SWAP2 SWAP1 PUSH2 0x2C6F JUMP JUMPDEST SWAP1 POP PUSH2 0x1A35 DUP2 DUP5 PUSH2 0x2C83 JUMP JUMPDEST PUSH1 0x8 PUSH1 0x0 DUP3 DUP3 SLOAD PUSH2 0x1A46 SWAP2 SWAP1 PUSH2 0x2C9A JUMP JUMPDEST SWAP3 POP POP DUP2 SWAP1 SSTORE POP DUP1 PUSH1 0x1B PUSH1 0x0 DUP3 DUP3 SLOAD PUSH2 0x1A5F SWAP2 SWAP1 PUSH2 0x2C83 JUMP JUMPDEST SWAP1 SWAP2 SSTORE POP PUSH1 0x1 SWAP5 POP PUSH2 0xDEA SWAP4 POP POP POP POP JUMP JUMPDEST POP PUSH1 0x0 SWAP5 SWAP4 POP POP POP POP JUMP JUMPDEST PUSH1 0x40 MLOAD PUSH4 0x70A08231 PUSH1 0xE0 SHL DUP2 MSTORE ADDRESS PUSH1 0x4 DUP3 ADD MSTORE PUSH1 0x0 SWAP1 PUSH32 0x0 PUSH1 0x1 PUSH1 0x1 PUSH1 0xA0 SHL SUB AND SWAP1 PUSH4 0x70A08231 SWAP1 PUSH1 0x24 ADD PUSH1 0x20 PUSH1 0x40 MLOAD DUP1 DUP4 SUB DUP2 DUP7 GAS STATICCALL ISZERO DUP1 ISZERO PUSH2 0x1AE3 JUMPI RETURNDATASIZE PUSH1 0x0 DUP1 RETURNDATACOPY RETURNDATASIZE PUSH1 0x0 REVERT JUMPDEST POP POP POP POP PUSH1 0x40 MLOAD RETURNDATASIZE PUSH1 0x1F NOT PUSH1 0x1F DUP3 ADD AND DUP3 ADD DUP1 PUSH1 0x40 MSTORE POP DUP2 ADD SWAP1 PUSH2 0x1704 SWAP2 SWAP1 PUSH2 0x2E31 JUMP JUMPDEST PUSH1 0x2 SLOAD PUSH1 0x1 PUSH1 0x1 PUSH1 0xA0 SHL SUB AND CALLER EQ DUP1 PUSH2 0x1B2A JUMPI POP PUSH1 0x3 SLOAD PUSH1 0x1 PUSH1 0x1 PUSH1 0xA0 SHL SUB AND CALLER EQ JUMPDEST PUSH2 0x1B33 JUMPI PUSH1 0x0 DUP1 REVERT JUMPDEST PUSH1 0x6 DUP1 SLOAD PUSH1 0xFF PUSH1 0xA0 SHL NOT AND SWAP1 SSTORE JUMP JUMPDEST PUSH1 0x2 SLOAD PUSH1 0x1 PUSH1 0x1 PUSH1 0xA0 SHL SUB AND CALLER EQ DUP1 PUSH2 0x1B65 JUMPI POP PUSH1 0x3 SLOAD PUSH1 0x1 PUSH1 0x1 PUSH1 0xA0 SHL SUB AND CALLER EQ JUMPDEST PUSH2 0x1B6E JUMPI PUSH1 0x0 DUP1 REVERT JUMPDEST DUP1 PUSH1 0x7B EQ ISZERO PUSH2 0x146E JUMPI PUSH1 0x17 SLOAD PUSH1 0xFF AND ISZERO PUSH2 0x1B8A JUMPI PUSH2 0x146E PUSH2 0x24B0 JUMP JUMPDEST PUSH2 0x181D PUSH2 0x25BC JUMP JUMPDEST PUSH1 0x2 SLOAD PUSH1 0x1 PUSH1 0x1 PUSH1 0xA0 SHL SUB AND CALLER EQ DUP1 PUSH2 0x1BB5 JUMPI POP PUSH1 0x3 SLOAD PUSH1 0x1 PUSH1 0x1 PUSH1 0xA0 SHL SUB AND CALLER EQ JUMPDEST PUSH2 0x1BBE JUMPI PUSH1 0x0 DUP1 REVERT JUMPDEST ADDRESS PUSH1 0x0 SWAP1 DUP2 MSTORE PUSH1 0x1C PUSH1 0x20 MSTORE PUSH1 0x40 SWAP1 KECCAK256 SLOAD DUP2 GT ISZERO PUSH2 0x1BDA JUMPI PUSH1 0x0 DUP1 REVERT JUMPDEST ADDRESS PUSH1 0x0 SWAP1 DUP2 MSTORE PUSH1 0x1C PUSH1 0x20 MSTORE PUSH1 0x40 DUP2 KECCAK256 DUP1 SLOAD DUP4 SWAP3 SWAP1 PUSH2 0x1BF9 SWAP1 DUP5 SWAP1 PUSH2 0x2C83 JUMP JUMPDEST SWAP3 POP POP DUP2 SWAP1 SSTORE POP DUP1 PUSH1 0xE PUSH1 0x0 DUP3 DUP3 SLOAD PUSH2 0x1C12 SWAP2 SWAP1 PUSH2 0x2C9A JUMP JUMPDEST SWAP1 SWAP2 SSTORE POP POP POP JUMP JUMPDEST PUSH1 0x2 SLOAD PUSH1 0x1 PUSH1 0x1 PUSH1 0xA0 SHL SUB AND CALLER EQ DUP1 PUSH2 0x1C3D JUMPI POP PUSH1 0x3 SLOAD PUSH1 0x1 PUSH1 0x1 PUSH1 0xA0 SHL SUB AND CALLER EQ JUMPDEST PUSH2 0x1C46 JUMPI PUSH1 0x0 DUP1 REVERT JUMPDEST PUSH2 0x1C52 PUSH1 0x12 PUSH1 0xA PUSH2 0x2F2E JUMP JUMPDEST PUSH2 0x1C5D SWAP1 PUSH1 0x64 PUSH2 0x2C3A JUMP JUMPDEST PUSH1 0x1B SLOAD PUSH2 0x1C6A SWAP2 SWAP1 PUSH2 0x2C6F JUMP JUMPDEST DUP2 GT ISZERO PUSH2 0x1C76 JUMPI PUSH1 0x0 DUP1 REVERT JUMPDEST PUSH2 0x1C82 PUSH1 0x12 PUSH1 0xA PUSH2 0x2F2E JUMP JUMPDEST PUSH2 0x1C8C SWAP1 DUP3 PUSH2 0x2C3A JUMP JUMPDEST PUSH1 0x11 SSTORE POP JUMP JUMPDEST PUSH1 0x2 SLOAD PUSH1 0x1 PUSH1 0x1 PUSH1 0xA0 SHL SUB AND CALLER EQ DUP1 PUSH2 0x1CB5 JUMPI POP PUSH1 0x3 SLOAD PUSH1 0x1 PUSH1 0x1 PUSH1 0xA0 SHL SUB AND CALLER EQ JUMPDEST PUSH2 0x1CBE JUMPI PUSH1 0x0 DUP1 REVERT JUMPDEST PUSH1 0x3 DUP1 SLOAD PUSH1 0x1 PUSH1 0x1 PUSH1 0xA0 SHL SUB NOT AND PUSH1 0x1 PUSH1 0x1 PUSH1 0xA0 SHL SUB SWAP3 SWAP1 SWAP3 AND SWAP2 SWAP1 SWAP2 OR SWAP1 SSTORE JUMP JUMPDEST PUSH1 0x2 SLOAD PUSH1 0x1 PUSH1 0x1 PUSH1 0xA0 SHL SUB AND CALLER EQ DUP1 PUSH2 0x1D03 JUMPI POP PUSH1 0x3 SLOAD PUSH1 0x1 PUSH1 0x1 PUSH1 0xA0 SHL SUB AND CALLER EQ JUMPDEST PUSH2 0x1D0C JUMPI PUSH1 0x0 DUP1 REVERT JUMPDEST PUSH1 0x2 DUP1 SLOAD PUSH1 0x1 PUSH1 0x1 PUSH1 0xA0 SHL SUB NOT AND PUSH1 0x1 PUSH1 0x1 PUSH1 0xA0 SHL SUB SWAP3 SWAP1 SWAP3 AND SWAP2 SWAP1 SWAP2 OR SWAP1 SSTORE JUMP JUMPDEST PUSH1 0x1A DUP2 DUP2 SLOAD DUP2 LT PUSH2 0x1D3E JUMPI PUSH1 0x0 DUP1 REVERT JUMPDEST PUSH1 0x0 SWAP2 DUP3 MSTORE PUSH1 0x20 SWAP1 SWAP2 KECCAK256 PUSH1 0x4 SWAP1 SWAP2 MUL ADD DUP1 SLOAD PUSH1 0x1 DUP3 ADD SLOAD PUSH1 0x2 DUP4 ADD SLOAD PUSH1 0x3 SWAP1 SWAP4 ADD SLOAD SWAP2 SWAP4 POP PUSH1 0x1 PUSH1 0x1 PUSH1 0xA0 SHL SUB AND SWAP2 SWAP1 DUP5 JUMP JUMPDEST PUSH1 0x2 SLOAD PUSH1 0x1 PUSH1 0x1 PUSH1 0xA0 SHL SUB AND CALLER EQ DUP1 PUSH2 0x1D94 JUMPI POP PUSH1 0x3 SLOAD PUSH1 0x1 PUSH1 0x1 PUSH1 0xA0 SHL SUB AND CALLER EQ JUMPDEST PUSH2 0x1D9D JUMPI PUSH1 0x0 DUP1 REVERT JUMPDEST PUSH1 0x4 DUP1 SLOAD PUSH1 0x1 PUSH1 0x1 PUSH1 0xA0 SHL SUB NOT AND PUSH1 0x1 PUSH1 0x1 PUSH1 0xA0 SHL SUB SWAP3 SWAP1 SWAP3 AND SWAP2 SWAP1 SWAP2 OR SWAP1 SSTORE JUMP JUMPDEST PUSH1 0x10 SLOAD CALLER SWAP1 PUSH1 0x0 SWAP1 PUSH2 0x1DD7 SWAP1 PUSH4 0xFFFFFFFF DUP6 AND PUSH2 0x2C3A JUMP JUMPDEST PUSH1 0x1 PUSH1 0x1 PUSH1 0xA0 SHL SUB DUP4 AND PUSH1 0x0 SWAP1 DUP2 MSTORE PUSH1 0x1C PUSH1 0x20 MSTORE PUSH1 0x40 SWAP1 KECCAK256 SLOAD SWAP1 SWAP2 POP DUP2 GT ISZERO PUSH2 0x1E39 JUMPI PUSH1 0x40 MLOAD PUSH3 0x461BCD PUSH1 0xE5 SHL DUP2 MSTORE PUSH1 0x20 PUSH1 0x4 DUP3 ADD MSTORE PUSH1 0x14 PUSH1 0x24 DUP3 ADD MSTORE PUSH20 0x496E73756666696369656E742042616C616E6365 PUSH1 0x60 SHL PUSH1 0x44 DUP3 ADD MSTORE PUSH1 0x64 ADD PUSH2 0xFCC JUMP JUMPDEST PUSH1 0x1 PUSH1 0x1 PUSH1 0xA0 SHL SUB DUP3 AND PUSH1 0x0 SWAP1 DUP2 MSTORE PUSH1 0x1C PUSH1 0x20 MSTORE PUSH1 0x40 DUP2 KECCAK256 DUP1 SLOAD DUP4 SWAP3 SWAP1 PUSH2 0x1E61 SWAP1 DUP5 SWAP1 PUSH2 0x2C83 JUMP JUMPDEST SWAP1 SWAP2 SSTORE POP POP PUSH1 0xC SLOAD PUSH1 0x1 PUSH1 0x1 PUSH1 0xA0 SHL SUB DUP4 AND PUSH1 0x0 SWAP1 DUP2 MSTORE PUSH1 0x1E PUSH1 0x20 MSTORE PUSH1 0x40 SWAP1 KECCAK256 SLOAD PUSH1 0x1 PUSH1 0x40 SHL SWAP1 SWAP2 DIV PUSH1 0x1 PUSH1 0x1 PUSH1 0x40 SHL SUB AND GT ISZERO PUSH2 0x1EDE JUMPI PUSH1 0xC SLOAD PUSH1 0x1 PUSH1 0x1 PUSH1 0xA0 SHL SUB DUP4 AND PUSH1 0x0 SWAP1 DUP2 MSTORE PUSH1 0x1E PUSH1 0x20 SWAP1 DUP2 MSTORE PUSH1 0x40 DUP1 DUP4 KECCAK256 PUSH1 0x1 PUSH1 0x40 SHL SWAP1 SWAP5 DIV PUSH1 0x1 PUSH1 0x1 PUSH1 0x40 SHL SUB AND SWAP1 SWAP4 SSTORE PUSH1 0x1D SWAP1 MSTORE KECCAK256 PUSH4 0xFFFFFFFF DUP5 AND SWAP1 SSTORE PUSH2 0x1F12 JUMP JUMPDEST PUSH1 0x1 PUSH1 0x1 PUSH1 0xA0 SHL SUB DUP3 AND PUSH1 0x0 SWAP1 DUP2 MSTORE PUSH1 0x1D PUSH1 0x20 MSTORE PUSH1 0x40 DUP2 KECCAK256 DUP1 SLOAD PUSH4 0xFFFFFFFF DUP7 AND SWAP3 SWAP1 PUSH2 0x1F0C SWAP1 DUP5 SWAP1 PUSH2 0x2C9A JUMP JUMPDEST SWAP1 SWAP2 SSTORE POP POP JUMPDEST PUSH1 0x64 PUSH2 0x1F1F DUP3 PUSH1 0x3 PUSH2 0x2C3A JUMP JUMPDEST PUSH2 0x1F29 SWAP2 SWAP1 PUSH2 0x2C6F JUMP JUMPDEST PUSH1 0x7 PUSH1 0x0 DUP3 DUP3 SLOAD PUSH2 0x1F3A SWAP2 SWAP1 PUSH2 0x2C9A JUMP JUMPDEST SWAP1 SWAP2 SSTORE POP PUSH1 0x64 SWAP1 POP PUSH2 0x1F4D DUP3 PUSH1 0x5 PUSH2 0x2C3A JUMP JUMPDEST PUSH2 0x1F57 SWAP2 SWAP1 PUSH2 0x2C6F JUMP JUMPDEST PUSH1 0x8 PUSH1 0x0 DUP3 DUP3 SLOAD PUSH2 0x1F68 SWAP2 SWAP1 PUSH2 0x2C9A JUMP JUMPDEST SWAP1 SWAP2 SSTORE POP PUSH1 0x64 SWAP1 POP PUSH2 0x1F7B DUP3 PUSH1 0x2 PUSH2 0x2C3A JUMP JUMPDEST PUSH2 0x1F85 SWAP2 SWAP1 PUSH2 0x2C6F JUMP JUMPDEST PUSH1 0x9 PUSH1 0x0 DUP3 DUP3 SLOAD PUSH2 0x1F96 SWAP2 SWAP1 PUSH2 0x2C9A JUMP JUMPDEST SWAP1 SWAP2 SSTORE POP PUSH1 0x64 SWAP1 POP PUSH2 0x1FA9 DUP3 PUSH1 0x5A PUSH2 0x2C3A JUMP JUMPDEST PUSH2 0x1FB3 SWAP2 SWAP1 PUSH2 0x2C6F JUMP JUMPDEST PUSH1 0xE PUSH1 0x0 DUP3 DUP3 SLOAD PUSH2 0x1FC4 SWAP2 SWAP1 PUSH2 0x2C9A JUMP JUMPDEST SWAP1 SWAP2 SSTORE POP PUSH1 0x0 SWAP1 POP JUMPDEST DUP4 PUSH4 0xFFFFFFFF AND DUP2 PUSH4 0xFFFFFFFF AND LT ISZERO PUSH2 0x205F JUMPI PUSH1 0xC DUP1 SLOAD PUSH1 0x1 PUSH1 0x1 PUSH1 0x40 SHL SUB SWAP1 DUP2 AND PUSH1 0x0 SWAP1 DUP2 MSTORE PUSH1 0xB PUSH1 0x20 MSTORE PUSH1 0x40 DUP2 KECCAK256 DUP1 SLOAD PUSH1 0x1 PUSH1 0x1 PUSH1 0xA0 SHL SUB NOT AND PUSH1 0x1 PUSH1 0x1 PUSH1 0xA0 SHL SUB DUP9 AND OR SWAP1 SSTORE DUP3 SLOAD SWAP1 SWAP2 AND SWAP2 SWAP1 PUSH2 0x2027 DUP4 PUSH2 0x2F3D JUMP JUMPDEST SWAP2 SWAP1 PUSH2 0x100 EXP DUP2 SLOAD DUP2 PUSH1 0x1 PUSH1 0x1 PUSH1 0x40 SHL SUB MUL NOT AND SWAP1 DUP4 PUSH1 0x1 PUSH1 0x1 PUSH1 0x40 SHL SUB AND MUL OR SWAP1 SSTORE POP POP DUP1 DUP1 PUSH2 0x2057 SWAP1 PUSH2 0x2F64 JUMP JUMPDEST SWAP2 POP POP PUSH2 0x1FCD JUMP JUMPDEST POP PUSH1 0xC SLOAD PUSH1 0x1 PUSH1 0x1 PUSH1 0x40 SHL SUB PUSH1 0x1 PUSH1 0x80 SHL DUP3 DIV DUP2 AND SWAP2 AND LT DUP1 ISZERO SWAP1 PUSH2 0x2089 JUMPI POP PUSH2 0x2087 PUSH2 0x1821 JUMP JUMPDEST ISZERO JUMPDEST ISZERO PUSH2 0x20BE JUMPI PUSH1 0x17 SLOAD PUSH1 0xFF AND ISZERO PUSH2 0x20AB JUMPI PUSH1 0x24 SLOAD PUSH1 0xFF AND PUSH2 0x20B0 JUMPI PUSH2 0x20AB PUSH2 0x24B0 JUMP JUMPDEST POP POP POP JUMP JUMPDEST PUSH2 0x20B8 PUSH2 0x25BC JUMP JUMPDEST POP POP POP POP JUMP JUMPDEST PUSH2 0x20AB PUSH2 0x12DE JUMP JUMPDEST PUSH1 0x2 SLOAD PUSH1 0x1 PUSH1 0x1 PUSH1 0xA0 SHL SUB AND CALLER EQ DUP1 PUSH2 0x20E9 JUMPI POP PUSH1 0x3 SLOAD PUSH1 0x1 PUSH1 0x1 PUSH1 0xA0 SHL SUB AND CALLER EQ JUMPDEST PUSH2 0x20F2 JUMPI PUSH1 0x0 DUP1 REVERT JUMPDEST PUSH1 0x5 DUP1 SLOAD PUSH1 0x1 PUSH1 0x1 PUSH1 0xA0 SHL SUB NOT AND PUSH1 0x1 PUSH1 0x1 PUSH1 0xA0 SHL SUB SWAP3 SWAP1 SWAP3 AND SWAP2 SWAP1 SWAP2 OR SWAP1 SSTORE JUMP JUMPDEST PUSH1 0x0 DUP2 ISZERO PUSH2 0x2325 JUMPI PUSH1 0x1 SLOAD PUSH2 0x2134 SWAP1 ADDRESS SWAP1 PUSH1 0x1 PUSH1 0x1 PUSH1 0xA0 SHL SUB AND DUP5 PUSH2 0x2789 JUMP JUMPDEST POP PUSH1 0x40 DUP1 MLOAD PUSH1 0x2 DUP1 DUP3 MSTORE PUSH1 0x60 DUP3 ADD DUP4 MSTORE PUSH1 0x0 SWAP3 PUSH1 0x20 DUP4 ADD SWAP1 DUP1 CALLDATASIZE DUP4 CALLDATACOPY ADD SWAP1 POP POP SWAP1 POP ADDRESS DUP2 PUSH1 0x0 DUP2 MLOAD DUP2 LT PUSH2 0x216A JUMPI PUSH2 0x216A PUSH2 0x2CE5 JUMP JUMPDEST PUSH1 0x1 PUSH1 0x1 PUSH1 0xA0 SHL SUB SWAP3 DUP4 AND PUSH1 0x20 SWAP2 DUP3 MUL SWAP3 SWAP1 SWAP3 ADD DUP2 ADD SWAP2 SWAP1 SWAP2 MSTORE PUSH1 0x1 SLOAD PUSH1 0x40 DUP1 MLOAD PUSH4 0x15AB88C9 PUSH1 0xE3 SHL DUP2 MSTORE SWAP1 MLOAD SWAP2 SWAP1 SWAP4 AND SWAP3 PUSH4 0xAD5C4648 SWAP3 PUSH1 0x4 DUP1 DUP4 ADD SWAP4 SWAP2 SWAP3 DUP3 SWAP1 SUB ADD DUP2 DUP7 GAS STATICCALL ISZERO DUP1 ISZERO PUSH2 0x21C3 JUMPI RETURNDATASIZE PUSH1 0x0 DUP1 RETURNDATACOPY RETURNDATASIZE PUSH1 0x0 REVERT JUMPDEST POP POP POP POP PUSH1 0x40 MLOAD RETURNDATASIZE PUSH1 0x1F NOT PUSH1 0x1F DUP3 ADD AND DUP3 ADD DUP1 PUSH1 0x40 MSTORE POP DUP2 ADD SWAP1 PUSH2 0x21E7 SWAP2 SWAP1 PUSH2 0x2CC8 JUMP JUMPDEST DUP2 PUSH1 0x1 DUP2 MLOAD DUP2 LT PUSH2 0x21FA JUMPI PUSH2 0x21FA PUSH2 0x2CE5 JUMP JUMPDEST PUSH1 0x1 PUSH1 0x1 PUSH1 0xA0 SHL SUB SWAP1 SWAP3 AND PUSH1 0x20 SWAP3 DUP4 MUL SWAP2 SWAP1 SWAP2 ADD SWAP1 SWAP2 ADD MSTORE PUSH1 0x0 DUP1 PUSH20 0x9AC64CC6E4415144C455BD8E4837FEA55603E5C3 PUSH4 0x18CBAFE5 DUP7 DUP4 DUP7 ADDRESS PUSH2 0x223E TIMESTAMP PUSH1 0x14 PUSH2 0x2C9A JUMP JUMPDEST PUSH1 0x40 MLOAD PUSH1 0x24 ADD PUSH2 0x2252 SWAP6 SWAP5 SWAP4 SWAP3 SWAP2 SWAP1 PUSH2 0x2F7E JUMP JUMPDEST PUSH1 0x40 MLOAD PUSH1 0x20 DUP2 DUP4 SUB SUB DUP2 MSTORE SWAP1 PUSH1 0x40 MSTORE SWAP1 PUSH1 0xE0 SHL PUSH1 0x20 DUP3 ADD DUP1 MLOAD PUSH1 0x1 PUSH1 0x1 PUSH1 0xE0 SHL SUB DUP4 DUP2 DUP4 AND OR DUP4 MSTORE POP POP POP POP PUSH1 0x40 MLOAD PUSH2 0x228B SWAP2 SWAP1 PUSH2 0x2E15 JUMP JUMPDEST PUSH1 0x0 PUSH1 0x40 MLOAD DUP1 DUP4 SUB DUP2 PUSH1 0x0 DUP7 GAS CALL SWAP2 POP POP RETURNDATASIZE DUP1 PUSH1 0x0 DUP2 EQ PUSH2 0x22C8 JUMPI PUSH1 0x40 MLOAD SWAP2 POP PUSH1 0x1F NOT PUSH1 0x3F RETURNDATASIZE ADD AND DUP3 ADD PUSH1 0x40 MSTORE RETURNDATASIZE DUP3 MSTORE RETURNDATASIZE PUSH1 0x0 PUSH1 0x20 DUP5 ADD RETURNDATACOPY PUSH2 0x22CD JUMP JUMPDEST PUSH1 0x60 SWAP2 POP JUMPDEST POP SWAP2 POP SWAP2 POP DUP2 ISZERO PUSH2 0x2321 JUMPI PUSH1 0x0 DUP2 DUP1 PUSH1 0x20 ADD SWAP1 MLOAD DUP2 ADD SWAP1 PUSH2 0x22EE SWAP2 SWAP1 PUSH2 0x2D58 JUMP JUMPDEST SWAP1 POP PUSH1 0x2 DUP2 MLOAD LT PUSH2 0x231F JUMPI DUP1 PUSH1 0x1 DUP2 MLOAD DUP2 LT PUSH2 0x230C JUMPI PUSH2 0x230C PUSH2 0x2CE5 JUMP JUMPDEST PUSH1 0x20 MUL PUSH1 0x20 ADD ADD MLOAD SWAP5 POP POP POP POP POP SWAP2 SWAP1 POP JUMP JUMPDEST POP JUMPDEST POP POP POP JUMPDEST POP PUSH1 0x0 SWAP2 SWAP1 POP JUMP JUMPDEST PUSH1 0x40 DUP1 MLOAD PUSH1 0x2 DUP1 DUP3 MSTORE PUSH1 0x60 DUP3 ADD DUP4 MSTORE PUSH1 0x0 SWAP3 DUP4 SWAP3 SWAP2 SWAP1 PUSH1 0x20 DUP4 ADD SWAP1 DUP1 CALLDATASIZE DUP4 CALLDATACOPY POP POP PUSH1 0x1 SLOAD PUSH1 0x40 DUP1 MLOAD PUSH4 0x15AB88C9 PUSH1 0xE3 SHL DUP2 MSTORE SWAP1 MLOAD SWAP4 SWAP5 POP PUSH1 0x1 PUSH1 0x1 PUSH1 0xA0 SHL SUB SWAP1 SWAP2 AND SWAP3 PUSH4 0xAD5C4648 SWAP3 POP PUSH1 0x4 DUP1 DUP4 ADD SWAP3 PUSH1 0x20 SWAP3 SWAP2 SWAP1 DUP3 SWAP1 SUB ADD DUP2 DUP7 GAS STATICCALL ISZERO DUP1 ISZERO PUSH2 0x239B JUMPI RETURNDATASIZE PUSH1 0x0 DUP1 RETURNDATACOPY RETURNDATASIZE PUSH1 0x0 REVERT JUMPDEST POP POP POP POP PUSH1 0x40 MLOAD RETURNDATASIZE PUSH1 0x1F NOT PUSH1 0x1F DUP3 ADD AND DUP3 ADD DUP1 PUSH1 0x40 MSTORE POP DUP2 ADD SWAP1 PUSH2 0x23BF SWAP2 SWAP1 PUSH2 0x2CC8 JUMP JUMPDEST DUP2 PUSH1 0x0 DUP2 MLOAD DUP2 LT PUSH2 0x23D2 JUMPI PUSH2 0x23D2 PUSH2 0x2CE5 JUMP JUMPDEST PUSH1 0x20 MUL PUSH1 0x20 ADD ADD SWAP1 PUSH1 0x1 PUSH1 0x1 PUSH1 0xA0 SHL SUB AND SWAP1 DUP2 PUSH1 0x1 PUSH1 0x1 PUSH1 0xA0 SHL SUB AND DUP2 MSTORE POP POP DUP4 DUP2 PUSH1 0x1 DUP2 MLOAD DUP2 LT PUSH2 0x2406 JUMPI PUSH2 0x2406 PUSH2 0x2CE5 JUMP JUMPDEST PUSH1 0x1 PUSH1 0x1 PUSH1 0xA0 SHL SUB SWAP3 DUP4 AND PUSH1 0x20 SWAP2 DUP3 MUL SWAP3 SWAP1 SWAP3 ADD ADD MSTORE PUSH1 0x1 SLOAD AND PUSH4 0xB6F9DE95 DUP7 PUSH1 0x0 DUP5 DUP8 PUSH2 0x2435 TIMESTAMP PUSH1 0x14 PUSH2 0x2C9A JUMP JUMPDEST PUSH1 0x40 MLOAD DUP7 PUSH4 0xFFFFFFFF AND PUSH1 0xE0 SHL DUP2 MSTORE PUSH1 0x4 ADD PUSH2 0x2454 SWAP5 SWAP4 SWAP3 SWAP2 SWAP1 PUSH2 0x2FBD JUMP JUMPDEST PUSH1 0x0 PUSH1 0x40 MLOAD DUP1 DUP4 SUB DUP2 DUP6 DUP9 DUP1 EXTCODESIZE ISZERO DUP1 ISZERO PUSH2 0x246D JUMPI PUSH1 0x0 DUP1 REVERT JUMPDEST POP GAS CALL SWAP4 POP POP POP POP DUP1 ISZERO PUSH2 0x247F JUMPI POP PUSH1 0x1 JUMPDEST PUSH2 0x2488 JUMPI PUSH2 0x1A71 JUMP JUMPDEST PUSH1 0x1 SWAP2 POP POP PUSH2 0x114F JUMP JUMPDEST PUSH1 0x23 DUP2 SWAP1 SSTORE DUP1 PUSH2 0x24A0 PUSH2 0x25BC JUMP JUMPDEST POP POP PUSH1 0x24 DUP1 SLOAD PUSH1 0xFF NOT AND SWAP1 SSTORE POP POP JUMP JUMPDEST PUSH1 0x19 SLOAD PUSH1 0x40 MLOAD PUSH4 0x70A08231 PUSH1 0xE0 SHL DUP2 MSTORE ADDRESS PUSH1 0x4 DUP3 ADD MSTORE PUSH32 0x0 PUSH1 0x1 PUSH1 0x1 PUSH1 0xA0 SHL SUB AND SWAP1 PUSH4 0x70A08231 SWAP1 PUSH1 0x24 ADD PUSH1 0x20 PUSH1 0x40 MLOAD DUP1 DUP4 SUB DUP2 DUP7 GAS STATICCALL ISZERO DUP1 ISZERO PUSH2 0x2517 JUMPI RETURNDATASIZE PUSH1 0x0 DUP1 RETURNDATACOPY RETURNDATASIZE PUSH1 0x0 REVERT JUMPDEST POP POP POP POP PUSH1 0x40 MLOAD RETURNDATASIZE PUSH1 0x1F NOT PUSH1 0x1F DUP3 ADD AND DUP3 ADD DUP1 PUSH1 0x40 MSTORE POP DUP2 ADD SWAP1 PUSH2 0x253B SWAP2 SWAP1 PUSH2 0x2E31 JUMP JUMPDEST GT PUSH2 0x259C JUMPI PUSH1 0x40 MLOAD PUSH3 0x461BCD PUSH1 0xE5 SHL DUP2 MSTORE PUSH1 0x20 PUSH1 0x4 DUP3 ADD MSTORE PUSH1 0x2B PUSH1 0x24 DUP3 ADD MSTORE PUSH32 0x4E6F7420656E6F756768204C494E4B202D2066696C6C20636F6E747261637420 PUSH1 0x44 DUP3 ADD MSTORE PUSH11 0x1DDA5D1A0819985D58D95D PUSH1 0xAA SHL PUSH1 0x64 DUP3 ADD MSTORE PUSH1 0x84 ADD PUSH2 0xFCC JUMP JUMPDEST PUSH2 0x25AA PUSH1 0x18 SLOAD PUSH1 0x19 SLOAD PUSH2 0x281A JUMP JUMPDEST PUSH1 0x22 SSTORE PUSH1 0x24 DUP1 SLOAD PUSH1 0xFF NOT AND PUSH1 0x1 OR SWAP1 SSTORE JUMP JUMPDEST PUSH1 0xC SLOAD PUSH1 0x0 SWAP1 PUSH1 0x1 PUSH1 0x1 PUSH1 0x40 SHL SUB AND ISZERO PUSH2 0xE2F JUMPI PUSH1 0xC SLOAD TIMESTAMP SWAP1 PUSH1 0x0 SWAP1 PUSH2 0x25EA SWAP1 PUSH1 0x1 PUSH1 0x1 PUSH1 0x40 SHL SUB AND PUSH2 0x2995 JUMP JUMPDEST SWAP1 POP PUSH1 0x0 PUSH1 0xB PUSH1 0x0 DUP4 DUP2 MSTORE PUSH1 0x20 ADD SWAP1 DUP2 MSTORE PUSH1 0x20 ADD PUSH1 0x0 KECCAK256 PUSH1 0x0 SWAP1 SLOAD SWAP1 PUSH2 0x100 EXP SWAP1 DIV PUSH1 0x1 PUSH1 0x1 PUSH1 0xA0 SHL SUB AND SWAP1 POP PUSH1 0x1A PUSH1 0x40 MLOAD DUP1 PUSH1 0x80 ADD PUSH1 0x40 MSTORE DUP1 DUP5 DUP2 MSTORE PUSH1 0x20 ADD DUP4 PUSH1 0x1 PUSH1 0x1 PUSH1 0xA0 SHL SUB AND DUP2 MSTORE PUSH1 0x20 ADD PUSH1 0xE SLOAD DUP2 MSTORE PUSH1 0x20 ADD PUSH1 0x12 SLOAD PUSH1 0x13 SLOAD PUSH2 0x2651 SWAP2 SWAP1 PUSH2 0x2C9A JUMP JUMPDEST SWAP1 MSTORE DUP2 SLOAD PUSH1 0x1 DUP1 DUP3 ADD DUP5 SSTORE PUSH1 0x0 SWAP4 DUP5 MSTORE PUSH1 0x20 DUP1 DUP6 KECCAK256 DUP5 MLOAD PUSH1 0x4 SWAP1 SWAP5 MUL ADD SWAP3 DUP4 SSTORE DUP4 ADD MLOAD SWAP1 DUP3 ADD DUP1 SLOAD PUSH1 0x1 PUSH1 0x1 PUSH1 0xA0 SHL SUB NOT AND PUSH1 0x1 PUSH1 0x1 PUSH1 0xA0 SHL SUB SWAP1 SWAP3 AND SWAP2 SWAP1 SWAP2 OR SWAP1 SSTORE PUSH1 0x40 DUP3 ADD MLOAD PUSH1 0x2 DUP3 ADD SSTORE PUSH1 0x60 SWAP1 SWAP2 ADD MLOAD PUSH1 0x3 SWAP1 SWAP2 ADD SSTORE PUSH1 0x13 DUP5 SWAP1 SSTORE PUSH1 0x11 SLOAD PUSH1 0x10 SSTORE PUSH1 0xE DUP1 SLOAD PUSH1 0x7 DUP1 SLOAD SWAP1 SWAP3 SSTORE SWAP2 SWAP1 SSTORE PUSH2 0x26CD DUP3 DUP3 PUSH2 0x1866 JUMP JUMPDEST POP PUSH1 0x40 DUP1 MLOAD PUSH1 0x1 PUSH1 0x1 PUSH1 0xA0 SHL SUB DUP5 AND DUP2 MSTORE PUSH1 0x20 DUP2 ADD DUP4 SWAP1 MSTORE PUSH32 0x2E798DD4337E515C79B64C40E1A93BAA1AEFBD9180AC7905E02508EDD7971E50 SWAP2 ADD PUSH1 0x40 MLOAD DUP1 SWAP2 SUB SWAP1 LOG1 PUSH1 0xC DUP1 SLOAD PUSH1 0x1 PUSH1 0x40 SHL SWAP1 DIV PUSH1 0x1 PUSH1 0x1 PUSH1 0x40 SHL SUB AND SWAP1 PUSH1 0x8 PUSH2 0x2730 DUP4 PUSH2 0x2F3D JUMP JUMPDEST DUP3 SLOAD PUSH1 0x1 PUSH1 0x1 PUSH1 0x40 SHL SUB SWAP2 DUP3 AND PUSH2 0x100 SWAP4 SWAP1 SWAP4 EXP SWAP3 DUP4 MUL SWAP2 SWAP1 SWAP3 MUL NOT SWAP1 SWAP2 AND OR SWAP1 SSTORE POP PUSH1 0xC DUP1 SLOAD PUSH8 0xFFFFFFFFFFFFFFFF NOT AND SWAP1 SSTORE PUSH1 0xF DUP1 SLOAD DUP3 SWAP2 SWAP1 PUSH1 0x0 SWAP1 PUSH2 0x2779 SWAP1 DUP5 SWAP1 PUSH2 0x2C9A JUMP JUMPDEST SWAP1 SWAP2 SSTORE POP PUSH1 0x1 SWAP7 SWAP6 POP POP POP POP POP POP JUMP JUMPDEST PUSH1 0x1 PUSH1 0x1 PUSH1 0xA0 SHL SUB DUP4 DUP2 AND PUSH1 0x0 SWAP1 DUP2 MSTORE PUSH1 0x1F PUSH1 0x20 SWAP1 DUP2 MSTORE PUSH1 0x40 DUP1 DUP4 KECCAK256 SWAP4 DUP7 AND DUP4 MSTORE SWAP3 SWAP1 MSTORE SWAP1 DUP2 KECCAK256 DUP1 SLOAD SWAP1 DUP4 SWAP1 DUP4 PUSH2 0x27C0 DUP4 DUP6 PUSH2 0x2C9A JUMP JUMPDEST SWAP1 SWAP2 SSTORE POP POP PUSH1 0x1 PUSH1 0x1 PUSH1 0xA0 SHL SUB DUP1 DUP6 AND SWAP1 DUP7 AND PUSH32 0x8C5BE1E5EBEC7D5BD14F71427D1E84F3DD0314C0F7B2291E5B200AC8C7C3B925 PUSH2 0x27FE DUP7 DUP6 PUSH2 0x2C9A JUMP JUMPDEST PUSH1 0x40 MLOAD SWAP1 DUP2 MSTORE PUSH1 0x20 ADD PUSH1 0x40 MLOAD DUP1 SWAP2 SUB SWAP1 LOG3 POP PUSH1 0x1 SWAP5 SWAP4 POP POP POP POP JUMP JUMPDEST PUSH1 0x0 PUSH32 0x0 PUSH1 0x1 PUSH1 0x1 PUSH1 0xA0 SHL SUB AND PUSH4 0x4000AEA0 PUSH32 0x0 DUP5 DUP7 PUSH1 0x0 PUSH1 0x40 MLOAD PUSH1 0x20 ADD PUSH2 0x288A SWAP3 SWAP2 SWAP1 SWAP2 DUP3 MSTORE PUSH1 0x20 DUP3 ADD MSTORE PUSH1 0x40 ADD SWAP1 JUMP JUMPDEST PUSH1 0x40 MLOAD PUSH1 0x20 DUP2 DUP4 SUB SUB DUP2 MSTORE SWAP1 PUSH1 0x40 MSTORE PUSH1 0x40 MLOAD DUP5 PUSH4 0xFFFFFFFF AND PUSH1 0xE0 SHL DUP2 MSTORE PUSH1 0x4 ADD PUSH2 0x28B7 SWAP4 SWAP3 SWAP2 SWAP1 PUSH2 0x2FF2 JUMP JUMPDEST PUSH1 0x20 PUSH1 0x40 MLOAD DUP1 DUP4 SUB DUP2 PUSH1 0x0 DUP8 GAS CALL ISZERO DUP1 ISZERO PUSH2 0x28D6 JUMPI RETURNDATASIZE PUSH1 0x0 DUP1 RETURNDATACOPY RETURNDATASIZE PUSH1 0x0 REVERT JUMPDEST POP POP POP POP PUSH1 0x40 MLOAD RETURNDATASIZE PUSH1 0x1F NOT PUSH1 0x1F DUP3 ADD AND DUP3 ADD DUP1 PUSH1 0x40 MSTORE POP DUP2 ADD SWAP1 PUSH2 0x28FA SWAP2 SWAP1 PUSH2 0x3022 JUMP JUMPDEST POP PUSH1 0x0 DUP4 DUP2 MSTORE PUSH1 0x20 DUP2 DUP2 MSTORE PUSH1 0x40 DUP1 DUP4 KECCAK256 SLOAD DUP2 MLOAD DUP1 DUP5 ADD DUP9 SWAP1 MSTORE DUP1 DUP4 ADD DUP6 SWAP1 MSTORE ADDRESS PUSH1 0x60 DUP3 ADD MSTORE PUSH1 0x80 DUP1 DUP3 ADD DUP4 SWAP1 MSTORE DUP4 MLOAD DUP1 DUP4 SUB SWAP1 SWAP2 ADD DUP2 MSTORE PUSH1 0xA0 SWAP1 SWAP2 ADD SWAP1 SWAP3 MSTORE DUP2 MLOAD SWAP2 DUP4 ADD SWAP2 SWAP1 SWAP2 KECCAK256 DUP7 DUP5 MSTORE SWAP3 SWAP1 SWAP2 MSTORE PUSH2 0x2954 SWAP1 PUSH1 0x1 PUSH2 0x2C9A JUMP JUMPDEST PUSH1 0x0 DUP6 DUP2 MSTORE PUSH1 0x20 DUP2 DUP2 MSTORE PUSH1 0x40 SWAP2 DUP3 SWAP1 KECCAK256 SWAP3 SWAP1 SWAP3 SSTORE DUP1 MLOAD DUP1 DUP4 ADD DUP8 SWAP1 MSTORE DUP1 DUP3 ADD DUP5 SWAP1 MSTORE DUP2 MLOAD DUP1 DUP3 SUB DUP4 ADD DUP2 MSTORE PUSH1 0x60 SWAP1 SWAP2 ADD SWAP1 SWAP2 MSTORE DUP1 MLOAD SWAP2 ADD KECCAK256 JUMPDEST SWAP5 SWAP4 POP POP POP POP JUMP JUMPDEST PUSH1 0x0 DUP1 PUSH1 0x0 PUSH1 0xE SLOAD PUSH1 0x23 SLOAD PUSH1 0x21 SLOAD PUSH2 0x29AD SWAP2 SWAP1 PUSH2 0x2C9A JUMP JUMPDEST PUSH2 0x29B7 SWAP2 SWAP1 PUSH2 0x2C9A JUMP JUMPDEST PUSH1 0x40 DUP1 MLOAD TIMESTAMP PUSH1 0x20 DUP3 ADD MSTORE PUSH12 0xFFFFFFFFFFFFFFFFFFFFFFFF NOT CALLER PUSH1 0x60 SHL AND SWAP2 DUP2 ADD SWAP2 SWAP1 SWAP2 MSTORE PUSH1 0x54 DUP2 ADD DUP3 SWAP1 MSTORE SWAP1 SWAP2 POP DUP5 SWAP1 PUSH1 0x74 ADD PUSH1 0x40 MLOAD PUSH1 0x20 DUP2 DUP4 SUB SUB DUP2 MSTORE SWAP1 PUSH1 0x40 MSTORE DUP1 MLOAD SWAP1 PUSH1 0x20 ADD KECCAK256 PUSH1 0x0 SHR PUSH2 0x2A0D SWAP2 SWAP1 PUSH2 0x303F JUMP JUMPDEST PUSH1 0x21 DUP1 SLOAD SWAP2 SWAP4 POP PUSH1 0x0 PUSH2 0x2A1F DUP4 PUSH2 0x3053 JUMP JUMPDEST SWAP1 SWAP2 SSTORE POP SWAP2 SWAP5 SWAP4 POP POP POP POP JUMP JUMPDEST PUSH1 0x1 PUSH1 0x1 PUSH1 0xA0 SHL SUB DUP2 AND DUP2 EQ PUSH2 0x146E JUMPI PUSH1 0x0 DUP1 REVERT JUMPDEST PUSH1 0x0 PUSH1 0x20 DUP3 DUP5 SUB SLT ISZERO PUSH2 0x2A53 JUMPI PUSH1 0x0 DUP1 REVERT JUMPDEST DUP2 CALLDATALOAD PUSH2 0x114F DUP2 PUSH2 0x2A2C JUMP JUMPDEST PUSH1 0x0 PUSH1 0x20 DUP3 DUP5 SUB SLT ISZERO PUSH2 0x2A70 JUMPI PUSH1 0x0 DUP1 REVERT JUMPDEST POP CALLDATALOAD SWAP2 SWAP1 POP JUMP JUMPDEST PUSH1 0x0 JUMPDEST DUP4 DUP2 LT ISZERO PUSH2 0x2A92 JUMPI DUP2 DUP2 ADD MLOAD DUP4 DUP3 ADD MSTORE PUSH1 0x20 ADD PUSH2 0x2A7A JUMP JUMPDEST DUP4 DUP2 GT ISZERO PUSH2 0x20B8 JUMPI POP POP PUSH1 0x0 SWAP2 ADD MSTORE JUMP JUMPDEST PUSH1 0x0 DUP2 MLOAD DUP1 DUP5 MSTORE PUSH2 0x2ABB DUP2 PUSH1 0x20 DUP7 ADD PUSH1 0x20 DUP7 ADD PUSH2 0x2A77 JUMP JUMPDEST PUSH1 0x1F ADD PUSH1 0x1F NOT AND SWAP3 SWAP1 SWAP3 ADD PUSH1 0x20 ADD SWAP3 SWAP2 POP POP JUMP JUMPDEST PUSH1 0x20 DUP2 MSTORE PUSH1 0x0 PUSH2 0x114F PUSH1 0x20 DUP4 ADD DUP5 PUSH2 0x2AA3 JUMP JUMPDEST PUSH1 0x0 DUP1 PUSH1 0x40 DUP4 DUP6 SUB SLT ISZERO PUSH2 0x2AF5 JUMPI PUSH1 0x0 DUP1 REVERT JUMPDEST DUP3 CALLDATALOAD PUSH2 0x2B00 DUP2 PUSH2 0x2A2C JUMP JUMPDEST SWAP5 PUSH1 0x20 SWAP4 SWAP1 SWAP4 ADD CALLDATALOAD SWAP4 POP POP POP JUMP JUMPDEST PUSH1 0x0 PUSH1 0x20 DUP3 DUP5 SUB SLT ISZERO PUSH2 0x2B20 JUMPI PUSH1 0x0 DUP1 REVERT JUMPDEST DUP2 CALLDATALOAD PUSH1 0x1 PUSH1 0x1 PUSH1 0x40 SHL SUB DUP2 AND DUP2 EQ PUSH2 0x114F JUMPI PUSH1 0x0 DUP1 REVERT JUMPDEST PUSH1 0x0 DUP1 PUSH1 0x0 PUSH1 0x60 DUP5 DUP7 SUB SLT ISZERO PUSH2 0x2B4C JUMPI PUSH1 0x0 DUP1 REVERT JUMPDEST DUP4 CALLDATALOAD PUSH2 0x2B57 DUP2 PUSH2 0x2A2C JUMP JUMPDEST SWAP3 POP PUSH1 0x20 DUP5 ADD CALLDATALOAD PUSH2 0x2B67 DUP2 PUSH2 0x2A2C JUMP JUMPDEST SWAP3 SWAP6 SWAP3 SWAP5 POP POP POP PUSH1 0x40 SWAP2 SWAP1 SWAP2 ADD CALLDATALOAD SWAP1 JUMP JUMPDEST DUP1 ISZERO ISZERO DUP2 EQ PUSH2 0x146E JUMPI PUSH1 0x0 DUP1 REVERT JUMPDEST PUSH1 0x0 PUSH1 0x20 DUP3 DUP5 SUB SLT ISZERO PUSH2 0x2B98 JUMPI PUSH1 0x0 DUP1 REVERT JUMPDEST DUP2 CALLDATALOAD PUSH2 0x114F DUP2 PUSH2 0x2B78 JUMP JUMPDEST PUSH1 0x0 DUP1 PUSH1 0x40 DUP4 DUP6 SUB SLT ISZERO PUSH2 0x2BB6 JUMPI PUSH1 0x0 DUP1 REVERT JUMPDEST POP POP DUP1 CALLDATALOAD SWAP3 PUSH1 0x20 SWAP1 SWAP2 ADD CALLDATALOAD SWAP2 POP JUMP JUMPDEST PUSH1 0x0 DUP1 PUSH1 0x40 DUP4 DUP6 SUB SLT ISZERO PUSH2 0x2BD8 JUMPI PUSH1 0x0 DUP1 REVERT JUMPDEST DUP3 CALLDATALOAD PUSH2 0x2BE3 DUP2 PUSH2 0x2A2C JUMP JUMPDEST SWAP2 POP PUSH1 0x20 DUP4 ADD CALLDATALOAD PUSH2 0x2BF3 DUP2 PUSH2 0x2A2C JUMP JUMPDEST DUP1 SWAP2 POP POP SWAP3 POP SWAP3 SWAP1 POP JUMP JUMPDEST PUSH1 0x0 PUSH1 0x20 DUP3 DUP5 SUB SLT ISZERO PUSH2 0x2C10 JUMPI PUSH1 0x0 DUP1 REVERT JUMPDEST DUP2 CALLDATALOAD PUSH4 0xFFFFFFFF DUP2 AND DUP2 EQ PUSH2 0x114F JUMPI PUSH1 0x0 DUP1 REVERT JUMPDEST PUSH4 0x4E487B71 PUSH1 0xE0 SHL PUSH1 0x0 MSTORE PUSH1 0x11 PUSH1 0x4 MSTORE PUSH1 0x24 PUSH1 0x0 REVERT JUMPDEST PUSH1 0x0 DUP2 PUSH1 0x0 NOT DIV DUP4 GT DUP3 ISZERO ISZERO AND ISZERO PUSH2 0x2C54 JUMPI PUSH2 0x2C54 PUSH2 0x2C24 JUMP JUMPDEST POP MUL SWAP1 JUMP JUMPDEST PUSH4 0x4E487B71 PUSH1 0xE0 SHL PUSH1 0x0 MSTORE PUSH1 0x12 PUSH1 0x4 MSTORE PUSH1 0x24 PUSH1 0x0 REVERT JUMPDEST PUSH1 0x0 DUP3 PUSH2 0x2C7E JUMPI PUSH2 0x2C7E PUSH2 0x2C59 JUMP JUMPDEST POP DIV SWAP1 JUMP JUMPDEST PUSH1 0x0 DUP3 DUP3 LT ISZERO PUSH2 0x2C95 JUMPI PUSH2 0x2C95 PUSH2 0x2C24 JUMP JUMPDEST POP SUB SWAP1 JUMP JUMPDEST PUSH1 0x0 DUP3 NOT DUP3 GT ISZERO PUSH2 0x2CAD JUMPI PUSH2 0x2CAD PUSH2 0x2C24 JUMP JUMPDEST POP ADD SWAP1 JUMP JUMPDEST PUSH4 0x4E487B71 PUSH1 0xE0 SHL PUSH1 0x0 MSTORE PUSH1 0x41 PUSH1 0x4 MSTORE PUSH1 0x24 PUSH1 0x0 REVERT JUMPDEST PUSH1 0x0 PUSH1 0x20 DUP3 DUP5 SUB SLT ISZERO PUSH2 0x2CDA JUMPI PUSH1 0x0 DUP1 REVERT JUMPDEST DUP2 MLOAD PUSH2 0x114F DUP2 PUSH2 0x2A2C JUMP JUMPDEST PUSH4 0x4E487B71 PUSH1 0xE0 SHL PUSH1 0x0 MSTORE PUSH1 0x32 PUSH1 0x4 MSTORE PUSH1 0x24 PUSH1 0x0 REVERT JUMPDEST PUSH1 0x0 DUP2 MLOAD DUP1 DUP5 MSTORE PUSH1 0x20 DUP1 DUP6 ADD SWAP5 POP DUP1 DUP5 ADD PUSH1 0x0 JUMPDEST DUP4 DUP2 LT ISZERO PUSH2 0x2D34 JUMPI DUP2 MLOAD PUSH1 0x1 PUSH1 0x1 PUSH1 0xA0 SHL SUB AND DUP8 MSTORE SWAP6 DUP3 ADD SWAP6 SWAP1 DUP3 ADD SWAP1 PUSH1 0x1 ADD PUSH2 0x2D0F JUMP JUMPDEST POP SWAP5 SWAP6 SWAP5 POP POP POP POP POP JUMP JUMPDEST DUP3 DUP2 MSTORE PUSH1 0x40 PUSH1 0x20 DUP3 ADD MSTORE PUSH1 0x0 PUSH2 0x298D PUSH1 0x40 DUP4 ADD DUP5 PUSH2 0x2CFB JUMP JUMPDEST PUSH1 0x0 PUSH1 0x20 DUP1 DUP4 DUP6 SUB SLT ISZERO PUSH2 0x2D6B JUMPI PUSH1 0x0 DUP1 REVERT JUMPDEST DUP3 MLOAD PUSH1 0x1 PUSH1 0x1 PUSH1 0x40 SHL SUB DUP1 DUP3 GT ISZERO PUSH2 0x2D82 JUMPI PUSH1 0x0 DUP1 REVERT JUMPDEST DUP2 DUP6 ADD SWAP2 POP DUP6 PUSH1 0x1F DUP4 ADD SLT PUSH2 0x2D96 JUMPI PUSH1 0x0 DUP1 REVERT JUMPDEST DUP2 MLOAD DUP2 DUP2 GT ISZERO PUSH2 0x2DA8 JUMPI PUSH2 0x2DA8 PUSH2 0x2CB2 JUMP JUMPDEST DUP1 PUSH1 0x5 SHL PUSH1 0x40 MLOAD PUSH1 0x1F NOT PUSH1 0x3F DUP4 ADD AND DUP2 ADD DUP2 DUP2 LT DUP6 DUP3 GT OR ISZERO PUSH2 0x2DCD JUMPI PUSH2 0x2DCD PUSH2 0x2CB2 JUMP JUMPDEST PUSH1 0x40 MSTORE SWAP2 DUP3 MSTORE DUP5 DUP3 ADD SWAP3 POP DUP4 DUP2 ADD DUP6 ADD SWAP2 DUP9 DUP4 GT ISZERO PUSH2 0x2DEB JUMPI PUSH1 0x0 DUP1 REVERT JUMPDEST SWAP4 DUP6 ADD SWAP4 JUMPDEST DUP3 DUP6 LT ISZERO PUSH2 0x2E09 JUMPI DUP5 MLOAD DUP5 MSTORE SWAP4 DUP6 ADD SWAP4 SWAP3 DUP6 ADD SWAP3 PUSH2 0x2DF0 JUMP JUMPDEST SWAP9 SWAP8 POP POP POP POP POP POP POP POP JUMP JUMPDEST PUSH1 0x0 DUP3 MLOAD PUSH2 0x2E27 DUP2 DUP5 PUSH1 0x20 DUP8 ADD PUSH2 0x2A77 JUMP JUMPDEST SWAP2 SWAP1 SWAP2 ADD SWAP3 SWAP2 POP POP JUMP JUMPDEST PUSH1 0x0 PUSH1 0x20 DUP3 DUP5 SUB SLT ISZERO PUSH2 0x2E43 JUMPI PUSH1 0x0 DUP1 REVERT JUMPDEST POP MLOAD SWAP2 SWAP1 POP JUMP JUMPDEST PUSH1 0x1 DUP2 DUP2 JUMPDEST DUP1 DUP6 GT ISZERO PUSH2 0x2E85 JUMPI DUP2 PUSH1 0x0 NOT DIV DUP3 GT ISZERO PUSH2 0x2E6B JUMPI PUSH2 0x2E6B PUSH2 0x2C24 JUMP JUMPDEST DUP1 DUP6 AND ISZERO PUSH2 0x2E78 JUMPI SWAP2 DUP2 MUL SWAP2 JUMPDEST SWAP4 DUP5 SHR SWAP4 SWAP1 DUP1 MUL SWAP1 PUSH2 0x2E4F JUMP JUMPDEST POP SWAP3 POP SWAP3 SWAP1 POP JUMP JUMPDEST PUSH1 0x0 DUP3 PUSH2 0x2E9C JUMPI POP PUSH1 0x1 PUSH2 0xDEA JUMP JUMPDEST DUP2 PUSH2 0x2EA9 JUMPI POP PUSH1 0x0 PUSH2 0xDEA JUMP JUMPDEST DUP2 PUSH1 0x1 DUP2 EQ PUSH2 0x2EBF JUMPI PUSH1 0x2 DUP2 EQ PUSH2 0x2EC9 JUMPI PUSH2 0x2EE5 JUMP JUMPDEST PUSH1 0x1 SWAP2 POP POP PUSH2 0xDEA JUMP JUMPDEST PUSH1 0xFF DUP5 GT ISZERO PUSH2 0x2EDA JUMPI PUSH2 0x2EDA PUSH2 0x2C24 JUMP JUMPDEST POP POP PUSH1 0x1 DUP3 SHL PUSH2 0xDEA JUMP JUMPDEST POP PUSH1 0x20 DUP4 LT PUSH2 0x133 DUP4 LT AND PUSH1 0x4E DUP5 LT PUSH1 0xB DUP5 LT AND OR ISZERO PUSH2 0x2F08 JUMPI POP DUP2 DUP2 EXP PUSH2 0xDEA JUMP JUMPDEST PUSH2 0x2F12 DUP4 DUP4 PUSH2 0x2E4A JUMP JUMPDEST DUP1 PUSH1 0x0 NOT DIV DUP3 GT ISZERO PUSH2 0x2F26 JUMPI PUSH2 0x2F26 PUSH2 0x2C24 JUMP JUMPDEST MUL SWAP4 SWAP3 POP POP POP JUMP JUMPDEST PUSH1 0x0 PUSH2 0x114F PUSH1 0xFF DUP5 AND DUP4 PUSH2 0x2E8D JUMP JUMPDEST PUSH1 0x0 PUSH1 0x1 PUSH1 0x1 PUSH1 0x40 SHL SUB DUP1 DUP4 AND DUP2 DUP2 EQ ISZERO PUSH2 0x2F5A JUMPI PUSH2 0x2F5A PUSH2 0x2C24 JUMP JUMPDEST PUSH1 0x1 ADD SWAP4 SWAP3 POP POP POP JUMP JUMPDEST PUSH1 0x0 PUSH4 0xFFFFFFFF DUP1 DUP4 AND DUP2 DUP2 EQ ISZERO PUSH2 0x2F5A JUMPI PUSH2 0x2F5A PUSH2 0x2C24 JUMP JUMPDEST DUP6 DUP2 MSTORE PUSH1 0xFF DUP6 AND PUSH1 0x20 DUP3 ADD MSTORE PUSH1 0xA0 PUSH1 0x40 DUP3 ADD MSTORE PUSH1 0x0 PUSH2 0x2FA0 PUSH1 0xA0 DUP4 ADD DUP7 PUSH2 0x2CFB JUMP JUMPDEST PUSH1 0x1 PUSH1 0x1 PUSH1 0xA0 SHL SUB SWAP5 SWAP1 SWAP5 AND PUSH1 0x60 DUP4 ADD MSTORE POP PUSH1 0x80 ADD MSTORE SWAP4 SWAP3 POP POP POP JUMP JUMPDEST DUP5 DUP2 MSTORE PUSH1 0x80 PUSH1 0x20 DUP3 ADD MSTORE PUSH1 0x0 PUSH2 0x2FD6 PUSH1 0x80 DUP4 ADD DUP7 PUSH2 0x2CFB JUMP JUMPDEST PUSH1 0x1 PUSH1 0x1 PUSH1 0xA0 SHL SUB SWAP5 SWAP1 SWAP5 AND PUSH1 0x40 DUP4 ADD MSTORE POP PUSH1 0x60 ADD MSTORE SWAP3 SWAP2 POP POP JUMP JUMPDEST PUSH1 0x1 DUP1 PUSH1 0xA0 SHL SUB DUP5 AND DUP2 MSTORE DUP3 PUSH1 0x20 DUP3 ADD MSTORE PUSH1 0x60 PUSH1 0x40 DUP3 ADD MSTORE PUSH1 0x0 PUSH2 0x3019 PUSH1 0x60 DUP4 ADD DUP5 PUSH2 0x2AA3 JUMP JUMPDEST SWAP6 SWAP5 POP POP POP POP POP JUMP JUMPDEST PUSH1 0x0 PUSH1 0x20 DUP3 DUP5 SUB SLT ISZERO PUSH2 0x3034 JUMPI PUSH1 0x0 DUP1 REVERT JUMPDEST DUP2 MLOAD PUSH2 0x114F DUP2 PUSH2 0x2B78 JUMP JUMPDEST PUSH1 0x0 DUP3 PUSH2 0x304E JUMPI PUSH2 0x304E PUSH2 0x2C59 JUMP JUMPDEST POP MOD SWAP1 JUMP JUMPDEST PUSH1 0x0 PUSH1 0x0 NOT DUP3 EQ ISZERO PUSH2 0x3067 JUMPI PUSH2 0x3067 PUSH2 0x2C24 JUMP JUMPDEST POP PUSH1 0x1 ADD SWAP1 JUMP INVALID LOG2 PUSH5 0x6970667358 0x22 SLT KECCAK256 0xE SELFBALANCE MSIZE SWAP12 0xE6 0xD5 0xBC SELFBALANCE GAS PUSH21 0x8307E83C8F433ED52749B5B2E27F320A23FB559507 0xB0 PUSH5 0x736F6C6343 STOP ADDMOD EXP STOP CALLER "
		},
		"gasEstimates": {
			"creation": {
				"codeDepositCost": "2490400",
				"executionCost": "infinite",
				"totalCost": "infinite"
			},
			"external": {
				"ChainlinkEnabled(bool)": "28876",
				"CurrentJackpot()": "2451",
				"EnterDraw(uint32)": "infinite",
				"ExcludefromTax(address)": "28959",
				"ForceEndRound(uint256)": "infinite",
				"GasPot()": "2428",
				"LINKContract()": "2450",
				"LINK_fee()": "2384",
				"LiquidityPot()": "2450",
				"MainWallet()": "2426",
				"MaxEntriessperTransaction()": "2444",
				"Minimum_Entries()": "2465",
				"NextRoundPot()": "2408",
				"NextRoundTicketPrice()": "2406",
				"PauseTrading()": "28777",
				"ReservesBNB()": "328",
				"ReservesToken()": "2495",
				"ResultsLog(uint256)": "11154",
				"RoundDuration()": "2386",
				"RoundEntries()": "2428",
				"RoundNr()": "2443",
				"SetMaxEntriesperTransaction(uint64)": "28902",
				"SetMinEntriesperRound(uint64)": "28901",
				"SetRoundDuration(uint256)": "26794",
				"SetTicketPrice(uint256)": "infinite",
				"StartTime()": "2449",
				"StartTrading()": "28786",
				"SwapThreshold()": "2429",
				"Tax()": "2428",
				"TaxTokenContract()": "2449",
				"TaxTokenDestination()": "2404",
				"TicketPrice()": "2385",
				"TotalPaidOutVal()": "2364",
				"UndoExcludefromTax(address)": "28973",
				"WorkHelperWallet()": "2493",
				"_ExcludedFromTax(address)": "2659",
				"addTokenstoJackpot(uint256)": "55433",
				"allowance(address,address)": "infinite",
				"approve(address,uint256)": "24630",
				"balanceOf(address)": "2686",
				"burnRate()": "2406",
				"decimals()": "338",
				"doWork()": "infinite",
				"getCountDown()": "infinite",
				"getLINKBalance()": "infinite",
				"getMyEntries()": "6780",
				"getMyWinningOdds10000()": "11293",
				"getSecondsRemaining()": "infinite",
				"getTokenprice(uint256)": "infinite",
				"initialSupply()": "2408",
				"isContract(address)": "3091",
				"isPaused()": "2461",
				"name()": "infinite",
				"percGastoSwap()": "2361",
				"randomOutput()": "2407",
				"rawFulfillRandomness(bytes32,uint256)": "infinite",
				"requestIdOutput()": "2384",
				"setBurnRate(uint256)": "26745",
				"setHelperContract(address)": "28962",
				"setLINKfee(uint256)": "26701",
				"setMainWallet(address)": "28961",
				"setPercGasToSwap(uint256)": "26701",
				"setTaxTokenContract(address)": "28938",
				"setTaxTokenDestination(address)": "28982",
				"setTokenTax(uint256)": "26703",
				"symbol()": "infinite",
				"totalSupply()": "2383",
				"transfer(address,uint256)": "infinite",
				"transferFrom(address,address,uint256)": "infinite",
				"usingChainLinkVRF()": "2377"
			},
			"internal": {
				"FinalizeRound()": "infinite",
				"_approveMore(address,address,uint256)": "infinite",
				"_swapBNBforChosenTokenandPayout(uint256,address,address)": "infinite",
				"_swapTokenForBNB(uint256)": "infinite",
				"_swapTokenForToken(address,uint256,address)": "infinite",
				"fulfillRandomness(bytes32,uint256)": "infinite",
				"getRandomNumber(uint256)": "infinite",
				"getRandomNumberLINK()": "infinite"
			}
		},
		"methodIdentifiers": {
			"ChainlinkEnabled(bool)": "52c655f3",
			"CurrentJackpot()": "51bd4f8d",
			"EnterDraw(uint32)": "f3430c76",
			"ExcludefromTax(address)": "00535169",
			"ForceEndRound(uint256)": "bfac3003",
			"GasPot()": "ead0ab27",
			"LINKContract()": "1598926e",
			"LINK_fee()": "bd16a09c",
			"LiquidityPot()": "d21d64f1",
			"MainWallet()": "cbf474a8",
			"MaxEntriessperTransaction()": "a9e8fd78",
			"Minimum_Entries()": "6e83cc1a",
			"NextRoundPot()": "8cd9e3a3",
			"NextRoundTicketPrice()": "e6c6e0f2",
			"PauseTrading()": "2854d65c",
			"ReservesBNB()": "a8e7f7c8",
			"ReservesToken()": "94071d9a",
			"ResultsLog(uint256)": "d1547639",
			"RoundDuration()": "1567d567",
			"RoundEntries()": "7ef267c0",
			"RoundNr()": "df75bc85",
			"SetMaxEntriesperTransaction(uint64)": "6b7b15d5",
			"SetMinEntriesperRound(uint64)": "176412c1",
			"SetRoundDuration(uint256)": "36f56ba0",
			"SetTicketPrice(uint256)": "c2e799ff",
			"StartTime()": "fc4a4a1e",
			"StartTrading()": "bf6a1c0d",
			"SwapThreshold()": "c5bd7653",
			"Tax()": "6ea405d3",
			"TaxTokenContract()": "5a273b79",
			"TaxTokenDestination()": "b4228db0",
			"TicketPrice()": "53321c88",
			"TotalPaidOutVal()": "362d04e7",
			"UndoExcludefromTax(address)": "4aded88a",
			"WorkHelperWallet()": "331a7049",
			"_ExcludedFromTax(address)": "4f2bfcbf",
			"addTokenstoJackpot(uint256)": "c0616601",
			"allowance(address,address)": "dd62ed3e",
			"approve(address,uint256)": "095ea7b3",
			"balanceOf(address)": "70a08231",
			"burnRate()": "bed99850",
			"decimals()": "313ce567",
			"doWork()": "2630dd3a",
			"getCountDown()": "392b9273",
			"getLINKBalance()": "ac428e7a",
			"getMyEntries()": "13191a6e",
			"getMyWinningOdds10000()": "686ac48a",
			"getSecondsRemaining()": "9ac9f2a0",
			"getTokenprice(uint256)": "241f50de",
			"initialSupply()": "378dc3dc",
			"isContract(address)": "16279055",
			"isPaused()": "b187bd26",
			"name()": "06fdde03",
			"percGastoSwap()": "f03fa824",
			"randomOutput()": "4e09d120",
			"rawFulfillRandomness(bytes32,uint256)": "94985ddd",
			"requestIdOutput()": "6b8fa66c",
			"setBurnRate(uint256)": "189d165e",
			"setHelperContract(address)": "c5639cc6",
			"setLINKfee(uint256)": "04dc1c4a",
			"setMainWallet(address)": "d0a5eb4e",
			"setPercGasToSwap(uint256)": "77150eee",
			"setTaxTokenContract(address)": "f25790e6",
			"setTaxTokenDestination(address)": "f7a6340d",
			"setTokenTax(uint256)": "3f180bf5",
			"symbol()": "95d89b41",
			"totalSupply()": "18160ddd",
			"transfer(address,uint256)": "a9059cbb",
			"transferFrom(address,address,uint256)": "23b872dd",
			"usingChainLinkVRF()": "c9f01b3c"
		}
	},
	"abi": [
		{
			"inputs": [],
			"stateMutability": "nonpayable",
			"type": "constructor"
		},
		{
			"anonymous": false,
			"inputs": [
				{
					"indexed": true,
					"internalType": "address",
					"name": "_owner",
					"type": "address"
				},
				{
					"indexed": true,
					"internalType": "address",
					"name": "_spender",
					"type": "address"
				},
				{
					"indexed": false,
					"internalType": "uint256",
					"name": "_value",
					"type": "uint256"
				}
			],
			"name": "Approval",
			"type": "event"
		},
		{
			"anonymous": false,
			"inputs": [
				{
					"indexed": false,
					"internalType": "address",
					"name": "winner",
					"type": "address"
				},
				{
					"indexed": false,
					"internalType": "uint256",
					"name": "amount",
					"type": "uint256"
				}
			],
			"name": "LotteryWon",
			"type": "event"
		},
		{
			"anonymous": false,
			"inputs": [
				{
					"indexed": true,
					"internalType": "address",
					"name": "_from",
					"type": "address"
				},
				{
					"indexed": true,
					"internalType": "address",
					"name": "_to",
					"type": "address"
				},
				{
					"indexed": false,
					"internalType": "uint256",
					"name": "_value",
					"type": "uint256"
				}
			],
			"name": "Transfer",
			"type": "event"
		},
		{
			"inputs": [
				{
					"internalType": "bool",
					"name": "isEnabled",
					"type": "bool"
				}
			],
			"name": "ChainlinkEnabled",
			"outputs": [],
			"stateMutability": "nonpayable",
			"type": "function"
		},
		{
			"inputs": [],
			"name": "CurrentJackpot",
			"outputs": [
				{
					"internalType": "uint256",
					"name": "",
					"type": "uint256"
				}
			],
			"stateMutability": "view",
			"type": "function"
		},
		{
			"inputs": [
				{
					"internalType": "uint32",
					"name": "NumberofTickets",
					"type": "uint32"
				}
			],
			"name": "EnterDraw",
			"outputs": [],
			"stateMutability": "nonpayable",
			"type": "function"
		},
		{
			"inputs": [
				{
					"internalType": "address",
					"name": "Addr",
					"type": "address"
				}
			],
			"name": "ExcludefromTax",
			"outputs": [],
			"stateMutability": "nonpayable",
			"type": "function"
		},
		{
			"inputs": [
				{
					"internalType": "uint256",
					"name": "key",
					"type": "uint256"
				}
			],
			"name": "ForceEndRound",
			"outputs": [],
			"stateMutability": "nonpayable",
			"type": "function"
		},
		{
			"inputs": [],
			"name": "GasPot",
			"outputs": [
				{
					"internalType": "uint256",
					"name": "",
					"type": "uint256"
				}
			],
			"stateMutability": "view",
			"type": "function"
		},
		{
			"inputs": [],
			"name": "LINKContract",
			"outputs": [
				{
					"internalType": "address",
					"name": "",
					"type": "address"
				}
			],
			"stateMutability": "view",
			"type": "function"
		},
		{
			"inputs": [],
			"name": "LINK_fee",
			"outputs": [
				{
					"internalType": "uint256",
					"name": "",
					"type": "uint256"
				}
			],
			"stateMutability": "view",
			"type": "function"
		},
		{
			"inputs": [],
			"name": "LiquidityPot",
			"outputs": [
				{
					"internalType": "uint256",
					"name": "",
					"type": "uint256"
				}
			],
			"stateMutability": "view",
			"type": "function"
		},
		{
			"inputs": [],
			"name": "MainWallet",
			"outputs": [
				{
					"internalType": "address",
					"name": "",
					"type": "address"
				}
			],
			"stateMutability": "view",
			"type": "function"
		},
		{
			"inputs": [],
			"name": "MaxEntriessperTransaction",
			"outputs": [
				{
					"internalType": "uint64",
					"name": "",
					"type": "uint64"
				}
			],
			"stateMutability": "view",
			"type": "function"
		},
		{
			"inputs": [],
			"name": "Minimum_Entries",
			"outputs": [
				{
					"internalType": "uint64",
					"name": "",
					"type": "uint64"
				}
			],
			"stateMutability": "view",
			"type": "function"
		},
		{
			"inputs": [],
			"name": "NextRoundPot",
			"outputs": [
				{
					"internalType": "uint256",
					"name": "",
					"type": "uint256"
				}
			],
			"stateMutability": "view",
			"type": "function"
		},
		{
			"inputs": [],
			"name": "NextRoundTicketPrice",
			"outputs": [
				{
					"internalType": "uint256",
					"name": "",
					"type": "uint256"
				}
			],
			"stateMutability": "view",
			"type": "function"
		},
		{
			"inputs": [],
			"name": "PauseTrading",
			"outputs": [],
			"stateMutability": "nonpayable",
			"type": "function"
		},
		{
			"inputs": [],
			"name": "ReservesBNB",
			"outputs": [
				{
					"internalType": "uint256",
					"name": "",
					"type": "uint256"
				}
			],
			"stateMutability": "view",
			"type": "function"
		},
		{
			"inputs": [],
			"name": "ReservesToken",
			"outputs": [
				{
					"internalType": "uint256",
					"name": "",
					"type": "uint256"
				}
			],
			"stateMutability": "view",
			"type": "function"
		},
		{
			"inputs": [
				{
					"internalType": "uint256",
					"name": "",
					"type": "uint256"
				}
			],
			"name": "ResultsLog",
			"outputs": [
				{
					"internalType": "uint256",
					"name": "WinningNumber",
					"type": "uint256"
				},
				{
					"internalType": "address",
					"name": "WinningAddress",
					"type": "address"
				},
				{
					"internalType": "uint256",
					"name": "payoutVal",
					"type": "uint256"
				},
				{
					"internalType": "uint256",
					"name": "EndTime",
					"type": "uint256"
				}
			],
			"stateMutability": "view",
			"type": "function"
		},
		{
			"inputs": [],
			"name": "RoundDuration",
			"outputs": [
				{
					"internalType": "uint256",
					"name": "",
					"type": "uint256"
				}
			],
			"stateMutability": "view",
			"type": "function"
		},
		{
			"inputs": [],
			"name": "RoundEntries",
			"outputs": [
				{
					"internalType": "uint64",
					"name": "",
					"type": "uint64"
				}
			],
			"stateMutability": "view",
			"type": "function"
		},
		{
			"inputs": [],
			"name": "RoundNr",
			"outputs": [
				{
					"internalType": "uint64",
					"name": "",
					"type": "uint64"
				}
			],
			"stateMutability": "view",
			"type": "function"
		},
		{
			"inputs": [
				{
					"internalType": "uint64",
					"name": "NewMaxEntriessperTransaction",
					"type": "uint64"
				}
			],
			"name": "SetMaxEntriesperTransaction",
			"outputs": [],
			"stateMutability": "nonpayable",
			"type": "function"
		},
		{
			"inputs": [
				{
					"internalType": "uint64",
					"name": "New_Minimum_Entries",
					"type": "uint64"
				}
			],
			"name": "SetMinEntriesperRound",
			"outputs": [],
			"stateMutability": "nonpayable",
			"type": "function"
		},
		{
			"inputs": [
				{
					"internalType": "uint256",
					"name": "Hours",
					"type": "uint256"
				}
			],
			"name": "SetRoundDuration",
			"outputs": [],
			"stateMutability": "nonpayable",
			"type": "function"
		},
		{
			"inputs": [
				{
					"internalType": "uint256",
					"name": "NewPrice",
					"type": "uint256"
				}
			],
			"name": "SetTicketPrice",
			"outputs": [],
			"stateMutability": "nonpayable",
			"type": "function"
		},
		{
			"inputs": [],
			"name": "StartTime",
			"outputs": [
				{
					"internalType": "uint256",
					"name": "",
					"type": "uint256"
				}
			],
			"stateMutability": "view",
			"type": "function"
		},
		{
			"inputs": [],
			"name": "StartTrading",
			"outputs": [],
			"stateMutability": "nonpayable",
			"type": "function"
		},
		{
			"inputs": [],
			"name": "SwapThreshold",
			"outputs": [
				{
					"internalType": "uint256",
					"name": "",
					"type": "uint256"
				}
			],
			"stateMutability": "view",
			"type": "function"
		},
		{
			"inputs": [],
			"name": "Tax",
			"outputs": [
				{
					"internalType": "uint256",
					"name": "",
					"type": "uint256"
				}
			],
			"stateMutability": "view",
			"type": "function"
		},
		{
			"inputs": [],
			"name": "TaxTokenContract",
			"outputs": [
				{
					"internalType": "address",
					"name": "",
					"type": "address"
				}
			],
			"stateMutability": "view",
			"type": "function"
		},
		{
			"inputs": [],
			"name": "TaxTokenDestination",
			"outputs": [
				{
					"internalType": "address",
					"name": "",
					"type": "address"
				}
			],
			"stateMutability": "view",
			"type": "function"
		},
		{
			"inputs": [],
			"name": "TicketPrice",
			"outputs": [
				{
					"internalType": "uint256",
					"name": "",
					"type": "uint256"
				}
			],
			"stateMutability": "view",
			"type": "function"
		},
		{
			"inputs": [],
			"name": "TotalPaidOutVal",
			"outputs": [
				{
					"internalType": "uint256",
					"name": "",
					"type": "uint256"
				}
			],
			"stateMutability": "view",
			"type": "function"
		},
		{
			"inputs": [
				{
					"internalType": "address",
					"name": "Addr",
					"type": "address"
				}
			],
			"name": "UndoExcludefromTax",
			"outputs": [],
			"stateMutability": "nonpayable",
			"type": "function"
		},
		{
			"inputs": [],
			"name": "WorkHelperWallet",
			"outputs": [
				{
					"internalType": "address",
					"name": "",
					"type": "address"
				}
			],
			"stateMutability": "view",
			"type": "function"
		},
		{
			"inputs": [
				{
					"internalType": "address",
					"name": "",
					"type": "address"
				}
			],
			"name": "_ExcludedFromTax",
			"outputs": [
				{
					"internalType": "bool",
					"name": "",
					"type": "bool"
				}
			],
			"stateMutability": "view",
			"type": "function"
		},
		{
			"inputs": [
				{
					"internalType": "uint256",
					"name": "tokens",
					"type": "uint256"
				}
			],
			"name": "addTokenstoJackpot",
			"outputs": [],
			"stateMutability": "nonpayable",
			"type": "function"
		},
		{
			"inputs": [
				{
					"internalType": "address",
					"name": "_owner",
					"type": "address"
				},
				{
					"internalType": "address",
					"name": "_spender",
					"type": "address"
				}
			],
			"name": "allowance",
			"outputs": [
				{
					"internalType": "uint256",
					"name": "remaining",
					"type": "uint256"
				}
			],
			"stateMutability": "view",
			"type": "function"
		},
		{
			"inputs": [
				{
					"internalType": "address",
					"name": "_spender",
					"type": "address"
				},
				{
					"internalType": "uint256",
					"name": "_value",
					"type": "uint256"
				}
			],
			"name": "approve",
			"outputs": [
				{
					"internalType": "bool",
					"name": "success",
					"type": "bool"
				}
			],
			"stateMutability": "nonpayable",
			"type": "function"
		},
		{
			"inputs": [
				{
					"internalType": "address",
					"name": "_addr",
					"type": "address"
				}
			],
			"name": "balanceOf",
			"outputs": [
				{
					"internalType": "uint256",
					"name": "balance",
					"type": "uint256"
				}
			],
			"stateMutability": "view",
			"type": "function"
		},
		{
			"inputs": [],
			"name": "burnRate",
			"outputs": [
				{
					"internalType": "uint256",
					"name": "",
					"type": "uint256"
				}
			],
			"stateMutability": "view",
			"type": "function"
		},
		{
			"inputs": [],
			"name": "decimals",
			"outputs": [
				{
					"internalType": "uint8",
					"name": "",
					"type": "uint8"
				}
			],
			"stateMutability": "view",
			"type": "function"
		},
		{
			"inputs": [],
			"name": "doWork",
			"outputs": [],
			"stateMutability": "nonpayable",
			"type": "function"
		},
		{
			"inputs": [],
			"name": "getCountDown",
			"outputs": [
				{
					"internalType": "uint256",
					"name": "Days",
					"type": "uint256"
				},
				{
					"internalType": "uint256",
					"name": "Hours",
					"type": "uint256"
				},
				{
					"internalType": "uint256",
					"name": "Minutes",
					"type": "uint256"
				},
				{
					"internalType": "uint256",
					"name": "Seconds",
					"type": "uint256"
				}
			],
			"stateMutability": "view",
			"type": "function"
		},
		{
			"inputs": [],
			"name": "getLINKBalance",
			"outputs": [
				{
					"internalType": "uint256",
					"name": "",
					"type": "uint256"
				}
			],
			"stateMutability": "view",
			"type": "function"
		},
		{
			"inputs": [],
			"name": "getMyEntries",
			"outputs": [
				{
					"internalType": "uint256",
					"name": "",
					"type": "uint256"
				}
			],
			"stateMutability": "view",
			"type": "function"
		},
		{
			"inputs": [],
			"name": "getMyWinningOdds10000",
			"outputs": [
				{
					"internalType": "uint256",
					"name": "",
					"type": "uint256"
				}
			],
			"stateMutability": "view",
			"type": "function"
		},
		{
			"inputs": [],
			"name": "getSecondsRemaining",
			"outputs": [
				{
					"internalType": "uint256",
					"name": "Seconds",
					"type": "uint256"
				}
			],
			"stateMutability": "view",
			"type": "function"
		},
		{
			"inputs": [
				{
					"internalType": "uint256",
					"name": "amountBNB",
					"type": "uint256"
				}
			],
			"name": "getTokenprice",
			"outputs": [
				{
					"internalType": "uint256",
					"name": "",
					"type": "uint256"
				}
			],
			"stateMutability": "view",
			"type": "function"
		},
		{
			"inputs": [],
			"name": "initialSupply",
			"outputs": [
				{
					"internalType": "uint256",
					"name": "",
					"type": "uint256"
				}
			],
			"stateMutability": "view",
			"type": "function"
		},
		{
			"inputs": [
				{
					"internalType": "address",
					"name": "_addr",
					"type": "address"
				}
			],
			"name": "isContract",
			"outputs": [
				{
					"internalType": "bool",
					"name": "",
					"type": "bool"
				}
			],
			"stateMutability": "view",
			"type": "function"
		},
		{
			"inputs": [],
			"name": "isPaused",
			"outputs": [
				{
					"internalType": "bool",
					"name": "",
					"type": "bool"
				}
			],
			"stateMutability": "view",
			"type": "function"
		},
		{
			"inputs": [],
			"name": "name",
			"outputs": [
				{
					"internalType": "string",
					"name": "",
					"type": "string"
				}
			],
			"stateMutability": "view",
			"type": "function"
		},
		{
			"inputs": [],
			"name": "percGastoSwap",
			"outputs": [
				{
					"internalType": "uint256",
					"name": "",
					"type": "uint256"
				}
			],
			"stateMutability": "view",
			"type": "function"
		},
		{
			"inputs": [],
			"name": "randomOutput",
			"outputs": [
				{
					"internalType": "uint256",
					"name": "",
					"type": "uint256"
				}
			],
			"stateMutability": "view",
			"type": "function"
		},
		{
			"inputs": [
				{
					"internalType": "bytes32",
					"name": "requestId",
					"type": "bytes32"
				},
				{
					"internalType": "uint256",
					"name": "randomness",
					"type": "uint256"
				}
			],
			"name": "rawFulfillRandomness",
			"outputs": [],
			"stateMutability": "nonpayable",
			"type": "function"
		},
		{
			"inputs": [],
			"name": "requestIdOutput",
			"outputs": [
				{
					"internalType": "bytes32",
					"name": "",
					"type": "bytes32"
				}
			],
			"stateMutability": "view",
			"type": "function"
		},
		{
			"inputs": [
				{
					"internalType": "uint256",
					"name": "newBurnRate",
					"type": "uint256"
				}
			],
			"name": "setBurnRate",
			"outputs": [],
			"stateMutability": "nonpayable",
			"type": "function"
		},
		{
			"inputs": [
				{
					"internalType": "address",
					"name": "Wallet",
					"type": "address"
				}
			],
			"name": "setHelperContract",
			"outputs": [],
			"stateMutability": "nonpayable",
			"type": "function"
		},
		{
			"inputs": [
				{
					"internalType": "uint256",
					"name": "fee",
					"type": "uint256"
				}
			],
			"name": "setLINKfee",
			"outputs": [],
			"stateMutability": "nonpayable",
			"type": "function"
		},
		{
			"inputs": [
				{
					"internalType": "address",
					"name": "Wallet",
					"type": "address"
				}
			],
			"name": "setMainWallet",
			"outputs": [],
			"stateMutability": "nonpayable",
			"type": "function"
		},
		{
			"inputs": [
				{
					"internalType": "uint256",
					"name": "perctoswap",
					"type": "uint256"
				}
			],
			"name": "setPercGasToSwap",
			"outputs": [],
			"stateMutability": "nonpayable",
			"type": "function"
		},
		{
			"inputs": [
				{
					"internalType": "address",
					"name": "Contract",
					"type": "address"
				}
			],
			"name": "setTaxTokenContract",
			"outputs": [],
			"stateMutability": "nonpayable",
			"type": "function"
		},
		{
			"inputs": [
				{
					"internalType": "address",
					"name": "Contract",
					"type": "address"
				}
			],
			"name": "setTaxTokenDestination",
			"outputs": [],
			"stateMutability": "nonpayable",
			"type": "function"
		},
		{
			"inputs": [
				{
					"internalType": "uint256",
					"name": "TransferTax",
					"type": "uint256"
				}
			],
			"name": "setTokenTax",
			"outputs": [],
			"stateMutability": "nonpayable",
			"type": "function"
		},
		{
			"inputs": [],
			"name": "symbol",
			"outputs": [
				{
					"internalType": "string",
					"name": "",
					"type": "string"
				}
			],
			"stateMutability": "view",
			"type": "function"
		},
		{
			"inputs": [],
			"name": "totalSupply",
			"outputs": [
				{
					"internalType": "uint256",
					"name": "_totalSupply",
					"type": "uint256"
				}
			],
			"stateMutability": "view",
			"type": "function"
		},
		{
			"inputs": [
				{
					"internalType": "address",
					"name": "_to",
					"type": "address"
				},
				{
					"internalType": "uint256",
					"name": "_value",
					"type": "uint256"
				}
			],
			"name": "transfer",
			"outputs": [
				{
					"internalType": "bool",
					"name": "success",
					"type": "bool"
				}
			],
			"stateMutability": "nonpayable",
			"type": "function"
		},
		{
			"inputs": [
				{
					"internalType": "address",
					"name": "_from",
					"type": "address"
				},
				{
					"internalType": "address",
					"name": "_to",
					"type": "address"
				},
				{
					"internalType": "uint256",
					"name": "_value",
					"type": "uint256"
				}
			],
			"name": "transferFrom",
			"outputs": [
				{
					"internalType": "bool",
					"name": "success",
					"type": "bool"
				}
			],
			"stateMutability": "nonpayable",
			"type": "function"
		},
		{
			"inputs": [],
			"name": "usingChainLinkVRF",
			"outputs": [
				{
					"internalType": "bool",
					"name": "",
					"type": "bool"
				}
			],
			"stateMutability": "view",
			"type": "function"
		},
		{
			"stateMutability": "payable",
			"type": "receive"
		}
	]
}